:20000000004B0020B5FE0000FDC90110FDC90110FDC90110FDC90110FDC90110FDC90110B8
:1C002000FDC90110FDC90110FDC90110FDC90110FDC90110FDC901103BCA0110A4
:20003C00BD0400214D040021810400218504002121050021A10500215106002179060021DA
:20005C00F8B51047F8B50E4600210125AD0430470A48037800F00FF89B070BD0124C2078D9
:20007C00FF2807D0FF2121700E490F24240220436031C882F8BDF8B5014800476B02002147
:20009C00E54C0000094801E00848000C064C05492278FF2A01D1CA7A22706031C8827046E9
:2000BC00801C004700620840C8060021070F0808F0B4084710B501480047000089090000A8
:2000DC0070B503461546012906D0002906D0114A2846FFF7B5FF70BD0F4800E00F480524E5
:2000FC00834203D84008641E002CF9DCE340012040031818820B012907D006490023803111
:20011C002846FFF79FFFE0B270BD0249044B6C31F6E70000835C0000A0BC862300830D2357
:20013C0098060021F8B51A4E0546716B1948CC09E401002D11D01849097802290FD0007B18
:20015C00044372B60120154F4002B847114820380088C109C90704D016E0C07AF0E7407BE5
:20017C00EEE70F497463CC61400AC0070CD001208003316B002D01D0014300E081430846D1
:20019C0031630749403948630020B84762B6F8BD80020021880000219B0200217B3F00008B
:2001BC004040044010B5224A0021516121498968C90009D42149204BCA0598424B6B01D84D
:2001DC00134300E093434B631D49FFF771FF10BD38B51A4D287F002827D11A480088C009E2
:2001FC00C00722D1124C606900281ED1684600F04FF868460078012817D168464078102831
:20021C0013D208206061686A4009400120600E4A0021D1620D4A0221116001210843206094
:20023C00032108436862206038BD0948804738BD00400440180000210000930880020021EC
:20025C00CF680000680000210011044080E200E0C33B00000749002800D00420064A72B649
:20027C000978C90701D0105800E0802062B640B2704700006B0200215860044010B5034CF9
:20029C00FFF718FF20680028FAD110BD0011044003B40148019001BDA56F00000000000035
:2002BC00010003000A001F005900EB003902EA04F9099712EB1FA132784A0A66FA828C9E28
:2002DC0063B617C964D6EDDEC1E3E0E5FF000000A36100007F1407134D00F1242E1F133FEA
:2002FC00B00A3F0007FF0000304000400140034007400F404F40CF40CF41CF43CF47CF4F25
:20031C00CF3FCF2FCF1FCF0F000000000F00080000003F00000040003F00000004006800A8
:20033C000E00DC00060043001A00050000000000020000003F00000000000400C00000004A
:20035C000400C0000000070050C00091007070C00091007082312100319110B1007001812B
:20037C0001B100A18231329110B101911110418141224F40F106007051C0019130181039D5
:20039C00833108D01831416F3100319110B1831414165B680070251050C00091F4C3C0C007
:2003BC002014036F3110410422C082312100319110B163393110410482C0823121003191C2
:2003DC0010B163393110A2C082312100319110B1501015310514059200703F6452C03110EE
:2003FC0031066131C102426412C13110213971065131E102426400708A65996588C0208278
:20041C0050398039001E9F4041C001301814181A89C0308260398039001EA94041C001306B
:20043C001914191A3C64369110B1349110B154B0007154A064B0F0800022AF404012B09002
:20045C0032B053825339533985643F6411C122C1426470C1C26811C1C2C0426470C1C76815
:20047C0050C00091277298921516141642105310F0C12182313131398139313151B070B293
:20049C0072652772999270B262107310F0C331822131213981391B107265E2C08231608289
:2004BC0080318039020061B00071329110B151A061B0277230C2F36800008012B09032B012
:2004DC00007050C000912772999262107310F0C3318221312139813951B070B27E652772CB
:2004FC00989270B242105310F0C1218231313139813931311A107E6551A061B02772B0C08B
:20051C0018693F6401C122C1426401C1C2C04264151A3C64359110B153828564C012B09040
:20053C0032B000703F6472C281C0426422C111C1426402C011C1426462C031C3426462C319
:20055C0011C1426402C311C14264538253398564E2C347641122404142C281C8426452C275
:20057C0011C1426472C2E1CE426402C281C8426402C201C84264B0C0546900703F6442C234
:20059C0001C8426452C211C0426472C2E1C0426402C001C1426462C001C3426422C101C16F
:2005BC00426462C301C1426402C301C1426453828564007061B000711214231C7A4D33911F
:2005DC0010B10070329110B17269007061B000711318321C8649329110B10070339110B1BC
:2005FC007E690070C2C047641510C2C01216476441311514C0C0803105145410A078040478
:20061C000070E6C0863101CC161467106182F0C3010417140070067305720B720E7250B060
:20063C000071818060B050A092804122C3458080F1C11004301601110114016CD661D761A0
:20065C00D861D961DA61DB61DC61DE61E061E261E461366339639180F2C0210421318280DE
:20067C00422A1214321601112114016CEE610B62F4613963EE610B62F4613963E661E661E8
:20069C00E661E661E661E6619464E661F964E6612A65E6615665E6614667E6611012B09011
:2006BC000E720673057210123090A761F0CF3C67D4C103C0C0C354644078509150781092CC
:2006DC00607820927078309280784092907860923078909110824039F006011010311014C6
:2006FC0000924267E661BCA0E2A054A0F08050221546408000222B470D6240A02D828D313D
:20071C008D391082F1C0100409101A824A391A041082803910040E10AB10BC10C2106364AD
:20073C002972E0CF3C6713B003B0C86653B050B054B064B013B0A5661082E0223846AE66FD
:20075C000071418001222B47F08010224B46F022184764B03122384263B0CE661082E02256
:20077C0038467066386264B06F818F318F3DD0DFFF923C670071418001222B4764B0F080B1
:20079C005022654263B01182C1226046CE6605671182D12252467066526261817281813126
:2007BC00813D8231823DC0EFF19202933C670B62B081C091D381978290A2D3187F4EF30B3F
:2007DC001316E31CA44AC391E3813B149062BA1C8B46231E8B4AE31C8B4E90B207228B4221
:2007FC0090A21B1A9662E31CA44AC391E3813B18AB1CA04E9B1CA24ABC1CA442B21010821C
:20081C00D0229D42F0801022A4466364A566A462AB1094629B10946200703082F1C010044E
:20083C0063B00071A86ABC10E0B00070B281C291D281018212185181121841828131813D85
:20085C00121CBF4AE2B032B0B0DFF2923C67F1C72114C34E12C86291729131B0E1B000706B
:20087C0008C006C000C86091709100700182B081C091D0811018518110180614E1804282ED
:20089C008231823D201CE44AE2B02122E84632B00510A0DFF5923C672122E842E2A032B0EC
:2008BC0031824139F0C00104011EF642181610C01030081C04476010103C0610F1C7611437
:2008DC00FA4E16C8669171818131813D161C014B769131B006C008C0007061818131813DC7
:2008FC00408280390118F11C174B0114B080C0221747BCB033B090EFF1920F933C6700704E
:20091C0003A063B064B0EFB056650071408000222B4764B02A65EFA00071408000222B47DB
:20093C0064B003B03862018262818231823D80EFF19202933C6703A05665E661A2806364AA
:20095C00E66150B00071E661E092D08200223D47C0B20070A080F022594330B002C162312C
:20097C0001C0A080001E5243F0225343A0F56031603953632010101A136F236E11161216EE
:20099C00546B0070A15C0000218E000000000000000000000000000011930000B92F0100D3
:2009BC0031DD0000E92901002930010023300100252A010000000000A92F01002DE1000015
:2009DC00FDEB00002523010005940000A12B01004DB60000C163000099190100DD020100AA
:2009FC0000000000D9F10000B12F0100F6C0080000004100000001C3100000024210000009
:200A1C0003C414000004C518000005C618000006C71C000007C920000008CB24000009CD75
:200A3C002C00000AD33800000BDA5000000C18B800000D3FA600000E3FA700007FFFFF3FA6
:200A5C0000F6C004000000C312000001C416000002C518000003C61C0000044418000005E7
:200A7C00C820000006C924000007CB2A000008CE32000009D24000000AD85800000BE590A6
:200A9C0000000C2BBC00000E3FAB00007FFFFF3F0007C00000000EC100000012C200000029
:200ABC0014C300000016C400000017C500000018C600000019C90000001ACE0000007FFF67
:200ADC00FF3F00053FF40000212E010069A40000912F0100813001005DCE0000D11801009F
:200AFC00FF2F01000B3001000530010005000000DD30010000000000A1D40000080A00009F
:080B1C005D0A0000AD0A0000B3
:200B280000E500000F1FF00034002F58243701D20A669200B8084F4E60001EA000FFDC0069
:200B48007C01BC022C05F31C0A102F5B06CFAF04949C0600F5C83EC0073F0032000F01D796
:200B680038C40D00F28140001400B3050101F900F1952B01F3227E01F30200C50D00903815
:200B88006095404300C802F0F901F000F111FA00F30230DFCE021D02010008FF0B0000A08F
:200BA800090000E0FA47B01800B0FC1A0020DF4648700884513F58068FBE13F59501F56FAF
:200BC8000DFF752A010085E800005BD530A6BFF8010108FFE780D1B0ED0300FA9803FFE5DD
:200BE8000538005F00A4130020FFE1830150FB19AD02F0020304401F2A01B36C01B4820129
:200C0800BC03037005F7EB0810FFE084FFE14E9055FAFFE20701FA21030F0080FF0023076C
:200C280098E008003F7DA7FFE19303008005FFE0ED04047A886A03F5F401107D58C45004A4
:200C480000C42264FFEF3EFB85D810F02E0100F52DF70100C5233F51798500007B31502DD6
:200C6800FF0800007017FFE539FF0003FFEF0FDCACFF02B00357E6FFE50806051DFFEF3017
:200C8800B007003F2083F90100D70030FFEF06FBE5F7DE7F500718000038FF403700A38446
:200CA800060020FF40007F6440400003FF0507B12305330583FF05480A0306B87A02FF0030
:200CC8009F84020044C703FF0401026384100043FF02B0045D40014000FF02001802000FDC
:200CE8007D83FF8803008460F13588FF601C108C601308A3BB880101A0F80C43EBB0635819
:200D0800EBF017F1067F44FB00063930FFE879FE1EEF10FFEF23481700200031FA54B9046E
:200D2800FFE5020000B8258E3F7307C2013BF129BF05FFEF000D2F2005800E0030FE5DBF9E
:200D480031FFE1E9C5411232702B5F1600601AE300200175027D017D060880B3800700304F
:200D680008FF22401166FD019F0080180020003101BF029C3001B00031374AFFE4A42B540E
:200D880073FFEF06E61E6F2607081AC0FFEF1138190055200031400034480034500034D523
:200DA800580034600034680034A5C820FFE759310C4D02F1FFE19805F0003155A00034A8B7
:200DC8000034B00034B8003419C0003478DF129C0114F000307EB1C67E694F097FD350AF3B
:200DE800116EB0C080791E003028FF1E4D210100708197FF0014FFE2CC6C50736180C51BC9
:200E080070F3B854B07468FFEA0205E50203B003456089D1E803FE6A30C1C033DF04FF8C9E
:200E280090911506B3EC35FF025B2107BB00338016004B2018003004083000310C003455DD
:200E48001400341C00342400342C0034553400343C00344400344C00346954003466327F0D
:200E680042BF040000FFF0007D000000781B00206C00305970007000F1004B00700500922E
:200E88007F2001010000A8290174000044FFF000F30100000700B998190020EC01A80252C2
:200EA800741B0133340100052000313C0034FFF0009D0000016CDC02007200C088EF1800D4
:200EC800200300C4D514011F0059290100FFF000FD000004E01700206819470020010100A6
:200EE80000310029EC0170000031FFF0007B0100000F0038190020016100FFF081E4000061
:200F0800E72D0100C92E0100003D000000E0170020FFF00000000000020000006410000003
:200F2800000F08000000FFF00001000000FFF00001000004FFF00001000004FFF0000000CB
:200F4800280B0000080200206F0E000044010020970E000000010020B80E0000A4010020F9
:200F6800D70E000078010020F40E0000C8010020100F0000E4010020200F0000801B0020F2
:200F8800280F000000020020300F0000EC010020370F0000F00100203E0F0000F8010020E7
:201000003C000000000000000000000034100000000000000000000001000000000000004F
:1C10200000000000000000000000000001000000000000000800000000000000AB
:20103C003400000000000000000000006810000000000000000000000100000000000000E7
:14105C00010000000000000000000000080000000000000077
:2010700030000000000000000000000098100000040000000000000001000000FFFFFFFF87
:10109000FF00000001000000080000000000000048
:2010A0002C0000000000000000000000C4100000040000000000000001000000FFFFFFFF2F
:0C10C000FFFFFFFF080000000000000020
:2010CC0038140000E410000095A1011091A70110A1C2011009B2011041B80110A5BC011078
:0810EC0085BC01102E0000007C
:2010F400280000000000000000000000141100000000000000000000FFFFFFFF0000000093
:081114000800000000000000CB
:20111C00341400003011000065C2011069C101101BC2011091BA011005BC0110E5BB0110EA
:04113C00300000007F
:20114000341400005411000071C20110A5B6011099BF011045B60110B5BA011025BC01104B
:04116000310000005A
:201164002400000000000000000000008011000000000000000000000000000008000000AE
:041184000000000067
:20118800240000000000000000000000A41100000000000000000000000000000800000066
:0411A8000000000043
:2011AC00240000000000000000000000C8110000000000000100000000000000080000001D
:0411CC00000000001F
:2011D00000000000041B0020040000000000000000000000200000007010000030000000EC
:2011F0001C1100000C1B00200400000000000000000000000C000000301300001800000000
:2012100040110000141B002004000000000000000000000024000000481300001800000083
:20123000000000001C1B002004000000000000000000000010000000A01000002C00000057
:20125000CC100000241B002004000000000000000000000020000000641100002400000086
:20127000FFFFFFFF2C1B002004000000000000000000000028000000881100002400000012
:20129000FFFFFFFF341B0020040000000000000000000000580000003C10000034000000F7
:2012B000FFFFFFFF3C1B00200400000000000000000000001000000060130000180000000C
:2012D000FFFFFFFF441B00200400000000000000000000001C000000AC1100002400000082
:2012F000FFFFFFFF4C1B002004000000000000000000000038000000F410000028000000F3
:20131000FFFFFFFF541B002004000000000000000000000054000000001000003C0000008E
:1813300018000000000000000000000040130000080000000000000032
:1813480018000000000000000000000058130000080000000000000002
:18136000180000000000000000000000701300000800000000000000D2
:0813780002000000CC3A010064
:041384000100000064
:0413880000000E0053
:04138C0000000F004E
:041390003200000027
:041394000100000054
:04139800601A0020B7
:04139C00000200004B
:0413A0001130010007
:0413A400FDC901106E
:0413A8000000000041
:0413AC00000000003D
:0413B0000800000031
:0413B4000000220013
:0413B8006C1800208D
:0413BC00010000002C
:0413C000781A002077
:0413C400080000001D
:0413C8000000000021
:0413CC00000000001D
:0413D0000000000019
:0413D400080000000D
:0413D8000000000011
:0413DC00000000000D
:0413E0000100000008
:0413E4006819002064
:0413E80006000000FB
:0413EC0001000000FC
:0413F000481700207A
:0413F40000000000F5
:0413F80000000000F1
:0413FC0000020000EB
:0414000000000000E8
:021406002900BB
:021408000100E1
:02140A002500BB
:02140C003000AE
:02140E003100AB
:021410002E00AC
:021412000100D7
:0114140001D6
:0814180003000000943A0100FA
:081420000000000000000000C4
:0414280000000100BF
:04142C0000000300B9
:0414300083C4011060
:041434003C14000064
:041438003C14000060
:04143C0000000000AC
:041440009000000018
:041444009000000014
:0414480000000000A0
:04144C00781A0020EA
:04145000FB2B010071
:041454002000000074
:04145800643A0100F1
:04145C00E039010072
:0414600009C30110AB
:041464008F150100DF
:04146800432201001A
:04146C0095C801100E
:0414700097C8011008
:041474000000000074
:04147800633A0100D2
:04147C00B43801007F
:04148000CC38010063
:041484009C3801008F
:0214880008005A
:02148A00090057
:02148C0001005D
:02148E0000005C
:01149000015A
:041494000000000054
:041498000000000050
:04149C00000000004C
:0414A0000000000048
:0414A400E130010032
:0414A800610C0100D2
:0414AC00E11D01003D
:0414B00045100100E2
:0414B4001111010011
:0414B8005D040100CE
:0414BC00B5CC0000AB
:0414C000112E0100E8
:0414C400CDF0000067
:0414C8000DC801103A
:0414CC001DC8011026
:0414D0000800000010
:0414D40024000000F0
:0414D80018000000F8
:0414DC0028000000E4
:0414E00020000000E8
:0414E4003C000000C8
:0414E8000C000000F4
:0414EC0034000000C8
:2014F000CC482DE9F04F0C4601210170DFF82C93DFF82C83DFF82CA3DFF82CB3C6494FF0C8
:20151000000C2027ADF1340D65461F4081F800C0CA490B9391F8F462C9490A9205EA020017
:201530000C9108BF00287AD10A984FF0E047194662460F4002EA000008BF002843D10B9ECE
:201550000A9B4FF48601B9F8AA00DFF81CC3CDF8189012EA060701EA030108BF002919D1BC
:20157000C04912EA060701EA030108BF00296FD0374643460A9E1C8103F138015881002FAB
:2015900081E8C00004BF311CB1F1806F60D102285ED111E0374643460A9E1C8103F138017E
:2015B0005881002F81E8C00004BF311CB1F5803F4ED1B0F5505F4BD1186A6746436938686B
:2015D0002146984742E04646C749B6F9087091F90000BC42A0F10100087017D1728906F164
:2015F000380003C8002904BFB0F5803FB2F5505F08D0002904BFB0F1806F022A02D00DF0E3
:20161000B5FB03E00EF0E8F911F0E2F80C9890F90020521E02706FF00101318114E04346AE
:201630006FF0010003F1080108806EB151460878832802D08120594608704646316919B15A
:20165000604688472146E8E7CDF81890B9F8AA000A9A0B9E02212F461140374008BF00296A
:2016700000F0138343F20141814200F0E382C91C814200F0DF829C490A4691F900104746F0
:20169000491E1170B7F908108C4209D0DDF8309043F60401814240F0DE8210F0C7FEDAE23C
:2016B000664890F8F4C207F1380090E800034FF482062F4617EA090706EA080008BF00284B
:2016D00012D15748DDF83090383003C84FF400322F4602400F4008BF002A02D10DF046FB33
:2016F000B9E20EF079F9B6E2BCF1010F594602D00F78002F7AD1844C8120B64E277808707C
:201710002B46A5816069A770427A017A337002F0070301EB032152098DB234BF291F891EE0
:20173000DFF8B892437A8DB233F07F0340F06A82A9490988A942C0F265820A3029460BF010
:2017500097FC216A04F118000522083111F088F8BE4AED1EADB20520A67EE17E237FA08190
:2017700006EB0120354E51782371C1F3011896F8F4126081002908BFB8F1020F00F04282C7
:20179000B8F1020F00F33E8269B110F0070F00F0398241B151460978862904D100F007016B
:2017B000022940F02F82011301F0020102295DDA637800F00700022844D1D9F80460181C29
:2017D00040D1216A05A801220D3111F049F80620A081B04780469AF800601848D9F808508E
:2017F0004768CDF81C90862E20D10FB911F01DFC9DF9140011F062FC9DF914607877002010
:20181000B8774046FE77A847608900F010000CF06FFB0DE0C11A0020B81A002044130020FF
:20183000E8160020E32B0020DF2B00204046A847DDF8309010F04EFEEAE1C04608020020D1
:20185000BE1A00209AF800000026862808BF0126CDF81C90DDF830906EB100200EF008F9E8
:20187000A77807E000000C8CAC180020CDF81C90DDF8309063788FB183B9012F00F0BF8119
:201890006089022F03D110F0070F40F0B881032F05D100F00701032901D0B0E1608901094A
:2018B00080F0AD81011301F00201022902DA810A80F0A58165494978C1F3810A8E11BAF152
:2018D000010F00F09C81012E00F09981B149B8F1020F0BD08A5D11F80A108918CFB2CEB168
:2018F000C10917D3BF1E0DE0BF1A002072185144127909798918CFB2C10907D25AEA060323
:2019100008D0BF1CFFB205E0F02A00205AEA060308BF0227C0F30020391A60718D42C0F27F
:201930006E81ED1B2D18A8B22081703080B210F045FD94F801B00028206100F06081002174
:2019500070220BF05DFF0020E0706589BBF1000F03D1204905F0200008701E4A002094F897
:2019700005B013780990002B41D0BBF1000F3ED105F00705032D05D0012D23D1BE4890F8C2
:20199000E203F8B1BC48B0F84C000023810809D3B94991F87A509DB94D681DB16D7E35F0EB
:2019B0007F050DD163B980089B4606D3A0498D6888780DB12846804710B9BBF1000F01D031
:2019D0000420E070AC4890F8F40248B1B8F1020F08DA05E0E12B0020B21A002090150020BA
:2019F00010F078F96589E07894F805B009902169164A01F17000486023890B81134B48650F
:201A10002089A1F858005078C0F301121878099B8D8100F07800104318430874FF228A739C
:201A30002079BBF1000F089018BF002081F82C6081F836A081F84500A089002FA0EB0B00B3
:201A500086B2A68100F0D88002E0C0460A2B0020216AE78068463A468919083110F000FF98
:201A7000BF19A04EB8B2A081216970780A7CC0F301186E46801002F0400A10F0030F00F0BF
:201A9000030742D0B8F1020F4FF0000301D1D0090AD29DF801209DF8000000EB0220A1F8A6
:201AB00040000DF10206C8878D4AB1F84000B2F85A20824203D04FF6FF72824223D1032F66
:201AD00012D072783078864B00EB022082B2CA85B3F85810B61C0120914213D04FF6FF71B0
:201AF000914218BF00200DE07C48006831462E3011F0AAFA79487A4900684F312E3010F0AF
:201B1000F7FC08360346002B70D07648407883111ED02069B8F1020F03D0017CC90903D39D
:201B300008E05AEA070705D172783178B61C01EB0221C187032B05D07178327802EB012223
:201B5000828405E0654800683146243011F07CFA05F00705032D06D0012D35D1464890F8E2
:201B7000E203002830D044482569076F0026E7B17B7E33F07F0314D095F82C0002280BD0BA
:201B900003280ED107F1640005F1240110F0B0FC38B119E0AC3A0100B7F86400A98C88422D
:201BB00012D057F80C7C002FE2D16EB94D4F3046E070787800233E46C0F301113078099351
:201BD00000F07800084328742B4890F8F40210B1B8F1020F10DA444807786FB1BBF1000F6A
:201BF0000AD1089809990CF0ABFC05E039480BF00FFC0DF0BBF80BE000F0E6FC08E010F054
:201C100081FF05E010F07EFFCDF81C90DDF83090DDF81C80D8F804008047216A0A680023A0
:201C3000137109682162D8F80810884713E0C046C41A002040462D4F80784146401C887099
:201C500097F900003946401E08700DF08FF810F0EDFBDDF8309008480699214F00226FF0AE
:201C7000010690F8F402A1F8AA203E8130B11E48007828B902E0C0460802002010F0A8FD56
:201C900099F90000401E89F80000184890F9000010B91148002101700C9A92F9000078B1CC
:201CB0000A9B0B9F02214FF0E0401940384008BF002908D092F90000002804DC11F0B5F968
:201CD000002002F04BFA0A4900200DB00870BDE8F08FC04618190020B61A0020002B00203F
:201CF000E81600200A2B0020E12B0020BF1A0020C11A00202DE9FE4FDD4981460122A1F13C
:201D100030000260D8480768002FFCD0D74AE34EC027D848D84B17603268920808D232461E
:201D300052F8042C03F14104120C42F0F00222704FF0000A8346C1F800A0DFF88CC3DBF8A8
:201D50000810E04F0191880E43D2480E41D3802018744FF6D802A3F8512018703868C0F353
:201D70000464162CA8BF203C1E460F3E307800F01F001628A8BF2038844223D0624602F12D
:201D9000980EE44ACEF800A0251A022D05DC15F1020FB8BF6FF0010500E0022540191568DA
:201DB00000F01F05844245F4F855A6F866504FF001051560E8D110682E4616601068CEF84C
:201DD0000050106838460068C0F30420162808DB06E0A7F1D0000068C0F30460162800DB67
:201DF000203800EB2170401C162805DA10F10A0FB8BF6FF0090000E01520D54E00F01F0046
:201E100040F4F850A3F85900306880083ABFD148C0F800A041F040616246C80E8E0E80F05C
:201E3000010000F00100106086F0010000F00100906001980CF0BAFC014618200EF05AFFB7
:201E5000A7F13806CD4C30683568A4F10408C0F3870105F0030041EA0021D8F80400C04D4D
:201E7000446840F2FF32534688B22C21009028464038A047F06AC0F30D011C200EF03AFF38
:201E9000B549706A014000F07C40014314200EF031FF316A01F47C000904090C0143102025
:201EB0000EF028FF7D4AB06A1268C0F30351C0F30344520813D2DBF80020130511EB2371B7
:201ED00003D41029A8BF0F2100E05146120414EB227403D4102CA8BF0F2400E0544644EAD4
:201EF000011400F47F4200F0FF01B9F1220F42EA044241EA020124BF00F0804001430C209A
:201F10000EF0F8FE954CB9F1220F32BF01202068C0F30070B9F1220F4FEA400040F02000A0
:201F300085F8090126BF2068C0F3407001208D4EB9F1200F40F0100085F8090138BF514610
:201F500006D33168C80C00F44070C1F38451014328200EF0CFFEB9F1200F26BF3068C0F39E
:201F700001505046B9F1220F4FEA400040F0600085F80C0126BF2068C0F3C0605046B9F17C
:201F9000220F4FEAC00040F0800085F8010126BF2068C0F345505046B9F1200F4FEA8000FB
:201FB00040F47C40A5F89C0138BF6F490AD3306801038A15920501F47C1100F00F001143B4
:201FD00041EA003108200EF095FECC3F4FF480002860664AB86D40F21E216FF31F408142BC
:201FF00016D93868030E03F00F0113F00F0FC0F3034018BF491E072805D006280EBF0720B3
:20201000801C00F00F0041EA0011A2F108000170DDF804C0CCF381477F1E02D07F1E31D0A0
:202030002CE02068810C29D24FF480412960D2F80210430AC0F3033703F0800321F08F01BA
:202050000B4347EA0301C2F80210D2F80130060A66F30303C2F80130116800F0E70721F064
:20207000E70147EA01000CE09402224300600C4040100940AC3F0050156208404FF0004091
:202090002A46106005480068C0F3C0070FB94020A8624FF40070286402E0C046B03F005089
:2020B00020684027C0F3C14040F0300085F8C800CCF3815080B3401E08D0FFE7401E23D098
:2020D000022122E0881300500000204301200FF06DFA0646042031460CF0F8FC04200FF0FC
:2020F00065FA8642FAD12248066826F07F400FF0B1F8D8F81400036807214FF06022300E13
:2021100098474FF480602860032104200CF0DEFC09E0C0462C200940042001210CF0D6FC6F
:2021300014480FF097F8203C206800F03F0085F8CB0FD8F80030124ED96830680220884711
:2021500010480D4C076001212160BDE8FE8FC0460000094094042A43FCFCFC008C1300504B
:2021700040A00C409813005000803F400A600840A83F0050BD37860094046042A4010010D7
:202190002C20094000600C402DE9F04F0320ADF1440D0FF077F8C94C0025022004F11C01AB
:2021B00041F80C5F401E8D60FAD104F14000A846062701467F1E21F80C8BFBD14FF0080955
:2021D000CA4BC949CA4EA0F800901B1D816004F11C07AA4623F003031A46F11A216210460A
:2021F000A3611E46E3615B18834200F2BB81881021F00301E82302EB800040F804ACEC398B
:2022100033604046C2F8E810E83222611DF02AF86061B9493868DFF8E4B220610A680BF158
:202230000C06326049687160B248CD494A460FF087FD28B9AF48D0490A680260496841602E
:20225000CE48CF4FC0F8AC70C0F8B450C0F8C450CC4EC0F8C850CC4BC0F8B060CB4AC0F848
:20227000B830CB4FD0F8AC10C0F8BC20C0F8C07009B1404688471DF06DF8C64ECDF82CA026
:2022900041460C2206F128000BF0BAFAC24F0222ADF8209041F27073F762708DADF82220CE
:2022B000616A33631027099740F01900708508A8884700280CBF0A9F47460120ADF820907A
:2022D000616AADF8220008A888479DF824005C4620700A99616077B1D021397087F80180CC
:2022F000B87087F8038087F804803946BD600220FD600EF027F9A949182001221CF068FFA8
:202310007C49E22010F092FC18201DF049FA60706068B346CBF8080008F0A8FEA94F0BF1E2
:202330008400A060DBF808509D4C41466762F520A56010F045F9F820414610F041F9994D8E
:202350000D200E26687005F10C01AE7005F118000AF024F9A860687810F034FB00B1C1461F
:20237000A87810F02FFB08B949F010098E49A86810F066FD8D49C82205F124000DF078FC5B
:202390008B48B9F1100F686010D1606A70B1C26862B1FF208DF810004FF6FF77ADF812702A
:2023B00004AEADF8147096E803009047814D05F1140005F108010AF0F1F86860404610F0D2
:2023D00075FD4746AE1E814606F8028F02207070384610F0CBFD014668684A46C9B20EF064
:2023F0001FFB7F1C022FEFDB734905F120004FF4FA720DF03DFC714D05F11000291D0AF062
:20241000CDF82860606A002845D00769DFF8B0916FB1009449460EA80A68898802600EAE36
:20243000818096E8030001234246B847606A002831D0C26852B149460EA80B688988036013
:202450000EAF818097E803009047606A18B307690FB306208DF80800ADF80A000DAEADF8CC
:202470000C8002AD009695E8030042460223ADF83420B847666ABDF834007769A08057B195
:20249000BDF8340002AE401CADF8340096E8030002220DABB84735A010F070FBE820842115
:2024B00010F08EF8E7200A2110F08AF8606A0626002835D00769002F32D001E09015002068
:2024D0008DF818600425ADF81A500BA8ADF81C8006AB009093E8030042462B46B84778B9DB
:2024F0000B98193082461BE045F90100E42B0020004B00209C1A0020C8FF0100901A0020DC
:20251000606A8DF8186006AFADF81A504469ADF81C8097E80300CDF830A02A460CABA0470D
:20253000CDF82CA0E0200C2110F04AF84F20032110F046F85720052110F042F84E20042150
:2025500010F03EF85920032110F03AF80FF0FEFE0BF10200012110F0ECF900F011FCFCE786
:20257000B43A010040F804AB3EE6C04654492053656E736F7200C046F01200508C07002009
:202590005D0201004506010015C50000F9090100C9AB00001C14002020BF02007565000023
:2025B0004012002094170020A10A010021270100892801002818002001CB00002C1A002095
:2025D000D43A0100380800202DE9F04FC34C20692589216AA689406DADF12C0D2A46891991
:2025F000083110F03DF92169486D40194865216A7619B6B2012209A88919083110F030F9BD
:20261000216A761CB5B2042207A8A5814919083110F026F99DF81F109DF81C0000EB0160B0
:2026300023699DF81E102D1D00EB01409DF81D10A58100EB0120079010F03CFA986307986A
:202650000FF0CAFE9887EA200FF088FF4FF0020BBA48276994F8039080F800B0387C49EAE8
:20267000000038749DF9240010F028FD87F842009DF92400398987F8440007F1700078657A
:20269000B7F85800401A7968002540187860B88987F84350800A3AD3002F3DD0B889800AA2
:2026B0002ED379684878C6112AD13E89396628464B780A7803F07F035B0003EBE2137E2B21
:2026D0000DD07F2B09D002F07F0280188918801C891C80B28642EBDC08E0294600E0012183
:2026F000801C87F85C1080B2864201DA284605E07968091879603989091A3981A7F864009E
:20271000386E20B1B7F86400002800F05C8197F85C0000282DD00FB910F087FC796848782E
:20273000C6111FD03A89B96428464B78C3F3C3030F2B08D00B78C018C918801C891C80B275
:202750008242F2DC01E0801C80B2824208DB7968091879603989A7F84C00091A398101E03B
:20277000A7F84C50B86C20B1B7F84C00002800F02A81994E96F8F412002900F09F80B88967
:20279000DFF8588200F00702022A5CD16378002B59D17B78002B56D12169A94602A88DF809
:2027B0002590243110F050FC216904A80A22243110F056F8424602F110012769D6F8183379
:2027D0000888401C0880386E0DF125020421984704F1100A474628B9706818B19DF82510BE
:2027F00080F85C10256995F82C00022810D1DAF8000006F5587188465A46243020310FF0EB
:202810009FFA28B908F1160102A810F01DFC256973480078862807D1788A401C7882A8898B
:2028300000F010000BF064FB96F8F40220B1D6F83C1309B12069884710F044FB4D46256152
:202850000FF048FEC4E0674A13786BB3C0F30130022829D17B78002B40F0B8809DF82400DE
:20287000614A43461070988AB9F1000F07F1240200F10100988207F1180014BF08232B1C3A
:20289000E1B15A490D6000930190B6F88633117A0D2002F0FFFF10B90FF01CFA01E00FF095
:2028B000B7FD276996F8F41241B1D6F83C332BB1194638468847276996F8F412BB89089772
:2028D00003F0070371B1B87BFF2877D0032B07D1384640680078042804DD6FE0F02A0020EE
:2028F000012B6BD1181C3ED0401E52D0801E65D1B889C0F30130022803D178680078072820
:202910002FD03889002859D0384641684A1C42600F788446C7739CF820308BB9002F4DD068
:202930000A2F4BDA32490089791811F8011C81420BD0082F42D1082807D03FE0DF2B002036
:20295000C07B00283AD00A2838DA60460189491E0181C17B0B3101700899C87B401CC87339
:2029700019E0322016E096F86D030F280BD010F0B5F840B908988189091301F0020102296B
:2029900001DA3169884796F8A303089F3874152000E016203870089906F174000EF030FB34
:2029B000144F7868804796F87C10491C86F87C10B9688847202010F0B9F902E008A80DF003
:2029D0005FFBA9463AE710F07DFA25610CF0CEF90BB0BDE8F08FC04608020020C8190020AD
:2029F000E32B0020E12B0020E61600200C19002060320100901500202DE9F04FD54D286AAB
:202A1000416EADF11C0D02A888474FF00009D24FCDF80890B8688DF80C90002833D10EF086
:202A300001FCB8B10EF0FEFB012813D00EF0FAFB05280FD00EF0F6FB0C280BD00EF0F2FB35
:202A50000D2807D00EF0EEFB0B2803D00EF0EAFB0E280BD10EF0E6FB787000280CBF484630
:202A70000120B870286A00F1200408B910F0DDFA216807F1180088474FF4FA703885B74EE7
:202A9000FE6206243C63DFF8D882EA6998F8B3434FF0010A4946080100EB41108018867F38
:202AB0002EB9437F491C9C42C9B2F4D102E0417FA14204D1824202D00EF06AFEEA69DFF85A
:202AD000A4B2686A1BC88BE81B0097F90100012805D00D2803D00E2818BF484600D1052025
:202AF0008BF8000098F8E1135069A44C50F82100C4F89C000FF07EFC632005A90DF08EF927
:202B100098F8B3030EF04EFC064694F88E006AF3020084F88E000DF023FE042825D00DF00C
:202B30001FFE032811D094F8900040F00F0084F8900094F8970069F3030084F89700B07B35
:202B5000052814BF2420292016E094F8900040F00F0084F89000292384F8943094F89700CC
:202B700069F3030084F8970008E094F8900040F00F0084F89000212084F8940094F8950012
:202B900069F3871084F895000DF0EAFD042818D0B37A7BB99DF8140094F89510401E60F33D
:202BB000050184F8951094F8960020F03F0040F0180014E09DF8141094F8950061F30500FE
:202BD00005E094F8950020F03F0040F0020084F8950094F8960020F03F0040F0200084F810
:202BF0009600B189B07BB4F88E200A23401D484390FBF3F161F3CF02A4F88E20B08994F8B8
:202C100090201923800390FBF3F102F00F00D4F890200F23484390FBF3F161F31C22C4F8CF
:202C30009020E86994F89820017F61F3020284F8982094F89810007FC01060F3C30184F81D
:202C5000981098F9A2030CF07BFEB0F1FF3F05D0010828BF4FF6FF70A4F89A0030897168F1
:202C70003368EA69401E414303EB51004FF47A71B0FBF1F0A4F8A00090690078A4F8829020
:202C9000C4F8849094F88D3084F8A4006AF3030384F88D3010F01CF9C8B9B089324A98F874
:202CB000B363B1FBF0F0C0B21070B1FBF0F02F49022E487006D00DF053FD032807D1052237
:202CD0005C2001E00222A820294B1A700870BB682E6A5BB348460DF0B1F9F87898F8B31361
:202CF000884212D13A7998F8E1132E6AB8688A420DD102214A468DE80600366D80344B4668
:202D100002AA2146B047EC601BE02E6AB8687168884718482B6A80F800A01E68164880344D
:202D30005946224607F11803B04707E0803422461148346807F118035946A047B860686AF7
:202D5000A86298F8B30398F8E163F87007B03E71BDE8F08FE8160020A418002083D80000F8
:202D700008020020A42B0020481A0020E4160020C8190020C21A0020E028002044130020F2
:202D90002DE9F043CC4CDFF83493DFF834836088ADF1440D4108C0F0888006A802A90BF06A
:202DB00055FF012872D1454624352868D8B10769CFB1062009AD8DF83000022600950022E6
:202DD000ADF832600CABADF8342093E803000C23B84740B9BDF8240060850A9FE7620B9804
:202DF00020630FF0C7FD022684F82460BDF80A00A08330460BF074FC4D46BDF818009DF89D
:202E10001470A88707A985F83E7005F14C0010F0A8F8BDF81A0005F1420703A9A5F84A0091
:202E3000384610F09EF8BDF80A00A98FA5F8400050200FF0B9FBB5F84A1053200FF0B4FB4F
:202E50004A2039460FF0F2FE95F83E10E1200FF0B7FBB5F840104B200FF0A6FB00200FF0D6
:202E700097FB30460FF076FE286920B1026812B106A802A9904704200BF032FC05F10800BD
:202E900010210FF056FD0120207008E00FF036F8E06001200BF024FC01200FF05BFEA01C28
:202EB00001210FF030FD2046408880080DD3E06A0EF018FA0EF02CFD00B2A082E08201F076
:202ED00013FCA01C02210FF01EFD4D462F89780805D305F1080001210FF015FD2F89B8088E
:202EF00005D305F1080002210FF00DFD2F8978091BD38049182042220FAB1CF069F99DF877
:202F10003C0005F1080601280AD095F85600032818BF042802D1E86D0EF0CCF90DF0B6FCB3
:202F3000304610210FF0EFFC2F89B80907D30AF045FE05F1080020210FF0E5FC2F89F80988
:202F500007D308F0DBFC05F1080040210FF0DBFC2F89780A0AD395F859000FF0FBFD05F199
:202F700008004FF480710FF0CEFC2F8938094ED395F8580005F1080600283DD0401E36D0A0
:202F9000401E02D0401E30D03CE095F8541047200FF016FB95F8551054200FF011FBB5F8F1
:202FB00040104B200FF000FBA98F50200FF0FCFA0A27842395F83E008DF8097002AA8DF8DD
:202FD0000A304D498DF8080001278DF80B7018201CF0FEF895F85600012813D1E87888B199
:202FF000304620210FF0A5FC0CE0032008E001200FF0CEFA022003E001200FF0C9FA012082
:203010000BF006FB304608210FF07DFC2F89454617B1A86810F018F9E988687849081CD3D0
:20303000A97802094FF0000601D301290ED040090ED301290CD02CA00FF0A0FDA01C0121BD
:203050000FF077FCA86810F0FFF801E00CF0A4FD6E70A81D01210FF056FC608800283FD133
:203070000A200825254CADF80A004FF0FF37ADF80850616A039702A88847002830D1072029
:20309000ADF80850616AADF80A0002A88847049E0E9628BB1A499DF80E200878904214D1AA
:2030B0009DF80C004A7882420CD089684B6C63B100213246984708E01C140020E814002075
:2030D00040120020304600F0D7F90E9840B1ADF808500320ADF80A00616A039602A88847F5
:2030F00011B0BDE8F083C0465374617274696E672E2E2E002DFE0000A12F0100901500204A
:20311000901A00202DE9F843DFF828830F460446F80B80F07481DFF81893B80F80F02D8194
:20313000C54DB80880F02281F80A80F00081B80B80F0EE80780B80F0C080380C80F0AF80F0
:203150003809C0F07F8108200FF092FE002840F0A18080200FF08CFE002840F09B806846F4
:2031700009F068FA012803D10098002800F0928000240125E0B20FF057FC48B1867A3EB10F
:20319000857290F9090005FA00F0C0B20DF01AFE641C032CEED34C460320207560687830F6
:2031B0000FF064FFAB48002601680660AA4950F8082CB146324640F8089C04F138000FF0CF
:2031D00061FF30460EF0CAFE0FF0F2FB0146A268E069891A090BC1F1FF3282422CBF084428
:2031F0004FF0FF30E06194F820601EB12169B0EBC12F1FD90EF012FF494600B12946081C46
:2032100014D0964840F60901018049464180427B65F303024273027B61F303020273416010
:203230000FF044FD418811F4406FFBD084F820504946E1610DF0E0F989484D46494605600B
:2032500002200EF0FFFC02200DF0A2FD112007F0CBFF207818B9606840300FF01BFF814810
:20327000007810B90E2007F0BFFF94F8210020B184F8215005200DF08BFD7B48B4F98C60A9
:20329000A061B4F98E1025758E4214BF0220072009F0BAFF27F008070BF078FCD2E0083516
:2032B000296839B1C86840880028FBD0C86840880128F7D027F40047EEE70DF0CDFB38B1CB
:2032D0002046A4696FF4807100224FF00073A04768494C46002204F138000FF0D3FE0220D8
:2032F000E66820750FF064FBD4F81C21636804F58E719A4214BF0122002226B1801B01EB5F
:203310008206030BB360002027F48057E060C3E74046066846B1B06830B13069B6F9341088
:20333000B46800222023A04727F400578AE00FF0A3FE4C460546206F064688B1606810B11F
:2033500078300FF093FE306960600FF031FBE06046484FF40061A06104F1B4000FF0A2FEE6
:2033700028460FF06DFF27F480676BE004F026FC286808B927F0020764E00FF07DFE054687
:2033900004200EF013F9C8B1207CB8B148460830006898B106460FF00BFBE168801BE06085
:2033B000000B8842E06002D240184008E06040F6C41181422CBFB0F5967FE16028460FF013
:2033D0003FFF0DF049FB80B1A56920466FF4807100224FF00073A84725480068002808BFDE
:2033F00047F0020701D00BF0D1FB2046646900214FF080630A46A04727F0005722E00FF0C9
:203410003BFE41460E68CEB1B16A890816D2B56AB16AA943B1620FF013FFB06880B17DB192
:203430003069B6F93410B4682A460023A04707E038220020C0220020B02200200FF000FF07
:2034500027F4804727B1404639462C300FF02AFEBDE8F88314100440B9EF00007C2B002023
:2034700000000460D21A0020359F000031830000A8220020CD800000B0B50446BA480768ED
:20349000ADF1480D002F00F0A8812078401E112800F2A381DFE810F06A01520138012301BA
:2034B0001B010401F100E300C300B2008D005D0053004200A1012A001C001200F86B00288E
:2034D00000F08B816846214609F08EFDF96B82E1386C002800F081816846002101220AF0D6
:2034F0008FF960788DF80000396C74E1F86A002800F07381684600210E220AF081F9A11C3F
:2035100068460FF011F9A57BA1890022ADF80A1005B101228DF80C20F96A5DE1B86B002843
:2035300000F05B816846002102220AF069F9A5788DF8015060788DF80000B96B4BE1786BDD
:20355000002800F04A816846214609F04DFD796B41E1386B08B36846002114220AF050F974
:20357000A5788DF80150A3680193A289ADF80820A17B8DF80A1060788DF80000E57B8DF8B4
:203590000B50237C8DF80C3094F911208DF80D2061690491396B684688476068002800F090
:2035B0001C810146F2200870002048700CF0CAFF13E1B86A002800F010816846002124221C
:2035D0000AF01EF96078A11C8DF800000DF102000FF0AAF804F10C0103A80FF0A5F8257E23
:2035F000E08A04F119018DF818500B22ADF816000DF1190008F038FFB96AECE0786A00282E
:2036100000F0EB806846002102220AF0F9F8A5788DF8015060788DF80000796ADBE0386AD1
:20363000002800F0DA806846002112220AF0E8F8658862796078ADF8025023798DF805204E
:20365000E11D8DF80000A5798DF804300B220DF107008DF8065008F007FF396ABBE0F86956
:20367000002800F0BA806846002101220AF0C8F860788DF80000F969ADE0B86910B12046A8
:203690000BF0A8FFA07820B9A069002800F0A58003E0A069002800F0A0800EF00FFC9CE098
:2036B0007869002800F099806846002113220AF0A7F86D46A01C0168406829600B2268604D
:2036D00004F10A0102A808F0CFFE796983E03869002800F08280204608F0BAF87DE0F8689E
:2036F00000287AD0684600210E220AF089F86078A11C8DF800000DF102000FF015F8A0897F
:20371000ADF80C00F96866E0B868002865D06846002114220AF074F8A01C01686D462960F8
:2037300040686860A07A0B2204F10B018DF808000DF1090008F098FEB9684CE0786800284A
:203750004BD06846002110220AF05AF860786588211D8DF800000B22ADF8025001A808F0A4
:2037700083FE796837E0C046981A00203868A0B36846002119220AF043F8A01C01686D46DE
:20379000296040686860A07A410824BF01218DF80810810824BF01218DF80910C10824BF43
:2037B00001218DF80A10010924BF01218DF80B10C10924BF01218DF80C1030F07F001CBF9F
:2037D00001208DF80D000B220DF10E0004F10B0108F04AFE39686846884712B0B0BD7047A8
:2037F0002DE9F04F0D46B14C01686162416880686160ADF11C0DA06028460DF0C9FF4FF05D
:2038100008094FF0010B6846ADF80090616AADF802B08847A64E9DF804107170029971617D
:2038300008B10EF015FD28688047A046D8F80400804706904FF40057ADF800901E2001979C
:20385000D8F82410ADF80200684688470DF078F8994C9B4B994DC4F8D03004F1CC010D6027
:2038700004F5B2773960974AC4F8D42091483061964B9549C4F8DC300025C4F8D810944A54
:20389000A4F84C5004F5AE7304F1E0010A6001F1A0001860A3F1A402C4F860210DF04CFFBD
:2038B00007F5827704F5B47007608B4AC4F80021884BC4F8A830D838C4F86C01884A626594
:2038D00003F16E008F4AC4F8AC008449226204F150031960B4F84C70C4F87C3147F001001A
:2038F000A4F84C00854FA7617F4BE3657F4AC4F808228349E161844860627A4FA7657D4BFA
:20391000C4F828327C492161794FC4F818720EF0BDF9B5607E4B83F800B07C4F3D60B4F85B
:203930004C005D8040F01000A4F84C0002200EF0F3F8FF210222F0620FF0C6FBF01CFF2199
:2039500002220FF0C1FB02200EF0E6F8714F386008B90EF07DFC3868294602220FF0B4FB09
:2039700005A804A90DF008F8F06A9DF81410421C01709DF814001070A2468AF800509DF886
:203990001400B0700EF0AAFAB061D8F82410ADF800901420ADF80200684688471527ADF8BE
:2039B00000900198ADF80270D8F82410F061684688475A4F01983D70801E3062564C25708F
:2039D000574B6570584E256106F10E0210881D700E3080B20EF0F2FC074667610FB90FF0D0
:2039F00024FB00978DF804509DF805004D4965F301008DF805009DF8050065F383008DF81B
:203A10000500F0899DF80530088065F307138DF80530ADF8060060694A4669460EF020FFCA
:203A3000276265620CF0E8FA404E3078012802D0284600F093FB3E4805703E4F3D7030784E
:203A5000012802D0284600F089FBD8F8081006988847FEF7D1FF0EF011FB9AF8A3030CF021
:203A700073F9584600F07AFB0AF0E9FA324805703078012802D0284600F070FB0AF0C2FFD4
:203A90001820ADF800902D4FADF802002C4E0197D8F8241002966846884708B10FF0C5FAE4
:203AB00000F0C6FC07B0BDE8F08FC04690150020D8180020CDFA000008020020895E0000B6
:203AD000DDED000007220100819C00002DAA000095D600008C330100959B00009986000074
:203AF0000D8C000011FD0000410F010091F50000DDDA00004730010009620000F5A0000009
:203B1000611A0100FDD80000490B0100C02B0020DC170020D42B0020F02A0020DF2B00204E
:203B3000E12B002004140020A41A0020C11A0020E32B0020DA2B0020E02B00205BEF000070
:203B50005C1A0020BA482DE9F84F0025B94CB749056094F8E200002800F06381012800F04E
:203B70002F81B54E02283CD0032840F05A8151F8250CD4F8B8100029A0F5C060C4F8D4009A
:203B9000B8BF49420028B8BF4042814226DA4FF08057D7F8A4014568B4F8BC0030214FF4FC
:203BB0007F42082300903046A847D7F8A4014568B4F8C00004214FF4F802122300903046EA
:203BD000A847D7F8A401B4F8D070456820214FF440620A2330460097A847012584F8D850C0
:203BF0001AE151F8258C0FF019F92F4600B901273946924F38680028FCD0B146012609F14D
:203C10000409D9F82CA03E6009B10FF00DF9CAF30720C4F8BC000FF001F9AA4600B9B24697
:203C30003B68002BFCD0D9F800B0BAF1000F3E6001D00FF0F9F8CBF38440C4F8C0000FF043
:203C5000EDF8AA4600B9B2463B68002BFCD0D9F81C90BAF1000F3E6001D00FF0E5F8C9F3F6
:203C70008120C4F8D000B8F5C061C4F8B81000F09C8094F8D80068B9C4F8D410D4F8C000F8
:203C9000C4F8C800D4F8BC70C4F8C470D4F8D030C4F8CC30D4F8D400D4F8BC30002854BF91
:203CB00002226FF0010204F1C8010F6800EB40008018421000EB927207EBA2000860D4F86D
:203CD000C810C4F8C43000291CDD1E293CDDD4F8CC0030B93429B4BF15391E21C4F8C81058
:203CF00025E02A29BABFD4F8C8000B381E20C4F8C800D4F8C4003F28B4BF401C3F20C4F869
:203D1000C4001FE0D4F8CC00032812D011F10B0FC6BFD4F8C8000B30301CC4F8C800D4F81F
:203D3000C4000028C4BF401E051CC4F8C450032508E011F1150FC6BFD4F8C8001530301CD5
:203D5000C4F8C800C4F8CC504FF08057D7F8A401B4F8C43030214FF47F42456836480093BA
:203D70000823A847D7F8A40104214FF400321123456831480096A847B4F8C860D7F8A401E4
:203D900004214FF4F802122345682B480096A847D7F8A40120214FF440620A23B4F8CC6038
:203DB000456825480096A84701E084F8D85040F2FF50404502D8801C40452DD208202EE099
:203DD00051F8251C1E4F4BF2F5204843060A3868C0F3814001280AD10DF09AFD0CF0EEFB5E
:203DF0000FF028F83111C010484306EBE03694F8E50030B91348006820F07F403618760838
:203E100001E084F8E5501048310C0660012741600E4D8760287808B90B2000E0052084F8ED
:203E3000E40002F0EBFEBDE8F88FC0462D400C402C500C402C11002000A00C4000800C40EB
:203E5000B43F0050102009403C600C40353A01002DE9F04F09AFADF13C0D08900A92388856
:203E700009911E46ADF81800101C08BF002000F06C81017800274FF0010B401C4FF0FF39C9
:203E9000B846DA460A9058E1252940F04D810178401C0A902D2918BFADF8068004D10178C0
:203EB000ADF806B0401C0A9030291CBF4246434604D10178401C5A465B460A902A29CDF8BF
:203ED00000804D4617D1049330680A9BCDF80890C01C20F00300001D306050F8044C1978E1
:203EF000002C009403F101000A9018D5ADF806A06442009413E044460AE0600000EBC4007B
:203F10004018A0F130040A9801780094401C0A90302901DB3A29F0DBCDF8089004932E2921
:203F300029D10178401C2A290A9011D13168CDF80880C91C21F00301091D316051F8045C93
:203F5000002D48BF454601782B46401C0A9011E0454643460AE0680000EBC5004018A0F1C2
:203F700030050A9801782B46401C0A90302901DB3A29F0DB02930AB1224604926C2904D060
:203F90004C2918BFADF8048004D10178ADF804A0401C0A900BA8CDF80C800FAB079064292D
:203FB000059379D0692977D0BDF818C0752965D0782961D06F295DD0702946D0632936D0FF
:203FD00073291AD00A98401E0A900998012812D961490C68B5F1FF3F03D0A84288BF6D1C6D
:203FF00000D8099D029508A80AA932466B46A0473F18039865E0454617E03068C01C20F0EC
:204010000300001D306050F8040CBCF1010F014608B94FA0014607910EF092FD0390B5F12F
:20403000FF3F4FD0A8424DD9039528464AE03068C01C20F00300001D306010F8040C8DF802
:204050002C005D46039558463CE0082035680490E81C20F00300001D306050F8041C082280
:2040700010230FA809F0ECFF401E079040210170079823E0082302E0102300E00A23306814
:20409000C01C20F00300001D306050F8041CAA42BCBF2A1C04920DE03068C01C20F0030055
:2040B000001D306050F8041CAA42BCBF2A1C04926FF009030FA809F0C3FF07900599081A64
:2040D0000390009C241ABDF8065000945DB906E008A8202109AA0DF0DEFB7F1C009C641E95
:2040F0000094F5D50398401EB0F1FF3F03900FD1BDF8060001281CD10098401E009018D4C4
:2041100008A8202109AA0DF0C6FB00987F1CF4E70798017809AA08A80DF0BDFB0798401CF4
:20413000079003987F1CDEE708A809AA0DF0B3FB7F1C0A980178401C0A9000297FF4A4AE35
:20415000089808B14146017038460FB0BDE8F08F286E756C6C2900C0043B01002DE9F04F3C
:204170009E4C05466068ADF11C0D8047A34EDFF898B2012D069000F0D5800EF041FB002827
:2041900000F0CB8096480078A0B99648007888B99548007870B99548007858B99448007856
:2041B00040B99448007828B993480078002808BF012700D00027306A002F00F13C0000F07A
:2041D000AC80994C0068257880476168DFF83492E368AA00401AB0FBF2F7A0684FF000085A
:2041F000B24642469F42144672EB040101DA984205D8414687428A4140DA034600E041461B
:2042100018462A46EB17C01B71EB08010EF040FB272607464FF47A7200238846ADF80A607C
:204230000820ADF80800384609F0D2FE6B49496A039002A88847049823464FF0000100F6A4
:20425000FC02BF1A78EB0308784271EB080112DA6B4802684146384609F0BAFE8846074610
:204270004FF00001784271EB080104DA38460BF0ADFF002000E001204C4620704C4620785F
:2042900000284AD10027384609F05CFC00B101270026381C3FD15D46287800283BD1DAF829
:2042B00020005A4C436CA068022102AA98479DF8080080B3DFF85881DAF82020A06898F998
:2042D0000010374611F1020F18BF01274FF0010937B1926B98F900109047DAF82020A0686F
:2042F0004C4F97F9001011F1020F03D0926B97F9001090476FF00100387088F8000085F814
:20431000009030460EF0FAFCDAF82000C169A06888478AF801603B480670304906988968BC
:20433000884757E0012009F00DFC21460698896888475D46DFF8ECA02878012838D1012086
:204350000EF0DCFC0DF0B4FC58BB204640688047002402278346DFF8C090306AA9F8024028
:20437000416E2F7002A8884702948DF80C70306A2E4A2A4BD0F850C0A0468DE8800110681C
:20439000494602AAE04715498968002819D4244A4F4692F90000F760401C10705846884719
:2043B00006E02878012803D1002028700EF034FA0DF07EFC70B92878022804D15046007839
:2043D00008B10EF032FE50460078012802D028780228FCD007B0BDE8F08FC04690150020A1
:2043F000DF2B0020E12B0020E32B0020E02B0020B61A0020B71A0020B81A0020E81600200D
:20441000F4180020E22B0020C21A0020A4180020B41A0020B51A0020441300209DF9000071
:20443000BE1A0020C11A0020481A0020AC1800202DE9F04FAA4C04F128000068ADF11C0D7C
:204450000BF0A4FE08B10DF0F5FEA048DFF878B2DFF89082DFF87CA200689F4D05900DF059
:204470006FFB0DF03BFDE769A669B7F57A7F13D0801B4FF47A720023A7FB000108F0A2FA82
:2044900081464FF47A7200230EF002FA3A46002308F098FA301801E0A0EB0609A061DBF835
:2044B000000020F00200CBF8000068688047DAF80010DAF804204E468919B1F57A7F0DD3F3
:2044D0004FF47A73B1FBF3F3D218CAF804204FF47A731F46B1FBF7F25A43891ACAF80010FE
:2044F000A9688847686800968047D8F804108919C8F80410A9688847D8F8000000285AD043
:2045100007464FF00009686880470490BDF80200002690B99DF8010078B99DF80000397997
:20453000884204DD0098796888420AD20BE09DF800103879401A387108E000987968884232
:2045500001D3314601E07968091A7960B88878B9FB8853B9FB6843B13B8933B1B87A1946B2
:2045700007F064FCF8687860B88808B9FB880BB13B896BB9B9F1000F04BF3868C8F8000098
:2045900003D03868C9F8000038683E46074601E0B9463F68A9680498884756B1B3882BB93D
:2045B000F3881BB9B07A318907F040FC30460DF075FC002FA7D1DBF8000040F00200CBF832
:2045D0000000E06828B3804723E016F8060C2169A6F10C07032819D0E16A9DF8060009780F
:2045F000884210D116F8080C0CF024FFB979012903D0022908BFB07000E030700020314667
:204610000AF014FC05E00DF015FE02E009B13046884708200727ADF80000696AADF80270C5
:2046300068468847029E0028CFD0294800680088C8B1686880472649096800220E880A80F3
:20465000A9688847059A00203146207090470646FF202070686880471D4909680A88164379
:204670000E80A96888470DF06BFA0746B7F1FF3F1CD0686807B9194F216AB94238BF0F1C9B
:2046900080471C230646626AADF802300820ADF80000696A019268468847A16A3846491C77
:2046B000A1620BF06DFFA9683046884708200A27ADF800004FF0FF36ADF80270696A019637
:2046D00068468847CBE6C04610E000E0E03A0100D42B0020DC1A0020901500208EC2F52844
:2046F000D8180020BC2B0020F0B500215022ADF15C0D02A809F084F8F22016A90EF08EFADE
:204710008F4DBDF8580016A9A5F87000F3200EF085FABDF858000DF10901A5F87200E2201E
:204730000EF06CFA688DADF81200410806D305F11401096805A80160BDF81200810805D385
:20475000291D098806A80180BDF81200C10807D305F1180109680DF11A000160BDF8120019
:20477000010908D30DF11E0005F15401302207F07BFEBDF81200400903D3286B1590EF6AA4
:2047900014977048007800280CBF01210021012008F0BEFEBDF8120041082CBF0F240B24C6
:2047B000810824BFA41CA4B2C10824BF241DA4B2010924BF3034A4B2400924BF0834A4B2BF
:2047D00020460DF091F8071C00F0B78005260DF1090100F8016B0A68026049684160BDF821
:2047F000121008300EF04AFBBDF81210844648080BD3BDF8141060460EF040FBBDF81610AA
:204810000EF03CFBBDF812108446880807D3BDF8181060460EF032FBBDF812108446C80829
:204830000BD3BDF81A1060460EF028FBBDF81C100EF024FB8446BDF81210434A938808098C
:2048500061D3BDF81E1060460EF018FBBDF820100EF014FBBDF822100EF010FBBDF82410AF
:204870000EF00CFBBDF826100EF008FBBDF828100EF004FBBDF82A100EF000FBBDF82C1074
:204890000EF0FCFABDF82E100EF0F8FABDF830100EF0F4FABDF832100EF0F0FABDF8341078
:2048B0000EF0ECFABDF836100EF0E8FABDF838100EF0E4FABDF83A100EF0E0FABDF83C1078
:2048D0000EF0DCFA19460EF0D9FA11780EF0D6FABDF842100EF0D2FABDF844100EF0CEFACD
:2048F000BDF846100EF0CAFABDF848100EF0C6FABDF84A100EF0C2FABDF84C100EF0BEFA80
:20491000BDF812108446480906D3149960460BF0F9FF15990BF0F6FF05F11C0122463046E7
:204930003B4604F075FB0820ADF80260074D01972968ADF800006846884717B0F0BDC0463A
:204950001C1400202A18002040120020B41500202DE9F04F844C814604F120000068416E22
:20497000ADF12C0D02A888478C4D281D0768002F00F0F2804FF0000838897968794CCDF846
:204990001880C600097820781036890906D340F6485191FBF0F1761806F5AF763C7D704389
:2049B0008600352C0CBF47464FF4FA570DF12201E8200BF033FA9DF82200032808BF44F6E0
:2049D00020676868007DF619352803D1D5F858038047464305960220674E8DF81C0006F131
:2049F0000800006805A905F00DFB5F48604F5F4980F80080012008703978012901D0FFF75B
:204A1000ADFB6868048947680DF048FB2146384608F02EFB642008A90BF000FA554895F838
:204A3000F462007836B995F8A30306F0BDFA012805D08DE006F0B8FA012840F08980DFF87D
:204A50003CA1A01C86B20DF121010AF170000680E9200BF0E3F99DF82100012805D1344655
:204A7000C4F3022040F0180005E0241DA4B2C4F3022040F0080007F8010D07F8014D544684
:204A90009DF82000A4F862800028E7670CBF3C483C48CDF8088002238DF80C3004F1280634
:204AB000A6F8028004F1600AC4F8B800364FCAF8180094F8350020F00F0040F0030084F805
:204AD000350078688047DFF8C4B00990B9F1010F1DD0B9F1040F1AD0B9F1000F14D0B9F171
:204AF000050F0ED0B9F1030F08D195F8B3030CF059FCC07B022818BF56460AE004F160066E
:204B100007E0DFF88CB004E004F1440601E004F128061548006A184B056D02278DE88001A9
:204B30009868314602AA5B46A8471A49164F0880B96800280AD4184A92F900000A4F603461
:204B5000401C10700998FC60884707E0099888471A2009F093F901E00EF067FA0BB0BDE8E7
:204B7000F08FC046481A0020E8160020B71A0020C11A0020E7160020A418002044130020A4
:204B90004E9055550E7A5555901500202D790000E5A6000008190020BE1A002008020020F2
:204BB0002DE9FE430546287D012807D195F917000AF0C6FEB0F1FF3F00F0FB808748EF7BB7
:204BD000017887481FB990F87B208A4208DB012F03D190F87A208A4202DBF120BDE8FE83CD
:204BF0008046286AB5F82890AC8B071C15D098F8F412F9B1D8F80C13E1B100F0FF0088472A
:204C1000D8F80C1306B207F47F008847361830B2001D00B2BC3086B200E0BC260CB1241DB1
:204C3000A4B209EB04008019801C80B20DF09AF8071C02D11A20BDE8FE833019A7F808904A
:204C5000002C384478600EBF0020B819801C00216C22C7F8980007F10C000EF035FA09EB3F
:204C70000600FF2110220019A7F8400007F130000EF02AFA07F120000F2110220EF024FAF4
:204C900000243C707C707868696A2A8D0DF0E8FD07F1780005F12C010B220DF0E1FD07F169
:204CB000840029460DF040FC6889A7F88E00287B87F89000687B05F10E0687F89100326851
:204CD00069460A60706848609DF800102046012908BF01209DF80110012908BF40F0040043
:204CF0009DF80210012908BF40F008009DF80310012908BF40F010009DF80410012908BF61
:204D100040F020009DF80510012908BF40F040009DF80610012908BF40F080009DF8071030
:204D3000012908BF40F48070A7F89200A87D87F89400E87D87F8950095F8380087F86000C8
:204D5000AA8BA7F89C2022B1D7F89800A9690DF087FDA87F87F89E00286AC7F8A000B7F802
:204D70009C00C0B1D7F89800A8B17868401E7860F82101707868401E78600470B7F89C10D1
:204D9000B7F89C607868401A786038898019801C38817868F864B7F89200410A16D395F859
:204DB0003710052905DB00F0040100F00100084302D0E820BDE8FE8308F18006304608F070
:204DD00027FB95F8371030460DF04CFB98F8000039460AF02BF82046BDE8FE83A41A00207D
:204DF000080200202DE9F84F07468848DFF8108235380068800880F0F3800CF089FD874904
:204E100008310B6800251C17641C990D0AD2C0F13E0110F10A0F4FEAE101D8BF08218C42C9
:204E3000B8BF0C1CDFF8DCE1990E10D2590E0ED37246143A1168C1F304211629A8BF203907
:204E50001268C2F30462162AA8BF203A0DE0694AD2F87C11C1F304611629A8BF2039126823
:204E7000C2F30442162AA8BF203A09199346162905DA11F10A0FB8BF6FF0090100E01521FC
:204E90005D4C5E4E01F01F0242F4F8522280326812F0030F18BF0125D20828BF45F00205D1
:204EB0000FB145F00405424692F90740041B052C04DA9479AC4208BF918870D00F28A0F179
:204ED0000F0A2BDB0AEB0014A4F1F00A4FEA2A29B9F1070F88BF4FF007094E46062E88BF1A
:204EF00006265EF82670042404EB8604764634594FEA9508E41B04F0FF06EF0824BFC4F341
:204F100007273E444FEA550CAF0824BFC4F307473E446F0828BF06EB146605E000264FEA09
:204F300095084FEA550CB1465EF829E05FEA58070EF0FF0424BFCEF307273C445FEA5C072D
:204F500024BFCEF307473C446F0828BF04EB1E64B6B2ABEB0101AAEB09277E43002906F15A
:204F7000800604EB1624D8BF012103F0FF0334264E43B1B259434FF6FF73B1FBF4F18B42C5
:204F900038BF191C802889B2918005DA10F1800FB8BF6FF07F0000E07F20D07195711A48F5
:204FB00000681F2910604FF0000008D340F2FF128A4206D24908401C8A42FBD301E01F2158
:204FD0009180134F114E0F39090940EAC10047EA0001C6F8FB1F0025C6F8FF5FBDE8F88F33
:204FF0000C490D4F424608200F60921D1070BDE8F88FC0463C1100506E620840242208402D
:20501000C42B00209C130050082009403500094000E7A48030100940FDFDA400AC3F005016
:205030002DE9F043071CADF1240D00F00581F86B002800F00181B7F84010002900F0FC801E
:205050000078804C401E6AD0801E57D07E4EC01E3DD0001F40F0F080794DA878002800F02B
:20507000EB8068460021042208F0CAFBB7F840002A78032840F0E080F86B401C0DF004FFF8
:2050900004F17C031988012A01F10101198009D0E188421A022A05DBB4F87E108918491E47
:2050B000A4F87E10F778E08000214008297009D2012F00F0C18001220846F270114608F087
:2050D00027FAB9E0002F00F0B7800A46F4E7012940F0B28034460725E0788DF81C500028E2
:2050F00007BF012100200021081CE17008F010FAE07802228DF81D0028460BE0012940F02F
:205110009B80B4F85C000122401CA4F85C0004208DF81C00394607AB03F07AFF8CE0684669
:2051300000210C2208F06CFBB7F840000B285DD1FE6B16F8010B84F8280030460DF0A4FE25
:20515000B61C034630460DF0E9FB0546301D0DF0E5FB8046387A84F82400022806D039689F
:2051700004F11C0001607E68466001E03888A08303F00100190928BF40F00800590928BFDF
:2051900040F010006085834214BF02260026B5F57A7FADF8020016D32C48A84213D3E56236
:2051B0000DF0DEFB81460DF0DBFB00EB09290DF0D7FB00EB0920B0FBF5F16943401A0A309E
:2051D0000CF090F800E00226E06AB8F57A7F019008D342F21070404504D3C4F830800DF05E
:2051F000C9FB00E00226206B029000E0012602258DF8016068468DF800500AF015FD03AE62
:205210000DF10D009DF8011035700DF037FEBDF802100DF033FE01990BF074FB02990BF067
:2052300071FB39460D222846334603F0F1FEB4F86200401CA4F8620009B0BDE8F083C0463C
:20525000E81400201C14002040120020407E050001282DE9FE4F40F0EE80DFF810B2DBF807
:20527000DC00012840F0E4800220CBF8DC000CF085FE01200BF0AAFE5FEA000805D001203A
:20529000CBF8DC000CF08AFED7E00DF007FF6C4902900020086001200CF088F9012818BFB4
:2052B000002003D1002009F0E5FA0120654900900020654F0860386811200DF0CDFD002897
:2052D0000CBF0024012410200DF0C6FD08B144F002040F200DF0C0FD08B144F004040B20BE
:2052F0000DF0BAFD30B1624814300068574E016B308888470A200DF0AFFD002600B101264A
:205310004FF0805A0AF5DC75301C04D02868504E016B308888474F48012606602868816935
:2053300044F0200088474C4806600DF08FFD00F001010191400814D248480DF045FD81466F
:20535000B9F1040FF8D0B9F1010F05D1DAF8D80142684248032190474149086820F0030041
:2053700008600020FFF73EFD2B683868986B8047019801280DD0B9F1010F05D1DAF8D8018D
:2053900042683648314690473549086840F0030008602C48066028684169204688470B208A
:2053B0000DF05AFD20B12868284BC16A188888470A200DF051FD20B12868254BC16A18880A
:2053D00088472448032206602349CBF8DC2000230B602868416B204688470128F9D138683A
:2053F00004200BF0F3FD044615481E490660386808688009FCD30098012802D1304609F0AF
:2054100039FA0DF011FD08200BF0E0FD07460298CBF8DC600DF010FF1348008808F08CFFE6
:205430000CF0BCFD57EA040018BF4FF0FF3804E06FF0040801E06FF001084046BDE8FE8FC5
:205450000C400940000222432C2009407E3801007A38010028200860800104430040034046
:205470002422084014100940303A01002C110020A40100102DE9FE4F064688460CAF92F8E2
:2054900008900193307D0092352805D0114606F164000A220DF0E4F97A4D38F07F000CBF6E
:2054B000B5F886034FF6FF700290F08A800934BF002008203076F08AC00834BF1020802077
:2054D0007076F08A400934BF95F894030020B076F08A41082CBF20240024000928BF44F07C
:2054F00010047068317D4FF0000A08F07F08401E02290EDB0C2908DC0C2904BF4FF0020A6C
:2055100044F4085444F0030404E00D290CBF022101210C43736CABB9F36C9BB995F8B123DC
:20553000012A03D13189B1F5EE7F06DA210904D2022A0BD144F4005401E044F480544FF0EF
:20555000010A03E044F408544FF0020AA97801290CD095F8F4324BB196F85F10042905D198
:2055700024F480544FF0020A44F4005444EA8834B8F1020FA4B20CD0B8F1030F12D1A0F153
:20559000070B05F5697158460DF05EFDABF1010008E0B5F88A13091200F8011995F88A13F9
:2055B00000F80119BAF1020F0CD0B8F1000F15D0B9F1000F0CD0019A02998A4208D144F0F0
:2055D00040040BE0B9F1000F08D1B8F1000F05D0029A111200F8011900F8012944EA89249F
:2055F000B9F1020FA4B20BD0B9F1030F10D10099A0F1070840460DF027FDA8F1010007E0B1
:20561000009A1188091200F80119117800F80119B9F1000F05D001990A1200F8012900F821
:2056300001193F78DFB91849377D09780D2F13D06FB9776C2FB995F874134A1C85F87423BB
:205650000AE095F899134A1C85F8992304E095F882134A1C85F8822300F8011901E044F4BF
:205670008074211200F8011900250470716837897570091A7060CAB22846B9183181BDE8C5
:20569000FE8FC04608020020F42A00202DE9F047064637680C465FEA0208ADF1180D14BF8C
:2056B00000214FF0FF3107F1480081460DF082FA002818BF0B2040F0E68000257448FC60CD
:2056D000B8F1010F057007D0657002200BF0DAFD06200BF0D7FD01E0012060702078012864
:2056F00040F29080801E012857D9801E01282CD9801E012800F2B8800DF0BEFC8246A0780D
:20571000009021782846062908BF0120019001200290A068228A6368E16805F0E7F907469D
:2057300050460DF08DFD002F40F0A080B8F1000F02D00DF005F802E030460BF009FF0028B6
:2057500000F087800BF026FD21E00DF095FC012782460097A168A278606824782B46042CE6
:2057700008BF3B1C06F0C8F9074650460DF068FD002F7BD1B8F1000F02D00CF0E1FF02E03C
:2057900030460BF0E5FE002863D00BF003FD3F49C1F8B0510D60074668E00DF06DFC8246DD
:2057B000E08A0090E0680190208B0290A0780390207D04900121059122782846022A08BF3A
:2057D000081CA368E178626801F066FC074650460DF036FD002F49D1B8F1000F02D00CF032
:2057F000AFFF02E030460BF0B3FE002831D00BF001FD071C3AD1E078A168E28A236907F047
:20581000C5FEC8E70DF038FC8246E08A0090E0680190208B0290A0780390207D0490012000
:205830000590277807B90546E1786268A368284601F0A8FD074650460DF002FDB7B9B8F1EF
:20585000000F02D00CF07CFF02E030460BF080FE08B9142017E00BF0B5FC071C06D1E07825
:20587000216909F0E1FE96E74FF0FF37B8F1010F05D002200BF08CFA06200BF089FA484661
:205890000DF008FC384606B0BDE8F08750450240DD2B00202DE9FE4F0CAF99469346044688
:2058B0007D68029103F020FE061C00F0E1803888F082714F347597F8F40218B1012C04BF03
:2058D0001520307506F1780029460B220CF0C8FF002597F8F40275640028F5644ED0052CBD
:2058F00018BF012C45D14FF0040A86F85FA0F08A86F85D50C00934BF97F8850397F8AE03FC
:2059100059460A2286F85E0006F164000CF0A8FF9BF8080003282CD1032097F8893302900F
:205930003BB35B48643000EB8408D8F8000010F47F0F0ED086F820A0D8F8000006F1200155
:20595000012200F47F007062304601F0E3FAD8F8000010F0FF0F0CD02A2086F83000D8F809
:20597000000006F1300100F0FF007063304605F053FA97F8F40208B10D2C13D000950299EB
:205990004B4630465A46FFF775FD071C71D1E41F012C03D8707E40F020007076304605F0E9
:2059B0009FFA66E00520354986F85F00086810F0F70F18D02A2086F83000BA78086806F189
:2059D0003001012A00F0FF0070631CBF20F00800706397F8890318B9706B20F00200706327
:2059F000304605F019FA009502994B4630465A46FFF740FD5FEA000838D121480660348929
:205A1000756801A964200AF009FA1E4EA01C0DF1050187B206F170000780E9200AF0FEF921
:205A30009DF80500012806D13C46C4F30220022140F0180006E0241D0421A4B2C4F302207B
:205A500040F0080005F8010D671A05F8014DB9B2F567AD1C284607F00BFB9DF8040000286B
:205A70000CBF09480948C6F8B800B067474600E01A27F8B2BDE8FE8F08020020F83201003D
:205A90000C190020441300204E9055550E7A5555603201002DE9FF4705466878002840F00E
:205AB000E78095F88E1002291CBF0329E82095F883108029C8BFE82095F88410092901DB83
:205AD0000A2900DDE82095F8851009B1062905DB8029C0F2CC808A2980F2C980002840F046
:205AF000C78068480078884204D005F18501E82001F04CF905F18401E72001F047F905F126
:205B10008301E12001F042F905F19001502001F03DF9DFF8788195F88E0002280CD04FF670
:205B3000FE70A8F8800305F1860108F276300DF08BFA05F1860604E005F186063088A8F8E5
:205B5000800308F5FA7005F178010B220CF088FE4FF001090220A5F816903146287501A8C2
:205B70000CF0E2FC95F89270B5F890A0686805F19201002FA0F1010068600CBF0020484674
:205B90004F780FB140F002008F780FB140F00400CF780FB140F008000F790FB140F040004A
:205BB0004F790FB140F0800069684A1E6A6008706968287D0024401E087028896C6498F8A1
:205BD000F472EC64801C002F288141D0042785F85D40E88A85F85F70C00934BF98F88503A3
:205BF00098F8AE0331460A2285F85E0005F164000CF036FE95F88E00032829D105F16400B2
:205C100005F186010DF020FA98F8890300B31E4E306810F47F0F0CD085F82070306805F104
:205C300020014A4600F47F006862284601F072F9306810F0FF0F0BD02A2085F8300030688C
:205C500005F1300100F0FF006863284605F0E4F800942846832101AA5346FFF70BFC071C0A
:205C700002D1284605F03CF9381C01D106E0E820687018202870284608F0F2FA0090BDE866
:205C9000FF87C046BB050020CC320100080200202DE9F047044669480E4601681F4615469A
:205CB000ADF1380DBEB1B5B130784FF0010808FA00F001420FD01046002103F083FD666068
:205CD000A5600DF0D9F95E4D81462878022804DB48460DF0B5FA0020ADE0002861D102F092
:205CF000F1FD584908680DF1280A40F00200086050460CF0EBFF544E5449707852460C90F4
:205D100005F1B4000AF0F0FC514905F1E80052460AF0EAFC50460CF0A1FF30784D4A192148
:205D300053460B9005F138000AF0B0FB4A4A05F154001A2153460AF0A9FB4849002205F153
:205D50009000134609F004FF454A05F12400042100230BF005FEB078012802D10E2005F018
:205D700013FC05F178000CF00FFE05F170000CF00BFE002085F820004FF4FA72C5F82421B4
:205D90002875072185F8B811E861364B1870C5F8282185F821000526A86033492E61287814
:205DB000A96105EB8001401CC1F81C41C0B2287048460DF045FA1FB903AF38460CF00CFE04
:205DD00038682060B86941462062388A61746082786800280CBF40F6C4100021E06021741D
:205DF0002248A061E0616061F86800B1A061786900B1E061B86800B16061A02204F12800D0
:205E1000002107F0FDFC04F1400000210BF03CFC68460DF0E9F81649029404F178000022C8
:205E30006B4609F095FE134904F19C0000226B4609F08EFE20460EB0BDE8F087D421084053
:205E50003822002000200940D01A0020A926010095AC0000B9EF000021D30000ED1F01008B
:205E700029F70000DB2B0020359F0000EF370000092301001D3001002DE9FC41DFF8AC8100
:205E90000026054688F8A162687D062803DBE82088F8A102687DA97D0E2905DD032803D0C0
:205EB000E82088F8A102687D032806D1B8F84C0040083CBFE82088F8A10295F8280010B1E0
:205ED000E82088F8A102E87D092801DB0A2802DDE82088F8A102287E08B1062806DB8028C3
:205EF00001DB8A2802DBE82088F8A10208F52877294638460BF0EBF8291D112207F12C00F8
:205F10000CF0AEFC95F8280008F52874002804BF88F8E862A87D04D095F8290088F8E802AF
:205F3000688DA8F8DE02687E88F8E002A87E88F8E102E87E822788F8E202287F98F8A3635B
:205F500088F8E30298F8B23388F8E472384F88F8E56298F8B323C8F8C472042688F8C86203
:205F700005F11D0188F8E63204F1490088F8E7220B220CF075FC98F8A10200284ED16878AA
:205F900000284BD1287E98F8A2728DF8000017B1EA2088F8A10205F11701E72000F0F6FEF0
:205FB00098F8E80228B1287E022808BF01208DF8000098F8B3039DF80010884203D0E820B1
:205FD000694600F0E3FE1B4C98F8A232277867B9B8F8860318490880C3B1032B12D0052BD1
:205FF00005D0012B03D0022B01D00DF01EF8022020700AF001F84FF6FF70A8F886030F49D2
:20601000088005E009F0F8FF032000E0012020702720287030460CF051F801E02A20287002
:20603000284608F01DF9BDE8FC81C046080200203D2D0100F02A0020AA1800204217002082
:206050002DE9F04FADF1240D079002F03BFC604800780BF0E7F85F4D0024012806D90C3836
:2060700004D0401E0ED0401E09D006E00CF0D8FA022804BF01210C1C06D0696805E005212C
:206090001F2401E0032107246960534A1068C0F38150012806D152F80C0C0127020E07FA80
:2060B00002F004430CF0FAFD524AFF234018401E471C28607F1E02F8013BFBD1079A12688B
:2060D000002702F0FF03FE2B20D0DDF81CC096463B4601260EF0FF02FF2A10D0904205D395
:2060F000914203D806FA02F2144201D002206CE017430EF0FF02DFF8FCE00EF802305CF8C1
:2061100004EF5B1C0EF0FF02FE2AE5D1092005F03BFA07980121A86005F128000BF0B4FA45
:2061300005F19806A8464FF0010A4FF0040B0025A9460AFA05F0044216D1074204BF05F0FA
:20615000FF0141F4C04104D02A480799405D51F82010224804F0A6F8E8B24FF0FF310CF0FC
:20617000AFF8C6F8009001E0C6F800B0D8F800006D1C361D8542DCD904A80CF06FFD184C2B
:20619000184A2078102104AB059008F10C000AF07DF968460CF09AFDCDF80C906A466068F1
:2061B0001149029008F164000AF09EFA0F4951F80D0C20F4F85040F4005041F80D0C0C4FAD
:2061D000C1F8FFAF4846C7F800A009B0BDE8F08FDC2B002018100020B43F0050007FC7671F
:2061F000C43A0100ED2201009D0201000D300940080009405C1000202DE9F84F694C07461E
:2062100094F85901002800F0C780B4F88603F98F884240F0C18007F124000BF02DFC0028C9
:2062300000F0BA80002594F8890384F8595110B102200BF043FF94F8FF0110B101200BF038
:206250003DFF387C400905D310200BF037FF80200CF06CFD20200AF0A1FA04F5047007F07E
:20627000D7F87A685178107804F5007A00EB0120C0F30321C0F3003684F85511C0F3031322
:2062900084F88C3300F00F0184F8566194F8AF0384F85A110F2804D0884202DDD67806B99A
:2062B000014684F86D1394F86DB384F83052BBF10F0F09D194F8570102286DD10AF004FEF5
:2062D00005F010FDBDE8F88F37480078012802D00120FDF743FF354E7068804780460CF053
:2062F000B3F80AF061FC81462C4850F82B002063606309F089FAA16A48460AF033FE09F05F
:206310003FF8B1684046884794F8570102280FD1504607F07DF894F86D2304EB4200B0F8E3
:206330001C014FF470719140091A50460BF0F6FC94F88C633889294609F04EF8C4F84C01A2
:206350000F2E14D094F86D1394F85501B14208D0401C6FF00F07B0408101A1EB8005ED19F9
:2063700005E0401CB0408501A5EB8005A03DC4F85051022004F59E7584F85401284607F0A3
:2063900047F80748C4F84401D4F8501128460BF0C5FC10200CF0CAFCBDE8F88FFC320100BA
:2063B00011D7000008020020C11A0020901500202DE9FE4F984692460D4683460CF05CFE70
:2063D0000290654806680CAF5E450CBFD0F80490B146634C6FF00100B9F1000F019006D055
:2063F00009F19C000CF02AFC002840F0A4800BF017FC061C00F0AA800BF178000CF036FE6B
:20641000F560B4F98C009AF80430401C86F836306FF31F30A4F88C00C6F80880B4F88C0081
:20643000B0864E48C6F810B097E80C00202100271940104006F1180383E80300B84686F86A
:20645000377006F1200282E880013763F762DAF8003003B13363287B00F00F00022804BFB3
:20647000A868F062F06800886FF30900B0F5205F05D196F8370040F0100086F83700D4F8DF
:206490004401834507D194F85001410824BF00F0FE0084F850013846CDF80080484528D0FB
:2064B0005846494632466B4604F0AAF88046B8F1010F04D104F1700031460BF0CEFCB8F142
:2064D000020F0BD100990A6804F170001AB931460BF0B2FC02E031460BF09DFCB8F1040FB3
:2064F00004D196F8361000980CF0CAF838F0040004D104F1700031460BF09EFC18F1020F01
:2065100010D018F1030F0DD0B6F9340096F83750019045F0800086F837008BF8C0700CF0F1
:20653000C7F813E0B4F98C0000F6FF706FF31F30A4F88C0002E06FF00200019094F8500171
:2065500040F0040084F85001C4F844B102980CF077FE0198BDE8FE8F54230020FDEFFF9F82
:20657000382200202DE9FE43544F0646381D00688047534C00258046E01C05700EB10BF012
:20659000DBF894F8F40218B1D4F8F80200B1804708F038FA94F9A2030CF015FB0BF0E2F852
:2065B0000CF092FA0CF008F90CF0FAF8DFF81491072659F8040B00B18047761EF9D10CF07D
:2065D00037F904F14400016809B109F059FD3E48006884F84E50C0B112E030460AF000FBFA
:2065F000029002A809F04CFD1EE030460AF0F8FA019001A809F044FD12E0684609F040FD63
:2066100006F07AFD00280090F7D130480078012802D02846FDF7A2FD2D4804F1700605703C
:20663000206F0028E1D1361D606F0028D5D1256765672848C4F8800184F87A50264EC4F876
:206650008461264BC4F8883184F87B50244AC4F88C21A5702349C4F8901184F87C50224EAB
:20667000C4F89461214BC4F89831244B204AC4F8B8302049C4F89C21214A1F4EC4F8BC2099
:20669000224BC4F8A0111F49C4F8A4611E4EC4F8C0104046C4F8C460B968C4F8C8308847E5
:2066B00004F28931522000F071FB94F8A30309F083F808F0A7F92846BDE8FE8390150020B5
:2066D0000802002008030020D42B0020C11A0020DE2B0020BFE0000041300100391A0100AD
:2066F0002167000091A300004D2001000D0F0100558400006D76000085130100E7CE000039
:20671000117D000005E200000DC80000B1E90000F8B507466748B0F84C200021930804D236
:20673000B7F89230DB0828BFE82112F0600F04D1B7F89220920828BFE8215F4E3B8906F16C
:206750000E0212889A42B8BFE82197F8905035B997F88C50002D08BFF52100F0A680002912
:2067700040F0A380D7F8A05090F8F41215B9012903D026E0002900F0978097F88C40002CE1
:2067900018BF032C05D1D7F8A05045F00A05C7F8A05015F0FF0F07D02A21D7F8A05087F8E8
:2067B000301005F0FF01796315F47F0F07D00421D7F8A05087F8201005F47F01796290F8DB
