:20000000004B0020B9230100FDC90110FDC90110FDC90110FDC90110FDC90110FDC901108E
:1C002000FDC90110FDC90110FDC90110FDC90110FDC90110FDC901103BCA0110A4
:20003C00BD0400214D040021810400218504002121050021A10500215106002179060021DA
:20005C00F8B51047F8B50E4600210125AD0430470A48037800F00FF89B070BD0124C2078D9
:20007C00FF2807D0FF2121700E490F24240220436031C882F8BDF8B5014800476B02002147
:20009C00E54C0000094801E00848000C064C05492278FF2A01D1CA7A22706031C8827046E9
:2000BC00801C004700620840C8060021070F0808F0B4084710B501480047000089090000A8
:2000DC0070B503461546012906D0002906D0114A2846FFF7B5FF70BD0F4800E00F480524E5
:2000FC00834203D84008641E002CF9DCE340012040031818820B012907D006490023803111
:20011C002846FFF79FFFE0B270BD0249044B6C31F6E70000835C0000A0BC862300830D2357
:20013C0098060021F8B51A4E0546716B1948CC09E401002D11D01849097802290FD0007B18
:20015C00044372B60120154F4002B847114820380088C109C90704D016E0C07AF0E7407BE5
:20017C00EEE70F497463CC61400AC0070CD001208003316B002D01D0014300E081430846D1
:20019C0031630749403948630020B84762B6F8BD80020021880000219B0200217B3F00008B
:2001BC004040044010B5224A0021516121498968C90009D42149204BCA0598424B6B01D84D
:2001DC00134300E093434B631D49FFF771FF10BD38B51A4D287F002827D11A480088C009E2
:2001FC00C00722D1124C606900281ED1684600F04FF868460078012817D168464078102831
:20021C0013D208206061686A4009400120600E4A0021D1620D4A0221116001210843206094
:20023C00032108436862206038BD0948804738BD00400440180000210000930880020021EC
:20025C00CF680000680000210011044080E200E0C33B00000749002800D00420064A72B649
:20027C000978C90701D0105800E0802062B640B2704700006B0200215860044010B5034CF9
:20029C00FFF718FF20680028FAD110BD0011044003B40148019001BDA56F00000000000035
:2002BC00010003000A001F005900EB003902EA04F9099712EB1FA132784A0A66FA828C9E28
:2002DC0063B617C964D6EDDEC1E3E0E5FF0000003E606F14333C3C33CCCCC33C0500CF2F03
:2002FC009D0F3EDB7F7F0000010002000300000003000C000F00CC00C3003C003300CCCC65
:20031C0033CCCC333333000F0F0F0000030007001F000000000000040F0000008703010069
:20033C00C048430000800480F00600001E0924055400050000082048480000001F007F7FDE
:20035C004C01333C3C33CCCCC33C00002072487203730573037204730673047276737672D9
:20037C00C0C70180010001901090010801900C720D720E72C0B00071F0B0C0A018723281F2
:20039C002010523970062000301601110114016C746076608A600E617460746074607560C2
:2003BC0020126B60101220720F731073117381811000809170B052606A606A60E1C182C278
:2003DC0070C42018136F236E111612167A6882C410C8201887400312236E1216846800D0AA
:2003FC0070916A600F73107300C0C09109C07081803970061016101E9944B7C008C01EC0C9
:20041C00AA60201E9F44F7C018C03EC0AA60401EA54437C138C07EC0AA60801E684477C1FD
:20043C0078C0FEC030C0F965D8B0007108B1D8A000B280B403B013B002B012B0468146391C
:20045C00F4C046041616D0B004C03CC170C09092117870C012103206C214236F93940071B0
:20047C0000B12139C2681416641CC0441178F10B70C012103206C214236F9394007100B1BD
:20049C002139D168F4C4D5C666C0AF81F764E0811022E340DD6070C010160FC0F764E568E9
:2004BC00D1A030C0609740C08097F1B0C1B00071F1B0C1A0767203A002A020726A601F067E
:2004DC006F31F90091104104C197DA871A0691105104C197DB871B061B31BA1419397A14DD
:2004FC00A36F93949E92007100B10070F8B0E48A12410493F0C10094A07810941B7277815F
:20051C00761087397706C797D887181640D06798F965207830943078409440785094507868
:20053C0060945A65907810986D6507B017B004B1D4B005C204C0E165F265541C3849909179
:20055C0014165181011E33417116411C334DD7A0BE79CF79EE95FF950412F2651416541C78
:20057C004B419091456105A250C0F965D7A0D4A006720272047203720472057306737673E5
:20059C0076726A6061C0813102C0F3CF126E1116126E1116E0C7136E1116126E1116636926
:2005BC00F0CF126E11166969007006B016B004B014B002B012B070783090509080784090BF
:2005DC00609005B272B090C0B09317B1E7B016B1E6B0007173B007B1E7A0E7A0B0807022CB
:2005FC00A245E6A0E7A0D7B08EB8007116B107B141B061B0F0C0B0938FB8648914315495D7
:20061C0044A0007107B14DB06DB074B001B2007107B10070D7B089B844898431843D249761
:20063C006078309750C0AB69408701C21014603D04836431643D0418F0CF20350404049304
:20065C00B0C0B09369B060D06498F965007107B1D7A07D6109120A12D76509141A14171EB7
:20067C00D441D76519140A14371ED441D76509141A14D76519140A14893C8A3C00700071DE
:20069C0007B1007107B1F08780318039018881390070C2659B10AC10C265BD108D31DB149A
:2006BC00CD108D31DC148A31A9149B149C14EB95FC950070D7A079B0007104B1D7B0208846
:2006DC000070509840880022FA4530B800700000A36100007F1407134D00F1242E1F133F73
:2006FC00B00A3F0007FF0000304000400140034007400F404F40CF40CF41CF43CF47CF4F21
:20071C00CF3FCF2FCF1FCF0F000000000F00080000003F00000040003F00000004006800A4
:20073C000E00DC00060043001A00050000000000020000003F00000000000400C000000046
:20075C000400C0000000070050C00091007070C00091007082312100319110B10070018127
:20077C0001B100A18231329110B101911110418141224F40F106007051C0019130181039D1
:20079C00833108D01831416F3100319110B1831414165B680070251050C00091F4C3C0C003
:2007BC002014036F3110410422C082312100319110B163393110410482C0823121003191BE
:2007DC0010B163393110A2C082312100319110B1501015310514059200703F6452C03110EA
:2007FC0031066131C102426412C13110213971065131E102426400708A65996588C0208274
:20081C0050398039001E9F4041C001301814181A89C0308260398039001EA94041C0013067
:20083C001914191A3C64369110B1349110B154B0007154A064B0F0800022AF404012B090FE
:20085C0032B053825339533985643F6411C122C1426470C1C26811C1C2C0426470C1C76811
:20087C0050C00091277298921516141642105310F0C12182313131398139313151B070B28F
:20089C0072652772999270B262107310F0C331822131213981391B107265E2C08231608285
:2008BC0080318039020061B00071329110B151A061B0277230C2F36800008012B09032B00E
:2008DC00007050C000912772999262107310F0C3318221312139813951B070B27E652772C7
:2008FC00989270B242105310F0C1218231313139813931311A107E6551A061B02772B0C087
:20091C0018693F6401C122C1426401C1C2C04264151A3C64359110B153828564C012B0903C
:20093C0032B000703F6472C281C0426422C111C1426402C011C1426462C031C3426462C315
:20095C0011C1426402C311C14264538253398564E2C347641122404142C281C8426452C271
:20097C0011C1426472C2E1CE426402C281C8426402C201C84264B0C0546900703F6442C230
:20099C0001C8426452C211C0426472C2E1C0426402C001C1426462C001C3426422C101C16B
:2009BC00426462C301C1426402C301C1426453828564007061B000711214231C7A4D33911B
:2009DC0010B10070329110B17269007061B000711318321C8649329110B10070339110B1B8
:2009FC007E690070C2C047641510C2C01216476441311514C0C0803105145410A078040474
:200A1C000070E6C0863101CC161467106182F0C3010417140070067305720B720E7250B05C
:200A3C000071818060B050A092804122C3458080F1C11004301601110114016CD661D7619C
:200A5C00D861D961DA61DB61DC61DE61E061E261E461366339639180F2C0210421318280DA
:200A7C00422A1214321601112114016CEE610B62F4613963EE610B62F4613963E661E661E4
:200A9C00E661E661E661E6619464E661F964E6612A65E6615665E6614667E6611012B0900D
:200ABC000E720673057210123090A761F0CF3C67D4C103C0C0C354644078509150781092C8
:200ADC00607820927078309280784092907860923078909110824039F006011010311014C2
:200AFC0000924267E661BCA0E2A054A0F08050221546408000222B470D6240A02D828D3139
:200B1C008D391082F1C0100409101A824A391A041082803910040E10AB10BC10C2106364A9
:200B3C002972E0CF3C6713B003B0C86653B050B054B064B013B0A5661082E0223846AE66F9
:200B5C000071418001222B47F08010224B46F022184764B03122384263B0CE661082E02252
:200B7C0038467066386264B06F818F318F3DD0DFFF923C670071418001222B4764B0F080AD
:200B9C005022654263B01182C1226046CE6605671182D12252467066526261817281813122
:200BBC00813D8231823DC0EFF19202933C670B62B081C091D381978290A2D3187F4EF30B3B
:200BDC001316E31CA44AC391E3813B149062BA1C8B46231E8B4AE31C8B4E90B207228B421D
:200BFC0090A21B1A9662E31CA44AC391E3813B18AB1CA04E9B1CA24ABC1CA442B210108218
:200C1C00D0229D42F0801022A4466364A566A462AB1094629B10946200703082F1C010044A
:200C3C0063B00071A86ABC10E0B00070B281C291D281018212185181121841828131813D81
:200C5C00121CBF4AE2B032B0B0DFF2923C67F1C72114C34E12C86291729131B0E1B0007067
:200C7C0008C006C000C86091709100700182B081C091D0811018518110180614E1804282E9
:200C9C008231823D201CE44AE2B02122E84632B00510A0DFF5923C672122E842E2A032B0E8
:200CBC0031824139F0C00104011EF642181610C01030081C04476010103C0610F1C7611433
:200CDC00FA4E16C8669171818131813D161C014B769131B006C008C0007061818131813DC3
:200CFC00408280390118F11C174B0114B080C0221747BCB033B090EFF1920F933C6700704A
:200D1C0003A063B064B0EFB056650071408000222B4764B02A65EFA00071408000222B47D7
:200D3C0064B003B03862018262818231823D80EFF19202933C6703A05665E661A2806364A6
:200D5C00E66150B00071E661E092D08200223D47C0B20070A080F022594330B002C1623128
:200D7C0001C0A080001E5243F0225343A0F56031603953632010101A136F236E11161216EA
:200D9C00546B0070516A000041A3000000000000000000000000000035A700005B550100DC
:200DBC00BDFD00009D4F0100D3550100CD550100D94F0100000000004B5501000503010051
:200DDC009D0E0100D148010029A8000041510100F9CF000025750000453E0100552701006A
:200DFC00000000008D15010053550100F6C0080000004100000001C3100000024210000064
:200E1C0003C414000004C518000005C618000006C71C000007C920000008CB24000009CD71
:200E3C002C00000AD33800000BDA5000000C18B800000D3FA600000E3FA700007FFFFF3FA2
:200E5C0000F6C004000000C312000001C416000002C518000003C61C0000044418000005E3
:200E7C00C820000006C924000007CB2A000008CE32000009D24000000AD85800000BE590A2
:200E9C0000000C2BBC00000E3FAB00007FFFFF3F000500004B180100C553010045BA00000E
:200EBC00335501003756010071EE0000553D0100A9550100B5550100AF55010005000000F9
:180EDC008F560100C913010029F40000080E00005D0E00005D0E000032
:201000003C000000000000000000000034100000000000000000000001000000000000004F
:1C10200000000000000000000000000001000000000000000800000000000000AB
:20103C003400000000000000000000006810000000000000000000000100000000000000E7
:14105C00010000000000000000000000080000000000000077
:2010700030000000000000000000000098100000040000000000000001000000FFFFFFFF87
:10109000FF00000001000000080000000000000048
:2010A0002C0000000000000000000000C4100000040000000000000001000000FFFFFFFF2F
:0C10C000FFFFFFFF080000000000000020
:2010CC0038140000E410000095A1011091A70110A1C2011009B2011041B80110A5BC011078
:0810EC0085BC01102E0000007C
:2010F400280000000000000000000000141100000000000000000000FFFFFFFF0000000093
:081114000800000000000000CB
:20111C00341400003011000065C2011069C101101BC2011091BA011005BC0110E5BB0110EA
:04113C00300000007F
:20114000341400005411000071C20110A5B6011099BF011045B60110B5BA011025BC01104B
:04116000310000005A
:201164002400000000000000000000008011000000000000000000000000000008000000AE
:041184000000000067
:20118800240000000000000000000000A41100000000000000000000000000000800000066
:0411A8000000000043
:2011AC00240000000000000000000000C8110000000000000100000000000000080000001D
:0411CC00000000001F
:2011D000000000008C1D002004000000000000000000000020000000701000003000000062
:2011F0001C110000941D00200400000000000000000000000C000000301300001800000076
:20121000401100009C1D0020040000000000000000000000240000004813000018000000F9
:2012300000000000A41D002004000000000000000000000010000000A01000002C000000CD
:20125000CC100000AC1D0020040000000000000000000000200000006411000024000000FC
:20127000FFFFFFFFB41D002004000000000000000000000028000000881100002400000088
:20129000FFFFFFFFBC1D0020040000000000000000000000580000003C100000340000006D
:2012B000FFFFFFFFC41D002004000000000000000000000010000000601300001800000082
:2012D000FFFFFFFFCC1D00200400000000000000000000001C000000AC11000024000000F8
:2012F000FFFFFFFFD41D002004000000000000000000000038000000F41000002800000069
:20131000FFFFFFFFDC1D002004000000000000000000000054000000001000003C00000004
:1813300018000000000000000000000040130000080000000000000032
:1813480018000000000000000000000058130000080000000000000002
:18136000180000000000000000000000701300000800000000000000D2
:08137800020000007461010095
:041384000100000064
:0413880000000E0053
:04138C0000000F004E
:041390003200000027
:041394000100000054
:04139800E81C00202D
:04139C00000200004B
:0413A000BB55010038
:0413A400FDC901106E
:0413A8000000000041
:0413AC00000000003D
:0413B0000800000031
:0413B4000000220013
:0413B800F41A002003
:0413BC00010000002C
:0413C000001D0020EC
:0413C400080000001D
:0413C8000000000021
:0413CC00000000001D
:0413D0000000000019
:0413D400080000000D
:0413D8000000000011
:0413DC00000000000D
:0413E0000100000008
:0413E400F01B0020DA
:0413E80006000000FB
:0413EC0001000000FC
:0413F000D0190020F0
:0413F40000000000F5
:0413F80000000000F1
:0413FC0000020000EB
:0414000000000000E8
:021406002900BB
:021408000100E1
:02140A002500BB
:02140C003000AE
:02140E003100AB
:021410002E00AC
:021412000100D7
:0114140001D6
:08141800030000003C6101002B
:081420000000000000000000C4
:0414280000000100BF
:04142C0000000300B9
:0414300083C4011060
:041434003C14000064
:041438003C14000060
:04143C0000000000AC
:041440009000000018
:041444009000000014
:0414480000000000A0
:04144C00001D00205F
:04145000AD51010099
:041454002000000074
:041458000C61010022
:04145C0068600100C3
:0414600009C30110AB
:041464006F350100DF
:04146800FB43010041
:04146C0095C801100E
:0414700097C8011008
:041474000000000074
:041478000B61010003
:04147C00805F01008C
:04148000985F010070
:04148400685F01009C
:0214880008005A
:02148A00090057
:02148C0001005D
:02148E0000005C
:01149000015A
:041494000000000054
:041498000000000050
:04149C00000000004C
:0414A0000000000048
:0414A400935601005A
:0414A80025300100EA
:0414AC002D430100CB
:0414B0007134010092
:0414B4003D350100C1
:0414B80055280100B2
:0414BC00B1EB000090
:0414C000B75301001D
:0414C400811401008E
:0414C8000DC801103A
:0414CC001DC8011026
:0414D0000800000010
:0414D40024000000F0
:0414D80018000000F8
:0414DC0028000000E4
:0414E00020000000E8
:0414E4003C000000C8
:0414E8000C000000F4
:0414EC0034000000C8
:2014F00083482DE9F04F0C4601210170DFF80892DFF80882DFF808A2DFF808B27D499C464B
:2015100020270023ADF1540D002517EA0C070B70C949119291F88033C849CDF848C005EAE0
:201530000200139108BF00287AD111984FF0E04761462A460F4002EA000008BF002843D157
:20155000129E119B4FF48600B9F8AA10DFF824C3CDF82C9012EA060700EA030008BF0028C7
:2015700019D1C34812EA060700EA030008BF00286ED037464046119E048100F1380341811E
:20159000002F83E8C00004BF331CB3F1806F5FD102295DD111E037464046119E048100F19A
:2015B00038034181002F83E8C00004BF331CB3F5803F4DD1B1F5505F4AD1006A67464369FA
:2015D00038682146984741E046465146B6F9087091F90000BC42A0F10100087017D1728935
:2015F00006F1380003C8002904BFB0F5803FB2F5505F08D0002904BFB0F1806F022A02D0E9
:201610000FF034FD03E010F067FC13F0C5FB139890F90020521E02706FF00101318113E045
:2016300046466FF0010006F10801088063B1BE480078832802D0812059460870316919B1FB
:20165000284688472146E9E7CDF82C90B9F8AA10119A129E02202F461040374008BF002872
:2016700000F0D183B24A43F201408842149200F0A383C01C884200F09F83504690F9000047
:2016900052464746401E1070B7F90800844209D0139843F604078F420A9040F09E8313F032
:2016B0008DF99AE3644890F880C307F1380090E800034FF482062F4617EA090706EA0800AC
:2016D00008BF002820D113980C4F0A9007F1380003C84FF400322F460F4002EA000208BF91
:2016F000002A02D10FF0C2FC77E310F0F5FB74E3491D0020401D0020081700207019002094
:20171000471D0020672E00202846BCF1010F59460E9002D00F78002F7AD1844C8120149E22
:20173000277808702B46A5816069A770427A017A337002F0070301EB032152098DB234BF98
:20175000291F891EDFF8F081437A8DB233F07F0340F01D8377490988A942C0F218830A300E
:2017700029460DF08FFC216A04F118000522083113F05AFBED1EADB20D960520E17E227FE0
:20179000A37E2D4EA081C1F3011B227103EB012096F880136081002908BFBBF1020F00F06B
:2017B000F682BBF1020F00F3F28269B110F0070F00F0ED8241B15C490978862904D100F062
:2017D0000701022940F0E382011301F00201022952DA6378DFF8509100F00700022836D117
:2017F0004646D6F804A0002B31D1216A09A801220D3113F019FB0620A081D047804699F845
:2018100000300D48B56847680C96862B18D10FB913F0E3FE9DF9240013F029FF9DF9246080
:2018300078770020B8774046FE77A847608900F010000EF0DBFB05E008020020461D002021
:201850004046A84713980A9013F028F9A5E299F800000026862808BF01261398CDF83080A0
:201870000A9076B1002010F083FBA77808E0C04600000C8C341B0020CDF8308013980A902B
:2018900063788FB183B9012F00F07E826089022F03D110F0070F40F07782032F05D100F09C
:2018B0000701032901D06FE2608901094FEAE00C09D310F4405F00F06782BA4991F824742E
:2018D000002F00F06182011301F00201022902DA810A80F05982B2490978C1F381098E11B8
:2018F000B9F1010F00F05082012E00F04D82AB49BBF1020F09D08A5D11F809108918CFB2B9
:2019100006B3C1091ED3BF1E0BE072184944127909798918CFB2C10910D259EA060311D05C
:20193000BF1CFFB20EE0C0466B2E0020782D0020692E00203A1D00207C18002059EA06036B
:2019500008BF0227C0F30020391A60718D42C0F21B82ED1B5FEA5C010544A8B2208124BF9D
:2019700025210E910E990818743080B212F01EFE65782061002800F00782002174220DF004
:20199000FDFF0020E070B4F80A801DB90D9908F02000087000250D9B60790F951D7810900A
:2019B000002D3BD0051C39D108F00708B8F1030F06D0B8F1010F22D17A4890F86E04F0B113
:2019D0007848B0F85C000023810809D3754991F88A5095B94D681DB16D7E35F07F050CD148
:2019F0005BB98008984605D385498D68887805B1A84710B9B8F1000F01D00420E0706948A6
:201A100090F8800310B1BBF1020F01DA12F0F6FB6079B4F80A801090E0780F90216901F13D
:201A300074004860886525890D812089A1F85C005FEA18100FD31098C0F1030082B2A1F837
:201A50005C20886DCF4913F0EFF92169B1F85C20886D801888655248CA4B0078C0F30112EC
:201A7000109D18780F9BA1F80C8000F07800104318430874FF228A7320790E9005B100208D
:201A900081F8306081F83A9081F84900A089002F2946A0EB010085B2A58100F06A81BA469D
:201AB000216AE780684652464919083113F0BCF93B487F19BDB2A581216900780A7C6E469F
:201AD000C0F3011B801002F0400910F0030F00F0030744D0BBF1020F4FF0000301D1D00992
:201AF0000BD29DF801209DF8000000EB0220A1F844000DF10206A1F84200C94AB1F84400E3
:201B1000B2F85A20824203D04FF6FF72824223D1032F12D072783078C14B00EB022082B299
:201B30004A86B3F85810B61C0120914213D04FF6FF71914218BF00200DE0C94800683146AD
:201B5000323013F05CFDC648B54900684F31323012F0B2FF08360346002B00F00D81104826
:201B70000078831126D02069BBF1020F03D0017CC90903D309E059EA070706D17278317871
:201B9000B61C01EB0221A0F84210032B0CD07178327802EB012202850CE0C046546101008E
:201BB000932D002008020020AD4800683146283013F025FD08F00708B8F1030F07D0B8F178
:201BD000010F39D1A84890F86E74002F34D0A6482669D0F880704FF00008E7B17B7E33F01E
:201BF0007F0314D096F8300002280BD003280ED107F1700006F1280112F05EFF38B11BE0D7
:201C10004C1D0020B7F87000318D884214D057F80C7C002FE2D1B8F1000F0DD1914F594BCD
:201C30004046E07038784246C0F3011118780F9200F07800084330748B4890F8807317B123
:201C5000BBF1020F0BDA0D98077847B1109830B90E980F990EF060FDA589B4F806A0206973
:201C700081890909C0F08580806D6946524613F0DBF82169886D50448865276AB1F85C00E3
:201C900001225044A1F85C000DF125007919083113F0CAF86E1CB5B2A58121699DF825007A
:201CB000896D087021699DF825709DF82530886D401C8865B1F85C00401CA1F85C0007F07D
:201CD000070081F82400C3F3C10781F8257091F8246020898046002E4ED05F497F183E7807
:201CF000361D8642E68047DC216A05A832464919083113F099F838789DF817209DF814101C
:201D10009DF8163040193D78001D01EB026180B201EB0341A0819DF81530206901EB032168
:201D300081616DB14E4800686D1E06A92A461C3013F07AF8397820696944C97D80F826104F
:201D5000806D05A9324613F06FF82169886D80198865B1F85C00A8EB06078019A1F85C00BE
:201D7000781E82B22281B1F85C000A818018A1F85C0000F06BFC10E013F07CFB0FF076F99A
:201D90000BE0C046922D002013F08CF905E013F089F9CDF8308013980A90DDF83080D8F862
:201DB00004008047216A0A680023137109682162D8F80810884710E0404680784146574667
:201DD000401C887097F900005146401E08700FF04DF912F0F3FD13980A9023480B99104FB8
:201DF00000226FF0010690F88003A1F8AA203E8110B11498007808B912F0CEFF0A9991F97C
:201E10000000401E0870194890F9000010B9134800210170139A92F9000098B102E0C046D3
:201E300070190020119B129F02214FF0E0401940384008BF002908D092F90000002804DCDE
:201E500013F0CBFB002003F04BFA0949002015B00870BDE8F08FC046145801003E1D002090
:201E7000882D0020932D002008020020471D0020491D00202DE9F04F0320ADF14C0D11F0F9
:201E900047FCD249022001F11C020023401E42F80C3F1F469760F8D18A463D460AF14000E9
:201EB000062701467F1E21F80C5BFBD10821C94BC74FC94E01801B1D0AF11C04876023F07D
:201ED00003031A46F11ACAF820101046CAF818301E46CAF81C305B18834200F296838810E2
:201EF0004FF0E80B21F0030102EB800040F8045CEC39C6F800B02846C2F8E810E832CAF8F7
:201F100010201DF0AFF9CAF81400D0492068B34FCAF810000A6807F10C0002604968416057
:201F3000CB498146082212F09FF928B9C94801684A46116040685060C748C849C0F8B010A6
:201F5000C74FC0F8B4702E46C0F8B860C54CC0F8CC60C54BC0F8BC40C44AC0F8C030D0F804
:201F7000B010C0F8C4203746C0F8C87000F1B00609B1384688471DF0EDF9DFF8F882394617
:201F90003C2208F118000DF0F9FC10240820ADF808000227ADF80A70DAF82410039402A838
:201FB000884700280CBF049F2F1C08200124ADF80800DAF82410ADF80A4002A88847874929
:201FD0009DF80C00049C0A46087054606FB1D02139707D70B8702C46FD702B463D713946E8
:201FF000BC600220FB6010F0A9FCA149182001221DF0EEF8484613F0E3F818201DF0CEFBE1
:2020100076490F4648707868C8F808000BF01CFE08F154003946CB4C8860D8F8087066624C
:202030002946F520A76012F0AFFDF820294612F0ABFDC54E0D200E27707006F10C01B770A6
:2020500006F118000BF0D2FFB060707812F094FF00280CBF08272F1CB07812F08DFF08B924
:2020700047F01007B949B06813F0BCF9B849C82206F1240010F058F8B6487060102F10D1EC
:20209000606A70B1C26862B1FF208DF820004FF6FF77ADF8227008AEADF8247096E80300E2
:2020B0009047A4A013F03AF8DFF8AC9209F1140009F108010BF09AFFC9F80400284613F0D0
:2020D000BBF92F461190A9F1020606F8025F02207070384613F016FA0146119AD9F80400CB
:2020F000C9B210F0B7FE7F1C022FEEDB9B4909F120004FF4FA7210F017F8994E06F1100061
:20211000311D0BF073FF81213060584612F03CFDE7200A2112F038FD5520032112F028FDC0
:20213000E0200C2112F030FD4F20032112F02CFD5720052112F028FD4E20042112F024FDFB
:202150005920032112F020FDC44904F12C0064220FF0EAFFC249E0604FF47A7204F1E000C8
:202170000FF0E2FFC8492062642204F150000FF0DBFF2061012108F1040012F0BFFE4FF09A
:202190000609C54EB8F804004108C0F0868098F80170606A002F7AD1294600280E9130D0DF
:2021B000076977B38DF82890ADF82A900EA800900AABADF82C5093E803002A460423B847A9
:2021D00070B90E9819300E90606A1CE07C18002041F901006C2E0020004B0020181D00200A
:2021F0008DF828902846636AADF82A900AAA0F905F69ADF82C5092E803000FAB0422B84760
:20221000606A29460E91002836D00769002F33D08DF8309002AB00930120ADF832000CAAD3
:20223000ADF8345092E803000E232A46B84718BB0E980CF0FDFC0FF02FFFC1B202A80DF093
:20225000EDFF012088F8000021E0C046C8FF01005C610100F012005018080020D5260100C6
:202270003D2A010065DF00002D2E0100A5C10000A93F0000E01700200E9888F800500CF06F
:20229000D7FC012012F018FE012012F033FFAB48012112F028FE40468088810807D307F0A8
:2022B000B7FAA648022112F01EFE40468088C10860D3A34832220C3830F80C1F4FF6FF7317
:2022D0008B420BD041894B0808D301F44073B3F5407F03D14FF6FF4319404181521EEBD19D
:2022F0004FF440704FF4807111F026FC00283BD1934F32200C3F37F80C2F4FF6FF719142DF
:2023100030D079894B082DD311F4407F2AD102208DF81000ADF8082002A809F0D7F918BBCF
:2023300078894FF6FF5140F480707881084078811AE0C046544920436F6C6C6563746F7235
:2023500000C046C0041600201C1A0020D52E0100014D0100514E0100B01A0020ADE70000A6
:20237000B41C0020401EC6D17448042112F0BBFD40468088000925D37048082112F0B3FDAB
:202390000A208DF80800B8F85000014613F06DF98DF80900084613F01DF98DF80A0002A898
:2023B0000FF038F8A44812F073FF012802D1A24813F059F9206942F2107113F0CAF89E485A
:2023D00013F04FF9B188480805D39C48012112F08AFD30468188880805D39848022112F0C6
:2023F00082FD30468188F07FCA10520875D3B768401E69D0401E65D0401E42D0401E66D196
:202410008C4902A80E220BF057FD384650BB2846B06087498DF8155005ABE12218201CF0F6
:20243000D7FE502002A912F0C3FE814903AB1820E2221CF0CDFE0DF10A01532012F0B8FE1A
:20245000F06818B1016809B102A88847B07F022814BF0320042012F02FFD38E0914A01001A
:20247000594A0100076850B1082107900523ADF8181006A8DAF82410ADF81A308847384693
:20249000C4E7327E708B04E03D4A0100401C80B270833B4609E0C046E4100020997C8A4284
:2024B00002D1D989884203D01B68002BF6D129468142EBD0B18B532012F05AFB28460DF067
:2024D0001BFA04E0284600E001200EF0C1F95B48082112F008FD30468188C8080AD341206C
:2024F000294612F039FB484612F0E6FC5348042112F0F9FCA08840083CD3A07800090DD37E
:202510000EF0D6FA4FF6FF71ADF80800814205D002208DF8100002A810F02CFCA0784009F9
:2025300023D3207870B90120207039A012F0F6FD4120012112F010FB05200CE0E417002099
:2025500084110020257036A012F0E8FD4120294612F002FB484612F0AFFC394812F098FE41
:20257000012802D1364813F07EF83648A570012112F0B9FCB8F8040000287FF403AE0820C4
:202590000A27ADF808004FF0FF33ADF80A70DAF82410039302A8884700287FF4F3AD082045
:2025B0000727ADF80800DAF82410ADF80A7002A888470028049F9DF80E209DF80C001097BC
:2025D0007FF4E0AD2049097891420ED11E494978814207D01C4989684B6C33B129463A46AD
:2025F000984702E0384602F04DF8109800283FF4C9AD0820ADF8080003230397DAF8241041
:20261000ADF80A3002A88847BCE540F8045B63E45065726D69744A6F696E2D4F4E2000C028
:202630005065726D69744A6F696E2D4F464600C031230100745D010054160020E8100020F8
:20265000C016002008160020181D00202DE9F04FB64D28692C89296AAE89806DADF1440D9D
:2026700022468919083112F0DFFB2969886D00198865296A3619B6B2012210A8891908319E
:2026900012F0D2FB296A761CB4B2042209A8AC810919083112F0C8FB9DF827109DF8240027
:2026B00000EB01602B699DF82610241D00EB01409DF82510AC8100EB0120099012F0C0FC98
:2026D000D863099812F050F9A3F84000EA2012F029FA022196482C690170217CE87808436A
:2026F00020749DF9400012F0C2FF84F8460021899DF94000DFF8F4B284F8480004F17400B1
:20271000A065B4F85C00401A61684FF0000AA946401801466060A08984F847A0820A18D2E0
:20273000020955D310F0070F07D000F00700032812BF081C6068401C46E06168C87800F00F
:202750000702401000F0380000EB42004018001D3AE00CB912F041FFA089800A2ED36168A8
:202770004878C7112AD12589616650464B780A7803F07F035B0003EBE2137E2B0DD07F2B83
:2027900009D002F07F0280188918801C891C80B28542EBDC08E0514600E00121801C84F80A
:2027B000601080B2854201DA504605E06168091861602189091A2181A4F86800606E10B19D
:2027D000B4F86800B8B160686061A089000918D294F86000002800F0198120460FF000F9CB
:2027F000D9F81040E06C002800F01081B4F85000002840F00B8112F02BFE5046C9F8100041
:2028100035E2504656460A9094F824700B900AA90BAA0CAB0C96204603F0F2FD002840F0A9
:20283000E8800A9B656960682689291A701A86B20BB912F0D2FEB4F85C00009001950B9BC7
:202850000296181D03900A98A169A36D3A4615300CF082F8002840F0CC80BB4894F860502E
:202870002689C15D701A208115B120460FF0B8F8A58905F00705032D02D160680078E073B0
:2028900094F80F8073200EA911F084FA83200DF1420104F083FC5146DC460AE0C278012AE5
:2028B00003D1002F08BFDC2028D0001D491C0E90C9B29DF84200884240F39A800E98827821
:2028D000032D07D00378AB420DD09CF800600EB1022D08D0032DE8D10378032BE5D1034651
:2028F0005B784345E1D1BB10B3EBA20F05DA02F0030207F003039A42D0DD504680460A9847
:20291000E77B90F814E0514601E0491CC9B28E456ADD06694B00032D06EB03020AD1F35C4D
:20293000032BF2D15278BA42EFD10CE0782D0020672E00201278AA4205D09CF80020002A81
:20295000E3D0022DE1D10B98077C002F08BFB8F1DC0F4DD0A069B0F1FF3F43D071200DA9C4
:2029700011F018FAB448078947B30D9D514684460A9A95421CD19CF80AE0BEF1000F08BF38
:2029900050460CD00B98C2687346504696888E4205D05B1E02F1080200F10100F6D18645DC
:2029B0001ED00B9AD268A36952F830209A4217D87F1E05F12C0501F10101D9D1C2000B9802
:2029D000A169C368491CD150C0681058B0F1FF3F02D10C980121C17084F801A0504609E057
:2029F000DB2007E0DB2004E0DC2002E088050020DD206070D9F810406070A0696778606510
:202A100027B1F22012F08EF8D9F810409A4D95F88003002800F0AB80A189DFF8608201F005
:202A30000702022A63D199F80170002F5FD16778002F5CD1D9F810108DF841A004A8283125
:202A500012F0DDFDD9F8101006A80A22283112F0EBF9414601F11002D9F81070D5F8A43300
:202A70001088401C1080786E04210DF141029847444609F1100B28B9686818B19DF8411098
:202A900080F86810D9F8107097F83000022811D1DBF8000005F57B710E4602222830203140
:202AB00011F0E2FB30B906F1160104A812F0A7FDD9F8107072480078862807D1608A401C90
:202AD0006082B88900F010000DF090FA95F8800328B1D5F8C81311B1D9F81000884712F037
:202AF000B7FC5046C9F8100011F0D8FFC1E0654A1778002F30D0C1F3013102292CD16078E0
:202B1000002840F0B4809DF840005F49464699F803700870B08A04F128021C34002F00F1CB
:202B30000100B0820CBF50460820584953460B6000900194B5F81234117A0D2003F072FDF2
:202B500020B911F05BFB03E01858010011F028FF5846D9F81040007848B1D5F8C81331B1FF
:202B7000204688472846D9F8104090F88003A7890F9407F0070760B1A07BFF2873D0032FD6
:202B900005D1204640680078042802DD6BE0012F69D1381C3AD0401E50D0801E63D1A08932
:202BB000C0F30130022803D16068007807282BD02089002857D0204641684A1C42600F7823
:202BD000A446C7739CF824606EB9002F4BD00A2F49DA2F490089C95D814209D0082F42D1CF
:202BF000082805D03FE0C07B00283CD00A283ADA20460189491E0181C17B0B3101700F9982
:202C1000C87B401CC8731BE0322018E095F8F9030F280BD012F032FA40B90F9881890913F6
:202C300001F00201022901DA2969884795F82F040F9C2074152002E02C1D002016202070E4
:202C50000F9905F1840010F0D7FB124C6068804795F88C10491C85F88C10A16888472020C4
:202C700012F03EFB3DE70FA80FF026FC39E70EF0FDF911B0BDE8F08F08020020501C00205E
:202C90006B2E0020692E0020661A0020941B00201F5801007C1800202DE9FE4FDD498146C9
:202CB0000122A1F130000260D8480768002FFCD0D74AE34EC027D848D84B1760326892080C
:202CD00008D2324652F8042C03F14104120C42F0F00222704FF0000A8346C1F800A0DFF8C9
:202CF0008CC3DBF80810E04F0191880E43D2480E41D3802018744FF6D802A3F851201870D5
:202D10003868C0F30464162CA8BF203C1E460F3E307800F01F001628A8BF2038844223D0C5
:202D3000624602F1980EE44ACEF800A0251A022D05DC15F1020FB8BF6FF0010500E0022565
:202D50004019156800F01F05844245F4F855A6F866504FF001051560E8D110682E46166004
:202D70001068CEF80050106838460068C0F30420162808DB06E0A7F1D0000068C0F3046092
:202D9000162800DB203800EB2170401C162805DA10F10A0FB8BF6FF0090000E01520D54E8C
:202DB00000F01F0040F4F850A3F85900306880083ABFD148C0F800A041F040616246C80EAA
:202DD0008E0E80F0010000F00100106086F0010000F00100906001980DF0D4FD0146182037
:202DF00010F06AF9A7F13806CD4C30683568A4F10408C0F3870105F0030041EA0021D8F84C
:202E10000400C04D446840F2FF32534688B22C21009028464038A047F06AC0F30D011C20AE
:202E300010F04AF9B549706A014000F07C400143142010F041F9316A01F47C000904090C9A
:202E50000143102010F038F97D4AB06A1268C0F30351C0F30344520813D2DBF80020130517
:202E700011EB237103D41029A8BF0F2100E05146120414EB227403D4102CA8BF0F2400E05C
:202E9000544644EA011400F47F4200F0FF01B9F1220F42EA044241EA020124BF00F0804092
:202EB00001430C2010F008F9954CB9F1220F32BF01202068C0F30070B9F1220F4FEA4000C4
:202ED00040F0200085F8090126BF2068C0F3407001208D4EB9F1200F40F0100085F809019F
:202EF00038BF514606D33168C80C00F44070C1F384510143282010F0DFF8B9F1200F26BFA0
:202F10003068C0F301505046B9F1220F4FEA400040F0600085F80C0126BF2068C0F3C060C1
:202F30005046B9F1220F4FEAC00040F0800085F8010126BF2068C0F345505046B9F1200FC4
:202F50004FEA800040F47C40A5F89C0138BF6F490AD3306801038A15920501F47C1100F0AE
:202F70000F00114341EA0031082010F0A5F8CC3F4FF480002860664AB86D40F21E216FF3BF
:202F90001F40814216D93868030E03F00F0113F00F0FC0F3034018BF491E072805D00628D5
:202FB0000EBF0720801C00F00F0041EA0011A2F108000170DDF804C0CCF381477F1E02D09B
:202FD0007F1E31D02CE02068810C29D24FF480412960D2F80210430AC0F3033703F080030E
:202FF00021F08F010B4347EA0301C2F80210D2F80130060A66F30303C2F80130116800F013
:20301000E70721F0E70147EA01000CE09402224300600C4040100940AC3F00501562084061
:203030004FF000402A46106005480068C0F3C0070FB94020A8624FF40070286402E0C04699
:20305000B03F005020684027C0F3C14040F0300085F8C800CCF3815080B3401E08D0FFE7FA
:20307000401E23D0022122E08813005000002043012010F0C7FC0646042031460DF076FE40
:20309000042010F0BFFC8642FAD12248066826F07F4010F025FBD8F81400036807214FF02B
:2030B0006022300E98474FF480602860032104200DF05CFE09E0C0462C200940042001214D
:2030D0000DF054FE144810F00BFB203C206800F03F0085F8CB0FD8F80030124ED96830688C
:2030F0000220884710480D4C076001212160BDE8FE8FC0460000094094042A43FCFCFC009A
:203110008C13005040A00C409813005000803F400A600840A83F0050BD37860094046042ED
:20313000A40100102C20094000600C402DE9F04F0D46C54C01686162416880686160ADF1B4
:203150002C0DA06028460FF0F5FE4FF008094FF0010BADF8089002A8ADF80AB0616A089082
:203170008847BA4E9DF80C1071700499716108B111F044FB28688047A046D8F80400804796
:2031900009904FF40057ADF808901E20D8F82410ADF80A000898039788470FF007FEAC4CB9
:2031B000206C40688047206CC16868468847206C83686A46002001469847E06308B911F060
:2031D0001DFB11F0EDFCA44FC4F8DC70A44AC4F8E420A449C4F8E8109E4830610025A4F85B
:2031F0005C509E4BC4F8E0309F4FC4F8EC7004F5C872C4F86C2104F1C801C4F8701104F1EC
:20321000DC00C4F87401994BC4F8F03010F0ECFC04F1F40704F17003C4F88471944AC4F846
:2032300088319449C4F8C42004F14C00C4F81411914FC4F88001914BA760914AE36091492E
:20325000A261914BE161B4F85C70236647F00200A4F85C008D4A62668D49A1668D4FE76666
:203270008D4BC4F8183204F16000C4F88C018B4AC4F828228A49C4F838128A4F276110F0AD
:203290009DFC04F144018A4AC4F88011864B6261864F6364B4F85C00A76440F01000A4F80B
:2032B0005C008448C4F81C0110F088FCB560834F87F800B0804B1D60B4F85C007D8040F0E6
:2032D0000800A4F85C00022010F0B8FEFF210222F06212F0D2F9F01CFF21022212F0CDF98B
:2032F000022010F0ABFE764F386008B911F086FA38682946022212F0C0F907A806A90FF009
:2033100071FDF06A9DF81C10421C01709DF81C00107025709DF81C00B07011F097F8B0610D
:20333000089FD8F82410ADF808901420ADF80A00384688471523ADF808900398ADF80A3076
:20335000D8F82410F0613846884703985E4FDFF884A15E4B3D70801E30625A4E1D700AF1C1
:203370000E023570108875700E30356180B211F01DF9074677610FB912F02FF902978DF8B9
:203390000C509DF80D00524965F301008DF80D009DF80D00534665F383008DF80D00D88990
:2033B0009DF80D20088065F307128DF80D20ADF80E00706902A94A4611F036FD3762756225
:2033D0000FF036F8444E3078012802D0284601F087FF42480570424F3D703078012802D0B6
:2033F000284601F07DFFD8F808100998884700F00FFC11F0FBF894F82F040EF049FF5846F8
:2034100001F06EFF0CF0F3FA364805703078012802D0284601F064FF0DF0E0FB1820324F6C
:20343000ADF80890314EADF80A00D8F82410039708980496884708B112F0CFF802F0BAF844
:203450000BB0BDE8F08FC0467C180020601B002008020020CD1F0100E56F0000DD100100CF
:2034700097470100A5B0000039BF00008DF80000805A0100D5CD0000BD0F0100511E0100D1
:2034900029550100B1520100B19C0000BD95000011220100053301009D19010069FB000072
:2034B000FD5501004D800000ADD00000D19D00008D8F00009D450100482E0020EC1D002033
:2034D0005C2E0020782D0020672E0020692E0020C81700202C1D0020491D00206B2E00205A
:2034F000622E0020682E0020BB010100E41C00202DE9F04FBF4C0546A07AADF1340DC00015
:2035100010F09CFDDFF8F092089009F10400006880470B900AA9822003F040FEBDF82800E6
:20353000002834D14FF000084FF6FF76ADF8288024E0ADF81460BDF82800ADF81660FF21CB
:203550000822ADF8100006A812F097F8A77A57B143461946089AC8007F1E01F101011350CE
:2035700010448680F6D18DF82480D42004A902F0BDFABDF82800401CADF82800A088BDF8C4
:2035900028108842D5DC82200AA902F0AFFAB94F0020A0464FF6FF79A2463988ADF8280037
:2035B00006E0B44FBDF828003988401CADF82800BDF828008142DCBF8F48816840F34F814D
:2035D000AD4800784FF0000B01265C460FE08A49B8F804008968641CA4B2ACE0BAF80600DA
:2035F000641CA4B23CE0A448641CA4B20078A04208DC002ED5D1BBF1000F2ED1687F00282C
:20361000CFD02AE0BDF828008DF802406946ADF80000D02003F0C2FD0028E4D19DF80C30A9
:20363000012B08D19DF80B0028B90DF1030011F0EFFB0028B5D16F7B002F0CBF0522092224
:203650005E469F42CFD10DF1030005F10E0111F00DF80028C7D04FF0010BB8F80600002445
:20367000A0425CDDBDF82800ADF802406946ADF80000D12003F092FD0028AFD1BDF8040033
:203690008145ABD0ADF8100004A9D42003F086FD00285AD106A8291D082210F0E7FF00288E
:2036B0009CD028886F88ADF81400BBF1000FADF8167022D0287B98F80A708DF82400381CAC
:2036D00008BF00200FD00899024600208B88994509D0BDF828609E4205D0521E01F10801E4
:2036F00000F10100F2D187422FDD0899AA69C000BDF828700A5040188780D42004A902F023
:20371000F5F9BBF1000F0AD0287F9DF80610884205D08DF806006946D12002F0E7F9B8F878
:203730000600A0427FF43DAF3349B8F80400DFF84CA189680024A04240F38F80ADF8104010
:20375000D42004A903F02AFD18B12B498968192486E006AB184611F05BFB38B9291D1846D2
:20377000082210F083FF00283FF431AF6F882888ADF816702E7BADF8140098F80A708DF88F
:2037900024603B1C08BF00200FD008991A4600208B88994509D0BDF828609E4205D0521E2B
:2037B00001F1080100F10100F2D1874203DC124989681A2454E0089A2E1DBBF1000F0CBF70
:2037D0000021A969C00011501218BDF8280031469080082206A811F027FB9AF8800330B106
:2037F000DAF8D0231AB1BDF8101030469047002606E0C0462C1D00207C180020761CB6B2DE
:20381000B8F80600B04221DDBDF82800ADF802606946ADF80000D12003F0C0FCE82803D037
:20383000BDF804008145E9D1BDF810000023ADF804002F7F8DF8073004A98DF80670D420A8
:2038500002F054F9D120694602F050F90C488168B8F80400B0427FF7BEAEA042A9D00024FA
:203870000B988847089810F0D1FD20460DB0BDE8F08FC046341D0020371D002008020020FC
:203890007C1800202DE9F04F064692F808B0307D09AF8846ADF1240D04933528039205D021
:2038B000114606F170000A2211F0BEFADFF8C8C238F07F0506BF604600884FF6FF7005900C
:2038D000F08A800934BF002008203076F08AC00834BF102080207076F08A400903D26046CB
:2038F0000E30007800E00020B076F08A41082CBF20240024000928BF44F010047568002190
:2039100008F07F08307D06916D1E02280EDB0C2808DC0C2803D1022044F40854069044F096
:20393000030404E00D280CBF02200120044396F88C0008B144F00804E110220900D328B127
:20395000DFF8BC9299F8243413B908B1DF204CE149086ED306F12401DFF8A8A296F88D505E
:20397000079100EB0A011AF805300A7999183389491DCAB29918A44B1A8808908A42C0F238
:20399000368100284CD0049A039906F1840008F033FD0799002808603FD0806AB0F1FF3F37
:2039B00039D070680023401E8DB196F88E10524600F80119515D491EC9B241B18A1992F8D2
:2039D0008320491EC9B2002900F80129F6D1079970660968896AB162090E00F8011996F89C
:2039F0002A1000F8011996F82910089A00F8011996F8281005F0030500F8011902F0070121
:203A100041EAC501017071683589091ACAB27060A918318105E0DB2700E0F3277770E7E02C
:203A30000023F08A7370C00828BF44F0100475686D1E336DA3B9B36D93B999F83D14012923
:203A500003D13089B0F5EE7F06DA200904D202290AD144F4005401E044F48054012002E056
:203A700044F408540220069099F8020001280CD099F8800348B196F86B00042805D1022028
:203A900024F48054069044F4005444EA8834B8F1020FA4B20AD0B8F1030F10D1ED1F09F58E
:203AB0008661284611F0ABFD6D1E08E0B9F81604001205F8010999F8160405F80109069851
:203AD00002280CD0B8F1000F15D0BBF1000F0CD004990598814208D144F040040BE0BBF1B7
:203AF000000F08D1B8F1000F05D00599081205F8010905F8011944EA8B24BBF1020FA4B27B
:203B100009D0BBF1030F0ED10399ED1F284611F076FD6D1E07E003990888001205F80109DE
:203B3000087805F80109BBF1000F05D00498011205F8011905F801093878F8B9334801783C
:203B5000307D0D2814D068B9306D28B999F80004411C89F800140AE099F82504411C89F8E7
:203B7000251404E099F80E04411C89F80E14014605F8011904E0C0461A06002044F48074C1
:203B9000201205F801092C7070683789401BC1B2756078183081200926D3B06D00B1306242
:203BB00099F8800310B1307D0D281DD1746A14F1150001D111F011FDA16A481CA06232894B
:203BD000306AB162471B0092D21B019090B20290706A96F88C202B46153008F03BFD0028C0
:203BF0001CBF7070071C07D10020707005E0E5277770F32010F096FFF8B209B0BDE8F08FF8
:203C100008020020145801003A1D00207C2D00202DE9F04FD54D286A416EADF11C0D02A894
:203C300088474FF00009D24FCDF80890B8688DF80C90002833D10FF03BFDB8B10FF038FD9E
:203C5000012813D00FF034FD05280FD00FF030FD0C280BD00FF02CFD0D2807D00FF028FD79
:203C70000B2803D00FF024FD0E280BD10FF020FD787000280CBF48460120B870286A00F1AB
:203C9000200408B911F0A9FC216807F1180088474FF4FA703885B74EFE6206243C63DFF8B2
:203CB000D882EA6998F83F444FF0010A4946080100EB41108018867F2EB9437F491C9C428D
:203CD000C9B2F4D102E0417FA14204D1824202D00FF030F9EA69DFF8A4B2686A1BC88BE8D4
:203CF0001B0097F90100012805D00D2803D00E2818BF484600D105208BF8000098F86D14DD
:203D10005069A44C50F82100C4F89C0010F03AFE632005A90EF004FB98F83F040FF040FDB4
:203D3000064694F88E006AF3020084F88E000EF04FFF042825D00EF04BFF032811D094F857
:203D5000900040F00F0084F8900094F8970069F3030084F89700B07B052814BF242029202B
:203D700016E094F8900040F00F0084F89000292384F8943094F8970069F3030084F89700B5
:203D900008E094F8900040F00F0084F89000212084F8940094F8950069F3871084F895004E
:203DB0000EF016FF042818D0B37A7BB99DF8140094F89510401E60F3050184F8951094F82D
:203DD000960020F03F0040F0180014E09DF8141094F8950061F3050005E094F8950020F069
:203DF0003F0040F0020084F8950094F8960020F03F0040F0200084F89600B189B07BB4F84D
:203E10008E200A23401D484390FBF3F161F3CF02A4F88E20B08994F890201923800390FB32
:203E3000F3F102F00F00D4F890200F23484390FBF3F161F31C22C4F89020E86994F8982052
:203E5000017F61F3020284F8982094F89810007FC01060F3C30184F8981098F92E040DF0C8
:203E7000C9FFB0F1FF3F05D0010828BF4FF6FF70A4F89A00308971683368EA69401E41437A
:203E900003EB51004FF47A71B0FBF1F0A4F8A00090690078A4F88290C4F8849094F88D30A5
:203EB00084F8A4006AF3030384F88D3011F0D6FAC8B9B089324A98F83F64B1FBF0F0C0B2FE
:203ED0001070B1FBF0F02F49022E487006D00EF07FFE032807D105225C2001E00222A820A2
:203EF000294B1A700870BB682E6A5BB348460EF0C1FAF87898F83F14884212D13A7998F8E9
:203F10006D142E6AB8688A420DD102214A468DE80600366D80344B4602AA2146B047EC6042
:203F30001BE02E6AB8687168884718482B6A80F800A01E68164880345946224607F1180357
:203F5000B04707E0803422461148346807F118035946A047B860686AA86298F83F0498F872
:203F70006D64F87007B03E71BDE8F08F701900202C1B0020FBEE0000080200202C2E0020D1
:203F9000D01C0020641A0020501C00204A1D0020682B0020081700202DE9F04FC54C0746AF
:203FB0006068ADF1140D80470025DFF80C830390002F88F8035000F0C6800FF015FE08F53E
:203FD0003B702946402211F058FBBC4C04F1080001882C2707FB01F080B210F02FF8C8F814
:203FF0001003002800F06181E17A20894843410001EBC00188B210F021F80028C8F81403D5
:2040100000F05381E18820894843800080B210F015F80028C8F8180300F04781208980008C
:2040300080B210F00BF80028C8F81C0300F03D81208980B12A46D8F8101389180D75D8F856
:20405000101389180D71D8F81013401E114402F12C028D81EFD1A188880000EB011080B29A
:204070000FF0ECFF0028C8F8200300F01E814FF6FF7AA946AB4615E0A77A7FB12946D8F889
:2040900020038019C368CA0042F803B0C0687F1E01F101011044A0F804A0F0D109F101006D
:2040B0001FFA80F9A088484500F3EE809748FF210822C01D11F0E1FA9448FF21082288F8C0
:2040D000FB12103011F0D9FA032688F80C632789A8F80EA3C7B14FF0010C04232A46D8F86B
:2040F0001C03910001F800C0D8F81C0340184370D8F81C0340188670D8F81C037F1E02F191
:2041100001020844C370EAD180480121042305220227343000F8041F437082707F1EC170FF
:20413000F8D17A4880F83C60A08848B12946D8F82023401E0A4401F11401A2F802A0F6D177
:20415000022088F8F00298F8800318B1D8F8840300B180470CF042FD98F92E0411F003F816
:204170000FF058FD10F076FF10F00AFE10F0FCFD534E072456F8040B00B18047641EF9D178
:2041900010F02EFE444604F15400016809B10EF093F94C48006884F85E5020B10AF0B6FFBD
:2041B000002800906CD148480078012802D0284601F096F8454804F180060570D4F8800041
:2041D000002855D1361DD4F88400002848D1C4F880503F48C4F89001C4F884503D4FC4F865
:2041F000947184F88A503C4EC4F8986184F88B503A4BC4F89C31A570394AC4F8A02184F81F
:204210008C503849C4F8A4113B49C4F8C810364FC4F8A871394FC4F8CC70344EC4F8AC6183
:20423000374E334BC4F8D0602249C4F8B031354B304AC4F8D4308968C4F8B421324A039824
:20425000C4F8D820884704F21541522003F070FD94F82F040DF00AFD0CF0C0FC284626E0BE
:2042700030460EF09FFE029002A80EF025F9AAE730460EF097FE019001A80EF01DF99DE759
:2042900068460EF019F989E7A37AD8F820734846860006EB0016D8000FF0D0FEF119F3198A
:2042B000C860D86800287FF4E7AE11F096F905B0BDE8F08F7C180020080200202C1D0020A6
:2042D000180300205C2E0020491D0020662E002047FD0000F1550100E53E0100D9760000B1
:2042F00095B80000DD4501009D3201006D9A0000A18700008137010083E60000018D00008F
:20431000DD03010025E40000890B0100F40400202DE9F843DFF828830F460446F80B80F011
:204330007481DFF81893B80F80F02D81C54DB80880F02281F80A80F00081B80B80F0EE8098
:20435000780B80F0C080380C80F0AF803809C0F07F81082011F05EF8002840F0A1808020AE
:2043700011F058F8002840F09B80684609F08AFE012803D10098002800F092800024012531
:20439000E0B210F02BFE48B1867A3EB1857290F9090005FA00F0C0B20EF0F6FE641C032CDF
:2043B000EED34C46032020756068783011F039F9AB48002601680660AA4950F8082CB146F1
:2043D000324640F8089C04F1380011F036F9304610F06CF810F0C6FD0146A268E069891A42
:2043F000090BC1F1FF3282422CBF08444FF0FF30E06194F820601EB12169B0EBC12F1FD924
:2044100010F0B4F8494600B12946081C14D0964840F60901018049464180427B65F3030220
:204430004273027B61F303020273416010F018FF418811F4406FFBD084F820504946E161AF
:204450000EF0D6FA89484D464946056002200FF09FFE02200EF07EFE112008F0E3FA20782E
:2044700018B96068403011F0F0F88148007810B90E2008F0D7FA94F8210020B184F82150CE
:2044900005200EF067FE7B48B4F98C60A061B4F98E1025758E4214BF022007200AF07AFEE4
:2044B00027F008070CF0C2FCD2E00835296839B1C86840880028FBD0C86840880128F7D0CF
:2044D00027F40047EEE70EF0E1FC38B12046A4696FF4807100224FF00073A04768494C460C
:2044F000002204F1380011F0A8F80220E668207510F038FDD4F81C21636804F58E719A42DA
:2045100014BF0122002226B1801B01EB8206030BB360002027F48057E060C3E7404606687C
:2045300046B1B06830B13069B6F93410B46800222023A04727F400578AE011F078F84C46A8
:204550000546206F064688B1606810B1783011F068F83069606010F005FDE06046484FF4EE
:204570000061A06104F1B40011F077F8284611F045F927F480676BE004F05EFC286808B917
:2045900027F0020764E011F052F8054604200FF039FAC8B1207CB8B148460830006898B1C6
:2045B000064610F0DFFCE168801BE060000B8842E06002D240184008E06040F6C411814209
:2045D0002CBFB0F5967FE160284611F017F90EF05DFC80B1A56920466FF4807100224FF0B5
:2045F0000073A84725480068002808BF47F0020701D00CF01BFC2046646900214FF08063EB
:204610000A46A04727F0005722E011F010F841460E68CEB1B16A890816D2B56AB16AA943A4
:20463000B16211F0EBF8B06880B17DB13069B6F93410B4682A460023A04707E0C0240020EF
:20465000482500203825002011F0D8F827F4804727B1404639462C3010F0FFFFBDE8F88336
:2046700014100440B5120100042E0020000004605A1D00203DB40000499900003025002065
:2046900089940000B0B50446BA480768ADF1480D002F00F0A8812078401E112800F2A3814D
:2046B000DFE810F06A015201380123011B010401F100E300C300B2008D005D00530042001F
:2046D000A1012A001C001200F86B002800F08B81684621460AF038FBF96B82E1386C002874
:2046F00000F081816846002101220BF047F960788DF80000396C74E1F86A002800F07381C6
:20471000684600210E220BF039F9A11C684610F007FBA57BA1890022ADF80A1005B10122EC
:204730008DF80C20F96A5DE1B86B002800F05B816846002102220BF021F9A5788DF8015005
:2047500060788DF80000B96B4BE1786B002800F04A81684621460AF0F7FA796B41E1386B2D
:2047700008B36846002114220BF008F9A5788DF80150A3680193A289ADF80820A17B8DF842
:204790000A1060788DF80000E57B8DF80B50237C8DF80C3094F911208DF80D206169049123
:2047B000396B684688476068002800F01C810146F2200870002048700EF0C0F813E1B86AD6
:2047D000002800F010816846002124220BF0D6F86078A11C8DF800000DF1020010F0A0FA8E
:2047F00004F10C0103A810F09BFA257EE08A04F119018DF818500B22ADF816000DF119005F
:2048100009F05AFBB96AECE0786A002800F0EB806846002102220BF0B1F8A5788DF801505C
:2048300060788DF80000796ADBE0386A002800F0DA806846002112220BF0A0F865886279FB
:204850006078ADF8025023798DF80520E11D8DF80000A5798DF804300B220DF107008DF822
:20487000065009F029FB396ABBE0F869002800F0BA806846002101220BF080F860788DF802
:204890000000F969ADE0B86910B120460DF0D2F8A07820B9A069002800F0A58003E0A069E7
:2048B000002800F0A0800FF0C1FD9CE07869002800F099806846002113220BF05FF86D465C
:2048D000A01C0168406829600B22686004F10A0102A809F0F1FA796983E03869002800F0F1
:2048F0008280204608F038FD7DE0F86800287AD0684600210E220BF041F86078A11C8DF897
:2049100000000DF1020010F00BFAA089ADF80C00F96866E0B868002865D06846002114227F
:204930000BF02CF8A01C01686D46296040686860A07A0B2204F10B018DF808000DF109009B
:2049500009F0BAFAB9684CE0786800284BD06846002110220BF012F860786588211D8DF89C
:2049700000000B22ADF8025001A809F0A5FA796837E0C046201D00203868A0B368460021A5
:2049900019220AF0FBFFA01C01686D46296040686860A07A410824BF01218DF80810810879
:2049B00024BF01218DF80910C10824BF01218DF80A10010924BF01218DF80B10C10924BF7B
:2049D00001218DF80C1030F07F001CBF01208DF80D000B220DF10E0004F10B0109F06CFA3E
:2049F00039686846884712B0B0BD7047BA482DE9F84F0025B94CB749056094F8E20000281F
:204A100000F06381012800F02F81B54E02283CD0032840F05A8151F8250CD4F8B810002943
:204A3000A0F5C060C4F8D400B8BF49420028B8BF4042814226DA4FF08057D7F8A401456804
:204A5000B4F8BC0030214FF47F42082300903046A847D7F8A4014568B4F8C00004214FF474
:204A7000F802122300903046A847D7F8A401B4F8D070456820214FF440620A233046009795
:204A9000A847012584F8D8501AE151F8258C10F097FC2F4600B901273946924F3868002847
:204AB000FCD0B146012609F10409D9F82CA03E6009B110F08BFCCAF30720C4F8BC0010F01D
:204AD0007FFCAA4600B9B2463B68002BFCD0D9F800B0BAF1000F3E6001D010F077FCCBF335
:204AF0008440C4F8C00010F06BFCAA4600B9B2463B68002BFCD0D9F81C90BAF1000F3E60EF
:204B100001D010F063FCC9F38120C4F8D000B8F5C061C4F8B81000F09C8094F8D80068B989
:204B3000C4F8D410D4F8C000C4F8C800D4F8BC70C4F8C470D4F8D030C4F8CC30D4F8D400A9
:204B5000D4F8BC30002854BF02226FF0010204F1C8010F6800EB40008018421000EB927293
:204B700007EBA2000860D4F8C810C4F8C43000291CDD1E293CDDD4F8CC0030B93429B4BF02
:204B900015391E21C4F8C81025E02A29BABFD4F8C8000B381E20C4F8C800D4F8C4003F2883
:204BB000B4BF401C3F20C4F8C4001FE0D4F8CC00032812D011F10B0FC6BFD4F8C8000B3023
:204BD000301CC4F8C800D4F8C4000028C4BF401E051CC4F8C450032508E011F1150FC6BFB0
:204BF000D4F8C8001530301CC4F8C800C4F8CC504FF08057D7F8A401B4F8C43030214FF466
:204C10007F424568364800930823A847D7F8A40104214FF400321123456831480096A847FE
:204C3000B4F8C860D7F8A40104214FF4F802122345682B480096A847D7F8A40120214FF4E8
:204C500040620A23B4F8CC60456825480096A84701E084F8D85040F2FF50404502D8801CFD
:204C700040452DD208202EE051F8251C1E4F4BF2F5204843060A3868C0F3814001280AD16E
:204C90000FF09CF80DF096FE10F0A6FB3111C010484306EBE03694F8E50030B9134800687E
:204CB00020F07F403618760801E084F8E5501048310C0660012741600E4D8760287808B950
:204CD0000B2000E0052084F8E40002F069FFBDE8F88FC0462D400C402C500C40F014002003
:204CF00000A00C4000800C40B43F0050102009403C600C40DD6001002DE9F04F09AFADF15F
:204D10003C0D08900A92388809911E46ADF81800101C08BF002000F06C81017800274FF0BC
:204D3000010B401C4FF0FF39B846DA460A9058E1252940F04D810178401C0A902D2918BFAB
:204D5000ADF8068004D10178ADF806B0401C0A9030291CBF4246434604D10178401C5A46EA
:204D70005B460A902A29CDF800804D4617D1049330680A9BCDF80890C01C20F00300001D98
:204D9000306050F8044C1978002C009403F101000A9018D5ADF806A06442009413E044460C
:204DB0000AE0600000EBC4004018A0F130040A9801780094401C0A90302901DB3A29F0DBC5
:204DD000CDF8089004932E2929D10178401C2A290A9011D13168CDF80880C91C21F00301FA
:204DF000091D316051F8045C002D48BF454601782B46401C0A9011E0454643460AE068004D
:204E100000EBC5004018A0F130050A9801782B46401C0A90302901DB3A29F0DB02930AB17F
:204E3000224604926C2904D04C2918BFADF8048004D10178ADF804A0401C0A900BA8CDF881
:204E50000C800FAB07906429059379D0692977D0BDF818C0752965D0782961D06F295DD027
:204E7000702946D0632936D073291AD00A98401E0A900998012812D961490C68B5F1FF3F0A
:204E900003D0A84288BF6D1C00D8099D029508A80AA932466B46A0473F18039865E045462B
:204EB00017E03068C01C20F00300001D306050F8040CBCF1010F014608B94FA001460791CC
:204ED00010F00EF90390B5F1FF3F4FD0A8424DD9039528464AE03068C01C20F00300001D41
:204EF000306010F8040C8DF82C005D46039558463CE0082035680490E81C20F00300001DC7
:204F1000306050F8041C082210230FA80BF04EF9401E079040210170079823E0082302E0BD
:204F3000102300E00A233068C01C20F00300001D306050F8041CAA42BCBF2A1C04920DE055
:204F50003068C01C20F00300001D306050F8041CAA42BCBF2A1C04926FF009030FA80BF045
:204F700025F907900599081A0390009C241ABDF8065000945DB906E008A8202109AA0EF002
:204F9000CCFE7F1C009C641E0094F5D50398401EB0F1FF3F03900FD1BDF8060001281CD104
:204FB0000098401E009018D408A8202109AA0EF0B4FE00987F1CF4E70798017809AA08A892
:204FD0000EF0ABFE0798401C079003987F1CDEE708A809AA0EF0A1FE7F1C0A980178401C7B
:204FF0000A9000297FF4A4AE089808B14146017038460FB0BDE8F08F286E756C6C2900C09B
:20501000A46101002DE9F04FA64D824605F120000068416EADF12C0D03A88847AF4C201DB4
:205030000768002F00F036814FF0000B388979689B4DCDF81CB0C6000978287810368909F7
:2050500006D340F6485191FBF0F1761806F5AF763D7D70438600352D0CBF5F464FF4FA5724
:205070000DF12601E8200DF05BF99DF82600032808BF44F620676068007DF619352803D1AF
:20509000D4F8E403804746430220894F8DF8200007F108000068069606A906F037FAD84666
:2050B0008048824D804980F80080012008702978012901D000F014F96068058946680FF053
:2050D000B5FA3088000935D394F8807361688FB34B6A4F6E986AB0F1FF3F25D027B3421C3E
:2050F0009A628862030E07F80139606890F82A0007F80109606890F8290007F801096068A3
:2051100090F8280038706268106A00950190801B281A80B20290916A506A92F88C203346B8
:20513000153007F097FA00E0DB20D4F8C473002840F0A6802946304609F0A4FF642009A97F
:205150000DF0EEF85B4894F88013007831B994F82F0407F047FB012805D08DE007F042FBA1
:20517000012840F08980DFF85091A81C87B20DF1250109F170000780E9200DF0D1F89DF88F
:205190002500012805D13D46C5F3022040F0180005E02D1DADB2C5F3022040F0080006F898
:2051B000010D06F8015D4D469DF82400A5F862800028EE670CBF41484148CDF80CB00223AA
:2051D0008DF8103005F12806A6F8028005F16009C5F8B8003B4FC9F8180095F8350020F0AD
:2051F0000F0040F0030085F8350078688047DFF8D8800A90BAF1010F1DD0BAF1040F1AD0EB
:20521000BAF1000F14D0BAF1050F0ED0BAF1030F08D194F83F040EF0C3FAC07B022818BFE7
:205230004E460AE005F1600607E0DFF8A08004E005F1440601E005F128061A48006A1C4B4A
:20525000046D594602208DE80300986803AA31464346A0471E490880B96800280AD41D4A83
:2052700092F900000F4F6035401C10700A98FD60884711E00A9888471A200AF00DF90BE06F
:20529000002F08BFE420F8D0134880F80080E420B84701E010F0A1F90BB0BDE8F08FC04686
:2052B000D01C0020701900203F1D0020491D00202C1B0020671A0020081700204E90555558
:2052D0000E7A55557C180020618A0000C1BC0000901B0020461D00206B2E0020080200203F
:2052F0002DE9F04F9E4C05466068ADF11C0D8047A34EDFF898B2012D069000F0D5800FF0A4
:2053100057FD002800F0CB8096480078A0B99648007888B99548007870B99548007858B99C
:205330009448007840B99448007828B993480078002808BF012700D00027306A002F00F1C0
:205350003C0000F0AC80994C0068257880476168DFF83492E368AA00401AB0FBF2F7A068E3
:205370004FF00008B24642469F42144672EB040101DA984205D8414687428A4140DA0346A9
:2053900000E0414618462A46EB17C01B71EB08010FF062FD272607464FF47A72002388466E
:2053B000ADF80A600820ADF8080038460AF0C6FE6B49496A039002A88847049823464FF006
:2053D000000100F6FC02BF1A78EB0308784271EB080112DA6B480268414638460AF0AEFEAE
:2053F000884607464FF00001784271EB080104DA38460DF007F9002000E001204C46207087
:205410004C46207800284AD1002738460AF0E0FB00B101270026381C3FD15D4628780028C7
:205430003BD1DAF820005A4C436CA068022102AA98479DF8080080B3DFF85881DAF82020C1
:20545000A06898F90010374611F1020F18BF01274FF0010937B1926B98F900109047DAF88C
:205470002020A0684C4F97F9001011F1020F03D0926B97F9001090476FF00100387088F8B7
:20549000000085F8009030460FF012FFDAF82000C169A06888478AF801603B480670304921
:2054B00006988968884757E001200AF091FB21460698896888475D46DFF8ECA0287801280C
:2054D00038D101200FF0F4FE0EF086FE58BB204640688047002402278346DFF8C090306A60
:2054F000A9F80240416E2F7002A8884702948DF80C70306A2E4A2A4BD0F850C0A0468DE8A1
:2055100080011068494602AAE04715498968002819D4244A4F4692F90000F760401C1070FB
:205530005846884706E02878012803D1002028700FF04AFC0EF050FE70B92878022804D15A
:205550005046007808B110F048F850460078012802D028780228FCD007B0BDE8F08FC046B4
:205570007C180020672E0020692E00206B2E0020682E00203E1D00203F1D0020401D002018
:20559000701900207C1B00206A2E00204A1D00202C1B00203C1D00203D1D002008170020C3
:2055B0009D1E0100461D0020491D0020D01C0020341B00202DE9F04FAA4C04F128000068CB
:2055D000ADF11C0D0CF0FEFF08B10FF009F9A048DFF878B2DFF89082DFF87CA200689F4D26
:2055F00005900EF03FFD0EF031FFE769A669B7F57A7F13D0801B4FF47A720023A7FB000127
:2056100008F0ECFF81464FF47A7200230FF024FC3A46002308F0E2FF301801E0A0EB060920
:20563000A061DBF8000020F00200CBF8000068688047DAF80010DAF804204E468919B1F566
:205650007A7F0DD34FF47A73B1FBF3F3D218CAF804204FF47A731F46B1FBF7F25A43891A65
:20567000CAF80010A9688847686800968047D8F804108919C8F80410A9688847D8F8000031
:2056900000285AD007464FF00009686880470490BDF80200002690B99DF8010078B99DF866
:2056B00000003979884204DD0098796888420AD20BE09DF800103879401A387108E000989A
:2056D0007968884201D3314601E07968091A7960B88878B9FB8853B9FB6843B13B8933B107
:2056F000B87A194608F02CF8F8687860B88808B9FB880BB13B896BB9B9F1000F04BF386871
:20571000C8F8000003D03868C9F8000038683E46074601E0B9463F68A9680498884756B10A
:20573000B3882BB9F3881BB9B07A318908F008F830460EF06BFE002FA7D1DBF8000040F088
:205750000200CBF80000E06828B3804723E016F8060C2169A6F10C07032819D0E16A9DF83F
:2057700006000978884210D116F8080C0EF078F8B979012903D0022908BFB07000E0307096
:20579000002031460BF0D2FC05E00FF029F802E009B13046884708200727ADF80000696AE5
:2057B000ADF8027068468847029E0028CFD0294800680088C8B1686880472649096800226B
:2057D0000E880A80A9688847059A00203146207090470646FF202070686880471D490968B3
:2057F0000A8816430E80A96888470EF03BFC0746B7F1FF3F1CD0686807B9194F216AB9426E
:2058100038BF0F1C80471C230646626AADF802300820ADF80000696A019268468847A16AA6
:205830003846491CA1620DF0A7F8A9683046884708200A27ADF800004FF0FF36ADF80270F7
:20585000696A019668468847CBE6C04610E000E0806101005C2E0020641D00207C180020E9
:205870008EC2F528601B0020442E00202DE9FE4F0546287D012807D195F917000CF0BAFAD5
:20589000B0F1FF3F00F016819548EF7B017895481FB990F88B208A4208DB012F03D190F8AF
:2058B0008A208A4202DBF120BDE8FE8F80462E6A95F83500B5F8289095F83470AC8B4FF016
:2058D000000A5FEA060B029017D098F88033002B2FD0D8F8981300292BD006F0FF0088470B
:2058F000D8F8981306B20BF47F008847361830B2001D00B2C83086B200E0C8260CB1241D1D
:20591000A4B298F82404012809D147B1764802993F1897F804A0405C8019401D86B209EBCD
:20593000040080195044801C80B20EF0AFFC071C02D11A20BDE8FE8F09EB0A00331938814A
:20595000002C03EB070078600EBF0020B819801C00217822C7F8A40007F10C000FF08DFE38
:2059700009EB0600FF2110220019A7F84C0007F13C000FF082FE07F12C000F2110220FF08F
:205990007CFE00243C707C707868696A2A8D0FF04BFA07F1840005F12C010B220FF044FA0A
:2059B00007F1900029460FF0A3F86889A7F89A00287B87F89C00687B05F10E0687F89D0055
:2059D000326869460A60706848609DF800102046012908BF01209DF80110012908BF40F0A0
:2059F00004009DF80210012908BF40F008009DF80310012908BF40F010009DF80410012917
:205A100008BF40F020009DF80510012908BF40F040009DF80610012908BF40F080009DF873
:205A30000710012908BF40F48070A7F89E00A87D87F8A000E87D87F8A10095F8380087F8E0
:205A50006C00AA8BA7F8A82022B1D7F8A400A9690FF0EAF9A87F87F8AA00286AC7F8AC00A7
:205A7000B7F8A800C0B1D7F8A400A8B17868401E7860F82101707868401E78600470B7F8A9
:205A9000A810B7F8A8607868401A786038898019801C38817868B865B7F89E00410A16D348
:205AB00095F83710052905DB00F0040100F00100084302D0E820BDE8FE8F08F190063046B2
:205AD00009F06AFC95F8371030460EF093FF98F8000039460BF02AFB2046BDE8FE8FC046B0
:205AF0002C1D002008020020145801002DE9F0410D46904CDFF84CC2DFF84482A188D1287C
:205B1000074613DCDFF840E2D12800F0A280713800F0E280401E00F0DB80401E00F0D280F1
:205B3000113810D04C3800F0AF8007E0D2387AD0401E61D0401E34D0401E2CD038460FF086
:205B50001BFBFF2802D1F420BDE8F0817A4C04EBC004217909B9E08860B1E088884208BFB4
:205B7000FB2000F0E5802A78914200F395809042C0F29280714E7068804723786288074662
:205B90004046A0F13801581829460FF04DF9B16838468847CBE0297802297DDA40466C1C3F
:205BB0006EE02888814277DD6746AA88D7F820338100860001EB001106EB0016D7F82003C2
:205BD0005A52E988D7F8203380190822418005F108019819001D0FF027F9D7F82003A27AF8
:205BF00029698019C068D2000FF01EF9297DD7F82003801901749AE02E88218930468142A1
:205C10004ADD6746D7F810032C24A91C102204FB060015300FF008F96969D7F8100304FB7A
:205C30000600816283E029882289A8788A4233DD022831DADCF810332C22471C00EB410681
:205C500002FB01331F75DCF81C13022201EB460035E02A882089698890421DDDE3888B42B1
:205C70001ADD704600682C2404FB02008489A142A4BF4C1C8481DCF8180302FB03112C1DA5
:205C900000EB810004221BE029882289A8788A4202DDE27A824202DCE820BDE8F081DCF850
:205CB00010432C23471C01FB020603FB01442771DCF814130A22700000EBC6004018EC1C48
:205CD000254631E0002D32D0404608222C46F7E76DB37046103026E025BB27893FB3E588FE
:205CF000E47A00231A46DCF8100302FB04F6710001EBC601DCF814638919C150DCF81813B4
:205D100002FB05F601EB8601DCF81C637F1E184403F12C03816006EB820102F101020161EC
:205D3000E1D104E07046042229460FF07DF80020BDE8F0812C1D00204C5901007C18002005
:205D50002C050020080200201805002030B50546EC6B00215022ADF1540D684609F00EFEAF
:205D700014F8010B8DF8000021680DF101000160616808344160207861780FF0F2FBA41CCA
:205D9000ADF80A0041080FD3207861780FF0E9FBA41CADF80C00207861780FF0E2FBADF862
:205DB0000E00BDF80A00A41C810808D3207861780FF0D7FBADF81000BDF80A00A41CC108A3
:205DD0000FD3207861780FF0CCFBA41CADF81200207861780FF0C5FBADF81400BDF80A007B
:205DF000A41C0109C0F0AA80207861780FF0B9FBA41CADF81600207861780FF0B2FBA31C74
:205E1000ADF81800187859780FF0ABFB9A1CADF81A00107851780FF0A4FB931CADF81C00DB
:205E3000187859780FF09DFB9A1CADF81E00107851780FF096FB941CADF82000207861781A
:205E50000FF08FFBA41CADF82200617820780FF088FBA31CADF82400187859780FF081FBCB
:205E70009A1CADF82600107851780FF07AFB931CADF82800187859780FF073FB9A1CADF827
:205E90002A00107851780FF06CFB931CADF82C00187859780FF065FB9A1CADF82E001078C0
:205EB00051780FF05EFB931CADF83000187859780FF057FB9C1CADF83200207861780FF07C
:205ED00050FBA41CADF83400617820780FF049FBA31CADF83600187859780FF042FB9A1C2D
:205EF000ADF83800107851780FF03BFB931CADF83A00187859780FF034FB9A1CADF83C007B
:205F1000107851780FF02DFB931CADF83E00187859780FF026FB9A1CADF8400010785178FA
:205F30000FF01FFB931CADF84200187859780FF018FBADF84400BDF80A009C1C40090ED3A5
:205F500020786178A278E3780FF01FFA241D12906178A2782078E3780FF017FA13900E4960
:205F70000E4C086B401C0863207800280CBF01210021012009F0D0FA298804A010220CF048
:205F900043F828460AF08EFE15B030BD53656E736F7220307800C046E0170020B21A0020C5
:205FB0002DE9F84F07468848DFF8108235380068800880F0F3800DF001FF874908310B6835
:205FD00000251C17641C990D0AD2C0F13E0110F10A0F4FEAE101D8BF08218C42B8BF0C1C05
:205FF000DFF8DCE1990E10D2590E0ED37246143A1168C1F304211629A8BF20391268C2F3A6
:206010000462162AA8BF203A0DE0694AD2F87C11C1F304611629A8BF20391268C2F3044285
:20603000162AA8BF203A09199346162905DA11F10A0FB8BF6FF0090100E015215D4C5E4ED0
:2060500001F01F0242F4F8522280326812F0030F18BF0125D20828BF45F002050FB145F05F
:206070000405424692F90740041B052C04DA9479AC4208BF918870D00F28A0F10F0A2BDB7D
:206090000AEB0014A4F1F00A4FEA2A29B9F1070F88BF4FF007094E46062E88BF06265EF8E5
:2060B0002670042404EB8604764634594FEA9508E41B04F0FF06EF0824BFC4F307273E4441
:2060D0004FEA550CAF0824BFC4F307473E446F0828BF06EB146605E000264FEA95084FEA12
:2060F000550CB1465EF829E05FEA58070EF0FF0424BFCEF307273C445FEA5C0724BFCEF38E
:2061100007473C446F0828BF04EB1E64B6B2ABEB0101AAEB09277E43002906F1800604EBB7
:206130001624D8BF012103F0FF0334264E43B1B259434FF6FF73B1FBF4F18B4238BF191C3C
:20615000802889B2918005DA10F1800FB8BF6FF07F0000E07F20D07195711A4800681F299F
:2061700010604FF0000008D340F2FF128A4206D24908401C8A42FBD301E01F219180134FC3
:20619000114E0F39090940EAC10047EA0001C6F8FB1F0025C6F8FF5FBDE8F88F0C490D4F23
:2061B000424608200F60921D1070BDE8F88FC0463C1100506E620840242208404C2E002072
:2061D0009C130050082009403500094000E7A48030100940FDFDA400AC3F005001282DE915
:2061F000FE4F40F0EE80DFF810B2DBF8DC00012840F0E4800220CBF8DC000EF067F901205F
:206210000DF0E0F85FEA000805D00120CBF8DC000EF06CF9D7E00FF01CFA6C49029000201D
:20623000086001200DF0EEFB012818BF002003D100200AF00BFC0120654900900020654F97
:206250000860386811200FF0D9F800280CBF0024012410200FF0D2F808B144F002040F20CE
:206270000FF0CCF808B144F004040B200FF0C6F830B1624814300068574E016B308888479F
:206290000A200FF0BBF8002600B101264FF0805A0AF5DC75301C04D02868504E016B308839
:2062B00088474F48012606602868816944F0200088474C4806600FF09BF800F0010101912E
:2062D000400814D248480FF059F88146B9F1040FF8D0B9F1010F05D1DAF8D80142684248E5
:2062F000032190474149086820F0030008600020FFF756FE2B683868986B804701980128F5
:206310000DD0B9F1010F05D1DAF8D80142683648314690473549086840F0030008602C48E2
:20633000066028684169204688470B200FF066F820B12868284BC16A188888470A200FF059
:206350005DF820B12868254BC16A188888472448032206602349CBF8DC2000230B6028682D
:20637000416B204688470128F9D1386804200DF029F8044615481E4906603868086880094A
:20639000FCD30098012802D130460AF05FFB0FF01DF808200DF016F807460298CBF8DC6093
:2063B0000FF028FA134800880AF0B2F80EF09EF857EA040018BF4FF0FF3804E06FF00408B0
:2063D00001E06FF001084046BDE8FE8F0C400940000222432C2009404A5F0100465F0100CB
:2063F0002820086080010443004003402422084014100940D8600100F0140020A401001085
:206410002DE9F043044694F830900F46984615468B20ADF1340D0DF10A0100F0BFFE8A2015
:20643000694600F0BBFE94F8250000283FD1B9F1000F19D1BDF80A104FF6FE70884205DC3B
:20645000BDF80A10884230D1694615E0B4F844009DF80A608DF80E0000128DF80F00BDF811
:206470000A008DF810601CE0B9F1020F0AD0B9F1030F1AD104F128010DF10E000FF0BFF8F5
:20649000092612E0207CC00934BFB4F84200B4F844008DF80E0000128DF80F00208D8DF82A
:2064B0001000001205268DF81100002016E002280CBF05260926012818BF04F11C0106D19B
:2064D00089200DF11A0100F069FE0DF11A0132460DF10E000EF0A8FC94F826000DEB0601A3
:2064F00048733A460DF10E00314609F0E9FB002840F09380B9F1000F19D1BDF80A104FF6CF
:20651000FE70884205DCBDF80A10884230D1694615E0B4F844009DF80A608DF8220000126C
:206530008DF82300BDF80A008DF824601CE0B9F1020F0AD0B9F1030F1AD104F128010DF187
:2065500022000FF05CF8082012E0207CC00934BFB4F84200B4F844008DF8220000128DF828
:206570002300208D8DF8240000128DF8250004203E68814603A9822000F010FEBDF80C1028
:20659000B0898142D8BFBDF80C00002845D007460024722029460DF0FDFBB068BDF80C100A
:2065B0000019C8F800000088814232DD2B68810001EB0011581828600146D8F8000082787E
:2065D000012A22D0C07840BBB9F1040F07D0091D0DF122000EF070FA012818D019E008887F
:2065F0004B888DF82A0004220DF122018DF82C3000128DF82B0018128DF82D000DF12A001B
:206610000EF034F8012802D003E0C07828B9002004E07F1E04F10404BBD1F3200DB0BDE8AA
:20663000F08370472DE9FE4F0CAF9946934604467D680291294603F0A3FA061C00F0EC800B
:206650003888F082764F347597F8800318B1012C04BF1520307506F1840029460B220EF0D0
:20667000E3FB012C04D00D2C1CBF7068401C00D170683062002597F8800335650028B56595
:206690004ED0052C18BF012C45D14FF0040A86F86BA0F08A86F86950C00934BF97F811049A
:2066B00097F83A0459460A2286F86A0006F170000EF0BAFB9BF8080003282CD1032097F8BB
:2066D000153402903BB3DFF85C8108EB8408D8F8000010F47F0F0ED086F82CA0D8F8000054
:2066F00006F12C01012200F47F003063304601F0E3FBD8F8000010F0FF0F0CD02A2086F876
:206710003C00D8F8000006F13C0100F0FF003064304605F03BFF97F8800308B10D2C13D01A
:20673000009502994B4630465A46FDF7ABF8071C73D1E41F012C03D8707E40F02000707645
:20675000304605F0EBFF68E00520364C86F86B0004F13400016811F0F70F18D02A2186F8B2
:206770003C10BA78006806F13C01012A00F0FF0030641CBF20F00800306497F8150418B941
:20679000306C20F002003064304605F0FFFE009502994B4630465A46FDF774F85FEA0008B7
:2067B00038D1214806603489756801A964200BF0B7FD1E4EA01C0DF1050187B206F17000AE
:2067D0000780E9200BF0ACFD9DF80500012806D13C46C4F30220022140F0180006E0241DEE
:2067F0000421A4B2C4F3022040F0080005F8010D671A05F8014DB9B2F567AD1C284608F030
:2068100041FC9DF8040000280CBF09480948C6F8B800B067474600E01A27F8B2BDE8FE8FE6
:206830000802002084580100941B0020081700204E9055550E7A55552DE9F0470646376841
:206850000C465FEA0208ADF1180D14BF00214FF0FF3107F1480081460EF07CFC002818BFE1
