:020000040000FA
:10000000383F002039670000FDC90110FDC901100B
:10001000FDC90110FDC90110FDC90110FDC9011084
:10002000FDC90110FDC90110FDC90110FDC9011074
:10003000FDC90110FDC901103BCA01102DE9FE4F99
:10004000E54980460122A1F130000260DF480768DF
:10005000002FFCD0DE4ADF4EC027E048E04B17609F
:100060003268920808D2324652F8042C03F1410457
:10007000120C42F0F00222704FF0000A8346C1F8E1
:1000800000A0DFF864C3DBF80810D64D0191880E9C
:1000900043D2480E41D3802018744FF6D802A3F8FB
:1000A000512018702868C0F30464162CA8BF203CA7
:1000B0001F460F3F387800F01F001628A8BF2038D1
:1000C000844223D0624602F1980EDA4ACEF800A0AC
:1000D000261A022E05DC16F1020FB8BF6FF00106DA
:1000E00000E002263018166800F01F06844246F42D
:1000F000F856A7F866604FF001061660E8D1106860
:10010000374617601068CEF800601068284600680F
:10011000C0F30420162808DB06E0A5F1D000006833
:10012000C0F30460162800DB203800EB2170401C6F
:10013000162805DA10F10A0FB8BF6FF0090000E0C9
:100140001520DE4F00F01F0040F4F850A3F85900CE
:10015000386880083ABFEA48C0F800A041F0406122
:10016000019E6246A5F13804C80E8F0E80F0010092
:1001700000F00100106087F0010000F001009060C5
:100180002068C0F38367C0F38F21B00C23D23046C0
:1001900040F3072000280BD542425046490805D1BC
:1001A0007F0806BF0127391C4FF6FF71521EF5D19B
:1001B000002810DD4FF6FF72490041F001018A422C
:1001C00007D27F0047F001070F2F92BF01210F27B1
:1001D000111C401EF0D141EA0741182006F0ACFE88
:1001E0002068D24E2768C94CA6F10409C0F38701E4
:1001F00007F0030041EA0021D9F8040040F2FF3281
:1002000053468FB22C21466800972746A7F140003D
:10021000B0470C3D2868C0F30D011C2006F08CFE91
:10022000B84955F8080C014000F07C400143142007
:1002300006F082FE55F80C1C01F47C000904090C40
:100240000143102006F078FE624955F8042C096835
:10025000C2F30350C2F30345490813D2DBF8001080
:100260000B0510EB237003D41028A8BF0F2000E06B
:100270005046090415EB217503D4102DA8BF0F2596
:1002800000E0554645EA001502F47F4002F0FF0108
:10029000B8F1220F40EA054041EA000124BF02F014
:1002A000804211430C2006F047FE974DB8F1220F13
:1002B00032BF01202868C0F30070B8F1220F4FEA66
:1002C000400040F0200084F8090126BF2868C0F3F0
:1002D000407001208E4EB8F1200F40F0100084F8DD
:1002E000090138BF514606D33168C80C00F440708C
:1002F000C1F384510143282006F01EFEB8F1200FFF
:1003000026BF3068C0F301505046B8F1220F4FEAC3
:10031000400040F0600084F80C0126BF2868C0F35C
:10032000C0605046B8F1220F4FEAC00040F0800094
:1003300084F8010126BF2868C0F345505046B8F143
:10034000200F4FEA800040F47C40A4F89C0138BFA5
:1003500070490AD3306801038A15920501F47C11B3
:1003600000F00F00114341EA0031082006F0E4FDDF
:100370004FF48000A5F1D0012060674A886D40F2FB
:100380001E236FF31F40834216D90868030E13F033
:100390000F0F03F00F01C0F3034018BF491E0728D9
:1003A00005D006280EBF0720801C00F00F0041EA90
:1003B0000011A2F108000170DDF804C0CCF3814700
:1003C0007F1E13D07F1E3BD036E0C04694022243EE
:1003D00000600C40B03F005040100940AC3F00505E
:1003E000156208408813005000002043284600682A
:1003F000810C21D24FF480412160D2F80210430ACF
:10040000C0F3033703F0800321F08F010B4347EA69
:100410000301C2F80210D2F80130060A66F30303A2
:10042000C2F80130116800F0E70721F0E70147EA60
:10043000010004E02C2009404FF0004022461060EB
:100440003B480068C0F3C0070FB94020A0624FF4DA
:100450000070206428684027C0F3C14040F030009D
:1004600084F8C800CCF3815050B3401E03D0401E26
:100470001FD002211EE0012007F028F806460420C4
:10048000314605F04BFD042007F020F88642FAD1F2
:100490002248066826F07F4006F0CEFED9F8140008
:1004A000036807214FF06022300E98474FF48060B8
:1004B00020600321042005F031FD08E00000094020
:1004C0000420012105F02AFD154806F0B5FE203D67
:1004D0002868144947F6180600F03F0084F8CB0F4F
:1004E000144B0E80D9F800201868D1680220884784
:1004F00011480D4D076001212960BDE8FE8FC046FF
:1005000094042A43FCFCFC008C13005040A00C40D7
:100510009813005000803F400A600840A83F0050F8
:10052000BD37860070B00C4094046042A4010010F6
:10053000B03F00502C20094000600C402DE9F04FE6
:10054000CD4CCE4D002604F1140AADF11C0DAAF1DC
:100550000408AAF10E0BE8694FF0FF3100F016FA1B
:1005600007F0FAFA2F89E9882E816B89EE80AA8834
:100570006E81114347EA010243EA0201A98007F0B4
:10058000F1FBA888010A24BF20F08000A880092779
:10059000ADF802700820ADF80000684606F02CFCAB
:1005A000DDF808900028CDF80C903BD128789DF814
:1005B0000620696A904235D149B1AF787F1E04D0D8
:1005C0007F1E04D1484688472CE048468847484665
:1005D00005F0FEFA071C25D00C2007F064F95FEA4D
:1005E00000091CD007F0B8FAC9F808703B780590EC
:1005F0005BB92869494600F0CDF9A88840F01000A1
:10060000A880E86900F0CAF905E0484607F0D6FA84
:10061000384607F0D3FA059807F0A4FB02E0384605
:1006200007F0CCFAAB88580930D3286900F0BAF942
:10063000F8B91EF013FDE0B907F08EFA814628697B
:1006400000F0B0F990B9286900F0B0F9071C0DD09E
:10065000B8684068A861B9684868498805F050F8EA
:10066000B86807F0ABFA384607F0A8FA484607F032
:1006700079FB286900F096F920B9E86900F08EF955
:10068000AB8803E0AB8823F01003AB809808C0F080
:100690003B8127E104A8012106F082FC20780A288A
:1006A00000F22081DFE810F0EC0019011101AA002E
:1006B00077000C010301FD00420013000B0060896C
:1006C000401E80B20028608100F0E4800AE1676982
:1006D000A1789DF81000FA685054A078401CC3B26D
:1006E000A37007F011F9A1888146C91A494508DAB3
:1006F000F86889B21B18184606F052FCA088C1B2EF
:1007000008E0F8684946181806F04AFCA078484402
:10071000C1B2A0888842A17040F0E480E368002B59
:1007200000F0B880DAF80010103063E09DF8101087
:10073000A088A67040EA0120B0F5877FA08027DC62
:10074000103007F080F8606100B303210170FF27CB
:1007500047706178817021896FF31F318180218911
:10076000C1F301318171A18809230181DAF80010F8
:10077000A788237001F11002002FC26040F0B28000
:10078000E368002B00F08680102034E02670AEE095
:1007900060810A2081E02769A178786840189DF877
:1007A00010100171A078401CC3B2A37007F0ACF820
:1007B000A1888146C91A494509DA78681B1889B2A7
:1007C0001B1D184606F0ECFBA088C1B209E0786852
:1007D00049461818001D06F0E3FBA0784844C1B252
:1007E000A0888842A1707DD1E368002B52D0D8F850
:1007F00000100C30C0B2324698474BE09DF8100014
:10080000A6709DF81070A08007F10C0007F01BF88F
:10081000206138B3D8F800100831416062780A705E
:100820009BF80010426851709BF80110426891706B
:10083000A7884168CF70FF234370E1883F23B3EB63
:10084000A12F0AD1C1F3C2133BB1932101704168BA
:10085000887800F00300887001E002210170042014
:10086000207000E0A788002F3CD1E36893B1D8F84E
:1008700000100C20BFE7C046BC0F0020080200207B
:100880009DF810009DF810706070781E07D0401E13
:10089000012801D9267025E00520207022E00120E2
:1008A000FBE7082727709DF81000A0801AE00727B3
:1008B0009DF810102089277040EA0120208111E066
:1008C00006219DF810002170F8E703279DF810100D
:1008D000E088277040EA012003E0022121709DF8A2
:1008E0001000E08007F010F800287FF4D3AEAB884A
:1008F00007F00AF8002804BF23F00203AB8003D0FE
:10090000E86900F04BF8AB8818092BD3686900F050
:1009100049F8D0B9686900F04DF8071C15D0296A6C
:1009200069B1687858B1401E02D0401E0AD103E078
:10093000B86806F0C3F8296AB868884702E0B86862
:1009400006F0BCF8384607F039F9686900F02AF873
:1009500020B9E86900F022F8AB8803E0AB8823F007
:100960000803AB80D808FFF4F6AD23F00403286930
:10097000AB8000F017F800287FF4EDADA88840F0B8
:100980001000A880E86900F009F8E4E5DFF800F05D
:1009900001A00110DFF800F029BF0110DFF800F01E
:1009A00041AC0110DFF800F00FC10110DFF800F0DA
:1009B000A5C10110DFF800F00DBF0110BA482DE904
:1009C000F84F0025B94CB749056094F8E2000028BB
:1009D00000F06381012800F02F81B54E02283CD041
:1009E000032840F05A8151F8250CD4F8B81000299A
:1009F000A0F5C060C4F8D400B8BF49420028B8BF11
:100A00004042814226DA4FF08057D7F8A40145686A
:100A1000B4F8BC0030214FF47F42082300903046E8
:100A2000A847D7F8A4014568B4F8C00004214FF4E2
:100A3000F802122300903046A847D7F8A401B4F872
:100A4000D070456820214FF440620A233046009759
:100A5000A847012584F8D8501AE151F8258C1EF0DA
:100A6000EBFA2F4600B901273946924F3868002823
:100A7000FCD0B146012609F10409D9F82CA03E604A
:100A800009B11EF0DFFACAF30720C4F8BC001EF05B
:100A9000D3FAAA4600B9B2463B68002BFCD0D9F87D
:100AA00000B0BAF1000F3E6001D01EF0CBFACBF3DC
:100AB0008440C4F8C0001EF0BFFAAA4600B9B2468E
:100AC0003B68002BFCD0D9F81C90BAF1000F3E60B7
:100AD00001D01EF0B7FAC9F38120C4F8D000B8F5F0
:100AE000C061C4F8B81000F09C8094F8D80068B9D0
:100AF000C4F8D410D4F8C000C4F8C800D4F8BC704E
:100B0000C4F8C470D4F8D030C4F8CC30D4F8D410C1
:100B1000D4F8BC30002954BF02206FF0010004F16A
:100B2000C802176801EB41014018411000EB9171B8
:100B300007EBA1001060D4F8C810C4F8C430002935
:100B40001CDD1E293CDDD4F8CC0030B93429B4BFFB
:100B500015391E21C4F8C81025E02A29BABFD4F8D7
:100B6000C8000B381E20C4F8C800D4F8C4003F28C1
:100B7000B4BF401C3F20C4F8C4001FE0D4F8CC0030
:100B8000032812D011F10B0FC6BFD4F8C8000B30E8
:100B9000301CC4F8C800D4F8C4000028C4BF401EEC
:100BA000051CC4F8C450032508E011F1150FC6BF99
:100BB000D4F8C8001530301CC4F8C800C4F8CC50B4
:100BC0004FF08057D7F8A401B4F8C43030214FF467
:100BD0007F424568364800930823A847D7F8A40108
:100BE00004214FF400321123456831480096A8478C
:100BF000B4F8C860D7F8A40104214FF4F802122316
:100C000045682B480096A847D7F8A40120214FF447
:100C100040620A23B4F8CC60456825480096A8478E
:100C200001E084F8D85040F2FF50404502D8801CC3
:100C300040452DD208202EE051F8251C1E4F4BF2C6
:100C4000F5204843060A3868C0F3814001280AD1DC
:100C500006F008FD05F0D8FE1EF0FAF93111C010BB
:100C6000484306EBE03694F8E50030B913480068D5
:100C700020F07F408019460801E084F8E5501048D4
:100C8000310C0660012741600E4D8760287808B955
:100C90000B2000E0052084F8E40003F039F8BDE8FB
:100CA000F88FC0462D400C402C500C40BC0B00204F
:100CB00000A00C4000800C40B43F005010200940C0
:100CC0003C600C4016F501002DE9F04F0120ADF11C
:100CD000340DADF812000827ADF8107004A806F026
:100CE0008BF800259B4C069965609DF81400A16067
:100CF00010222070012106F079FB384606F0B3FD82
:100D0000061C09D00221112207F053F906F0BBFDA1
:100D1000914A314605F04EFF0C2006F0A4FD061C5A
:100D20000CD00521042207F07DF804F10C00B0601E
:100D300006F0A9FD894A314605F03CFF032006F084
:100D400097F9042006F094F9E08A00EA5001C908F6
:100D50000FD201090BD2C00806D26EA10E2204F1F7
:100D6000180000F0FFF80DE06EA11122F7E772A164
:100D7000F4E775A10A6804F1180002604E68466045
:100D80000B89038104F11806304607F041F8C1B21F
:100D90003246284607F01EF8A21C0120022107F067
:100DA00019F8DFF8BCB14FF0FF0A04260A20ADF8AD
:100DB0000200ADF800704FF0FF350195684606F06F
:100DC0001BF80028F2D100200A90ADF81C7009250C
:100DD000ADF81E5007A806F00FF8DDF824800028B3
:100DE000BDF820209DF82210CDF82880DED1102AF1
:100DF00040F085802078884240F081804146087824
:100E000091287CD14A78BBF800000E3A65D0521E7A
:100E10003AD02F3A07D0C13A71D18B8883426AD039
:100E20008A78504661E088780C2868D10C208DF8CB
:100E30002C00CD788DF82D508B888DF82E308A7946
:100E40008DF8302018128DF82F00CD798DF83150A3
:100E5000112006F0E8FC002851D0067080F801A0AF
:100E60000921418000F108054560067241683E2273
:100E70004A70416806230BAD8B7041682B68C91C12
:100E80000B60AA888A8025E08D88854233D042F2A3
:100E90003200A84233D191F802900F2006F0C3FC33
:100EA00068B3067080F801A00721418000F10803B3
:100EB0004360067241680F224A7041688E70416833
:100EC00081F80390416801230B7141684D714268BC
:100ED0002B12937105F0CAFB11E08B8883420AD074
:100EE00031F8040C0C38C2B20E201D468B6829461E
:100EF00003F0E2FF03E04FF6FF70ABF80000ADF83F
:100F000008700320ADF80A00CDF80C8002A805F0A7
:100F100073FF4BE7544920424C4520556E6B6E6F72
:100F2000776E00C0544920424C452050657269706C
:100F3000686572616C00C046544920424C452043AC
:100F4000656E7472616C00C0544920424C4520416A
:100F50006C6C00C070050020A57F000043F101000B
:100F600030100020002A4AD05FEA000C8B071CD109
:100F7000830722D1102A08D370B4103A78C978C0F8
:100F8000103AFBD270BC103238D0042A2CD3082A75
:100F900005D30C2A24BF08C908C008C908C008C95D
:100FA00008C092072AD0920F22E00B780370491CE8
:100FB000401C521E22D08B07F7D1C30714D18307E0
:100FC000D8D0121F12D308C903801B0C4380001D08
:100FD000121FF8D20AE008C903701B0A43701B0AEB
:100FE00083701B0AC370001D121FF4D2121D05D09E
:100FF0000B780370491C401C521EF9D160467047A3
:101000003C00000000000000000000003410000060
:1010100000000000000000000100000000000000CF
:1010200000000000000000000000000001000000BF
:101030000000000008000000000000003400000074
:101040000000000000000000681000000000000028
:10105000000000000100000000000000010000008E
:101060000000000000000000080000000000000078
:101070003000000000000000000000009810000098
:10108000040000000000000001000000FFFFFFFF5F
:10109000FF00000001000000080000000000000048
:1010A0002C0000000000000000000000C410000040
:1010B000040000000000000001000000FFFFFFFF2F
:1010C000FFFFFFFF080000000000000038140000D0
:1010D000E410000095A1011091A70110A1C2011018
:1010E00009B2011041B8011000000000000000002A
:1010F0002F00000028000000000000000000000099
:10110000141100000000000000000000FFFFFFFFBE
:10111000000000000800000000000000341400007F
:101120003011000065C2011069C101101BC201101D
:1011300091BA011000000000000000002D00000026
:10114000341400005411000071C20110A5B6011042
:1011500099BF011045B6011000000000000000001A
:101160002E0000002400000000000000000000002D
:1011700080110000000000000000000000000000DE
:101180000800000000000000240000000000000033
:1011900000000000A411000000000000000000009A
:1011A0000000000008000000000000002400000013
:1011B0000000000000000000C81100000000000056
:1011C0000100000000000000080000000000000016
:1011D000000000004C10002004000000000000008F
:1011E000000000002000000070100000300000002F
:1011F0001C1100005410002004000000000000003A
:10120000000000000C000000301300001800000077
:10121000401100005C1000200400000000000000ED
:101220000000000024000000481300001800000027
:101230000000000064100020040000000000000016
:101240000000000010000000A01000002C000000B2
:10125000CC1000006C100020040000000000000012
:1012600000000000200000006411000024000000C5
:10127000FFFFFFFF741000200400000000000000CA
:101280000000000028000000881100002400000079
:10129000FFFFFFFF7C1000200400000000000000A2
:1012A00000000000580000003C1000003400000066
:1012B000FFFFFFFF8410002004000000000000007A
:1012C0000000000010000000601300001800000083
:1012D000FFFFFFFF8C100020040000000000000052
:1012E000000000001C000000AC1100002400000001
:1012F000FFFFFFFF9410002004000000000000002A
:101300000000000038000000F41000002800000079
:10131000FFFFFFFF9C100020040000000000000001
:101320000000000054000000001000003C0000001D
:101330001800000000000000000000004013000042
:10134000080000000000000018000000000000007D
:10135000000000005813000008000000000000001A
:1013600018000000000000000000000070130000E2
:1013700008000000000000000100000070F50100FE
:1013800030BF70470100000000000E0000000F0099
:101390003200000001000000F40F002000020000F5
:1013A00000000000FDC90110000000000000000066
:1013B0000800000000002300500E00200100000083
:1013C0000C100020080000000000000000000000D9
:1013D0000000000008000000000000000000000005
:1013E00001000000EC0E00200600000001000000DB
:1013F000B80D002000000000000000000002000006
:101400000000000070472900010025002D002E007B
:051410002F00010001A6
:101418000300000030F5010000000000000000009B
:10142800000001000000030083C401103C14000008
:101438003C14000000000000900000009000000034
:10144800000000000C100020797E00002000000041
:10145800F4F4010098F4010009C301106F6C000056
:10146800F76D000095C8011097C801100000000032
:1014780073F4010070F3010088F3010058F30100D0
:0914880008000900010000000148
:101494000000000000000000000000000000000048
:1014A400EDF10100516D0000E1770000A57000002E
:1014B40047710000D5680000D15A0000C17F0000C8
:1014C4004D6100000DC801101DC801100800000086
:1014D4002400000018000000280000002000000084
:1014E4003C0000000C0000003400000038B5054644
:1014F4001DF046FE2C680CB12168296006F07AFDC7
:10150400204632BD70B505460E462C68002030607A
:101514001CB91DF035FE2E600DE01DF031FE00E01B
:10152400246821680029FBD1B44203D106F062FD8E
:10153400002070BD266006F05DFD012070BD70B511
:1015440004460D461DF01CFE2A680026014642B1E1
:1015540000E01268D068A042106808BF1646002850
:10156400F7D1084606F046FD304670BD002128221A
:10157400DFF88C0B4A43104490F82720130603D558
:10158400491C0829F3D30020704730B501460022D6
:101594002823DFF86C0B5343184400F12403DC7850
:1015A400250603D5B3F900308B4203D0521C082A18
:1015B400EEDB002030BD38B504281DD1DFF8444BE4
:1015C40004F1E405284606F063FCA8B128461DF0A2
:1015D400C9FDDFF8341B0A68504364280CD228463E
:1015E4001DF0C6FD052005F055FE0120E07704211D
:1015F40004F144001DF0F0FD002032BD70B500F090
:1016040030FADFF8085B064695F8340020EA040453
:1016140085F834400024286820B19C3006F038FC5A
:1016240000B10124686820B19C3006F031FC044309
:101634001FD195F83400002808BF002C19D1A86ADE
:10164400D0B190F820108A0707D5C46900F005FBD3
:10165400A86A00220221A04708E0446900F0FDFACC
:10166400A86A00224FF400030021A0470020A862CA
:1016740070BD304601F00CB970BDF8B500239E462C
:101684000AB94FF0010E002600291CBF0D6A002D77
:101694006FF05047DFF874CA19D0C469BCB1C96887
:1016A400C368994207D0DCF8003099420CBFDCF8DB
:1016B4000860DCF80C60A408A4EB9504A61BBE42E9
:1016C40029DA06F18056B6F1805F24D90123002A75
:1016D4001CBFD469002C1BD0016AC9B1D268C06890
:1016E4000026904207D0DCF8000082420CBFDCF8F0
:1016F4000860DCF80C60C6EB9406A6EB9106BE42CB
:1017040009DA06F18056B6F1805F04D94FF0010E74
:1017140003EA0E00F2BD0020F2BD884201D300208E
:101724007047012901D101207047022070472DE93B
:10173400F843DFF8D04907468846A26A002000260D
:10174400012162B1A36ADA68BA4208D1A26A92F8A6
:1017540026004146FFF7E1FF002100B1A66A626A54
:10176400AAB1656A81460FE0E868B8420BD195F8E2
:1017740026004146FFF7D1FF002118B1B9F1000F4F
:1017840001D12E4681462D68002DEDD1484609B180
:10179400022029E0002818BF002E24D0A26AD368B2
:1017A4003146BB4204BFA26A914204D1A16A00F04F
:1017B4001DF8616A31B1CA68BA4201D100F016F865
:1017C4000968F7E7DFF8441901F132028F62CF624A
:1017D40000F00100937843F001039370B38C107010
:1017E4000B86012000E00020BDE8F28391F8272059
:1017F40042F0080281F8272070472DE9F14F8AB0A2
:10180400DFF8C87ADDF85080DFF8F86800207873D4
:10181400894688F800009346B6F93810B6F93A00BC
:10182400091AC1F30B0108299A464CDA348F641C57
:10183400C4F30B042046FFF799FE0546AC843868D0
:101844000A99884205D1387BC10744BF00F0FE00E5
:101854003873DAF8000028629BF80C0000F00F00DF
:1018640002280CBFDBF808000020B9F1000FE86182
:1018740025D009F19C0006F00BFB00285AD10A98E8
:1018840006F12401FFF75BFE040021D1706AF8B170
:1018940001F0E1F90890B06A20B1726AB16A00F00F
:1018A40055F838B9B06A98B9726A69462846FFF79C
:1018B400E4FE68B1706A2860756201207873284676
:1018C4000BB0BDE8F08F012088F800000020F7E796
:1018D400787B0028F3D114B9746A00E024685CB3FF
:1018E400226800F032F80028F8D0206828602560CB
:1018F4000220E3E7787B0028E1D1746A24B100E098
:10190400246820680028FBD19BF80C1001F08F019B
:101914000229D4D12CB1002200F017F80028CED12E
:1019240008E0B06A0028CAD0B16A002200F00EF8BC
:101934000028C4D10220C7E79AF804104846FFF7EC
:10194400F6FE0128D6D10420B8E72146284694E6BD
:1019540070B5002005F0C6FFDFF8A8470FF28141FB
:10196400002204F178001DF015FC06F03BFAD4E9DE
:101974000023801A9941000B40EA0150E060DFF82F
:101984005059E87D30B1217CE068C902814201D31D
:10199400A87D58B30020A8750121E975DFF8340942
:1019A40001680A0622D540F6090028800021687BD8
:1019B400696000F05FFC6873287B00F0F000287316
:1019C4001DF0DEFBDFF810194A6922F002024A61B9
:1019D4006FF002020A610D600B699E07FCD50A6173
:1019E4004A6942F002024A6106F004FB0020C4E99D
:1019F4000000E06005F024F8687D20B9E16B01F196
:101A040040001DF0DDFBDFF8981B0020086070BD6E
:101A140010B500F026F8DFF8B8180A7D14430C75E9
:101A240006F0E8FA832010BD10B500F01AF8DFF8CC
:101A3400A028117D19B906F0DDFA012010BD117D31
:101A440021EA04041475117D39B906F0D3FA08218A
:101A5400DFF8500B1DF0C0FB01E006F0CBFA832049
:101A640010BD04461DF08CBB10B50446207B00F06D
:101A74000F00022822D101F0EEF8A168DFF88426D5
:101A8400081AD16B8008002914BFC96840F6C41134
:101A940001F57A73834238BFB0F1405F0ED2401A29
:101AA400DFF864160B68B0FBF3F1012998BF01213C
:101AB40002F1E4001DF058FB012010BD002010BD10
:101AC40038B50446DFF83C56E068E96B884218BF35
:101AD4004FF4806137D1A068FFF7C6FFA8B1286B27
:101AE400E1684A681378022B00D170B90120FFF72E
:101AF4009BFF83282AD1E86B78301DF039FB05F170
:101B0400E400BDE832401DF031BBD4E90401DFF844
:101B1400C8275369034353610020D3680B43D36040
:101B2400D061A0681060D0690028FCD005F12400C1
:101B3400FFF7DCFCAC62A86AC16848680278022A34
:101B440004D14FF4004105F14400E1E231BDDFF876
:101B5400B405C16B8A6801F12803506830B198421A
:101B640018BF0246F9D101E000207047507B10F005
:101B74000F0F02BF488D40F609018842F4D10120BD
:101B8400704738B5DFF8801BDFF8800B0C68DFF88E
:101B940074550440E0430860A00606D548688106F1
:101BA40003D54FF4005100F0FFFC14F4602F0DD066
:101BB400DFF85C0B816904F460240C43846105F153
:101BC4009400BDE8344000211DF006BB31BD70B562
:101BD4001DF0D6FADFF8384B0646A06910F4602FE2
:101BE4002FD0A569ED012D0EE80748BF002506D4C6
:101BF400A80748BF012502D4680748BF0225681D0D
:101C0400002140B200F020FEA169012205F111007B
:101C140082409143A16100F020F804EB8506F0684E
:101C240038B154F82500691DF56800224FF00063AF
:101C3400A847DFF8E01A086828B90220FFF7F4FE85
:101C440001E000F00AF8A06930B1BDE8704000215D
:101C5400DFF89C0C1DF0C0BA70BD304606F0CAB95E
:101C640070B5DFF8A05405F0FBFFAC6A002C024607
:101C74005DD012F00A0F4BD00020A862D4E9040111
:101C8400A36940F00A0632401A43A261DFF8846A6D
:101C9400B2688243B2603268D4E904018A43326094
:101CA400214600F0B9FE00F0BBFE286B00283ED0B0
:101CB400E16848680278022A39D194F82700C107FC
:101CC40005D5286B90F8271041F0010108E094F83D
:101CD40027008107286B0BD590F8271041F00201EB
:101CE40080F8271005F13400296BFFF70BFC0CE09A
:101CF400A8622A6BB368D2E904010343B3602A6B78
:101D04003368D2E904010B43336000222A630EE0F6
:101D1400D4E9040102420AD0EC62D4E90401A369C3
:101D240002401A43A2614FF4804100F03DFCA86ACE
:101D340020B9686A10B1BDE87040C1E670BDDFF833
:101D4400C403B0F93810B0F93A00814204BF01204D
:101D5400FFF76ABE7047072050E4F8B507461446FB
:101D6400BE6E1D4606B1B047A0070ED4D7E91801D0
:101D7400204029400022914208BF904205D17A6850
:101D84001078022809D1210707D5C7E91C4507F1B6
:101D94004000BDE8F2401DF013BAF1BD704780B5B4
:101DA4001DF018FADFF85C230146D06B126CBDE815
:101DB4000840104780B5DFF84C030FF22152016C44
:101DC400914207D10120FFF723FEBDE8024019200C
:101DD4001DF0DEB9BDE80440042144301DF0FCB917
:101DE40070B584B005F03CFFC64E0FF2F1410546D4
:101DF400306C88422AD10022DFF8F81ADFF8104943
:101E040006F178001DF0C6F901203076FFF700FED8
:101E14000020B0764FF6FF71A08B884208D10221D2
:101E2400ADF80010684605F02FFCBDF80800A0834B
:101E3400B06A40B9746A34B1FFF789FE30B92046FC
:101E4400FFF73EFE02E0022101F0DBF8DFF8C00BF1
:101E5400054203D04FF0005101F0D3F87FBD80B5A7
:101E640005F0FEFE800707D5BDE804404FF480511D
:101E7400DFF830071DF0B0B901BD10B5A14C014623
:101E8400E06B4268506838B1012908BF05F032FBA5
:101E9400E06B416848688047E06B426890680028BE
:101EA40004BFD168002914D0DFF8681B0868002833
:101EB400FAD000230B60906800B18047E06B406863
:101EC400C06800B18047BDE81040DFF85C0C05F045
:101ED400DBBB10BD70B5040077D0A16820200029B9
:101EE4001CBFC2B2002A00F088800A8840F60303AF
:101EF4009A421FBF40F604039A424968401EEED13D
:101F040076E094F82710002301F00701012907D097
:101F1400022909D0042904BF00224FF0805306E0AF
:101F240000224FF0005302E000224FF0804394F867
:101F340027100D0706D594F8271011F0070F18BFC6
:101F440043F08073B4F924106568A8471DF018F9AC
:101F54006C4E0546708F401CC0F30B007087002048
:101F6400716B81F8270006F13400FFF7BFFA01F026
:101F740039F901F0FDF83AD1E26892F8C20005217E
:101F840000B107210846FFF739FB6048E36802689F
:101F9400934208BF426893F8C200002100B919684F
:101FA400002583F8C2504AB192F8C20010B182F8F9
:101FB400C25003E01068884228BF014619B9BDE841
:101FC4007040012030E511F1010F10D04E48026835
:101FD400E068B1FBF2F1022938BF012178301DF02D
:101FE400C3F8E068BDE8704078301DF0BFB870BD3C
:101FF400E06818222830FEF7B3FFA2690020A06130
:1020040060680028A2D0E06841680B78022B18BFF2
:1020140042F0020275E738B50D46A807394C16D5CB
:10202400606BFFF757FF606B25F0020510B145F0B8
:10203400020109E0680702D4606A00285ED004F156
:10204400E4001DF095F8042104F1440060E0680701
:1020540054D5012084F82000042005F01BF905F074
:10206400C1FEC4E90001606A78B1C568E06B00286C
:1020740018BFA84208D095F82000410704D5EB69A1
:102084000022042128469847E563E06B4168DFF8A5
:10209400BC0B0A780260022005F0FCF8112002F063
:1020A400AFFE0120E16BA076087C00281EBF8849A2
:1020B400C87D002804BF0E2002F0A2FEE06B864A11
:1020C40040688168002904BFC068002804D000214A
:1020D400D161DFF8CC0B106040F2FF70DFF8C01460
:1020E400086000219161DFF8EC0C50610FF22900C7
:1020F40020641920BDE832401DF044B831BD000011
:1021040040190020B01B0020AC1B0020A41E00209E
:10211400BDE834401DF060B82DE9F0430546880061
:1021240085B040F193800020FFF7A7FE6A4EDFF8E8
:10213400740BDFF8749B664F0021F161306040F648
:102144000A08012005F0CEFB0FF29110C9F84000F7
:10215400A7F80080002078800021387B00F0F00090
:1021640038737960787B00F085F87873AA68144630
:102174006180F97D09B1687CA0B1108840F6020144
:10218400884218BFB0F5C15F05D1218A4FF60F40D0
:102194000140218204E0218B4FF60F40014021834E
:1021A400002068746946104602F028FC684605F071
:1021B40097FE40F6040140F60302606800281CBF45
:1021C4000388434518BF934243D08B4218BF04464B
:1021D400F3D13EE0288DA8B100216985E96205F1BB
:1021E40034004278017802F0F00201F0F00142F08C
:1021F40001020170427005F128007860787B00F0DC
:10220400F00078734FF6FF30A9680A8A02400A8208
:10221400F0690028FCD00021F16199F81F0030B169
:1022240004F068FC0028FBD004F082FC0CE00120E0
:1022340005F04AF9012807D0607B00F01BF86073B1
:102244000FF23D00C9F84000A868306005B0BDE851
:10225400F0836760607B00F0F0006073D9F82400BD
:1022640080680088904218BF8842B3D10020C9E931
:102274000000C7E700F0F00040F0010070470000E4
:10228400DFF8542B114200D17047012010B505F03E
:102294001BF90128DFF8104A06D10FF241010C485E
:1022A40021640D49086010BDDFF8302B106832211D
:1022B400B1FBF0F1012998BF0121E43420461CF060
:1022C40053FF2046BDE810401CF050BFCC1E002038
:1022D400FC1E002000000440001004402DE9F84FCB
:1022E40006460C466004DFF8C0591CD51CF048FFB4
:1022F400EF6ABE69B10711D487B10021B96105F055
:1023040079FE7868002818BF002E09D0B7F9241088
:10231400F86832467E680023B04701E005F06AFEA3
:1023240024F4804431E1A0006FF4807940F6020780
:102334004BD595F8200028B1042004F07DFE002040
:1023440085F820001CF01CFF8046B0680188B94263
:1023540018BFB1F5C15F00F033F9D5E900AB002037
:10236400834508BF824518D0042005F0ADF8A0B11C
:10237400D5E9007105F036FD874228BF401EC71B12
:10238400708A10EB1737F76040F2D170A7F5FA772F
:10239400874224BF40F6C410F06001F017F9FFF73C
:1023A400D6FB40B100F004F9686A10B100F018FDE2
:1023B40001E044F002043046766900224FF0806365
:1023C4000021B04724F00054DFE0A0070AD5686B71
:1023D400FFF780FD686B002824F0020401D044F06C
:1023E4000204D2E060051CD51CF0CAFE6E6A0746E2
:1023F40096B1E86B10B178301CF0BAFEF068E8636F
:1024040000F026FC05F0EEFCA8604FF400610FF22A
:10241400CD10286400F0C8F80020687724F48064A4
:10242400B3E0687F24F00808B8B1210712D4A86A81
:10243400A0044DD5AE6A002E1CBF7068002806D0DB
:10244400B6F92410F068766800222023B04724F4FB
:1024540000549AE00020687738E0A86A10B1210798
:10246400E6D533E02007E3D5002028760120E8767E
:10247400DFF87C0B2864FFF76BFA022004F0DCFD24
:10248400112002F001FCE96B087C10B90E2002F067
:10249400FBFBE87F20B10021E977052004F0CCFDA7
:1024A4000020E8762877687E30B10021697605F14E
:1024B400440004211CF090FEB5F93A10B5F9382017
:1024C4000220914208BF0720FFF798F844465CE0D9
:1024D400E00436D5FFF73BFB08B100F069F80022B1
:1024E400DFF8101405F178001CF054FE0020A877E2
:1024F40001202876B0680188B94218BFB1F5C15FE0
:1025040000F05EF80020707405F06CFCDFF81C2607
:1025140013680746E86B04219842A86808BF0021A5
:1025240040B1B84232BF3F1A401EC71B02F1080037
:102534003F0B47500020A86024F4805400F050FC66
:1025440023E0200421D5686AE8B150F80C1F4A68DA
:102554001378022B17D1C07EC10614D4A86A90F850
:102564002700C1060FD5A86A816848880028FAD0D8
:10257400A96A886841880129F5D0A86A28630020DF
:10258400A86200F02DFC24F4004434B1214605F186
:102594004400BDE8F44F1CF01FBEBDE8F18F0000FD
:1025A40000000460F41B002005F144001CF014BE7C
:1025B4004946D6F8189000224FF000733046484739
:1025C40005D1028A2D2161F3091202827047028B20
:1025D4002D2161F30912028370470000F0B504460F
:1025E400080585B07DD5DFF8C0660020307601206F
:1025F400B077F06B90F820104A0703D5C369002226
:10260400042198470022DFF8F41BDFF8F45B06F19D
:1026140078001CF0BFFDDFF8040C3064F06B4068F8
:102624008168002904BFC068002804D00021E96142
:10263400DFF86C0628600120FFF71FFC0020E8612A
:1026440040F60202DFF85C0628600020A16848809A
:102654000888904218BFB0F5C15F05D10A8A4FF6C9
:102664000F4002400A8204E00A8B4FF60F400240FA
:102674000A830120607440F6040240F6030340F626
:102684000A0C486878B3078867451CBF9F42974285
:1026940029D00146F5E7208DA8B100226285E262C7
:1026A40004F134004378027803F0F00302F0F002FE
:1026B40043F001030270437004F128004860487B32
:1026C40000F0F00048736946A06802F097F9684684
:1026D40005F006FCE8690028FCD00021E961A06847
:1026E400286005B0F0BD00204860487BFFF7C2FDBC
:1026F4004873706A80680088984218BF9042CAD1B3
:102704000020B060DFE700000810044020000E0045
:10271400DC1E00200C10044030B585B001F036FDFD
:10272400DFF8380BDFF8385B0168DFF87C4541F0EF
:1027340002010160684605F0DBFBA878DFF8241B82
:1027440002906A4604F1440004F010FA684605F069
:10275400A7FB2978DFF8F82B019100208DF80800F9
:102764006B46192104F1780004F04DF8684605F031
:10277400BFFBE878DFF8DC1B02906A4604F19400A2
:1027840004F0F4F9684605F08BFB01208DF808008D
:102794006B466878DFF8C02B01901A2104F1C80059
:1027A40004F031F800230022DFF8B01B04F1E40048
:1027B40003F0ECFEDFF83808DFF8A42B20640023D4
:1027C400042104F5847004F073FFDFF8140C4FF651
:1027D400FF71818300220021C177DFF8080CC175E5
:1027E400C4E900216183A183A177052121740275C5
:1027F4004FF4FA71CD488160C160E27784F82020FB
:1028040005B030BD10B5818B4FF6FF72914209D0EF
:102814000024012202FA04F3194206D1641C64B2B2
:102824000F2CF7DB6FF0010010BD9943818304F195
:102834000C00DFF8481C0B6882401A430A6002202F
:10284400FFF7E6F8204610BD70B506460C461CF0AE
:1028540097FCDFF88C1B0546C87F420702D58A7FA8
:10286400964214D001228B8B02FA06F00343DFF860
:102874000C0C8B830C36016802FA06F621EA060674
:102884000660006818B914B10220FFF7CDF8284695
:10289400BDE8704005F0AEBB70B5012A05460C4694
:1028A400DFF8046414D18CB1E068A84212D1206826
:1028B400706206F1340094F8271041F0040184F8A2
:1028C40027102146FEF71EFE746AECE770BD2468EB
:1028D400002CFBD020680028F9D02168C868A842E1
:1028E400F5D100F0A5F806F13400FEF70BFEF1E790
:1028F400441C0020651C00002DE9F84FDFF8A853A4
:102904006C6A80460E46032793461CF039FC16F188
:10291400010F0BF00109824608D1A86A00B3A96A25
:10292400C86840451CD1A86AB0F924603046FEF757
:102934002CFE00285CD0A96A88420BF002062AD13A
:1029440090F82710012202FA09F2114380F82710A7
:10295400B9F1000F14BFDFF8B80BDFF8680C0EE014
:102964001CF00EFC6E6A00E03668002E45D0F1685B
:102974004145F9D105F03EFBB6F92460D6E704F0F1
:1029840083FE26B1696A01224046FFF785FF00F005
:102994004CF883272EE0844205F1E40213D110465B
:1029A4001CF0E6FB686A00686862214694F8270018
:1029B40040F0040084F8270000F02EF8A6B1696AFC
:1029C40001220EE02468DCB121688142FAD110466C
:1029D4001CF0CEFB00F02CF800F01EF826B100220B
:1029E40021464046FFF758FF00F01FF8832709E00F
:1029F40000F01BF83846BDE8F28F05F0FBFAF7E764
:102A040000F013F8A87E0028F4D100F009F8F1E7EB
:102A1400020000401C10044005F13400FEF772BDB2
:102A2400022105F144001CF0D7BB504605F0E2BA80
:102A340021680868206091F8270040F0040081F8BC
:102A440027007047F0B500298BB0064615461C4692
:102A540067D0DFF8740B00680A78D040C00760D5EF
:102A6400002D71605DD00021284602F033F8B56076
:102A74001CF086FBDFF86C790546787D02284EDA77
:102A840008B9FFF749FE787D284941F82060401CC9
:102A9400787500F0A7FB34B903A80FF2F8611C2283
:102AA400FEF75EFA03AC2068DFF8E81B30600A46E4
:102AB4006068F0600B46207C3074A06930620120AD
:102AC4007074608A7082E06800B10246B261606925
:102AD40000B10146F161A06800B103467361A02111
:102AE40006F1280002F08EFE002106F1400004F0F9
:102AF4002DFD68461CF017FB02966B460022DFF89A
:102B0400981B06F1780003F041FD6B460022DFF8C4
:102B14008C1B06F19C0003F039FD304602E000F006
:102B240061FB00200BB0F0BD01000706A41E0020CD
:102B3400F8B5DFF8B0580446687D002800F08480BA
:102B4400594E00F00FFB15D006F124012046FEF784
:102B5400F6FC30B9B06A68B1B16AC868A04209D15C
:102B6400B06A38B1B0F9241002224FF0E043204695
:102B740000F055FA1CF004FB0746DFF8240B01684B
:102B84008C4207BF0021016000214160687D401E26
:102B9400687504F19C05C0B2002842D1307EF4630C
:102BA40080B10120FEF740FF0220FEF73DFF00F058
:102BB4004FF84FF0FF3104F1400005F052F91CF0DA
:102BC400DFFA074606F144001CF0FCFA06F178002F
:102BD4001CF0D0FA06F194001CF0F4FA06F1C800D7
:102BE4001CF0C8FA06F1E4001CF0AFFA0020F06310
:102BF40000F02EF804F140001CF0DCFA04F1780037
:102C04001CF0A3FA28461CF0A0FA06F5847004F020
:102C1400C9FE207C012817D1BDE8F2400E2002F045
:102C240033B8F06BA04208BFF16300F011F804F16F
:102C340040001CF0BFFA04F178001CF086FA284624
:102C4400BDE8F2401CF081BAF1BD0000D02108407B
:102C5400384605F0CFB970B51CF092FA124A117ECD
:102C640031B1DFF8402A146805F0C4F9204670BD7C
:102C740005F0C0F905F0B6F810F50030DFF8282AA1
:102C8400DFF8606741F10001A2FB004502FB01553A
:102C940031690020221845EB0103184670BD00007D
:102CA4005100070601010E04B01B00202DE9F84F66
:102CB40004460F4616469B46DFF8F0591CF060FAAE
:102CC400B5F938108146B5F93A00091AC1F30B0178
:102CD40008296FF0010840DA288F401CC0F30B006C
:102CE4002887B5F93800ADF80000FEF73FFC8246AE
:102CF40004F178001CF03CFACAF8087020210AF1AB
:102D040026073E70CAF804B0BDF80000AAF82400F3
:102D1400CAF80C40DDE90A62DFF89409304011403A
:102D2400CAE9040104F1C0060020787040F6FF747B
:102D3400686A0028514605F1240006D0FEF7E2FB3C
:102D440030B100F050F8484637E0FEF7DBFB40B9FD
:102D5400288F2418C4F30B042C8700F045FB40464D
:102D640036E000F040F8297F00291CBF287E0028A7
:102D740003D0012100206977287700F035FBA96A88
:102D840021BB287E28B10120FEF742FE00F028F87E
:102D94001CE0A87ED0B91CF0F3F90446E87E10B11B
:102DA4000121697608E0DAF80800FEF75DFE38B123
:102DB40005F1E4001CF0DAF9204605F01BF905E002
:102DC400204605F017F90421FFF7EEFBBDF90000DA
:102DD400BDE8F28F0A00004004000020AC1B002074
:102DE40019201CF0D5B9BDF8000030800021787896
:102DF40040F080007870B17070472DE9F04FDFF833
:102E0400A05885B081460F4614469A461CF0B8F97E
:102E140029688046894508BF696801A80394009021
:102E24003A46039B4846FEF7E8FC040005F13200ED
:102E340002900ED18178C5F8289041F00401817088
:102E440000F0C4FB9DF80400022862D16FF0020078
:102E5400CBE009F178001CF08BF9DFF85068A08C06
:102E64003087B4F92400ADF80000A76004F1260708
:102E740003980179DFF838083970C4F804A0C4F85D
:102E84000C90DDE90EAB20210AEA00000BEA0101F7
:102E9400C4E9040100207870E06841680A78022AD5
:102EA40002BF03984179012903D1787840F01000DA
:102EB400787000F08BFB0298C178042905D1027860
:102EC400B5F93010E86A00F05BF91CF059F9804656
:102ED4000298C078002818BF042809F1C00529D138
:102EE400706A002840F6FF79214606F1240006D0D6
:102EF400FEF708FB30B100F088F840465EE0FEF7CC
:102F040001FB48B9308F4844C0F30B00308700F010
:102F14005DFB6FF0010068E000F077F8317F002975
:102F24001CBF307E002803D0012100207177307748
:102F340000F04CFB0298C078022803D100F05AF844
:102F440040460CE0012806F1E4090FD148461CF084
:102F54000FF900F04FF8B06A0028404604D005F09D
:102F640049F8B4F9240040E005F044F8B06A40BBE5
:102F740000213163307E28B10120FEF749FDFFF7BF
:102F84002FFF30E0B07E00282DD11CF0F9F8054663
:102F9400F07E10B10121717606E0A068FEF764FDB1
:102FA40020B148461CF0E2F8284607E0B07F00282C
:102FB400284603D105F01EF8042112E005F01AF8A2
:102FC40011E0B06AC16848680278022A01BFE0686B
:102FD40041680A78022A06D10399487918B94FF44E
:102FE400004100F00EF8BDF9000005B0BDE8F08F17
:102FF4001B200000787840F0800078700021A970D0
:10300400704706F144001CF0E7B8BDF800002880C2
:103014000021787840F080007870A97070472DE91D
:10302400F04105460C4616461F461CF0D1F8804672
:103034002046FEF7AAFA040003D094F827000106FC
:1030440003D4404604F0D2FF0CE094F8270010F0BB
:103054000F0F0AD0404604F0C9FF94F8270010F07F
:103064000F0FFAD10220002116E06168DFF8440650
:10307400814202D06168A9666060C5E9186740466C
:1030840004F0B4FF4FF0FF3105F1400004F0E9FE15
:103094000020A866D5E91C01BDE8F081DCB500F08C
:1030A40017F808BFDFF80C362046FFF7FFFD0028AD
:1030B40000D514E017E0DCB500F00AF808BFDFF82B
:1030C400F4352046FFF799FE002800D507E00AE012
:1030D400DDE906670446CDE9006718007047002063
:1030E4004FF00041DCBD0146204602B0BDE8D040AF
:1030F40002224FF0E04392E770B505461CF040F819
:103104000446B849DFF8A4650120887505F19C00E0
:103114001CF02EF8307E80B9DFF8841591F8340065
:1031240058B100F025F808D1204604F063FF0720C9
:10313400FEF764FA1CF024F8044600F013F80BD1EF
:1031440005F178001CF014F80120FEF76DFC307EC8
:1031540028B10121317702E0012085F8C200204620
:10316400FFF796BBB6F93800B6F93A1088427047B3
:10317400B6F93A00B6F9381088427047FFF7BCBB7D
:1031840042F00202FFF7B8BB0FF208011C22FDF760
:10319400E7BE0000FFFFFFFFC409000000000000BD
:1031A4000000000001003A010000000000000000DF
:1031B40038B5FEF756FCDFF8F4140546087E68B10E
:1031C400204604F061FA044600F00CF804F0FF0411
:1031D400012C01D1812032BD022032BD00F002F861
:1031E400012032BD284604F005BF0A46DFF8BC14AE
:1031F400CB6B984201D0032070470BE0631E0000A4
:10320400001004400A46DFF8A414CB6B984201D0A6
:103214000320704700211046CAE70000E1220000A5
:1032240070B5DFF88814CA6B90426FF07F0412D136
:10323400087E80B11BF0A4FF0546DFF87C0404F08F
:1032440023FA0646FFF7CEFF06F0FF00012802D15D
:103254003602301670BD204670BD000000200940C3
:1032640052F50100A31D00002DE9F0410E4614465D
:1032740083251BF085FF032E8046DFF8307465D864
:10328400DFE806F002071114B86A50B1B96A888CF5
:1032940005E05348808B4FF6FF71884201D02080AF
:1032A40055E0802553E0387E207050E0246850219A
:1032B400204602F0A7FA0021DFF8E423080152F8BF
:1032C4002130235004F10C0E0C234B431344491CAE
:1032D4001E7E0EF80060261DD3F814C046F800C008
:1032E40001291B699C4404F1080343F800C0E5DD8F
:1032F400B86AA0B1BA6AD3680801491C235049B21C
:10330400BA6A92F8263004F10C021354BA6AD369EB
:10331400221D1350BA6A136A04F108021350786A22
:10332400A8B1042913DC0A01C368A35004F10C07F3
:1033340090F82630BB54271DC369BB5004F108071D
:10334400036ABB50491C006849B2E9E7032534E12C
:10335400E51D0000D31B0000871B0000B91D000001
:10336400BB15000080B50846FEF70FF900B1806870
:1033740002BD2DE9F8430446CC480D46017E807F0A
:1033840001431E4608BF6FF0010026D00A212980A0
:103394006A60DFF828834046FFF734FA0746002FB7
:1033A4001AD4AF701BF0ECFE8146284604F06CF989
:1033B400054600F019F805F0FF05012D06D108EBCC
:1033C400870040F8086C40F8144C05E001213846A9
:1033D400FFF73AFA6FF001073846BDE8F2830000C0
:1033E400DC1E0020FC1E0020484604F003BE2DE92C
:1033F400F8430446AD480E46017E807F0143904663
:1034040008BF6FF0010037D0AC4F3846FFF7FAF928
:103414000546002D2FD41BF0B3FE8146280200F48C
:10342400706006434FF6FC703040A549084304F031
:103434002BF900F0FF00012815D1F0040CD5A149A7
:1034440001230A6805F10C0083409A430A60BD77A2
:10345400F87F40F00400F87707EB850040F8144C3F
:1034640040F8088C05E001212846FFF7EDF96FF0DC
:103474000105FFF7B9FF2846BDE8F2830C100440AC
:103484004FF6FC73084618408F4A002110438FE61C
:10349400F8B586480C46017E807F014301D10120A6
:1034A400F2BD8648C17F4A0707D5837F9C4204D179
:1034B40001F0FB01C177002181771BF061FE054615
:1034C4001BF086FE064601212046FFF7BDF94FF6A4
:1034D400FC7000EA042040F0816040F0010004F038
:1034E400D3F807467748012201680C3402FA04F441
:1034F40021EA04040460304604F078FDFFF772FE0C
:1035040007F0FF07012F01D18120F2BD0220F2BD97
:10351400010002042DE9F04107460C4615461BF054
:103524002FFE624EB17E8046307E0143F07E014321
:10353400062C41D8DFE804F004070D10131F2D00FA
:103544002868386036E001207874F8686030F860E4
:1035540030E0286878822DE0286830742AE02868F2
:1035640018B98020FEF754FA24E0012824D18020E1
:10357400FEF75AFA1EE0002904BF706A00280DD134
:10358400296819201BF008FE29681A201BF004FE84
:1035940010E0002904BF706A002801D000250CE067
:1035A400296806F144001BF01BFE296806F194000B
:1035B4001BF016FE832500E0032500F007F82846DB
:1035C400BDE8F08101000104D4210840404604F024
:1035D40011BD2DE9F84F0E46814630684FEA900A36
:1035E4003A48824502D2307A022801D003202AE0E8
:1035F4001BF0C6FD2A4D804668680027814508BF38
:10360400012787F0010055F8204009F19C0004F0DF
:103614003FFC05F1320B58B9BCB104F19C0004F035
:1036240037FC28B902212046FEF781F804000DD1A9
:103634009BF80200C5F8289040F002008BF80200C5
:10364400FFF7C4FF0020BDE8F28F02240C2047439B
:10365400E81931680161317A01761D480168BAFBC5
:10366400F1F1012998BF012109F19C001BF07CFDB7
:1036740009F19C001BF07AFDFFF7A8FF012C06D18D
:103684009BF80020B5F93010E86AFFF779FD832034
:10369400D9E70000A11D0000431D00005B1D0000D0
:1036A400A41E00200430044000093D00B01B00208B
:1036B400FDEFFF9F5F1D000001000304DC1E0020DE
:1036C40001000306081004400100040641420F00F3
:1036D400AC1B00202DE9F047DFF80CA20746AAF145
:1036E4003500DFF8F8810068800880F0E78003F097
:1036F400B7FF814908310B6800261C17641C990D1B
:103704000AD2C0F13E0110F10A0F4FEAE101D8BF1D
:1037140008218C42B8BF0C1CDFF8C4C1990E0FD22B
:10372400590E0DD36246143A1168C1F304211629C7
:10373400A8BF20391268C2F30462162A0EDB0CE01B
:10374400634AD2F87C11C1F304611629A8BF203959
:103754001268C2F30442162A00DB203A611891462B
:10376400162905DA11F10A0FB8BF6FF0090100E05C
:103774001521584C584D01F01F0242F4F852228092
:103784002A6812F0030F18BF0126D20828BF46F09A
:1037940002060FB146F00406424692F90740041BA4
:1037A400052C04DA9479B44208BF918866D00F28B6
:1037B400A0F10F0827DB08EB0014A4F1F0084FEA8E
:1037C400282EBEF1070F88BF4FF0070E7546062D51
:1037D40088BF06255CF82570042404EB850465463F
:1037E4002C59E41B04F0FF05F70824BFC4F3072792
:1037F4003D44B70824BFC4F307473D44770828BFB6
:1038040005EB146501E00025AE465CF82EC0F70810
:103814000CF0FF0424BFCCF307273C44B70824BFB3
:10382400CCF307473C44770828BF04EB1C64ADB2D3
:10383400A9EB0101A8EB0E277D43002905F18005C2
:1038440004EB1524D8BF012103F0FF0334254D43B5
:10385400A9B259434FF6FF73B1FBF4F18B4238BF61
:10386400191C802889B2918005DA10F1800FB8BF45
:103874006FF07F0000E07F20D071967119480068D6
:103884001F2910604FF0000008D340F2FF128A4253
:1038940006D24908401C8A42FBD301E01F219180D3
:1038A400124F0F39090940EAC10047EA0001CAF87A
:1038B400FB1F0026CAF8FF6FBDE8F0870C490D4FC7
:1038C400424608200F60921D1070BDE8F087C04684
:1038D4003C1100506E62084024220840301F002032
:1038E4009C130050082009403500094000E7A480DB
:1038F40030100940FDFDA400AC3F005001282DE923
:10390400FE4F40F0EB80DFF80CB2DBF8DC0001285E
:1039140040F0E1800220CBF8DC0004F023F8012021
:1039240002F02EFF5FEA000805D00120CBF8DC008E
:1039340004F028F8D4E01BF04BFC6B490290002003
:103944000860012003F0C0FD012818BF002003D146
:10395400002002F0AFFA0120644900900020644F77
:103964000860386811201BF083FB00280CBF00247A
:10397400012410201BF07CFB08B144F002040F204A
:103984001BF076FB08B144F004040B201BF070FB21
:1039940028B158480068584E016B308888470A207F
:1039A4001BF066FB002600B101264FF0805A0AF591
:1039B400DC75301C04D02868504E016B3088884771
:1039C4004F48012606602868816944F02000884732
:1039D4004C4806601BF046FB00F0010101914008D1
:1039E40014D2494804F0CEFA8146B9F1040FF8D054
:1039F400B9F1010F05D1DAF8D80142684248032130
:103A040090474249086820F0030008600020FFF74F
:103A140061FE2B683868986B8047019801280DD0A7
:103A2400B9F1010F05D1DAF8D801426836483146B8
:103A340090473649086840F0030008602B48066048
:103A440028684169204688470B201BF011FB20B1F0
:103A54002868294BC16A188888470A201BF008FB8C
:103A640020B12868254BC16A188888472448032256
:103A740006602449CBF8DC2000230B602868416BE6
:103A8400204688470128F9D13868042002F078FEDE
:103A9400044615481E490660386808688009FCD346
:103AA4000098012802D1304602F004FA1BF0C8FA4B
:103AB400082002F065FE07460298CBF8DC6004F0AB
:103AC40095FA02F0B7FA03F05DFF57EA040018BF55
:103AD4004FF0FF3804E06FF0040801E06FF00108D4
:103AE4004046BDE8FE8FC0460C4009400002224318
:103AF4002C200940B8010010EEF20100EAF20100A6
:103B04002820086080010443004003402422084028
:103B140014100940BC0B00202DE9F0411C46154649
:103B24008C4208BF854282BF00230022E5E0002CBE
:103B340008BF002D0AD100290EBF00286FF0000035
:103B44006FF0000100F0E1F8BDE8F0815FF00008DB
:103B54005FF0000E002C08BF8D429CBF2C1C00257A
:103B6400070C47EA01470E0CB44208BFBD429EBF92
:103B74005FEA044444EA15445FEA0545070A47EA54
:103B840001670E0AB44208BFBD429EBF5FEA042427
:103B940044EA15645FEA0525470847EAC1774E08F9
:103BA400B44208BFBD4200F29380870847EA817798
:103BB4008E08B44208BFBD427CD8C70847EA4177A3
:103BC400CE08B44208BFBD4266D8070947EA017768
:103BD4000E09B44208BFBD4250D8470947EAC1673D
:103BE4004E09B44208BFBD423AD8870947EA816703
:103BF4008E09B44208BFBD4224D8C70947EA4167C9
:103C0400CE09B44208BFBD420DD8E60146EA556666
:103C1400EF01B14208BFB84201D3C01BB14158EB18
:103C240008085EEB0E0EA60146EA95664FEA851774
:103C3400B14208BFB84201D3C01BB14158EB0808D8
:103C44004EEB0E0E660146EAD5666F01B14208BF1F
:103C5400B84201D3C01BB14158EB08084EEB0E0E1D
:103C6400260146EA15762F01B14208BFB84201D3B6
:103C7400C01BB14158EB08085EEB0E0EE60046EAA5
:103C84005576EF00B14208BFB84201D3C01BB14121
:103C940058EB08084EEB0E0EA60046EA9576AF00E8
:103CA400B14208BFB84201D3C01BB14158EB080868
:103CB4004EEB0E0E660046EAD5766F00B14208BFA1
:103CC400B84201D3C01BB14158EB08085EEB0E0E9D
:103CD400A14208BFA84201D3401BA14158EB0808E8
:103CE4005EEB0E0EA34208BFAA423EBF2D0A45EA70
:103CF4000465240A89D3734642461E4617460B467A
:103D0400024631463846BDE8F08170472DE9F84354
:103D1400614C5A4D5A4EDFF870815E4F94F8E410AE
:103D24000846401E0B2864D8DFE800F07B2C4306CD
:103D34002343062343067664042907D001220A2973
:103D440045F8212C14BF0220032004E0202045F86C
:103D5400210C0120024684F8E200002045F8390CC9
:103D64000827C5F8FF7FC5F8F37F45F8392CBDE86F
:103D7400F883052914BF09200620002784F8E400ED
:103D8400376075E094F8E170383D0120002FC5F8E4
:103D94001B0004BF0620002102D00021F160032093
:103DA40084F8E400032045F8010C31603068800891
:103DB4005ED294F8E4103348012703290ED000683A
:103DC400456800216022052300914046A84794F8E5
:103DD400E400062814BF0A200720CFE700684568DE
:103DE400002160220523022000904046A8470420B9
:103DF400C4E7FEE72548264F0026012506600E206D
:103E04003D6000F041FF022003F016F984F8E4500D
:103E140084F8E360BDE8F883002038600C257860FE
:103E240024E04FF08059D9F8A00101682020884788
:103E34002C3D0F2045F8010C41F61D56C5F80360D2
:103E4400D9F8A401466800214FF4C0720723022563
:103E540040460095B047D9F8A401C66800214FF444
:103E6400C07207234046B0470120386084F8E4500C
:103E740004F178001BF07AF9BDE8F88339400C406E
:103E840038600C40A401001000A00C402C500C40E1
:103E940004800C4034600C40BC0B00202DE9F04F32
:103EA4008146ADF11C0D00F071F903F0EDFD002623
:103EB400012804D103F0BCFE022808BF01265149A1
:103EC4000868C0F38150012806D151F80C0C012771
:103ED400010E07FA01F006434B48007803F048FC52
:103EE4004A4D2C46286038B1FF2204F140010746B0
:103EF4007F1E01F8012BFBD1D9F800104FF0000808
:103F040001F0FF02FE2A1CD0CC4601F0FF0342461A
:103F14000127FF2B0ED0984203D907FA03F31E4260
:103F240001D002206AE001F0FF0143EA08086118A9
:103F340081F840205CF8041F521C01F0FF03FE2BA3
:103F4400E7D1092000F05CFFC4F8049004F12400D8
:103F5400012103F0FBFA23683BB3002794354FF0AB
:103F6400040BBA460120B840064218D118EA000FE3
:103F740004BF07F0FF0141F4C04104D0E01990F8F8
:103F8400400059F82010224800F0CAFCF8B24FF063
:103F9400FF3103F087FD2368C5F800A001E0C5F8F0
:103FA40000B07F1C2D1D9F42DCD304A803F078FFD2
:103FB400184D194A2878102104AB059004F1080023
:103FC40002F021FC684603F093FF00276A46686804
:103FD40003971249029004F1600002F0C7FD1049F2
:103FE40051F80D0C012620F4F85040F4005041F82B
:103FF4000D0C0C4DC1F8FF6F38462E6007B0BDE8BC
:10400400F08FC046B43F00503E1F0020CC1C00205F
:10401400007FC7673CF50100C57A0000B166000067
:104024000D300940080009402DE9FF410446666847
:10403400A7680D461BF0A4F83178012903D103F0D9
:10404400D9FF002091E00121317003F0D3FF2878DB
:1040540070706878B07068687060A868B060E8686C
:10406400F06028693061287D3075687D7075A87DA1
:10407400B075A869B061287F3077687F7077A87FB2
:10408400B0774FF00008C6F82080C6F83080454667
:1040940075627563B562B56386F82C50102386F893
:1040A4003C3086F82D5086F83D50786800F0A8FE24
:1040B400204600F047FE204601F040F870B92C4835
:1040C4000068C16838688847786800F0DDFD1BF037
:1040D40057F8357003F08EFF2C4645E0684603F030
:1040E400DFFE0094387B234A0190B9686B4606F1E1
:1040F400800002F088FB684603F0FAFE00941E4933
:1041040038696A46029006F19C0002F02FFDB078EF
:1041140030B906F1D000294603F018FA1748306187
:10412400707830B906F1EC00294603F00FFA144810
:10413400F06068461AF0F7FF01958DF800501149B8
:10414400029406F584700A226B4602F01FFAB969DC
:10415400FA6906F1400003F07BFE0B4A06F16C009D
:104164000421234603F0A4FA20460090BDE8FF8111
:10417400D001001009460000E16C000023F10100A9
:104184001BF10100C1530000157F00002DE9FF471A
:10419400484D95F8E700002877D101243D4F85F874
:1041A400E740387B85F8E6007E68C5F8106101A811
:1041B4001AF0B9FF002605F10C00029601AB8DF848
:1041C400046035490396324602F0E0F9334905F1BB
:1041D400300001AB324602F0D9F9314905F15400FF
:1041E40001AB8146324602F0D1F9B96820468847CE
:1041F400DFF8BC802B4808F104037A7B0078186848
:10420400C0F3815A22B1BAF1030F04D185F8E14019
:10421400BAF1030F1ED0BAF1020F1BD0BAF1010F8D
:104224002CD14FF08059D9F8A4011F4F456831466D
:104234004FF040521C23032000903846A847D9F879
:10424400A40131464FF400720923456800943846AE
:10425400A84713E0022003F01DF8BAF1030F0CBFC6
:104264004FF47A7142F2107110480068B1FBF0F11A
:1042740048461AF079FF48461AF078FF404600682D
:10428400C00802D2304603F005F800200090BDE8D3
:10429400FF87C04608F501005F4F00008557000006
:1042A400F55500003E1F002000A00C40AC1B002070
:1042B400B03F0050BC0B0020364AF8B5101D03680F
:1042C400B3F1FF3F08BF002303F0DEFB012860D1F8
:1042D400314E10683268070F02F0FF02802A28BFAF
:1042E400002203F0D1FB4FF0FF31012805D1381C27
:1042F4004FD0801E04BF143251B2142949DB274821
:104304002749002501270560264E0F60264C37609B
:1043140020680028FCD1274A161D2449244F306800
:1043240020F0030001433868C0080CD2106810F074
:10433400030F0AD041F003003060106800F003005E
:104344000328FAD101E041F001011B483160006803
:1043540020B11A4800681846FBF76EFE1848194940
:104364000560194F0A686FF35B4247EA0200086070
:1043740016490868C0F30130012806D10A681448B8
:10438400104040F400320A60086020680028FCD124
:10439400F8BDFEE718130050A010005084046042DA
:1043A4005C600C40082204430C00684204000020B6
:1043B400B03F0050004003408001284300012043E7
:1043C4008C210840482003400000390104000940C2
:1043D400FFFFFCFC2DE9FC410746BE6833687D689D
:1043E400986B20F4FA609863AC6B44B13168886BC5
:1043F40040F4FA6088634FF0FF30BDE8FC81AA63A3
:1044040029630024EC776C630CE09DF80000296BB1
:1044140008706B6B286BAA6B401C2863581C68637C
:10442400501EA863A86B90B93168886B40F4FA6099
:1044340088636A6B6878296B0128A1EB0201296300
:1044440003D1EB68384698476A6B144646E005F199
:104454004000694602F05CFA0028D6D51AF090FEB6
:10446400204F8046387820B9022002F013FF012043
:104474003870404603F0BEFD1B49086840F40070E4
:1044840008603168886B40F4FA6088636878D8B94A
:10449400696805F1EC0003F0E4FC90B1AC631AF038
:1044A4006FFE0646387818B1022002F0C5FD3C7054
:1044B400304603F09FFD1027696B286BEF77401A95
:1044C4002863686BBDE8FC8195F82D0030B1686BFA
:1044D40020B1AC6305F19C001AF080FE2046BDE8D3
:1044E400FC81C0463C1F0020301000402DE9F04103
:1044F4003A48394908603A48FFF7D0FC394C201D46
:1045040004F1100100F0CEFD4FF080552060D5F885
:10451400D801354C036801210A4620469847D5F84E
:10452400D8014268012120469047022002F0B2FEE1
:10453400032002F0AFFE2D4C0025032004F11C01E2
:1045440041F80C5F401E8D60FAD104F14C01062045
:104554000A46401E22F80C5BFBD10820244F088039
:10456400244A8F602449121D22F00303CF1A676284
:10457400E3612362E66904F12008944618460A467A
:1045840001E026F8025BB142FBD8B910E82700EB42
:10459400810121F8045C4FF6FC761F8006EA0C03C7
:1045A40000F1E807D21A676106EA0201EC39A0F8C3
:1045B400E810284601F060F8A061D8F800006061B6
:1045C40001F0BEFA02F0C4F901F01AFF00F016F887
:1045D4002846BDE8F081C046040E0020296600008C
:1045E400B0F30100D80F002000400340D00C00209D
:1045F400C97800003F1F0020383F0020DFF800F09A
:1046040051C001102DE9F8438146D9F80870386883
:10461400066CD9F8045046646A6CAB6CA86B16F44B
:10462400F06F0146A2EB03082AD1F00911D27009F8
:104634005DD301B395F83C40641EA14298BF0C1CA5
:104644004846214602F066FBA86B001BA8630DD008
:104654004DE081B1484602F05DFB95F82D10A8634A
:1046640011B9002843D101E00020A86305F19C00A2
:104674001AF0B4FD3BE04846414602F023FE36E022
:10468400F20A19D24FF00008444602E0A86B401E1B
:10469400A86340B34846012102F03CFB38684468F3
:1046A40014F00F04C0F80480F0D0286B401E286377
:1046B400686B401E686316E038684468002220294D
:1046C40004F00F044260CCBF20270F1C4846394633
:1046D40002F020FBC7F12007B845C8BFB8464846DA
:1046E400414602F0EFFDEC77484601F049FBB00982
:1046F4000BD3A96A49B10F46484602F043FBA862AE
:1047040018B94846391D01F0A7FEBDE8F8832DE924
:10471400F0430746ADF11C0D00F07CF802F072FD89
:104724004FF000090646CDF80C901AF0B9FC30F0B1
:10473400010002D00398B04202D16FF0040066E099
:1047440078684C4658B1B0F1FF3F05D004A902F097
:1047540041FD30B1804659E04FF0FF3000E0204683
:10476400049000F05BF8049D4FF001082D1802E05E
:104774000A463BE0049370680499FCF705F90028A5
:104784002DD0684601F092FDD8B99DF8040005A922
:1047940002F064FB88B9BB68BDF814009DF80610EC
:1047A400029A984748B1BDF814009DF80650B881A4
:1047B400029BBD73C8463B6111E0029903A802F055
:1047C40041FE0498641CB0F1FF3FD4D00028D2D03D
:1047D40000F024F82B1A02D004989842CAD2039FFE
:1047E40003F0B8F906F1080547B13A4652F80C1C33
:1047F4000029BDD1296842F80C1C2F6003F0B0FADF
:1048040024B17068FCF7C8F8641EFAD1404607B0BA
:10481400BDE8F083DFF800F0E1C10110DFF800F03B
:10482400D5B601102DE9F04707467D68D7F8089002
:1048340090460E461AF0A4FC8246A86A002864D169
:1048440005F584701AF094FC0024EC772E6250462F
:104854006C6203F0CFFB1AF093FC2F4E3378824640
:1048640023B9022002F016FD01203070504603F0F7
:10487400C1FB2A49086840F4807008603846414604
:1048840002F080FAA862C0B93846414601F0E4FD5E
:10489400A878D0B9A96805F1D00003F0E2FAE8B12C
:1048A400AC621020E8774946284601F025F81AF052
:1048B40067FC8246307840B323E0D9F80010886B57
:1048C40040F020008863A87810B12046BDE8F08746
:1048D400A96805F1D00003F0C4FA10B9686ABDE80C
:1048E400F0873846414601F0B7FD1020AC624946D6
:1048F400E877284601F000F81AF042FC8246307846
:1049040018B1022002F098FB3470504603F072FB99
:104914004FF0FF30BDE8F0873D1F0020301000400D
:104924002DE9F0470D4606465FFA85FA280824BFAC
:104934002E4845402E494FEA8A03C85885EA0002AA
:104944003240C2F300672B4A06EA0504B043224012
:1049540006F4E0240243B4F5E02F01D1500E14D341
:1049640006F4E020074310D002F4E027B7F5A027AF
:1049740007D0B7F5803704BF22F4003242F4A022F6
:1049840003E022F4803242F4C022DFF86C80CA5083
:1049940008F1D00739680122002002FA0AF40C4217
:1049A40018BF101C5FEA000906D1F00D04D341467C
:1049B400C5F3805001F80A00300E0BD31AF0E0FB67
:1049C400290E34BF0021211C3A68A24311433960E7
:1049D40003F010FBB9F1000F06D0F00D04D34046EC
:1049E400C5F3805100F80A10BDE8F087006000A00C
:1049F40000100840007F077F0020024080B5028835
:104A0400A2F602073FB143F20502BF1A14BF002207
:104A140090F8242000E0C27B2D482430D0F888325E
:104A2400521F0B6048D0521E3CD0121F30D0921E31
:104A340024D0D21E18D00F3A0CD0D0F890224A605D
:104A4400D0F894228A60D0F8BC0220F0784040F07C
:104A540080503AE042694A60C26A8A60406C20F041
:104A6400784040F0704030E002694A60826A8A60AF
:104A7400006C20F0784040F0F04026E0C2684A60C4
:104A8400426A8A60C06B20F0784040F0C0401CE06D
:104A940082684A60026A8A60806B20F0784040F045
:104AA400A04012E042684A60C2698A60406B20F00C
:104AB400784040F0405008E002684A6082698A60A9
:104AC400006B20F0784040F02050C86080BDC046A4
:104AD400A0100050E0B501880025A1F6020159B1EB
:104AE40043F20402891A04D0491E19D190F82460B3
:104AF40000E00226C76901E0C67B476987B13F1F12
:104B0400052044F2380357F8041F0A04120C934298
:104B140003D0401EF7D13F1D01E0C1F303450DB999
:104B24000120E0BD1F4B3046401F17D01C4A401ED9
:104B34000FD0001F0BD0801E07D0C01E0AD00F3824
:104B44001ABF1A1C6032121D04E0121F02E0083A58
:104B540000E00C3A1068C0F3834003E01A46106882
:104B6400C0F303200F2806D0A84216D921F47021DF
:104B740041EA004110E0761F0AD0761F08D0761F64
:104B840006D00F3E1CBF21F4702141F4802103D1D3
:104B940021F4002141F4E02139600020E0BDC04649
:104BA4000411005020130050F8B51AF043FA01F034
:104BB400B3F81AF057FA044604F00C000C284BD052
:104BC400E0081ED202F0F6FC264E376805460120A6
:104BD400014602F049FF31686943884211D2224CF0
:104BE400F020B0FBF7F0291A204600F045F82046E3
:104BF40000F046F80120FEF781FE204602F006FF91
:104C04002CE0200928D2194803F0BCF90428FAD072
:104C1400174A610905D220B11168104621F001013B
:104C240003E01046016841F0010101609832106808
:104C34004FF0805540F003001060D5F8B801816949
:104C4400202088470B4CD5F8B8712068B86B804792
:104C540001202060206801E0FCF790FB1AF0F0F9D5
:104C6400F8BDC04668F50100C80B002000400340B1
:104C74008C2108402C200940DFF800F0BDC201104F
:104C8400DFF800F0DFBF01102DE9B04304461AF04D
:104C940077FA81462748021992F8EE10491ECFB2DE
:104CA400002F82F8EE703FD1254901EB84014A8838
:104CB4000C78904634F07F0718D1E1090FD24FF0F9
:104CC400805000F5DC75D0F8B8018169104688473A
:104CD4002868416B404688470228F9D11EE000EB62
:104CE4008800D0F804110020884717E04FF0805561
:104CF400D5F8B801016A10468847D5F8B801816A29
:104D040040468847D5F8B801016B404688470A49B0
:104D140001200860094908688008FCD304F03F00BA
:104D24003F2801D0FFF7B0FF484603F063F90020A5
:104D3400BDE8B083BC0B0020282008602820084070
:104D4400C0F20100F0B52B4D05F12C0158C9ADF1AD
:104D54001C0D02AA58C20AC94FF0805682E80A0004
:104D640047688468D6F8D001C168206888472168FC
:104D740021488A6B10408863206840F2F2714164D4
:104D840097F83C0097F83D10C0100DEB8000806848
:104D940008432168486368461AF0DEF9D6F8D00162
:104DA400397F466805EB8101BA698B68797F206891
:104DB40055F821101943BB7F05EB8305AB690B4301
:104DC4000199B0470D490A1F106840F010001060A7
:104DD400086840F001000860A07D0027FF2802D089
:104DE400E07DFF2800D11FB1086840F4404008600E
:104DF40007B0F0BDE4F301000DF8FFFF30100040F0
:104E0400F8B506461AF0BCF9264D0746A91991F8DB
:104E1400EE00421C002881F8EE203ED1224C04EB27
:104E24008604267806F03F003F2801D0FFF7E8FF0C
:104E3400648836F07F0018D1F0090FD24FF080500B
:104E440000F5DC75D0F8B801416920468847286828
:104E5400416B204688470128F9D11EE005EB840503
:104E6400D5F804110120884717E04FF08055D5F894
:104E7400B801C16920468847D5F8B801416A20467F
:104E84008847D5F8B801C16A2046884707490120F8
:104E94000860074908688008FCD3384603F0AAF87C
:104EA4000020F8BDBC0B0020C0F2010028200860DF
:104EB400282008402DE9F041164680460D461C4640
:104EC40006F10B00B8F1FF0FC1B214BF032002209A
:104ED4004018C0B202F0A5FC071C3CD00421397074
:104EE400FF20787007F108037B6039727868B8F1A5
:104EF400FF0F80F8018017D17968B01C8870207882
:104F04007968C870607879680871A07879684871A0
:104F14007868857179682B12CB717868F21EE41C6D
:104F2400751D164608300DE07968F01C88707868A5
:104F34000123C3707868057179682A124A71786808
:104F4400B51D801D21463246FCF70AF8E8B2788088
:104F5400384601F089FBBDE8F08170472DE9F04146
:104F640014460F4600F04AF81FFA80F81F480068FC
:104F7400007808B902F0CEFDE7B138684FF0FF358C
:104F840018B140280AD3810B08D17E681EB1310ABA
:104F940004D0310E02D1B9680F2908D93DB10CB142
:104FA400284620700820FFF76FFE002418E0796877
:104FB400BA6803E04FF480700122014602F052F90E
:104FC4000B49012008600B4908684008FCD30A48D3
:104FD40000684168022088470CB100212170044612
:104FE400404603F007F82046BDE8F081A0F3010035
:104FF400A802504208800240CC010010DFF800F003
:1050040045C10110F0B520480127F84201D001F054
:1050140097FA204D204F214EBD4206D203CD04788D
:10502400A4003459401CA047F6E71D48002800D0CE
:105034008047164D164FBD4202D210CDA047FAE765
:10504400F0BD03251BE0416808300A1C2A400BD13F
:105054001A1C2A40AB4305D0046804300C600431A8
:10506400043BF9D1131C05D0047801300C700131D4
:10507400013BF9D1021C2A4001D0A8430430036843
:10508400002BE0D17047C046FFFFFFFF0000000087
:105094000000000018F8010078F80100D4F70100BE
:1050A40055C501102DE9F843234D884606464FF0B7
:1050B400FF3105F12400814602F0D3FE00200CE00C
:1050C400FF2909D02A688A4204D905EB8101D1F865
:1050D40094700FB1002627E0401CB8F1000F03D0F4
:1050E40018F82010FE29EBD10024346074600127E5
:1050F400B46011E0FF280ED005EB80000B787268D5
:10510400C0F8946007FA03F0104370600A68094914
:10511400304601F077FF641CB8F1000F04D008EBAF
:1051240084010878FE28E5D148461AF049F830464B
:10513400BDE8F883007FC767CC1C0020B0B5456884
:1051440084682349607DA27DADF1180D40F00040D4
:105154000090207D0027FF2A41EA000001904FF0D3
:10516400020002D0E27DFF2A00D13FB1E37DA07DA1
:105174001943039140F0004002900420FE214DF8B1
:10518400201005F158006946FFF78CFF6866002877
:1051940008BF381C1AD0617D0F2202F0C1F9686E75
:1051A400217D102202F0BCF9A17D3846FF2902D0EE
:1051B400E27DFF2A00D140B1686E112202F0B0F9FD
:1051C400686EE17D122202F0ABF9012006B0B0BD99
:1051D4000000C0A02DE9F8432020EFF3118780F3ED
:1051E4001188214CA068012100F040F84FF001091A
:1051F4004FF0000865692168A4F81C906A1A2168B8
:10520400A4F81E80461B401A904227D387F31188C6
:1052140040464519361A4846294600F02BF8B04254
:10522400F7D92021EFF3118781F31188E18B01294C
:1052340003D14046294600F01DF8B0F1FF3F06D0E7
:10524400A169801B814238BF081C411901E0A06993
:10525400291800F013F8A4F820902560A4F81C8005
:1052640087F31188BDE8F88378010020DFF800F0A7
:1052740091C00110DFF800F009A80110DFF800F078
:10528400B9BE0110B0B50446A768ADF1280D5FBBE7
:105294000C2000F0F1F9071C1DD0684600212422DF
:1052A400082300F039F8002306976A466168ADF8D0
:1052B40010301848059300F033F8386070B90820AE
:1052C400ADF824000C25ADF8265009A801F092FD94
:1052D400384602F0A1F86FF0030018E0E068786047
:1052E4002069B860A7600AE002F034FC054638681B
:1052F40002F08CFB2069B860284602F031FD386862
:105304006168FFF7B9FC3868FFF7BAFC00200AB0FF
:10531400B0BDC046CF7F0000DFF800F081C10110AE
:10532400DFF800F0E9B3011070B520481E4DE860C5
:1053340000F5877028611E48ADF1280DA86001F0C2
:1053440087FA684602F0B0FC4FF4E130069003207F
:105354008DF81C0000248DF815408DF816408DF84A
:105364001D4001208DF800008DF8010011480390C4
:1053740011488DF8174069460490204601F088FAD8
:1053840020212246686019F0B7FE02F0E3FB0646CE
:10539400202205F1140168682C8019F0B2FE304611
:1053A40002F0DEFC0AB070BD880E00208C080020DC
:1053B400816A000085580000297900002DE9F04138
:1053C40007467868BE68044600F5847019F0D0FE7C
:1053D40030681C4980690968C0F3C00008BB19F033
:1053E400CFFE194D8046287820B1022001F024FE1A
:1053F40000202870404602F0FDFD3168134D886B93
:1054040020F020008863286820F480702860606A97
:10541400216A091A21622369626A38469847BDE8FD
:10542400F0814FF4FA70B0FBF1F1012998BF01212A
:1054340004F58474204619F097FE204619F096FE70
:10544400BDE8F081AC1B00203D1F0020301000405F
:1054540070B506467468B568606E02F0F6FA29689D
:105464001C488A6B10408863304600F037F8304699
:1054740000F086FC2968C86A20F01000C862296818
:1054840015480A6B104008636868FFF7FDFB04F1D8
:10549400800019F06FFE04F19C0019F093FEA078CF
:1054A40018B904F1D00019F085FE607818B904F138
:1054B400EC0019F07FFE04F5847019F046FE19F033
:1054C4005FFE0021217002F095FD04F16C0002F0F2
:1054D40069FA70BD0DF8FFFFFEFCFFFF2DE9F041F6
:1054E40006467568B46819F04BFEA96A39B9216893
:1054F4008969090903D202F07DFDBDE8F081002726
:10550400AF6202F077FDA17D3846FF2902D0E17D2C
:10551400FF2900D118B12846214600F0EDF9216891
:10552400886B20F0200088630D49086820F480709F
:10553400086019F025FE0B4C8046207818B1022033
:1055440001F07AFD2770404602F054FD686A296A2A
:10555400091A29622B696A6A30469847BDE8F081C6
:10556400301000403D1F002070B51E4DAC6806464B
:1055740002F052FB4FF47A71001B4843030C02F013
:105584006FF82969401A48BF404240F6B8319B1968
:10559400994210D306280EDAE9688C420BD82868A1
:1055A40048B1114A091B51438A0C02EB114188424C
:1055B40088BF011C08E00D49486840080ED20868FD
:1055C4007D2100F0FF004143C82905D3B1F57A6F6E
:1055D40088BF4FF47A6103E0C82101E04FF4FA6117
:1055E400084670BD141F002040420F00AC3F00501D
:1055F4007CB5042001F068FF022818D0032816D0D7
:1056040019480068C0F38150032814BF41F288325E
:105614004FF47A721649174C09684C342046B2FB91
:10562400F1F119F0A1FD204619F0A0FD7CBD4FF069
:105634008056D6F8A4010D4D446800214FF0405225
:105644001C23032000902846A047D6F8A40100217B
:105654004FF4007209230126446800962846A047A7
:10566400022001F0E9FC7CBDB43F005000A00C40D6
:10567400AC1B0020C40B0020F8B5001D84B214F04C
:10568400030002D0241A241DA4B202F063FA1A4AB9
:10569400102C014657691161C8BF976938880022E8
:1056A4001646C30BDD0319D126B984420ADD3A46F6
:1056B400012617E01388C3189BB29C42138011DCA7
:1056C400174618469FB1001B80B20428B4BF3C881B
:1056D400385344F400443C803F1D08E080F400400B
:1056E400002680B2C71938880028DAD10027084676
:1056F40002F036FB3846F8BDD00C0020F8B50D4654
:10570400074602F027FA064619F0A6FC68BBB5F571
:10571400877FDCBF0021081C05DDA5F5877007F530
:1057240087714FF48775134C61612A463946E080CE
:1057340004F59370FBF714FC01200F49A580A768BA
:105744000870781CA06002F005FA0C4C07462A4643
:1057540021696068658019F0D9FCB0F1FF3F04BF8E
:1057640000206080384602F0FBFA304602F0F8FA76
:10577400F8BDC04674080020B8100020880E002030
:105784002DE9B84119F0FCFC1C4C1B4D804604F17A
:10579400E000007848B92C46A168022088470746F3
:1057A400102000F0EDFF17B31EE000F051FB78B9B4
:1057B400134800683221B1FBF0F101B9012104F171
:1057C400300019F0D1FC04F1300019F0CFFC0EE0E8
:1057D400002084F8E0002C46A16802208847074690
:1057E400102000F0CDFF17B1A16803208847404680
:1057F40002F000FCBDE8B88108F50100BC0B0020F4
:10580400AC1B0020002213460A46194671B510F05D
:10581400030F0BD0002A82BF00F8011BB2F1010272
:1058240010F0030FF6D1002A08BF71BD11F0FF017B
:1058340041EA0121042A18D341EA0141082A0FD37D
:105844000E46102A08D30C460D46B2F10F0312F08F
:105854000F0272C0103BFCD812F0080F18BF42C0F0
:1058640012F0040F18BF40F8041B12F0020F18BF07
:1058740020F8021B12F0010F18BF017071BDFEE782
:105884002DE9F041174602F065F91A4C80462FB90C
:1058940004F108052A6800260C351BE02188E3681A
:1058A400002604F114053046B1F5877F09DA2A5C35
:1058B4005A542E544A1C401C91B2C0B287422180D3
:1058C400F2D8A268B84205D042B161884FF487701B
:1058D4009047A26812B1B8B23146904726806068FA
:1058E4002946202219F00DFC404602F039FABDE8A1
:1058F400F081C046880E002038B50C462168054664
:10590400886B20F020008863686E217D012200F0FE
:1059140065FE686E217D012201F0C4F9686E217D67
:10592400002201F0FDFD686EA17D002201F0F8FD6A
:10593400A878012806D005F1D0004FF0FF3102F01D
:1059440090FA03E0216888690009FCD2686E217D21
:10595400102201F0E5FDA17D0020FF2902D0E27DA7
:10596400FF2A00D118B1686E112201F0D9FD38BDAB
:1059740038B5054601201A4C68712879B0B902F08F
:10598400E9F82178002904BF6FF00704051C15D03D
:10599400491EC9B2217039B902F0E2F9606801F018
:1059A400F5FC0020687118E0054613E002F0D2F817
:1059B40005462078FF2805D16FF00604284602F03A
:1059C400CFF90BE0401CC0B20128207002D16068FE
:1059D40001F0F3FC284602F0C3F90024204638BD48
:1059E4004410002070B50646B079F4680628A4F186
:1059F4000C042CDA3079062829DA02F0ABF8154DBC
:105A0400B27991000C3501EBC20169184968E1B122
:105A140002F0A6F930792071B0796071307AA07102
:105A2400B179880000EBC1002818F168406808309B
:105A340001F008FDB179880000EBC1002D186868F9
:105A44004068FAF7A9FF002070BD02F089F96FF0F1
:105A5400020070BD100D002070B5064601F052FF23
:105A6400184D6988C0F5877080B2B04228DDB4B2A1
:105A74000819B0F5877F0DDDC1F587706B18C1F586
:105A8400877284B291B2181D01F0A2FA361BB4B227
:105A94000021698068182146001D01F099FA688880
:105AA400094E4FF487722418A0B290FBF2F15143CF
:105AB400401A02216880F0697181FAF76DFF70BDA8
:105AC400FEE7C046A80A0020080200202DE9F8439A
:105AD4008146EFF31188202080F31188174D154C6F
