:020000040000FA
:10000000FC2C0020FD0D00002D0E0000170C000040
:100010002B0E00002B0E00002B0E00000000000035
:100020000000000000000000000000002B0E000097
:100030002B0E0000000000002B0E00002B0E000015
:100040002B0E00002B0E00002B0E00002B0E0000CC
:100050002B0E00002B0E00002B0E00002B0E0000BC
:100060002B0E00002B0E00002B0E00002B0E0000AC
:100070002B0E00002B0E00002B0E00002B0E00009C
:100080002B0E00002B0E00002B0E00002B0E00008C
:100090002B0E00002B0E00002B0E00002B0E00007C
:1000A0002B0E00002B0E00002B0E00002B0E00006C
:1000B0002B0E00002B0E00002B0E00002B0E00005C
:1000C0002B0E00002B0E00002DE9FE4389468046D2
:1000D000284F38684169062088473868416B0620F8
:1000E00088470128F9D13868C1694FF4A060884772
:1000F0000125214E214C356020688008FCD33868EA
:10010000C1694FF480708847356020688008FCD34F
:100110001B4EA6F10C01086820F00F0008600320B8
:100120003060184D184928680022082713460468D3
:10013000CDF800804FF080400197A0471348103859
:10014000006809224FF0FF333946446CCDF8009027
:100150004FF08040A0471C3E306840F00200306005
:100160002868026902A94FF0804090470028F7D123
:10017000BDE8FE83B8010010282008602820084050
:1001800020000040C4010010006CDC02C40100101B
:10019000F8B5104D2868016A4FF480708847012631
:1001A0000D4F0E4C3E6020688008FCD32868016A21
:1001B0004FF4A06088473E6020688008FCD3286820
:1001C0008169062088472868416B062088470228F5
:1001D000F9D1F8BDB8010010282008602820084097
:1001E000BCB50F460546B7B10C4C206882680021AB
:1001F0004FF08040904710B94FF0FF300CE020687E
:10020000C26869464FF0804090479DF80000287012
:100210006D1C7F1EE9D10020BCBDC046C40100108A
:100220007CB50C4606467CB1084D2868317842689A
:100230004FF0804090472868C26869464FF0804080
:100240009047761C641EF0D100207CBDC4010010D4
:100250001CB5054C2068026969464FF08040904704
:100260000028F7D11CBDC046C40100102DE9F041A3
:10027000404C444D8046C8F38140401E02D0401E91
:100280002AD025E0284620300168880C20D24FF47F
:10029000804020603848D0F802204B0AC1F3033771
:1002A00003F0800322F08F02134347EA0302C0F8F1
:1002B0000220D0F801300E1266F30303C0F80130BB
:1002C000026801F0E70722F0E70247EA020102E0D4
:1002D0004FF00041204601602C4E301D0068C0F3F5
:1002E000C0070FB94020A0624FF40070206400F0F6
:1002F000EBFB40F0300084F8C800C8F3815040B3F5
:10030000401E03D0401E1FD002211EE0012000F03D
:1003100005FB07460420394600F05CFA042000F093
:10032000FDFA8742FAD1361F366826F07F4000F08A
:10033000C7FA12480068036807214FF06022300EA8
:1003400098474FF4806020600321042000F042FAB7
:1003500006E00420012100F03DFA094800F0B0FA5F
:100360002846094F006800F03F0084F8CB0F38683A
:10037000BDE8F08140A00C400A600840B4010010C4
:10038000BD3786006C1300502C200940AC3F005054
:100390007CB50546084600F0E9F9364E02461821BC
:1003A000304600F0A5FA00F02DFB344910390968F9
:1003B0004C6840F2FF32002380B22C21009030467E
:1003C000A04700F089FB1C210246304600F090FA5D
:1003D00000F00AFB02461421304600F089FA00F0D2
:1003E00037FB02461021304600F082FA284600F022
:1003F00089F902460C21304600F07AFA284600F0CE
:100400000FFB1D4C400040F020002070284600F0FB
:1004100013FB40F010002070284600F0ABFA0246B3
:100420002821304600F064FA284600F01DFB400009
:1004300040F06000E070284600F022FBC00040F071
:10044000800004F8080C284600F026FB800040F4E9
:100450007C40A4F89300284600F076FA0246082172
:10046000304600F045FA4FF48000A4F2091108600C
:100470007CBDC04600A00C4049A10C40B401001056
:10048000274A2DE9F0418046012526481560076876
:10049000002FFCD0244CC02025492060081F036891
:1004A0009B0806D250F8040C204B000C40F0F000E2
:1004B0001870002010630E68304600F097F8404630
:1004C0003146FFF765FF1B49886D40F21E226FF32E
:1004D0001F40824215D90868020E12F00F0F02F079
:1004E0000F01C0F3034018BF491E072805D0062896
:1004F0000EBF0720801C00F00F0041EA00110E48DB
:1005000001703046FFF7B2FE0C480068C168022057
:100510008847402020600A4F3D60BDE8F081C0461A
:10052000101009409402224300600C4056620840BB
:10053000B43F0050BC12005002600840A0010010FF
:1005400094046042264838B560300468B4F1FF3F37
:1005500008BF002400F0ACFA2248234B00250121FB
:100560001038056003F15C0001601448016000F080
:1005700061F91348006820B1124800682046FFF76F
:100580007FFF114811490560114C0A686FF35B4207
:1005900044EA020008600F490868C0F301300128EE
:1005A00006D10A680C48104040F400320A60086026
:1005B0000A4908680028FCD138BDC0460822044317
:1005C00080012843000120438C210840482003403B
:1005D0000000390104000940FFFFFCFC0C006842E8
:1005E000BC1200509404604200600C4070B5234C73
:1005F000234D0646B00E11D2700E0FD3802020740A
:100600004FF6D801A4F85110207000F041F8D03511
:100610002868C0F30420162806DB04E02868C0F32D
:100620000460162800DB203800EB2670401C1628DA
:1006300005DA10F10A0FB8BF6FF0090000E01520CD
:10064000104D00F01F0040F4F850A4F8590028683D
:10065000800803D20C490020086001E046F04066A3
:100660000A49F00EB50E80F0010000F001000860AC
:1006700085F0010000F00100886070BD156208403F
:10068000B81200500000094094042A43000020439F
:10069000184870B50068C0F304601628A8BF203859
:1006A000154B0146187800F01F001628A8BF203807
:1006B00081421ED0114E124C0022012532600A1ACE
:1006C000022A05DC12F1020FB8BF6FF0010200E050
:1006D00002221018226800F01F0242F4F852A3F818
:1006E000662081422560EAD1206825602068356057
:1006F000206870BD881300500662084098002043AF
:100700002C20094038B51849164D0446143909689B
:100710006868C1F30342C1F30353400812D228684A
:10072000050513EB257303D4102BA8BF0F2300E09E
:100730000023000412EB207203D4102AA8BF0F225A
:1007400000E0002242EA031201F47F4001F0FF03BF
:10075000222C40EA024243EA020024BF01F0804119
:10076000084338BDAC3F00508C1300500146184878
:1007700080B53C3800688A0CC0F38367C0F38F20D3
:1007800022D241F3072100290BD54A42002140081B
:1007900005D17F0806BF0127381C4FF6FF70521E97
:1007A000F5D1002910DD4FF6FF72400040F0010046
:1007B000824207D2780040F001070F2F92BF01203C
:1007C0000F27101C491EF0D140EA074080BDC046EB
:1007D0008C1300502DE9FC41144C154F06468846F9
:1007E000700809D320684568002101220B461FFAD2
:1007F00088F000903846A847B00809D320684568BB
:100800000021022201231FFA88F000903846A847F1
:10081000F00809D320681FFA88F600210C22022371
:10082000446800963846A047BDE8FC81A40100104A
:1008300000A00C400F4908680028FCD1104A131D85
:100840000D49186820F0030001430C480068C008F7
:100850000CD2106810F0030F0AD041F003001860AA
:10086000106800F003000328FAD101E041F0010113
:10087000196070470C00684204000020B03F00502F
:10088000004003400D4908B5D1F878020B68020F0B
:1008900003F0FF03802B28BF002300F07BF8014604
:1008A0004FF0FF30012907D1111C04D0891E04BF6D
:1008B000143358B208BD0A2008BDC046A01000502D
:1008C0000949020480B5120C41F8082CC0F3074016
:1008D00041F8040C0120086004480768002FFCD090
:1008E0000020086080BDC04644600C4084088C43F2
:1008F000B0B515460C1800F0F7F8002700B901272D
:10090000054A394610680028FCD025600120106097
:1009100009B100F0EFF8B0BD00800C400246084974
:10092000084810B5042A07BF4FF0C0421D234FF0FE
:1009300080521C230968CC683421A04710BDC046F2
:10094000A401001000A00C40202838BF07480CD399
:1009500007480C30016808038215920500F47C10EA
:1009600001F00F01104340EA0130704700803F4022
:100970008C130050202838BF002008D304481030C2
:100980000068C10C01F44071C0F384500843704703
:1009900088130050054800684BF6BE110001B1EB0A
:1009A000104F14BF4FF0FF30012070471813005054
:1009B00008B5044B1B689B699847034A00211160E6
:1009C00008BDC046A801001084046042044908B56F
:1009D000096849698847034A0021116008BDC0467B
:1009E000A8010010840460420548183801680348D3
:1009F000084001F07C4108437047C046FCFCFC0005
:100A00008C1300500549383908680968C0F387001D
:100A100001F0030140EA01207047C04688130050EE
:100A2000222804D303480068C0F3007070470120F7
:100A30007047C0468C130050222804D30348006836
:100A4000C0F34070704701207047C0468C130050BF
:100A500004481C38006800F47C010004000C0843C2
:100A60007047C0468C130050202805D303480C3033
:100A70000068C0F301507047002070478C1300508D
:100A8000222804D303480068C0F3C06070470020E8
:100A90007047C0468C130050222805D30348001D20
:100AA0000068C0F34550704700207047881300501D
:100AB00008B5FFF76FFF012803D1FFF7E3FE142805
:100AC00000DAFEE708BD00000248001D0068C0F320
:100AD000C14070478813005002480C380068C0F3CA
:100AE0000D00704788130050EFF3108072B6704706
:100AF00000207047EFF3108062B670470020704707
:100B0000002A4AD05FEA000C8B071CD1830722D150
:100B1000102A08D370B4103A78C978C0103AFBD2C2
:100B200070BC103238D0042A2CD3082A05D30C2AE2
:100B300024BF08C908C008C908C008C908C092076E
:100B40002AD0920F22E00B780370491C401C521EE1
:100B500022D08B07F7D1C30714D18307D8D0121F37
:100B600012D308C903801B0C4380001D121FF8D24A
:100B70000AE008C903701B0A43701B0A83701B0A32
:100B8000C370001D121FF4D2121D05D00B78037024
:100B9000491C401C521EF9D1604670470022134682
:100BA0000A46194671B510F0030F0BD0002A82BF18
:100BB00000F8011BB2F1010210F0030FF6D1002A78
:100BC00008BF71BD11F0FF0141EA0121042A18D3C9
:100BD00041EA0141082A0FD30E46102A08D30C46D9
:100BE0000D46B2F10F0312F00F0272C0103BFCD899
:100BF00012F0080F18BF42C012F0040F18BF40F8DF
:100C0000041B12F0020F18BF20F8021B12F0010F94
:100C100018BF017071BDFEE71448B0B5B0F1FF3FD9
:100C200001D000F08FF8124D1248A84210D012489F
:100C3000124CA0420CD0001BC71054F8040B10F843
:100C4000011B55F8212054F8041B90477F1EF4D156
:100C500000F0EEF80A4D0B4CA54205D002E054F826
:100C6000040B8047A542FAD1B0BDC046FFFFFFFF8D
:100C70007C0E0000880E0000A00E0000900E000008
:100C80000000000000000000F8B5844640F6FF7444
:100C90001CF8013B002210E0481B401E10F8015BCD
:100CA0007F1E01F8015BF9D103E01CF8010B01F88C
:100CB000010B521C5B08082AEADA5808F5D21CF826
:100CC000010B1CF8015B05F00F07FF1CC5F30315B2
:100CD000122F45EA001508D11CF8016B300A24BF19
:100CE0001CF8010B60F3DF16F719AC42D4D1F8BD44
:100CF00000BF704708B5FFF7FBFFFEE738B50D4CA6
:100D00000546A06820B10C48B0F1FF3F00D08047F5
:100D10000A4800688047606810B101462846884745
:100D2000206800B18047064800688047FFF7E2FF6F
:100D300038BDC04614100020FFFFFFFF2010002028
:100D400024100020F8B506460F4D104F738800247C
:100D500017E0A00000EBC400321851689068D26818
:100D600052B9AF420BD00A7855F822200346491CED
:100D700008461946904701E0FFF7C2FE7388641CDD
:100D8000A4B2A342E5DCF8BD7C0E0000880E000092
:100D90000C4885460C4885446F4607208743BD466E
:100DA0000A486F46076000F042F800F03CF800285F
:100DB00001D0FFF731FF00F00BF80120FFF79EFF95
:100DC000FEE7C046FC2B0020000100002C10002094
:100DD0000449B1F1FF3F07BF0020011C0868091D4D
:100DE0001EF038BAFFFFFFFF034908607047024951
:100DF000091F0860704770472410002008B5FFF7EE
:100E0000A1FBFFF7C5BFFFF706FF08BDD0F8032021
:100E1000C31D08461946FFF773BED0F803200846E5
:100E20000021FFF7BFBE01207047FEE7FEE77047D5
:020E3000704709
:100E340000002000C215000000001000C2140000D1
:100E440000000800EF12000000000400EF11000091
:0E0E5400000000000000000090FFFF000506F7
:100E68000035000004010080F70D0033013500FF54
:100E7800F0000000890C00000D0E00001B0E0000A1
:100E88000200000014100000680E0000141000207A
:080E9800880E0000000000209C
:101000003C00000000000000000000003410000060
:1010100000000000000000000100000000000000CF
:1010200000000000000000000000000001000000BF
:101030000000000008000000000000003400000074
:101040000000000000000000681000000000000028
:10105000000000000100000000000000010000008E
:101060000000000000000000080000000000000078
:101070003000000000000000000000009810000098
:10108000040000000000000001000000FFFFFFFF5F
:10109000FF00000001000000080000000000000048
:1010A0002C0000000000000000000000C410000040
:1010B000040000000000000001000000FFFFFFFF2F
:1010C000FFFFFFFF080000000000000038140000D0
:1010D000E410000095A1011091A70110A1C2011018
:1010E00009B2011041B80110A5BC011085BC011066
:1010F0002E0000002800000000000000000000009A
:10110000141100000000000000000000FFFFFFFFBE
:10111000000000000800000000000000341400007F
:101120003011000065C2011069C101101BC201101D
:1011300091BA011005BC0110E5BB011030000000A0
:10114000341400005411000071C20110A5B6011042
:1011500099BF011045B60110B5BA011025BC0110A8
:10116000310000002400000000000000000000002A
:1011700080110000000000000000000000000000DE
:101180000800000000000000240000000000000033
:1011900000000000A411000000000000000000009A
:1011A0000000000008000000000000002400000013
:1011B0000000000000000000C81100000000000056
:1011C0000100000000000000080000000000000016
:1011D000000000001C2100200400000000000000AE
:1011E000000000002000000070100000300000002F
:1011F0001C11000024210020040000000000000059
:10120000000000000C000000301300001800000077
:10121000401100002C21002004000000000000000C
:101220000000000024000000481300001800000027
:101230000000000034210020040000000000000035
:101240000000000010000000A01000002C000000B2
:10125000CC1000003C210020040000000000000031
:1012600000000000200000006411000024000000C5
:10127000FFFFFFFF442100200400000000000000E9
:101280000000000028000000881100002400000079
:10129000FFFFFFFF4C2100200400000000000000C1
:1012A00000000000580000003C1000003400000066
:1012B000FFFFFFFF54210020040000000000000099
:1012C0000000000010000000601300001800000083
:1012D000FFFFFFFF5C210020040000000000000071
:1012E000000000001C000000AC1100002400000001
:1012F000FFFFFFFF64210020040000000000000049
:101300000000000038000000F41000002800000079
:10131000FFFFFFFF6C210020040000000000000020
:101320000000000054000000001000003C0000001D
:101330001800000000000000000000004013000042
:10134000080000000000000018000000000000007D
:10135000000000005813000008000000000000001A
:1013600018000000000000000000000070130000E2
:1013700008000000000000000200000084B7010027
:101384000100000000000E0000000F003200000009
:10139400010000006C2000200002000079A8010078
:1013A400FDC901100000000000000000080000005A
:1013B40000002200741E0020010000008420002090
:1013C4000800000000000000000000000000000011
:1013D4000800000000000000000000000100000000
:1013E4006C1F002006000000010000001C1D0020EE
:1013F40000000000000000000002000000000000E7
:0F140600290001002500300031002E00010001F7
:101418000300000058B701000000000000000000B1
:10142800000001000000030083C401103C14000008
:101438003C14000000000000900000009000000034
:101448000000000084200020C1A20100200000004C
:1014580014B7010008B6010009C30110273C0100B8
:10146800973C010095C8011097C8011000000000C2
:1014780013B7010054B401006CB401003CB401007E
:0914880008000900010000000148
:101494000000000000000000000000000000000048
:1014A400A5A90100297A0100B5900100497F010036
:1014B4004780010069700100492301008BA50100E8
:1014C400D55001000DC801101DC80110080000000E
:1014D4002400000018000000280000002000000084
:0C14E4003C0000000C0000003400000080
:10150000004B002039670100FDC90110FDC9011021
:10151000FDC90110FDC90110FDC90110FDC901106F
:10152000FDC90110FDC90110FDC90110FDC901105F
:10153000FDC90110FDC901103BCA011083482DE906
:10154000F04F0C4601210170DFF80892DFF80882A5
:10155000DFF808B2DFF808A27D494FF0000C202721
:10156000ADF1540D65461F4081F800C0C949119383
:1015700091F8FC62C849109205EA0200139108BF75
:1015800000287AD110984FF0E047194662460F4084
:1015900002EA000008BF002843D1119E109B4FF4BF
:1015A0008601B9F8BA00DFF828C3CDF82C9012EA0A
:1015B000060701EA030108BF002919D1C34912EA4D
:1015C000060701EA030108BF00296FD037464346EA
:1015D000109E1C8103F138015881002F81E8C00062
:1015E00004BF311CB1F1806F60D102285ED111E0DF
:1015F00037464346109E1C8103F138015881002F65
:1016000081E8C00004BF311CB1F5803F4ED1B0F578
:10161000505F4BD1186A674643693868214698473E
:1016200042E046465946B6F9087091F90000BC42BE
:10163000A0F10100087017D1728906F1380003C8C3
:10164000002904BFB0F5803FB2F5505F08D00029F3
:1016500004BFB0F1806F022A02D013F0DDFA03E07C
:1016600014F010FD18F064FB139890F90020521E3E
:1016700002706FF00101318114E043466FF0010008
:1016800003F1080108806EB1BD480078832802D0BC
:101690008120514608704646316919B16046884735
:1016A0002146E8E7CDF82C90B9F8BA00109A119EBF
:1016B00002212F461140374008BF002900F0CE8399
:1016C000B14A43F201418142149200F0A083C91C47
:1016D000814200F09C83594691F900105A464746D2
:1016E000491E1170B7F908108C4209D0139943F6BE
:1016F000040787420A9140F09B8318F0D5F897E3DE
:10170000644890F8FCC207F1380090E800034FF4F9
:1017100082062F4617EA090706EA080008BF0028D4
:1017200020D113980C4F0A9007F1380003C84FF4EA
:1017300000322F460F4002EA000208BF002A02D101
:1017400013F06AFA74E314F09DFC71E39E2100200B
:10175000D820002088180020601C0020DF200020F6
:101760009B3400202846BCF1010F51460E9002D058
:101770000F78002F79D1834C8120149E2778087030
:101780002B46A5816069A770427A017A337002F016
:10179000070301EB032152098DB234BF291F891EB3
:1017A000DFF8EC81437A8DB233F07F0340F01A8387
:1017B00076490988A942C0F215830A30294611F0FA
:1017C00045F9216A04F118000522083118F01CFBC4
:1017D000ED1EADB20D960520E17E227FA37E2D4E3B
:1017E000A081C1F3011B227103EB012096F8FC32AA
:1017F0006081002B08BFBBF1020F00F0F382BBF148
:10180000020F00F3EF8263B110F0070F00F0EA82DD
:101810005B490978862904D100F00701022940F0CC
:10182000E182011301F00201022953DA6378DFF843
:10183000509100F00700022837D14646D6F804A0A0
:10184000002B32D1216A09A801220D3118F0DCFAEF
:101850000620A081D047804699F800300D48B56831
:1018600047680C96862B19D10FB919F01DF89DF910
:10187000240019F08BF89DF9246078770020B87760
:101880004046FE77A847608900F0100012F024F966
:1018900006E0C04620050020DE2000204046A84784
:1018A00013980A9018F070F8A2E299F80000002648
:1018B000862808BF01261398CDF830800A9076B1AB
:1018C000002014F005FCA77808E0C04600000C8C4E
:1018D000E81E0020CDF8308013980A9063788FB10D
:1018E00083B9012F00F07B826189022F03D111F0AF
:1018F000070F40F07482032F05D101F00700032881
:1019000001D06CE26189080909D311F4405F00F04D
:101910006682B94890F82074002F00F060820813A6
:1019200000F00200022802DA880A80F05882B148EA
:101930000078C0F381098611B9F1010F00F04F82E0
:10194000012E00F04C82AA48BBF1020F09D010F81A
:101950000920805D8018C7B206B3C8091ED3BF1E18
:101960000CE000EB09028019127900798018C7B2E7
:10197000C8090FD259EA060310D0BF1CFFB20DE010
:101980009F340020A03300209D340020F820002048
:10199000E81A002059EA060308BF0227C1F3002015
:1019A0003A1A60719542C0F21A82ED1B401909097A
:1019B00080B2208124BF25210E910E9940187430E9
:1019C00080B217F02FFD65782061002800F00782B3
:1019D0000021742211F0F2FB0020E070B4F80A80BC
:1019E0001DB90D9908F0200008700D9B002094F897
:1019F00005A01D780F90002D3CD0BAF1000F39D111
:101A000008F00708B8F1030F06D0B8F1010F22D192
:101A1000794890F86A04F0B17748B0F85400002390
:101A2000810809D3744991F8825095B94D681DB168
:101A30006D7E35F07F050CD15BB98008984605D3E3
:101A400084498D68887805B1A84710B9B8F1000FAE
:101A500001D00420E070684890F8FC0210B1BBF19E
:101A6000020F01DA17F096FAB4F80A80E07894F8D9
:101A700005A00F90216901F17400486088652589EF
:101A80000D812089A1F85C005FEA18100ED3CAF11D
:101A9000030082B2A1F85C20886DCD4918F0B4F93A
:101AA00021698A6DB1F85C00801888655148C84D7D
:101AB00000780F9BC0F301122878A1F80C8000F089
:101AC0007800104318430874FF258D732079BAF10C
:101AD000000F0E9018BF002081F8306081F83A9016
:101AE00081F84900A089002FA0EB0A0085B2A581EA
:101AF00000F06A81206AE78029183A460831684672
:101B000018F082F93B48EE19B5B2A5810078C0F310
:101B10000111129121690A7CB9466E46801010F0BD
:101B2000030F00F0030702F0400B43D0129800238C
:101B3000022801D1D0090BD29DF801209DF80000A8
:101B400000EB0220A1F844000DF10206A1F84200CA
:101B5000C84AB1F84400B2F85A20824203D04FF686
:101B6000FF72824223D1032F12D072783078C14B9A
:101B700000EB022082B24A86B3F85810B61C01204E
:101B8000914213D04FF6FF71914218BF00200DE033
:101B9000C84800683146323018F095FEC548B5494E
:101BA00000684F31323017F0FDFE08360346002B37
:101BB00000F010810F480078831125D01298216918
:101BC000022803D0087CC00903D309E05BEA0707B9
:101BD00006D172783078B61C00EB0220A1F84200E2
:101BE000032B0BD07078327802EB00220A850BE0D1
:101BF00064B70100BB33002020050020AD48006819
:101C00003146283018F05FFE08F00708B8F1030FDE
:101C100007D0B8F1010F39D1A84890F86A74002FA5
:101C200034D0A6482669876F4FF00008EFB17B7E5D
:101C300033F07F0315D096F8300002280CD003282B
:101C40000FD107F1700006F1280117F0ABFE40B18B
:101C50001CE0C046E4200020B7F87000318D8842B7
:101C600014D057F80C7C002FE1D1B8F1000F0DD142
:101C7000914F574B4046E07038784246C0F301110F
:101C800018780F9200F07800084330748B4890F871
:101C9000FC7217B1129802280CDA0D9807784FB130
:101CA000BAF1000F06D10E980F9912F0A7FAA58984
:101CB000B4F80690206981890909C0F08580806D9B
:101CC00069464A4618F0A0F82069816D494481654B
:101CD000276AB0F85C1001224944A0F85C10E919A9
:101CE0000DF12500083118F08FF86E1CB5B2A581F2
:101CF00021699DF82500896D087022699DF825707D
:101D00009DF82530906D401C9065B2F85C00401C39
:101D1000A2F85C0007F0070082F82400C3F3C101B9
:101D200082F82510208992F824708046002F51D027
:101D30005E4F7F183E78361D8642E6804ADC206A78
:101D400029183246083105A818F05EF838789DF851
:101D500017209DF814109DF816302D182D1D01EB3D
:101D60000261A8B201EB0341A0813D789DF81530D6
:101D7000206901EB032181616DB14E4800686D1E41
:101D800006A92A461C3018F03FF8397820696944C2
:101D9000C97D80F82610806D05A9324618F034F808
:101DA0002069816D71188165B0F85C10A8EB060799
:101DB0007118A0F85C10791E89B22181B0F85C20FE
:101DC00001818918A0F85C1000F09EFB10E0C0466D
:101DD000BA33002018F078FC12F01EFF08E018F06B
:101DE000E7F905E018F0E4F9CDF8308013980A908F
:101DF000DDF83080D8F804008047216A0A680023A3
:101E0000137109682162D8F80810884710E040462D
:101E1000807841465F46401C887097F9000059461B
:101E2000401E087012F0F8FE17F03EFD13980A905D
:101E300022480B990F4F00226FF0010690F8FC0228
:101E4000A1F8BA203E8110B11498007808B917F0B3
:101E50006FFF0A9991F90000401E0870184890F928
:101E6000000010B9124800210170139A92F9000085
:101E700090B101E0601C0020109B119F02214FF0E7
:101E8000E0401940384008BF002908D092F900000E
:101E9000002804DC18F008FD002004F0BBF8094914
:101EA000002015B00870BDE8F08FC046FCAA010004
:101EB000D6200020B0330020BB33002020050020B6
:101EC000DF2000209E2100202DE9F04FC54DC64C9B
:101ED000DFF818836888ADF1740D4108C0F0838085
:101EE0000CA808A912F0EEF801286DD14046243064
:101EF0000068D8B10769CFB1062002268DF8080026
:101F00000022ADF80A600FABADF80C2002AE0093D2
:101F100096E803000C23B84740B9BDF83C0068853B
:101F2000109FEF621198286318F068FB0226BDF835
:101F30002210BDF8200085F8246009AAA98312F0B8
:101F400087FF011C02D0D1A018F0A2FC304612F08D
:101F500025FABDF830009DF82C70A4F840000DA9BA
:101F600084F8427004F1500018F025FCBDF83200EE
:101F700004F1460609A9A4F84E00304618F01BFCEF
:101F8000BDF82200B4F84010A4F84400502017F027
:101F900073FDB4F84E10532017F06EFD4A20314601
:101FA00018F0B4F994F84210E12017F071FDB4F87C
:101FB00044104B2017F060FD04F10A00102117F0C7
:101FC00003FC0120287008E017F01CF9E8600120EC
:101FD00012F0E4F9002018F009F9A81C012117F00B
:101FE000E5FB2846408880080DD3E86A16F0DCF946
:101FF00016F09EFD00B2A882E88205F0E1FCA81C64
:10200000022117F0D3FB6789780805D304F10A0091
:10201000012117F0CBFB6789B80805D304F10A004A
:10202000022117F0C3FB6789780917D3AD4918203F
:10203000422218AB0FF0D4FF94F85A0004F10A06BC
:10204000032818BF042802D1206E16F095F914F069
:10205000EBFF3046102117F0A9FB6789B80907D3B9
:1020600011F04EFA04F10A00202117F09FFB678956
:10207000F80907D30EF07AFD04F10A00402117F0A9
:1020800095FB6789780A0AD394F85D0018F0AEF8DA
:1020900004F10A004FF4807117F088FB6789380952
:1020A00050D394F85C0004F10A0600283ED0401E8C
:1020B00036D0401E02D0401E30D03EE094F858107A
:1020C000472017F0E5FC94F85910542017F0E0FC75
:1020D000B4F844104B2017F0CFFCB4F84010502057
:1020E00017F0CAFC092701238DF8597094F84200B3
:1020F0008DF85A3016AA8DF85B30AC498DF858002F
:1021000018200FF06DFF94F85A00012815D1E078DF
:1021100098B13046202117F057FB0EE003200AE06B
:102120005220012117F09CFC022004E052200121E2
:1021300017F096FC012012F0C9F83046082117F07C
:1021400035FB6789444617B1A06818F0D3FCE188D5
:10215000607849081CD3A17802094FF0000601D32A
:1021600001290ED040090ED301290CD0C9A018F0C6
:1021700055F8A81C012117F027FBA06818F0BAFC3D
:1021800001E014F05FF86670A01D012117F00EFB4E
:102190006888C108C0F05081C14C2079267808B108
:1021A00017F070FF2789002E00F040816169B94265
:1021B00026D1E078401CC0B2E070401EC0B20428B6
:1021C00016DBA078401CC0B2A070401EC0B204282C
:1021D00004DA491E61610020E07011E0012014F072
:1021E00055F80BE0701900203C1A002084170020DD
:1021F000C82016F069F9322016F0BEF82678278933
:10220000E088002E00F01281B84203DD6169B94216
:1022100040F0C080B84200F30981B648801C0188B4
:102220004FF6FF7719918F4200F09180081C00F063
:102230008E80AE48006800F00F004FEA8028AC485E
:1022400087884188C901B1FBF8FB0FB17918803943
:1022500081460027B1FBF8F2B9F806001A9702FB95
:1022600008F2C6B28344891A1B9164E09E49A14DCD
:1022700048802A7C012A11D0022A08BF04200ED0EF
:102280000020032A08BF012009E0C0464175746898
:10229000204572726F723A20307800C0022099F89F
:1022A0000010924F084389F800003868012A00F0B6
:1022B0000F004FEA802108BF4FF4F02605D0052A11
:1022C0000CBF4FF4F6264FF4F226304612F063FDB1
:1022D000854AFF2010216874304611F06DFC0027FC
:1022E00038E0C04629660100B8F1000F21D0002572
:1022F000B34502D81B98A8421BD905EB0630B0F5B0
:102300009E6F04BF2D1DADB217AA04233046294687
:1023100018F038FA04270DF15C0A1AF8011B1A9814
:1023200016F072F87F1E1A90F7D12D1DADB2A84598
:10233000DED8761CF6B2B345D6D21A98002116F034
:1023400063F8002116F060F8199981428ED0DFF809
:10235000A0910227002089F8000017F057FE3846A8
:1023600012F076FA4FF0FF360020207001466661C9
:102370000A4604F1080013461D46258110F0A6FD0B
:10238000206918F03BF9002F04BF012020714AD0CA
:10239000284649E04FF000084FF0010947B904F121
:1023A0003201621C04F1280305E0C046E5A70100E4
:1023B00041460A46134604F1140010F087FD4E4EC4
:1023C0006778306825890168656111B10620884702
:1023D0000146042008704F708D702B12CB7081F86D
:1023E000049081F80580306843681BB104F128002F
:1023F000062298472089E688A5780A22401C81B2E7
:1024000031A013F0D7FE33A00A22314613F0D2FEDA
:102410006079854204D030A029460A2213F0CAFE12
:10242000322015F0A9FFC82016F04EF833480421D9
:1024300017F0BCF931480088002841D10A2008254E
:102440002F4CADF812004FF0FF37ADF81050616A15
:10245000059704A88847002832D10720ADF84850D6
:10246000616AADF84A0012A88847149E159638BBD9
:1024700024499DF84E200878904216D19DF84C00D2
:102480004A7882420ED089684B6C73B10021324683
:1024900098470AE05374617274696E672E2E2E009D
:1024A000701B0020304602F0BBF9159840B1ADF822
:1024B00018500320ADF81A00616A079606A88847ED
:1024C0001DB0BDE8F08FC0464F414420426C6F63A1
:1024D0006B3A20006F6620004F41442052657472B1
:1024E0006965733A2000C046B220002030240340C2
:1024F000C4200020B02000203C1E002072190020C3
:10250000E81A00209C2000202DE9F04FB64C2069ED
:10251000A189226A2589806DADF1440D0E46891886
:1025200008312A4617F070FCA81986B22069816D1F
:102530006D188565206A0122311808310DF13E00C1
:1025400017F062FC761CB5B20422206AA581291816
:10255000083104A817F058FC9DF813109DF81000DE
:1025600000EB016023699DF812102D1D00EB014066
:102570009DF81110A58100EB0120049017F0BEFD1D
:10258000D863049817F058F9A3F84000EA2017F030
:102590004CFA0221B44827690170397CE07808437D
:1025A00038749DF93E0018F0F1F987F846009DF95E
:1025B0003E00398987F8480007F17400B865B7F81C
:1025C0005C00401A79684FF0000B09187960B889EF
:1025D00087F847B0820A18D2020955D310F0070FC6
:1025E00007D000F00700032812BF081C7868401CC1
:1025F00046E07868C17801F00702491001F038011F
:1026000001EB42014018001D3AE00FB918F04CF9F7
:10261000B889800A2ED379684878C6112AD13D89B5
:10262000796658464B780A7803F07F035B0003EB2A
:10263000E2137E2B0DD07F2B09D002F07F02101801
:10264000801C521880B2911C8542EBDC08E0594690
:1026500000E00121801C87F8601080B2854201DA19
:10266000584605E07968411879603989091A398135
:10267000A7F86800786E10B1B7F86800B0B1786854
:102680007861B889000916D297F86000002800F038
:10269000F980384612F0E3FF2769F86C002800F053
:1026A000F180B7F85000002840F0EC8017F0FAFFF6
:1026B000584620610CE258465D46059097F8246024
:1026C000069005A906AA07AB0795384605F0DCFE7B
:1026D000002840F0CC80059A7D6978683B89291AEA
:1026E000581A1FFA80F80AB918F0DEF8B7F85C003B
:1026F00000900195CDF808800698001D039005987C
:10270000B969BB6D324615300BF05EFB002840F016
:10271000AE80B64897F860303D89815D681A38818F
:1027200013B1384612F09BFFBD8905F00705032D54
:1027300002D178680078F87397F80F90732009A990
:1027400016F0E2F9832010A909F016F8DFF8A0824C
:10275000DA4659460AE0C278012A03D1002E08BFA2
:10276000DC2027D0001D491C0990C9B29DF840000B
:1027700088427BDD09988278032D07D00378AB422D
:102780000DD098F800300BB1022D08D0032DE9D1FF
:102790000378032BE6D103465B784B45E2D1B310B7
:1027A000B3EBA20F05DA02F0030206F003039A422C
:1027B000D1DD58468146059897F80FC090F814E08F
:1027C000594601E0491CC9B28E454BDD06694B00F4
:1027D000032D03EB060209D1F35C032BF2D15278EF
:1027E0006245EFD10BE0C046A03300201278AA4228
:1027F00005D098F80020002AE4D0022DE2D10698F6
:10280000067D002E08BFB9F1DC0F2FD0B869B0F1FA
:10281000FF3F25D0712008A916F076F9089B58468D
:10282000BA6905998B4206D10699824601EB8A0165
:10283000C968914212D8401C2C330228F1DB06985B
:10284000521CB2F1FF3F00EB8A00C26002D1079830
:102850000121817087F801B0584609E0DB2007E0CC
:10286000DB2004E0DC2002E09B340020DD207870D7
:1028700027697870B8697E7878651EB1F22017F004
:10288000D4F82769954D95F8FC02002800F09D804A
:10289000B989DFF84C8201F00702022A5CD1667820
:1028A000002E59D17E78002E56D121698DF83FB087
:1028B0000DF13600283118F006F821690BA80A221C
:1028C000283117F0A1FA464606F110012769088859
:1028D000D5F82033401C0880786E0DF13F020421AA
:1028E000984704F1100928B9686818B19DF83F109D
:1028F00080F86810276997F83000022811D1D9F8BC
:10290000000005F57A71884602222830203116F041
:102910009BFB30B908F116010DF1360017F0D3FF1B
:10292000276970480078862807D1708A401C708219
:10293000B88900F0100011F0CFF895F8FC0220B132
:10294000D5F8441309B12069884717F0ABFE584603
:10295000206117F019F8BDE0634A16785EB3C1F341
:102960000131022927D17878002840F0B1809DF804
:102970003E005E4946460870B38AE17807F12802B6
:102980001C37581C0029B0820CBF584608205849F3
:102990005B460B6000900197B5F80E34117A0D205C
:1029A00005F066FC10B916F0F5FA01E016F06EFFBE
:1029B0000F482769007840B1D5F8441329B138464B
:1029C00088472846276990F8FC02BE890A9706F0D6
:1029D000070688B1B87BFF2876D0032E0AD1384687
:1029E00040680078042807DD6EE0C04600AB0100B7
:1029F0001C080020012E67D1301C3AD0401E4ED05A
:102A0000801E61D1B889C0F30130022803D17868F3
:102A1000007807282BD03889002855D038464168DF
:102A20004A1C42600F788446C7739CF824606EB9D4
:102A3000002F49D00A2F47DA2E490089C95D81420B
:102A400009D0082F40D1082805D03DE0C07B0028E0
:102A50003AD00A2838DA60460189491E0181C17BD3
:102A60000B3101700A99C87B401CC87319E03220F1
:102A700016E095F8F5030F280BD017F05DFB40B971
:102A80000A988189091301F00201022901DA2969F2
:102A9000884795F82B040A9F3874152000E016200B
:102AA00038700A9905F17C0015F01AFA124E706818
:102AB000804795F88410491C85F88410B1688847D0
:102AC000202017F0CBFC42E70AA813F023FF3EE7D3
:102AD00012F0A2F811B0BDE8F08FC046200500202A
:102AE000CC1F00209F3400209D3400205E1C00205D
:102AF000101F002007AB0100E81A00202DE9F04F5D
:102B00000320ADF1640D15F0EFFBBB4C0025022056
:102B100004F11C0141F80C5F401E8D60FAD104F1F4
:102B20004000A846062701467F1E21F80C8BFBD1EA
:102B30000821B34AB14FB34E0180121D876022F0C5
:102B4000030204F11C07B11A104621628B18A2611E
:102B50001646E261834200F20082881021F00301F0
:102B6000E82302EB800040F8048CEC3933602846FF
:102B7000C2F8E810E832226110F0EEF86061A24974
:102B80003868DFF8B0A220610A680AF10C063260EA
:102B9000496871609D493046082216F055FAB146E1
:102BA00028B99B48016832461160406850609948D6
:102BB0009949C0F8B410C0F8BC50984FC0F8CC5038
:102BC000974EC0F8D050974BC0F8B870964AC0F8EE
:102BD000C06000F1B40BC0F8C430D0F8B410C0F835
:102BE000C82009B12846884711F08CF88F4E40461E
:102BF00041460C22129006F1280010F0DFFA8C4FAB
:102C000041F2707308223363708DF762616AADF828
:102C1000302010230D930227ADF8327040F01900D8
:102C200070850CA8884700280CBF0E9F47460820D7
:102C30000123ADF83C00616AADF83E300FA888472B
:102C400054469DF8400011992070616077B1D02101
:102C5000397087F80180B87087F8038087F804809E
:102C60003946BD600220FD6014F098FABF49182073
:102C700001220FF0B5F9E220494617F047FB182072
:102C800014F05AFF60706068B146C9F808000DF092
:102C90003FF809F18400A060D9F80870B44C4146AF
:102CA000C4F824B0F520A76016F0F2FEB14D0E2650
:102CB0000D20687005F10C01AE7005F118000EF0E2
:102CC0007DFFA860687817F0B5F900280CBF0826CA
:102CD0004646A87817F0AEF908B946F01006A6499E
:102CE000A86817F0A9FCA549C82205F1240013F033
:102CF00039FBA3486860102E10D1606A70B1C268B9
:102D000062B1FF208DF818004FF6FF77ADF81A700A
:102D100006AEADF81C7096E803009047994D05F19A
:102D2000140005F108010EF049FF6860404617F0F5
:102D3000ADFC4746AE1E824606F8028F0220707038
:102D4000384617F03DFD014668685246C9B214F096
:102D5000FFFC7F1C022FEFDB8B4905F120004FF4B5
:102D6000FA7213F0FFFA894D05F11000291D0EF0DB
:102D700025FF2860606A002869D00769DFF810A283
:102D80006FB10094514616A80A688988026016AE91
:102D9000818096E8030001234246B847606A002814
:102DA00055D0C26852B1514616A80B688988036095
:102DB00016AF818097E803009047606A002846D0EC
:102DC0000769002F43D006208DF81000ADF81200DF
:102DD00014AEADF8148004AD009695E803004246A9
:102DE0000223ADF85020B847666ABDF850007769F5
:102DF000A08067B320E0C046E81A0020C592010019
:102E0000A0340020004B00204CC2010074B7010028
:102E1000F0120050380A0020296D01008D72010067
:102E2000251B010019770100CDF600007019002064
:102E300020BF02009C200020BDF8500004AE401CC2
:102E4000ADF8500096E80300022214ABB84709F130
:102E50000209A0684F4DCDF8089002A9039006C959
:102E600005F1180080E8060008A817F0BFFC05F17E
:102E7000440708AE4849099705F12000089096E8F4
:102E8000050081E805004549C82205F15C0013F002
:102E900069FAE86032A017F0C1F9E820012116F0C4
:102EA000F7FDE720092116F0F3FD606A062628B336
:102EB00007691FB38DF8286012A800900425ADF8AB
:102EC0002A500AABADF82C8093E8030042462B460B
:102ED000B847002804BF1298193010D08DF8286028
:102EE0004046676AADF82A500AAE13907C69ADF887
:102EF0002C8096E803002A4613ABA0474046129068
:102F00000FF068FFE0200C2116F0C2FD4F200321D6
:102F100016F0BEFD5720052116F0BAFD4E20042103
:102F200016F0B6FD5920032116F0B2FD16F030FC64
:102F30004846012116F048FC0824404616F0B4FD2E
:102F400042F2107017F0D2FD641EF6D140464146A1
:102F50000FF0A0FBFEF7B8FFFCE740F8048BF9E5A3
:102F600054492053656E736F7200C046756D000042
:102F700084170020681D0020F9770100419C0100A2
:102F8000399E0100F81D0020B908010050200020E2
:102F900094B70100701B00203C1E0020D99D010049
:102FA0002DE9FE4FDD4981460122A1F1300002608A
:102FB000D8480768002FFCD0D74AE34EC027D8482E
:102FC000D84B17603268920808D2324652F8042C67
:102FD00003F14104120C42F0F00222704FF0000A9B
:102FE0008346C1F800A0DFF88CC3DBF80810E04F7F
:102FF0000191880E43D2480E41D3802018744FF6B9
:10300000D802A3F8512018703868C0F30464162C55
:10301000A8BF203C1E460F3E307800F01F00162847
:10302000A8BF2038844223D0624602F1980EE44AB9
:10303000CEF800A0251A022D05DC15F1020FB8BF4D
:103040006FF0010500E002252818156800F01F0543
:10305000844245F4F855A6F866504FF00105156016
:10306000E8D110682E4616601068CEF8005010683F
:1030700038460068C0F30420162808DB06E0A7F1F4
:10308000D0000068C0F30460162800DB203800EB95
:103090002170401C162805DA10F10A0FB8BF6FF036
:1030A000090000E01520D54E00F01F0040F4F85054
:1030B000A3F85900306880083ABFD148C0F800A092
:1030C00041F040616246C80E8E0E80F0010000F0B3
:1030D0000100106086F0010000F00100906001988E
:1030E00011F0F4F90146182014F074FDA7F1380628
:1030F000CD4C30683568A4F10408C0F3870105F0B1
:10310000030041EA0021D8F80400C04D446840F2B1
:10311000FF32534688B22C21009028464038A04701
:10312000F06AC0F30D011C2014F054FDB549706A1B
:10313000014000F07C400143142014F04BFD316A43
:1031400001F47C000904090C0143102014F042FD35
:103150007D4AB06A1268C0F30351C0F303445208B9
:1031600013D2DBF80020130511EB237103D41029CF
:10317000A8BF0F2100E05146120414EB227403D4BF
:10318000102CA8BF0F2400E0544644EA011400F4B8
:103190007F4200F0FF01B9F1220F42EA044241EA06
:1031A000020124BF00F0804001430C2014F012FD06
:1031B000954CB9F1220F32BF01202068C0F3007096
:1031C000B9F1220F4FEA400040F0200085F80901D4
:1031D00026BF2068C0F3407001208D4EB9F1200F4A
:1031E00040F0100085F8090138BF514606D3316818
:1031F000C80C00F44070C1F384510143282014F03E
:10320000E9FCB9F1200F26BF3068C0F301505046E9
:10321000B9F1220F4FEA400040F0600085F80C0140
:1032200026BF2068C0F3C0605046B9F1220F4FEAB4
:10323000C00040F0800085F8010126BF2068C0F37F
:1032400045505046B9F1200F4FEA800040F47C40D1
:10325000A5F89C0138BF6F490AD3306801038A156D
:10326000920501F47C1100F00F00114341EA003196
:10327000082014F0AFFCCC3F4FF480002860664A71
:10328000B86D40F21E216FF31F40814216D9386895
:10329000030E03F00F0113F00F0FC0F3034018BF2C
:1032A000491E072805D006280EBF0720801C00F005
:1032B0000F0041EA0011A2F108000170DDF804C01E
:1032C000CCF381477F1E02D07F1E31D02CE02068D6
:1032D000810C29D24FF480412960D2F80210430AB0
:1032E000C0F3033703F0800321F08F010B4347EA5B
:1032F0000301C2F80210D2F80130060A66F3030394
:10330000C2F80130116800F0E70721F0E70147EA51
:1033100001000CE09402224300600C404010094080
:10332000AC3F0050156208404FF000402A46106044
:1033300005480068C0F3C0070FB94020A8624FF4E9
:103340000070286402E0C046B03F0050206840276B
:10335000C0F3C14040F0300085F8C800CCF3815084
:1033600080B3401E08D0FFE7401E23D0022122E098
:103370008813005000002043012015F0E9F90646AB
:103380000420314611F0F8FA042015F0E1F98642E4
:10339000FAD12248066826F07F4014F08DFFD8F855
:1033A0001400036807214FF06022300E98474FF455
:1033B000806028600321042011F0DEFA09E0C04695
:1033C0002C2009400420012111F0D6FA144814F0F1
:1033D00073FF203C206800F03F0085F8CB0FD8F841
:1033E0000030124ED96830680220884710480D4CD2
:1033F000076001212160BDE8FE8FC0460000094042
:1034000094042A43FCFCFC008C13005040A00C40A8
:103410009813005000803F400A600840A83F0050C9
:10342000BD37860094046042A40100102C2009409E
:1034300000600C402DE9F04F0D46C84C01686162F8
:10344000416880686160ADF14C0DA060284614F0C1
:1034500043FA4FF008094FF0010B06A8ADF8189099
:10346000616AADF81AB08847BD4E9DF81C107170A6
:103470000899716108B116F029F928688047A046BB
:10348000D8F80400804712904FF40057ADF8009030
:103490001E200197D8F82410ADF80200684688472E
:1034A00014F076F8C94C206C40688047206CC168E5
:1034B00010A88847206C836810AA0020014698470E
:1034C000E06308B916F002F916F006FBC14FC4F824
:1034D000D470C24AC4F8DC20C149C4F8E010BC482A
:1034E00030610025A4F85450BB4BC4F8D830BD4F10
:1034F000C4F8E47004F5C472C4F8642104F1C00196
:10350000C4F8681104F1D400C4F86C01B64BC4F8D7
:10351000E83015F00FFA04F1980704F51C70C4F8B0
:103520007471B34AC4F87001B04BC4F80821B14FAC
:10353000C4F8B03003F16E00A765B04AC4F8B40017
:10354000AD4B2266AF4FE365B4F85410C4F8107267
:1035500041F00100A4F85400AC4AC4F83022A84954
:103560006166A94BC4F8203204F15807C4F884718D
:10357000AB486062A6492161A74AE261A54BA361FD
:10358000A649216215F0E2FCA64FC4F80073A849D1
:10359000C4F80C13A44BC4F80433A44AC4F8082399
:1035A000A44FC4F81073A649C4F81C13A24BC4F866
:1035B0001433A24AC4F81823A24FC4F82073A449B4
:1035C000C4F82C13A04BC4F82433A04AC4F8282311
:1035D00084F8FC52B4F85400B56040F01000A4F830
:1035E00054009C4FC4F830739D49C4F83C139A4B67
:1035F000C4F83433994AC4F838239A4FC4F8407356
:103600009B49C4F84C13984BC4F84433974AC4F808
:103610004823984FC4F850739949C4F85C13964BEB
:10362000C4F85433954AC4F85823964FC4F86073CD
:10363000974981F800B0944BC4F86433934A1560FD
:1036400002204D8015F0A0FBFF210222F06217F04E
:10365000A3F9F01CFF21022217F09EF9022015F0B9
:1036600093FB8C4F386008B916F030F8386829465B
:10367000022217F091F911A80FA913F0A5FFF06A23
:103680009DF84410421C01709DF844001070257094
:103690009DF84400B07015F0A5FDB061D8F8241075
:1036A000ADF808901420ADF80A0002A88847152745
:1036B000ADF810900398ADF81270D8F82410F061AE
:1036C00004A88847754F0598DFF8DCA1744B3D705E
:1036D000801E3062704E1D700AF10802357010882D
:1036E00075700E30356180B215F09CFE074677612B
:1036F0000FB917F0D9F809978DF828509DF82900CF
:10370000684965F301008DF829009DF829005346AA
:1037100065F383008DF8290018899DF82920088019
:1037200065F307128DF82920ADF82A00706909A900
:103730004A4616F069FB3762756213F0A7F85B4ED4
:103740003078012802D0284602F064FC5848057001
:10375000584F3D703078012807D003E0E81A002068
:10376000AC1E0020284602F055FCD8F8081012982C
:10377000884700F0BBFC15F075FE94F82B0412F09E
:103780005DFE584602F046FC13F0CEFB4A48057039
:103790003078012802D0284602F03CFC10F0F4FFFB
:1037A0001820ADF83090454FADF83200444E0D97DB
:1037B000D8F824100E960CA8884708B117F074F8B2
:1037C00002F0C8FA13B0BDE8F08FC0462005002013
:1037D00069610100F1950000794C01003D960100FE
:1037E00095E0000091F300004130010040AC010081
:1037F000A9DF000075C90000DDBD0000F563010010
:10380000117E0100515A010011340100B5A80100D8
:1038100075990000EDEC0000718C0100313201005F
:10382000B9730100ED160100F17400003938010090
:1038300059750100958C000095FE0000C9570000E5
:10384000C5380000092601002594000081E1000030
:10385000D19F0100919E0000BD5E0100BD8E010060
:1038600051E3000071B30000697700007996010010
:1038700055FF000099520100998E0100A1650100D9
:1038800045910100C19A010067A801008034002021
:103890007C21002090340020A03300209B340020A5
:1038A0009D34002058190020F02000209E21002087
:1038B0009F340020963400209C34002053FF0000E9
:1038C000042000202DE9F04FADF18C0D1C9106462F
:1038D0001D920DF15700D1491E93082216F094FA5B
:1038E0003046694614F0D8F81F90002804BF002025
:1038F000229000F0088202200027B61CDFF824B3D3
:103900002090C74D2297304602A912F01EF95FEAB7
:10391000000900F0F58122990DF13900162217F007
:103920003BF89DF809707F1E00F088807F1E40F0F4
:10393000DF81B9F10A0F40F3E681B61C04A8042226
:10394000314616F061FA361D05A80222314616F0FE
:103950005BFA42F20B000DF1160112F0AFFABDF85E
:103960001600BDF81410884200F3CD81B61C16F87D
:10397000010B16F8017B16F8014B8DF8390016F88B
:10398000011B8DF83A700DF139028DF83B4030463D
:1039900006F0CEF8C34909780028064400F0B38148
:1039A0001F9C012904F1020400F09C814FF4005097
:1039B0000DF14F0112F082FA0DF14F000DF1570198
:1039C000082215F041FB40B11C990DF14F0008226F
:1039D00015F03AFB002840F0858142F2010004A96D
:1039E00006F056FA42F20B0005A906F051FA42F22F
:1039F00005000DF1390106F04BFA0DF13A0142F2E2
:103A0000060006F045FA0DF13B0142F2070006F010
:103A10003FFA0FA942F2090006F03AFA9DF83C007D
:103A200028B1022840F05E8142F2030001E042F238
:103A30000D000DF13D0106F02BFA53E1B9F1040F31
:103A400040F36181B61C16F8010B16F8017B16F8DD
:103A5000014B8DF8390016F8011B8DF83A700DF105
:103A600039028DF83B40304606F062F800280644E3
:103A700000F049811C9806A906F0D8FA9DF8360096
:103A8000002840F011819DF83C0000287DD1B5F858
:103A90004E70002F00F00481B5F85200874207D025
:103AA000288B698B884201D109F042FCA86D21E086
:103AB000AF6D4FF400500DF15F0112F0FFF915F0FA
:103AC000F1FB4FF6FF78229C2190A246B5F84E00FC
:103AD000A04243DCA86D4FF6FF7141450AD04FEA82
:103AE000480404EB88040019808813F03DF8A86DA1
:103AF000071923D1B5F84E300746002B08BF229C8A
:103B000019D05846229C40681946D846BF1FBF1D91
:103B1000FA782AB1491E04F10104F8D1BF1D0AE068
:103B20008047B5F85210491CA5F85210D8F8081073
:103B30008847B5F84E30A34200F099801C980AF0EF
:103B400079FCB8800120F870FC788DF83640B88890
:103B5000ADF83700229B8DF82330A5E0B88812F02D
:103B60006FF8014608220DF15F0015F06DFA40B1C3
:103B700038880104219816F0C7FE82453CBF824672
:103B8000A046641CBF1DA4B2A0E7B5F84C70002F7E
:103B900000F08680B5F85000874207D0288B698BEB
:103BA000884201D109F0C4FB686D20E06F6D4FF4CD
:103BB00000500DF1670112F081F915F073FB4FF61B
:103BC000FF78229C2190A246B5F84C00A04250DC20
:103BD000686D4FF6FF71414509D008EB4814001994
:103BE000B0F81F0012F0C0FF686D071929D1B5F8B1
:103BF0004C300746002B08BF229C20D0DBF8040085
:103C0000229C1946D846213F2137BA7F62B1491E0E
:103C100004F10104F8D1213711E0C0460CAF0100D6
:103C2000D4120020E81A00208047B5F85010491C33
:103C3000A5F85010D8F808108847B5F84C30A342C2
:103C400015D022993846212216F0A6FE1C980AF0BB
:103C5000F1FBA7F81F000123FF2039462122BB7783
:103C60000446787206A8FC7216F0CEF81CE06120BB
:103C700056E0B7F81F0011F0E3FF014608220DF1EE
:103C8000670015F0E1F938B17968219816F03CFE2B
:103C900082453CBF8246A046641C2137A4B293E70C
:103CA00064203DE0220500209DF836000DF1390129
:103CB000162240F004008DF8360008A816F0A4F88B
:103CC0001F9C9DF83C00A41C48B19DF84E700DF15E
:103CD0003D00394611F00CFB3F1A8DF8357006A8EF
:103CE0000FF0DAFF20984844801C80B2209003E057
:103CF0001F9C4E44B61CA41C209884423FF703AE80
:103D00002098022803DC229A6720114604E01F9ABB
:103D1000911C121A2298921C1D9B19801E990A80D0
:103D200023B0BDE8F08F70472DE9FC47DFF84893DA
:103D30000F460646F80B80F0A181DFF83883B80FF4
:103D400080F04281B80880F03581F80A80F00F8158
:103D5000B80B80F0FB80780B80F0BA80380C80F0D4
:103D6000A9803809C0F0AB81082016F0BFFC0028FC
:103D700040F09B80802016F0B9FC002840F0958030
:103D800068460EF051FA012803D10098002800F08F
:103D90008C8000240125E0B216F066F848B1867ADE
:103DA0003EB1857290F9090005FA00F0C0B213F037
:103DB0001FFE641C032CEED344460320A070A068B1
:103DC000783016F09BFDC248002601680660C149A4
:103DD00050F8082CB046324640F8088C04F14C00EC
:103DE00016F0A4FD304615F0ADFA16F005F9E678A8
:103DF0006EB126795EB9E1686669A369401A06EB7F
:103E00001030B0EBC32F9CBF6061454623D915F03D
:103E100089FB414600B12946081C18D0AE4840F63F
:103E20000901018000F10D03414641801A7800F13B
:103E30000C0665F303021A70327861F303023270E4
:103E4000416016F013FB418811F4406FFBD0E57020
:103E500045466561257113F0FBF926789F4805609A
:103E60001EB9A068403016F079FD022013F01AFF49
:103E700011200CF02BF9A068007C10B90E200CF07A
:103E800025F9607818B16570052013F00BFF944890
:103E900016F088FBB4F94800B4F94A10A5708842BE
:103EA00014BF022007200DF06FFC27F0080710F068
:103EB000F3FD04E14446A06B80684688002EFAD0EA
:103EC000A06B806840880128F5D027F40047EEE712
:103ED00013F05AFC38B1B56930466FF48071002296
:103EE0004FF00073A84780494446002204F14C007B
:103EF00016F01CFD0220A070B0680188A1F6020532
:103F00002DB141F21E016D1A18BF183000D11030CA
:103F1000018821F47C7141F43471018000257574AD
:103F2000266916F069F8D4F81011A26804F58873B0
:103F3000914214BF0121291C26B1801B03EB81068D
:103F4000020BB260256127F48057B0E7484616F0AF
:103F5000FDFC061C08D0706830B17468F068B6F9D2
:103F60002C1000222023A04727F40057A7E016F0CA
:103F7000D3FC4446054604F1340016F0E7FC061C69
:103F800012D0A06810B1783016F0B8FCF068A060CC
:103F900016F032F82061534816F004FB4FF400612C
:103FA00004F1A80016F0E6FC284616F09BFD27F465
:103FB000806784E007F0D0FD4046443016F0C6FC30
:103FC00008B927F002077AE016F0A6FC8246B0682E
:103FD0000188A1F602052DB141F21E016D1A18BF2C
:103FE000183000D110300188444621F47C7141F42E
:103FF00034710180E068D0B1042014F0A9FBB0B1A5
:10400000E56815F0F9FFF168401B738AF060020B58
:10401000F26098188842F06002D240184008F060C0
:1040200040F6C41181422CBFB0F5FA7FF1605046D2
:1040300016F058FD13F0A8FB90B1B56930466FF447
:10404000807100224FF00073A84704F1340016F08D
:104050007DFC002808BF47F0020701D010F01CFDCE
:104060007469002130464FF080630A46A04727F06C
:10407000005724E0582800209428002016F04CFC1B
:104080000146484616F062FC061C13D0356AA808A3
:1040900010D225EA05003062084616F023FD70684C
:1040A00058B155B17468F068B6F92C102A4600234F
:1040B000A04702E0084616F015FD27F4804727B117
:1040C000484639466C3016F055FCBDE8FC87C046C2
:1040D00014100440C14F010040340020000004606F
:1040E000C1E7000041C00000EDAD00002DE9F04F38
:1040F000D64F4FF00008ADF1140DD24DCDF8088029
:10410000F8688DF80C8000288DF80D8037D1CE48E6
:10411000CF4984380068814217D0CE49814214D0FB
:10412000CD49814211D0CD4981420ED0CC49814246
:104130000BD0CC49814208D0CB49814205D0CB4934
:10414000814202D0CA4981420CD114F09DF8012865
:1041500014BF40460120787005F12000006800F18E
:10416000200408B916F0A0FB216807F11400884765
:104170004FF4FA70F884BF4EBE620624FC62DFF88A
:10418000F892EB6999F83B244FF0010A4146880107
:10419000A0EBC100181890F8266036B990F82540B9
:1041A000491CA242C9B2F2D103E090F82510914215
:1041B00004D1834202D013F08FFBEB69DFF8BCB26D
:1041C000686A17C88BE817007878012814BF404642
:1041D0000520AB4C8BF8000099F8696426B9986902
:1041E0000068C4F8AC0005E0D8690068C4F8AC0009
:1041F00015F03EFB632004A912F016FA99F83B046F
:1042000013F0ECFD064604F19E0108786AF3020003
:10421000087099F83B24812A03DB842A23DB862A51
:1042200011DB94F8A00004F1A70140F00F0084F81E
:10423000A000087868F303000870B07B052814BF5D
:104240002420292016E094F8A000292340F00F0034
:1042500084F8A00004F1A70184F8A430087868F37A
:104260000300087008E094F8A00040F00F0084F804
:10427000A000212084F8A40004F1A5010878812A77
:1042800068F38710087001DB842A1ADBB37A83B9DC
:1042900004F1A5029DF810001178401E60F305019D
:1042A00004F1A6001170017821F03F0141F01801DE
:1042B00016E004F1A5019DF81020087862F30500CE
:1042C00006E004F1A501087820F03F0040F002006C
:1042D000087004F1A600017821F03F0141F02001AF
:1042E0000170B07BB1890A2304F19E02401D48434E
:1042F00090FBF3F1138861F3CF031380B089192188
:1043000004F1A003800390FBF1F2196862F31C2111
:1043100004F1A8021960E869117890F8243063F379
:104320000201117004F1A80290F824001378C11062
:1043300061F3C303137099F92A0410F00DFC4FF6D2
:10434000FF71814218BFA4F8AA00716830893368F0
:104350004FF47A72401E414303EB5100B0FBF2F080
:10436000EB69A4F8B000186A0078A4F89280C4F849
:10437000948004F19D0384F8B40018786AF3030074
:10438000187016F095F9C8B9B0893E49B2FBF0F043
:10439000C0B20870B2FBF0F03B4A507099F83B0491
:1043A000022806D0842809DB862807DA05215C204C
:1043B00001E00221A820354B19701070FB682E6AAD
:1043C0005BB3404612F084FAB87899F83B148842FF
:1043D00012D1F97899F869242E6AF86891420DD1C2
:1043E000022142468DE80600366D9034434602AA0B
:1043F0002146B047EC601BE02E6AF8687168884778
:1044000023482B6A80F800A01E6822489034594641
:10441000224607F11403B04707E0903422461D48B6
:10442000346807F114035946A047F860686AA86227
:1044300099F83B0499F86964B87005B0FE70BDE85E
:10444000F08FC046601C002018130050DC1E0020B6
:1044500000F0022000F0012000F000200080022087
:104460000080012000F0820000F082200080822085
:1044700000800020718F01002005002054340020AE
:1044800088180020F01F00205C1C0020CC1F00209A
:104490009F210020503100202DE9F04F064692F870
:1044A00008B0307D09AF8946ADF1240D049335285D
:1044B000039205D0114606F170000A2215F0A4FC03
:1044C000DFF8C4C239F07F0506BF604600884FF6AA
:1044D000FF700590F08A800934BF002008203076F4
:1044E000F08AC00834BF102080207076F08A40091E
:1044F00003D260460E30007800E00020B076F08AEB
:1045000041082CBF20240024000928BF44F01004D7
:104510007568002109F07F09307D06916D1E022823
:104520000EDB0C2808DC0C2803D1022044F40854CC
:10453000069044F0030404E00D280CBF0220012083
:10454000044396F88C0008B144F00804210900D314
:1045500028B1DFF8C88298F8203413B908B1DF20F9
:104560004BE121096ED396F88D50DFF8A4A206F135
:10457000240133891AF8052007910AEB0001097913
:104580008918491DC9B2C918A24B1A8808908A42D5
:10459000C0F2358100284CD0049A039906F18400BA
:1045A0000BF0FAF80799002808603FD0806AB0F154
:1045B000FF3F39D070680023401E8DB196F88E10F1
:1045C000524600F80119515D491EC9B241B1721835
:1045D00092F88320491EC9B2002900F80129F6D1BA
:1045E000079970660968896AB162090E00F80119B5
:1045F00096F82A1000F8011996F82910089A00F880
:10460000011996F8281005F0030500F8011902F0C9
:10461000070141EAC501017071683289091AC9B2FE
:1046200070608918318105E0DB2700E0F32777709F
:10463000E6E00023F08A7370C00828BF44F010043D
:1046400075686D1E336DA3B9B36D93B998F83914BD
:10465000012903D13089B0F5EE7F06DA200904D2B2
:1046600002290AD144F4005401E044F480540120AA
:1046700002E044F408540220069098F80200012851
:104680000CD098F8FC0248B196F86B00042805D1CC
:10469000022024F48054069044F4005444EA8934FF
:1046A000B9F1020FA4B20AD0B9F1030F10D1ED1F76
:1046B00008F22C41284616F006F96D1E08E0B8F8FD
:1046C0001204001205F8010998F8120405F801090E
:1046D000069802280CD0B9F1000F15D0BBF1000FDD
:1046E0000CD004990598814208D144F040040BE0B5
:1046F000BBF1000F08D1B9F1000F05D005990812E0
:1047000005F8010905F8011944EA8B24BBF1020FF1
:10471000A4B209D0BBF1030F0ED10399ED1F2846B7
:1047200016F0D1F86D1E07E003990888001205F80D
:104730000109087805F80109BBF1000F05D00498BC
:10474000011205F8011905F801093878F0B9324865
:104750000178307D0D2814D068B9306D28B998F8EB
:10476000FC03411C88F8FC130AE098F82104411C62
:1047700088F8211404E098F80A04411C88F80A1407
:10478000014605F8011903E02E09002044F4807465
:10479000201205F801092C7070683189401B756082
:1047A000C0B240183081200926D3B06D00B130620C
:1047B00098F8FC0210B1307D0D281DD1746A14F1F7
:1047C000150001D116F070F8A16A481CA062328968
:1047D000306AB162471B0092D21B019090B20290E6
:1047E000706A96F88C202B46153008F06FFA002876
:1047F0001CBF7070071C07D10020707005E0E52712
:104800007770F32015F011F9F8B209B0BDE8F08F18
:10481000FCAA0100F8200020A4330020200500207D
:10482000B0B50446BA480768ADF1480D002F00F056
:10483000A8812078401E112800F2A381DFE810F043
:104840006A015201380123011B010401F100E30058
:10485000C300B2008D005D0053004200A1012A0098
:104860001C001200F86B002800F08B81684621467E
:104870000DF0F8FDF96B82E1386C002800F08181C1
:104880006846002101220EF099FC60788DF8000046
:10489000396C74E1F86A002800F0738168460021E1
:1048A0000E220EF08BFCA11C684615F0D5F9A57BF5
:1048B000A1890022ADF80A1005B101228DF80C2063
:1048C000F96A5DE1B86B002800F05B816846002161
:1048D00002220EF073FCA5788DF8015060788DF8F7
:1048E0000000B96B4BE1786B002800F04A81684604
:1048F00021460DF0B7FD796B41E1386B08B368468E
:10490000002114220EF05AFCA5788DF80150A368FE
:104910000193A289ADF80820A17B8DF80A10607878
:104920008DF80000E57B8DF80B50237C8DF80C3062
:1049300094F911208DF80D2061690491396B684656
:1049400088476068002800F01C810146F22008704A
:104950000020487012F022FC13E1B86A002800F031
:1049600010816846002124220EF028FC6078A11CEA
:104970008DF800000DF1020015F06EF904F10C0144
:1049800003A815F069F9257EE08A04F119018DF874
:1049900018500B22ADF816000DF119000CF090FF25
:1049A000B96AECE0786A002800F0EB8068460021E4
:1049B00002220EF003FCA5788DF8015060788DF886
:1049C0000000796ADBE0386A002800F0DA80684687
:1049D000002112220EF0F2FB658862796078ADF852
:1049E000025023798DF80520E11D8DF80000A5798E
:1049F0008DF804300B220DF107008DF806500CF0F5
:104A00005FFF396ABBE0F869002800F0BA806846A9
:104A1000002101220EF0D2FB60788DF80000F969C8
:104A2000ADE0B86910B1204611F03CF8A07820B98B
:104A3000A069002800F0A58003E0A069002800F02C
:104A4000A08014F0AFFB9CE07869002800F099800A
:104A50006846002113220EF0B1FB6D46A01C0168D0
:104A6000406829600B22686004F10A0102A80CF07A
:104A700027FF796983E03869002800F082802046AA
:104A80000CF01EF87DE0F86800287AD06846002116
:104A90000E220EF093FB6078A11C8DF800000DF142
:104AA000020015F0D9F8A089ADF80C00F96866E0AD
:104AB000B868002865D06846002114220EF07EFBFD
:104AC000A01C01686D46296040686860A07A0B22CE
:104AD00004F10B018DF808000DF109000CF0F0FE57
:104AE000B9684CE0786800284BD068460021102255
:104AF0000EF064FB60786588211D8DF800000B22A4
:104B0000ADF8025001A80CF0DBFE796837E0C04632
:104B1000A42000203868A0B36846002119220EF0B6
:104B20004DFBA01C01686D46296040686860A07A52
:104B3000410824BF01218DF80810810824BF0121FC
:104B40008DF80910C10824BF01218DF80A10010950
:104B500024BF01218DF80B10C10924BF01218DF85C
:104B60000C1030F07F001CBF01208DF80D000B22CF
:104B70000DF10E0004F10B010CF0A2FE396868463D
:104B8000884712B0B0BD70472DE9F04F09AFADF1C5
:104B90003C0D08900A92388809911E46ADF818001D
:104BA000101C08BF002000F08481002700F10109DB
:104BB0004FF0FF3A4FF0010BB8466CE1252940F069
:104BC00063811078521C0A922D2818BFADF8068018
:104BD00005D15846551CADF8060010780A953028C6
:104BE0001CBF4246434605D10A9908785A465B469F
:104BF000491C0A912A28CDF80080554616D1306804
:104C000004930A99CDF808A0C01C4B1C20F00300A7
:104C1000001D306050F8044C0A93002C0878009472
:104C200018D5ADF806B06442009413E044460AE09B
:104C3000610001EBC40140180A99A0F13004087822
:104C40000094491C0A91302801DB3A28F0DBCDF8AA
:104C500008A004932E282BD10A9908782A2801F15C
:104C600001010A9111D13068CDF80880C01C20F0F4
:104C70000300001D306050F8045C002D48BF45461D
:104C800008782B46491C0A9111E0454643460AE044
:104C9000690001EBC50140180A99A0F130050878B8
:104CA0002B46491C0A91302801DB3A28F0DB02939D
:104CB0000AB1224604926C2804D04C2818BFADF8E3
:104CC000048005D10A990878ADF804B0491C0A910E
:104CD0000BA9CDF80C800FAB07916428059300F069
:104CE0008B80692800F08880BDF818C0752872D0C4
:104CF00078286ED06F286AD0702850D063283DD0B5
:104D000073281ED009980A990128A1F101010A917E
:104D100015D96B490C68B5F1FF3F03D0A84288BF95
:104D20006D1C00D8099D029508A80AA932466B4659
:104D3000A047C7190A99039801F1010974E0404698
:104D40002AE030680A99C01C20F00300001D306082
:104D500050F8040CBCF1000F01F10109014608B93B
:104D600055A00146079115F019FA0390B5F1FF3FE0
:104D70005BD0A842C4BF281C039056E03068C01C1A
:104D800020F00300001D306010F8040C5D468DF823
:104D90002C000A990395584601F1010945E00820C5
:104DA00035680490E81C20F00300001D306050F8C6
:104DB000041C082210230FA80EF036FF401E079097
:104DC000402101700A99079801F1010929E008239F
:104DD00002E0102300E00A230A99306801F101097A
:104DE000C01C20F00300001D306050F8041CAA42D3
:104DF000BCBF2A1C049210E00A99306801F1010935
:104E0000C01C20F00300001D306050F8041CAA42B2
:104E1000BCBF2A1C04926FF009030FA80EF004FF18
:104E20000790059D281A0390009C241ABDF806508F
:104E300000945DB906E008A8202109AA13F013FE2A
:104E4000009C7F1C641E0094F5D503980546401E07
:104E5000039075B9BDF80600E8B10098401E0090B7
:104E600019D408A8202109AA13F0FDFD00987F1C81
:104E7000F4E70798411C0791017809AA08A813F0E4
:104E8000F2FD03987F1CE1E708A809AA13F0EBFDE7
:104E90007F1C09F101094A460A9812F8011C401CBE
:104EA00000290A907FF48AAE089808B14146017043
:104EB00038460FB0BDE8F08F286E756C6C2900C0C5
:104EC000CCB701002DE9F04FD0F804A0ADF1140DDE
:104ED000029080680490084600680391002800F062
:104EE0006E819AF88C100020012908BF01200399D7
:104EF0008968084203D103994968084206D0012015
:104F000080F00100C0B2012840F0598115F004FD85
:104F1000DAF8881029B115F0E5FD03980321017432
:104F20004DE1039901240C74CAF8881015F0DAFDDC
:104F30009AF8A40038B19AF88D20A349DAF89C00B9
:104F4000114312F095FE0398476815F0E5FC0546FD
:104F50009AF8D80070B917F0704F06D12FB104201D
:104F600013F0C2F9062013F0BFF9022013F0BCF9C8
:104F70008AF8D840284615F0B5FD0498D0F800907E
:104F8000D9F8040040F00200C9F804009AF80000C3
:104F9000071C019076D1DDF80CC0049FDCF80050AE
:104FA000F869A84272D9604686683C460EB90AF193
:104FB000A606476837B9E0896746AAF8A6003D68A3
:104FC0000AF1A607DAF8140009282CBF4FF00209ED
:104FD0004FF001096DB3DFF8F481DAF81400092805
:104FE0000FD3D8F800004268398820689047D8F875
:104FF0000000C268206869469047BDF80000308014
:105000000EE0D8F800004268397820689047D8F858
:105010000000C2682068694690479DF80000307023
:105020000398836803B14E44436803B14F446D1E37
:10503000D3D120460168039E486820F002004860F2
:10504000776815F069FC04469AF8D80078B117F033
:10505000704F06D12FB1062012F024FE042012F06A
:1050600021FE022012F01EFE00208AF8D800204601
:1050700015F038FDDAF8881000200874CAF88800A6
:1050800001209DE0DDF80CC0DCF80050DDF808C020
:10509000DCF80440674694F88C00BB68A9B28140F4
:1050A00018681FFA81FBB0F1804F14BF484E494E7B
:1050B000DDF80CC0DFF820E1DCF8081051B994F8F5
:1050C0008C004FEA800C70460CEB00018A6904F1F9
:1050D000A60109E094F88C004FEA800C70460CEBB6
:1050E000000212695944491EB260716018680830A4
:1050F0003060B2682F0143F6F078A7F1100108EA9A
:1051000001010A43B2601D68B5F1804F14BF334AF4
:10511000334A039E7768CFB9D8890CEB0E07A4F801
:10512000A60004F1A606B869049D9060039F16606E
:105130003968D5F800909AF800701D684646090154
:1051400010390197314005F1080006E00CEB0E061E
:10515000B6685F4496607F1E176050609068014398
:105160009160D4F8A07059691869014378680068A3
:10517000019E8162686A40F003006862D9F81400F9
:10518000002E40F00100C9F814007FF479AFDAF87E
:1051900004100AF16C00044615F077F800283FF47B
:1051A0006FAFDAF88800017C012904BF0321017484
:1051B000029809F059F82046002115F066F8002001
:1051C00005B0BDE8F08FC04600000680C4010010A5
:1051D000000500203004002008B501001005002063
:1051E00040040020BA482DE9F84F0025B94CB749D2
:1051F000056094F8E200002800F06381012800F0C7
:105200002F81B54E02283CD0032840F05A8151F836
:10521000250CD4F8B8100029A0F5C060C4F8D4005B
:10522000B8BF49420028B8BF4042814226DA4FF059
:105230008057D7F8A4014568B4F8BC0030214FF47A
:105240007F42082300903046A847D7F8A40145685C
:10525000B4F8C00004214FF4F80212230090304645
:10526000A847D7F8A401B4F8D070456820214FF4BE
:1052700040620A2330460097A847012584F8D85099
:105280001AE151F8258C15F0C5F92F4600B9012710
:105290003946924F38680028FCD0B146012609F102
:1052A0000409D9F82CA03E6009B115F0B9F9CAF388
:1052B0000720C4F8BC0015F0ADF9AA4600B9B24603
:1052C0003B68002BFCD0D9F800B0BAF1000F3E606B
:1052D00001D015F0A5F9CBF38440C4F8C00015F057
:1052E00099F9AA4600B9B2463B68002BFCD0D9F820
:1052F0001C90BAF1000F3E6001D015F091F9C9F38E
:105300008120C4F8D000B8F5C061C4F8B81000F02E
:105310009C8094F8D80068B9C4F8D410D4F8C000C0
:10532000C4F8C800D4F8BC70C4F8C470D4F8D03045
:10533000C4F8CC30D4F8D400D4F8BC30002854BF22
:1053400002226FF0010204F1C8010F6800EB400077
:105350008018421000EB927207EBA2000860D4F8AC
:10536000C810C4F8C43000291CDD1E293CDDD4F867
:10537000CC0030B93429B4BF15391E21C4F8C81087
:1053800025E02A29BABFD4F8C8000B381E20C4F87B
:10539000C800D4F8C4003F28B4BF401C3F20C4F864
:1053A000C4001FE0D4F8CC00032812D011F10B0F79
:1053B000C6BFD4F8C8000B30301CC4F8C800D4F8FD
:1053C000C4000028C4BF401E051CC4F8C4500325F7
:1053D00008E011F1150FC6BFD4F8C8001530301C15
:1053E000C4F8C800C4F8CC504FF08057D7F8A401D7
:1053F000B4F8C43030214FF47F42456836480093FA
:105400000823A847D7F8A40104214FF40032112340
:10541000456831480096A847B4F8C860D7F8A40199
:1054200004214FF4F802122345682B480096A84740
:10543000D7F8A40120214FF440620A23B4F8CC60CD
:10544000456825480096A84701E084F8D85040F206
:10545000FF50404502D8801C40452DD208202EE048
:1054600051F8251C1E4F4BF2F5204843060A3868B8
:10547000C0F3814001280AD113F05AFB11F0CAFE93
:1054800015F0D4F83111C010484306EBE03694F81B
:10549000E50030B91348006820F07F4036187608E0
:1054A00001E084F8E5501048310C066001274160A6
:1054B0000E4D8760287808B90B2000E0052084F89D
:1054C000E40004F047FFBDE8F88FC0462D400C40D3
:1054D0002C500C407016002000A00C4000800C40A6
:1054E000B43F0050102009403C600C409DB60100C4
:1054F0002DE9F04FB34C8146201D0768ADF12C0D0E
:10550000002F00F03C814FF00008388979689E4EEA
:10551000CDF81C80C500097830781035890906D38C
:1055200040F6485191FBF0F1491901F5AF753E7D08
:1055300068438500352E0CBF46464FF4FA560DF1F0
:105540002601E82011F070F89DF82600032808BF16
:1055500044F620666068007D7519352803D1D4F8BB
:105560006003804745430220DFF82CA28DF820001D
:105570000AF10C000068069506A909F0DFFA01207F
:10558000844E8349814F0870317887F80080012963
:1055900001D000F03FFD60680589466813F072FF96
:1055A0003088000942D394F8FC0200283ED061689C
:1055B0004B6A4F6E986AB0F1FF3F26D02FB3421C62
:1055C0009A628862030E07F80139606890F82A0031
:1055D00007F80109606890F8290007F80109606878
:1055E00090F8280038706268106A00950190801B5E
:1055F000281A80B20290916A506A92F88C20334641
:10560000153007F063FB074600E0DB27D4F84013B2
:1056100067B119B9E4200DF05FFB04E05F4880F842
:105620000080E4208847002F40F0AB8029463046B8
:105630000DF00CFA642009A910F0F6FF584894F810
:10564000FC12007831B994F82B040AF0C3FB01284E
:1056500005D090E00AF0BEFB012840F08C80DFF816
:1056600044A1A81C87B20DF125010AF18000078032
:10567000E92010F0D9FF9DF82500012805D13D460D
:10568000C5F3022040F0180005E02D1DADB2C5F3B2
:10569000022040F0080006F8010D06F8015D5546AD
:1056A0009DF82400A5F872800028C5F88C600CBF16
:1056B0003D483E48CDF8108002238DF8158005F155
:1056C00038068DF8143005F1700AA6F8028005F14D
:1056D0004501C5F8C800364FCAF81800087820F010
:1056E0000F0040F00300087078688047DFF8C4B00E
:1056F0000A90B9F1010F1DD0B9F1040F1AD0B9F118
:10570000000F14D0B9F1050F0ED0B9F1030F08D175
:1057100094F83B0412F062FBC07B022818BF564687
:105720000AE005F1700607E0DFF88CB004E005F14F
:10573000540601E005F138061448006A164B046D62
:1057400002278DE88001D868314604AA5B46A0474D
:105750001A49174F0880B96800280AD4184A92F9E4
:1057600000000A4F7035401C10700A98FD60884791
:1057700007E00A9888471A200DF0AEFA01E015F00C
:1057800093F80BB0BDE8F08FF01F0020601C0020E4
:10579000D72000209E210020DC1E00209F34002006
:1057A0005F1C0020881800204E9055550E7A5555E4
:1057B000E81A002021B600001DF100000C1F002097
:1057C000DE200020200500202DE9F04F002898461B
:1057D0001446ADF12C0D00F0F78011F47C1F40F061
:1057E000F08011F00F0F00F0EF80074605910020C8
:1057F00006900A904FF0000A0990554608954FF020
:10580000010BCDF810B00546504607900598059954
:105810000BEA000021EA0B014FEA4B0B401E0591F9
:1058200000F0AF80401E74D0801E61D0001F40F099
:10583000C28042F205000DF10E0110F03FFB9DF811
:105840000E00002800F0B7801CB1276694F86B00AA
:1058500006900720152607F8010B022301A907F877
:10586000016B42F2010007F8013B10F027FB68468C
:1058700003A90DF0F9FE069810F0FAFA0099019AC2
:105880003E4640180090824206D8801ABDF80C307F
:105890000090581CADF80C00009B50085146814602
:1058A00009041804030C19430004534610EB0900C3
:1058B00041EB0A0103F0F4F8BF1D0090BDF80C3075
:1058C0009DF80C009DF8002006F8010B181206F850
:1058D000010B9DF8011006F8012B9DF8023006F827
:1058E000011B9DF8032006F8013B0935327061E089
:1058F0000220152607F8010B042307F8016BB8F105
:10590000000F07F8013B0CBF099898F800002D1D07
:105910004EE01CB1E76594F86B0006900520152653
:10592000049B07F8010B0DF10F0107F8016B42F220
:10593000040007F8013B10F0C1FA02A811F034F995
:10594000069810F095FA02999DF80F209DF80F60C7
:10595000069B0918080200EB6200B0FBF6F002900B
:105960003E469DF808109DF8092006F8013B3F1DB2
:1059700006F8011B9DF80A3006F8012BED1D337067
:1059800018E00320152607F8010BB8F1000F07F8FF
:10599000016B034607F8013B04BF0A9807F8010BA7
:1059A00005D098F8000007F8010B98F801006D1D6C
:1059B00007F8010BADB2059800287FF427AF2E46FB
:1059C00061E011F00F0F01D000205DE080468A46B3
:1059D00002264FF4803908F1020509EA0A002AEA92
:1059E000090A4FEA4909B0F580301AD0B0F5803085
:1059F00014D0B0F500300ED0B0F5802009D0B0F54D
:105A0000002004D0B0F580102AD1072404E0062439
:105A100002E0052400E00424002704E0022401271A
:105A200001E001242746A81C214600F0AFFD47B144
:105A300004F00F04C0F30A0141EAC42141F400411B
:105A400005E004F07F0400F0FF0141EA042105F8BD
:105A5000011B36180912B61C2970B6B245196D1C07
:105A6000BAF1000FB9D1022ED8BF00260BDDB01E4F
:105A70004FF6FE7708F8010BB819C0F3022040F08A
:105A8000A00088F8000030460BB0BDE8F08F7047EA
:105A90002DE9F04FAC4C07460020ADF13C0DDFF88E
:105AA000A482ADF80C00201D00688946017D2529DF
:105AB00000F00281703005A904F0B8FA002818BF80
:105AC000C0B240F03B8101A804A90DF0CDFD14F057
:105AD000DBF800280CBF41F2081543F2C82504A9E1
:105AE00001A80DF0C1FD98F82B2201993B684FF4F5
:105AF0007A7A504650430AFB1100C01A8542C0F220
:105B0000D880D8F80422521A0AFB02F1C91A8D4231
:105B100000F3CF808542A34609DD002807DD95FB11
:105B2000FAF04FF4916100B201FB003038609DF84B
:105B30001F00002857D042F204000DF1360110F08A
:105B4000BDF913F08FFB0699441A42F206000DF1DD
:105B5000350110F0B3F99DF835109DF81D00FF29AF
:105B600004BF0A218DF83510FF2808BF0A209DF8D0
:105B70001C509DF8352075495646B4FBF1F180184C
:105B800080B24843A9107143814298BF081C41F27A
:105B90000814241805A813F046F99DF81C103D6858
:105BA000B0FBF1F24A43821A714392B272438B1AEC
:105BB000891A5B1B491B8C4201D9002908D5614217
:105BC000994212D2002B10D5B4FBF6F109B203E0D2
:105BD0006100B1FBF6F189B23A684FF4916303FBBF
:105BE00001253D6001E03D68002006460DF11201EF
:105BF00002A80DF039FD0298D8F804120024B5FB74
:105C0000FAF210180290814203D998F82B3283429D
:105C100002D998F898712FBB9DF81C0096190004C2
:105C2000B04298BF361A9DF81F00002808BF9DF8A3
:105C3000200024D09DF81C00B6FBF0F085B2BDF822
:105C400033000FF0FDFF9DF831200146284610F08B
