:20101000004C002039920000F5AB0000F5AB0000F5AB0000F5AB0000F5AB0000F5AB0000C9
:1C103000F5AB0000F5AB0000F5AB0000F5AB0000F5AB0000F5AB0000ADB0000087
:20104C002DE9FE4FDD4981460122A1F130000260D8480768002FFCD0D74AE34EC027D8480A
:20106C00D84B17603268920808D2324652F8042C03F14104120C42F0F00222704FF0000A74
:20108C008346C1F800A0DFF88CC3DBF80810E04F0191880E43D2480E41D3802018744FF6CA
:2010AC00D802A3F8512018703868C0F30464162CA8BF203C1E460F3E307800F01F00162850
:2010CC00A8BF2038844223D0624602F1980EE44ACEF800A0251A022D05DC15F1020FB8BFDA
:2010EC006FF0010500E002254019156800F01F05844245F4F855A6F866504FF00105156034
:20110C00E8D110682E4616601068CEF80050106838460068C0F30420162808DB06E0A7F146
:20112C00D0000068C0F30460162800DB203800EB2170401C162805DA10F10A0FB8BF6FF0FE
:20114C00090000E01520D54E00F01F0040F4F850A3F85900306880083ABFD148C0F800A039
:20116C0041F040616246C80E8E0E80F0010000F00100106086F0010000F0010090600198B4
:20118C0006F052FE0146182008F066FCA7F13806CD4C30683568A4F10408C0F3870105F02F
:2011AC00030041EA0021D8F80400C04D446840F2FF32534688B22C21009028464038A04767
:2011CC00F06AC0F30D011C2008F046FCB549706A014000F07C400143142008F03DFC316A69
:2011EC0001F47C000904090C0143102008F034FC7D4AB06A1268C0F30351C0F303445208FE
:20120C0013D2DBF80020130511EB237103D41029A8BF0F2100E05146120414EB227403D4A2
:20122C00102CA8BF0F2400E0544644EA011400F47F4200F0FF01B9F1220F42EA044241EAF2
:20124C00020124BF00F0804001430C2008F004FC954CB9F1220F32BF01202068C0F300700B
:20126C00B9F1220F4FEA400040F0200085F8090126BF2068C0F3407001208D4EB9F1200F92
:20128C0040F0100085F8090138BF514606D33168C80C00F44070C1F384510143282008F0F6
:2012AC00DBFBB9F1200F26BF3068C0F301505046B9F1220F4FEA400040F0600085F80C01EE
:2012CC0026BF2068C0F3C0605046B9F1220F4FEAC00040F0800085F8010126BF2068C0F309
:2012EC0045505046B9F1200F4FEA800040F47C40A5F89C0138BF6F490AD3306801038A1534
:20130C00920501F47C1100F00F00114341EA0031082008F0A1FBCC3F4FF480002860664A37
:20132C00B86D40F21E216FF31F40814216D93868030E03F00F0113F00F0FC0F3034018BFF6
:20134C00491E072805D006280EBF0720801C00F00F0041EA0011A2F108000170DDF804C078
:20136C00CCF381477F1E02D07F1E31D02CE02068810C29D24FF480412960D2F80210430AFB
:20138C00C0F3033703F0800321F08F010B4347EA0301C2F80210D2F80130060A66F3030384
:2013AC00C2F80130116800F0E70721F0E70147EA01000CE09402224300600C404010094088
:2013CC00AC3F0050156208404FF000402A46106005480068C0F3C0070FB94020A8624FF404
:2013EC000070286402E0C046B03F005020684027C0F3C14040F0300085F8C800CCF38150E6
:20140C0080B3401E08D0FFE7401E23D0022122E08813005000002043012008F05BFF0646EE
:20142C000420314606F0C8FD042008F053FF8642FAD12248066826F07F4008F0F9FCD8F8DF
:20144C001400036807214FF06022300E98474FF4806028600321042006F0AEFD09E0C04678
:20146C002C2009400420012106F0A6FD144808F0DFFC203C206800F03F0085F8CB0FD8F883
:20148C000030124ED96830680220884710480D4C076001212160BDE8FE8FC04600000940AA
:2014AC0094042A43FCFCFC008C13005040A00C409813005000803F400A600840A83F005029
:2014CC00BD37860094046042A40100102C20094000600C402DE9F84F68460AF0DEFA032056
:2014EC0069468DF800004FF0004006F0E5FEBE4D694628624FF0804006F0DEFE686220B1A4
:20150C000021BBA30A4609F071F8286A20B10021BFA30A4609F06AF805F13C0005F12801AC
:20152C0005F0D4F9A86110B9BEA009F0ABFD08F0ADFFDFF8B882E14CE148E24FA8F11D0614
:20154C00206030686760C0084FD2DF494CC904F15C004CC04CC94CC00EC9012780E80E0087
:20156C00FF23DA4EE16EB4F86A20C6F8AB3FD848C6F8FF7F05F010F9A06F804742F60B3441
:20158C0042F22B0046F8550CD24946F8514C4FF480730B60002246F8212C46F83D7CC6F848
:2015AC00B37FC6F8F37FD6F8F30F0AF0C7F94746A7F11D02116841F004011160C64A116846
:2015CC0021F0F05141F0345111600AF090FAD7F8FF0F08F02BFB0AF075FA0AF07FFA08F033
:2015EC003FFB0AF072FA0AF07CFA0AF0A7F9BB49A1F10C031A685B68120442EA134208327A
:20160C00CA604FF480370F610A6842F4A0220A60D1F8F02F22F01F0242F02502C1F8F02F0A
:20162C000AF065FA002008F035FB4FF001084FF47F61AC4E0180AA49A0F8028040460E6016
:20164C0004F066FFAC49A84A28690968B2FBF1F10AF0B1FA286909F0D1FE05F1300005F193
:20166C00480105F033F9686118B979A009F00AFD68699E490AF020F910B17DA009F002FDA0
:20168C009E4C9C4E4FF0000B6BE0002869D0A269E1888A4218D1A168491CA160491E032949
:2016AC0098BF521E0CD95846607008F0C3FE584608F0D6FE404608F0D3FB4FF0FF3260784D
:2016CC00E168A261491CE16000284AD0E788A088B8423CDD864800680168A761A9B10620F9
:2016EC008847011C11D00420087081F801B08F703B12CB705A4681F804807D4F4A71386800
:20170C00436813B12046062298472878B4F806A0B4F80490E76801280CD05946286A85F8AD
:20172C0000805EA30A4608F061FF286A59460A460AF0AAF8A5F806A0A5F80890E868EF613F
:20174C00022106F087F8502008F08AFE06E0584608F086FB84F801B084F80280A02008F015
:20176C0069FEE8684FF0FF325946134603F0B0FD0746780826D3D5F818A0062009F068FECE
:20178C00D94600B9C14606214A46504608F04CF87068B5F804904FF0FF3104F08FFB414648
:2017AC00B068A6F8029006F055F8F0684FF0FF3104F084FB7078012802D0706806F01CFD8E
:2017CC0001F040FFB80801D301F03CFFF808C8D3A06A0742C5D0A178607800293FF455AF39
:2017EC0009F072FEBDE8F88F500B00202D10094057616974696E6720666F722053434520F2
:20180C004144432072656164696E672E2E2E00C057616974696E6720666F72204144432E60
:20182C002E2E00C04572726F7220696E697469616C697A696E6720626F61726420332E336F
:20184C005620646F6D61696E2070696E730A00C04572726F7220696E697469616C697A698A
:20186C006E6720627574746F6E2070696E730A004572726F72207265676973746572696E81
:20188C006720627574746F6E2063616C6C6261636B2066756E6374696F6E00C057616974F1
:2018AC00696E6720666F72204E6F6465204657207570646174652E2E2E00C046901700201A
:2018CC001F7A0000FD860000D8C9000055500C4000000E4000100E400030094014200940AC
:2018EC00EC360020E9B4000080C3C90191A70000FC1900202005002074CE0000781600204E
:20190C002DE9F843DFF828830F460446F80B80F07481DFF81893B80F80F02D81C54DB808A8
:20192C0080F02281F80A80F00081B80B80F0EE80780B80F0C080380C80F0AF803809C0F0ED
:20194C007F81082009F0CAFF002840F0A180802009F0C4FF002840F09B80684605F002F8AC
:20196C00012803D10098002800F0928000240125E0B209F08BFD48B1867A3EB1857290F9D7
:20198C00090005FA00F0C0B208F0E8F8641C032CEED34C4603202075606878300AF0CBF812
:2019AC00AB48002601680660AA4950F8082CB146324640F8089C04F138000AF0C6F830461E
:2019CC0009F082F809F030FD0146A268E069891A090BC1F1FF3282422CBF08444FF0FF30C5
:2019EC00E06194F820601EB12169B0EBC12F1FD909F0CAF8494600B12946081C14D0964862
:201A0C0040F60901018049464180427B65F303024273027B61F303020273416009F01EFED9
:201A2C00418811F4406FFBD084F820504946E16107F046FE89484D4649460560022008F0E8
:201A4C0015FF022008F070F8112004F001FB207818B9606840300AF080F88148007810B9A6
:201A6C000E2004F0F5FA94F8210020B184F82150052008F059F87B48B4F98C60A061B4F966
:201A8C008E1025758E4214BF0220072005F070FC27F0080706F0F0FAD2E00835296839B145
:201AAC00C86840880028FBD0C86840880128F7D027F40047EEE707F0D3FE38B12046A469EC
:201ACC006FF4807100224FF00073A04768494C46002204F138000AF038F80220E66820752A
:201AEC0009F0A2FCD4F81C21636804F58E719A4214BF0122002226B1801B01EB8206030B8F
:201B0C00B360002027F48057E060C3E74046066846B1B06830B13069B6F93410B4680022FC
:201B2C002023A04727F400578AE00AF008F84C460546206F064688B1606810B1783009F07E
:201B4C00FAFF3069606009F06FFCE06046484FF40061A06104F1B4000AF007F8284609F047
:201B6C00C6FF27F480676BE002F042FA286808B927F0020764E009F0E2FF0546042008F023
:201B8C00A9FBC8B1207CB8B148460830006898B1064609F049FCE168801BE060000B88421D
:201BAC00E06002D240184008E06040F6C41181422CBFB0F5967FE160284609F098FF07F07C
:201BCC004FFE80B1A56920466FF4807100224FF00073A84725480068002808BF47F00207EC
:201BEC0001D006F049FA2046646900214FF080630A46A04727F0005722E009F0A0FF414693
:201C0C000E68CEB1B16A890816D2B56AB16AA943B16209F06CFFB06880B17DB13069B6F9D3
:201C2C003410B4682A460023A04707E0B02C0020382D0020282D002009F059FF27F48047AE
:201C4C0027B1404639462C3009F08FFFBDE8F883141004407D830000A836002000000460CE
:201C6C00B2CD00009155000075420000202D002041410000BA482DE9F84F0025B94CB749C4
:201C8C00056094F8E200002800F06381012800F02F81B54E02283CD0032840F05A8151F8E8
:201CAC00250CD4F8B8100029A0F5C060C4F8D400B8BF49420028B8BF4042814226DA4FF0C0
:201CCC008057D7F8A4014568B4F8BC0030214FF47F42082300903046A847D7F8A401456802
:201CEC00B4F8C00004214FF4F802122300903046A847D7F8A401B4F8D070456820214FF44F
:201D0C0040620A2330460097A847012584F8D8501AE151F8258C09F0BDFD2F4600B9012724
:201D2C003946924F38680028FCD0B146012609F10409D9F82CA03E6009B109F0B1FDCAF325
:201D4C000720C4F8BC0009F0A5FDAA4600B9B2463B68002BFCD0D9F800B0BAF1000F3E6029
:201D6C0001D009F09DFDCBF38440C4F8C00009F091FDAA4600B9B2463B68002BFCD0D9F862
:201D8C001C90BAF1000F3E6001D009F089FDC9F38120C4F8D000B8F5C061C4F8B81000F0B8
:201DAC009C8094F8D80068B9C4F8D410D4F8C000C4F8C800D4F8BC70C4F8C470D4F8D03012
:201DCC00C4F8CC30D4F8D400D4F8BC30002854BF02226FF0010204F1C8010F6800EB4000C6
:201DEC008018421000EB927207EBA2000860D4F8C810C4F8C43000291CDD1E293CDDD4F860
:201E0C00CC0030B93429B4BF15391E21C4F8C81025E02A29BABFD4F8C8000B381E20C4F86E
:201E2C00C800D4F8C4003F28B4BF401C3F20C4F8C4001FE0D4F8CC00032812D011F10B0F69
:201E4C00C6BFD4F8C8000B30301CC4F8C800D4F8C4000028C4BF401E051CC4F8C4500325A0
:201E6C0008E011F1150FC6BFD4F8C8001530301CC4F8C800C4F8CC504FF08057D7F8A401B8
:201E8C00B4F8C43030214FF47F424568364800930823A847D7F8A40104214FF40032112327
:201EAC00456831480096A847B4F8C860D7F8A40104214FF4F802122345682B480096A847E7
:201ECC00D7F8A40120214FF440620A23B4F8CC60456825480096A84701E084F8D85040F201
:201EEC00FF50404502D8801C40452DD208202EE051F8251C1E4F4BF2F5204843060A38684E
:201F0C00C0F3814001280AD108F0C4FB07F0BAFB09F0CCFC3111C010484306EBE03694F8E9
:201F2C00E50030B91348006820F07F403618760801E084F8E5501048310C06600127416013
:201F4C000E4D8760287808B90B2000E0052084F8E40001F0AFFABDE8F88FC0462D400C40BD
:201F6C002C500C406415002000A00C4000800C40B43F0050102009403C600C4081CC00004B
:201F8C002DE9F04F09AFADF13C0D08900A92388809911E46ADF81800101C08BF002000F08F
:201FAC006C81017800274FF0010B401C4FF0FF39B846DA460A9058E1252940F04D810178B4
:201FCC00401C0A902D2918BFADF8068004D10178ADF806B0401C0A9030291CBF42464346C3
:201FEC0004D10178401C5A465B460A902A29CDF800804D4617D1049330680A9BCDF808900C
:20200C00C01C20F00300001D306050F8044C1978002C009403F101000A9018D5ADF806A068
:20202C006442009413E044460AE0600000EBC4004018A0F130040A9801780094401C0A9022
:20204C00302901DB3A29F0DBCDF8089004932E2929D10178401C2A290A9011D13168CDF8CA
:20206C000880C91C21F00301091D316051F8045C002D48BF454601782B46401C0A9011E0E2
:20208C00454643460AE0680000EBC5004018A0F130050A9801782B46401C0A90302901DB49
:2020AC003A29F0DB02930AB1224604926C2904D04C2918BFADF8048004D10178ADF804A023
:2020CC00401C0A900BA8CDF80C800FAB07906429059379D0692977D0BDF818C0752965D002
:2020EC00782961D06F295DD0702946D0632936D073291AD00A98401E0A900998012812D927
:20210C0061490C68B5F1FF3F03D0A84288BF6D1C00D8099D029508A80AA932466B46A0479C
:20212C003F18039865E0454617E03068C01C20F00300001D306050F8040CBCF1010F01464A
:20214C0008B94FA00146079109F0E6F90390B5F1FF3F4FD0A8424DD9039528464AE030689E
:20216C00C01C20F00300001D306010F8040C8DF82C005D46039558463CE0082035680490A0
:20218C00E81C20F00300001D306050F8041C082210230FA805F006FC401E07904021017035
:2021AC00079823E0082302E0102300E00A233068C01C20F00300001D306050F8041CAA429C
:2021CC00BCBF2A1C04920DE03068C01C20F00300001D306050F8041CAA42BCBF2A1C0492D0
:2021EC006FF009030FA805F0DDFB07900599081A0390009C241ABDF8065000945DB906E085
:20220C0008A8202109AA08F01BFA7F1C009C641E0094F5D50398401EB0F1FF3F03900FD19F
:20222C00BDF8060001281CD10098401E009018D408A8202109AA08F003FA00987F1CF4E7A8
:20224C000798017809AA08A808F0FAF90798401C079003987F1CDEE708A809AA08F0F0F93B
:20226C007F1C0A980178401C0A9000297FF4A4AE089808B14146017038460FB0BDE8F08F06
:20228C00286E756C6C2900C0F4CE00002DE9F04FADF11C0D684609F0B1F900258DF800503D
:2022AC0000F028F910B16CA008F0ECFE082003F089FFDFF81C820120864C874F874EC8F8DC
:2022CC00000038684008FCD33068416802208847C0B200282070F4D0C8F80050082003F0F0
:2022EC00B7FE7F4E707828B3F069294603F0E6FD00B33078012818BF022717D1217806F1F3
:20230C008800017096F8422196F8501101232F4665F3C71263F3450186F8501196F85111A3
:20232C0086F8422163F3C70186F85111F06905F063FF17B14EA008F0A5FE2078207502275B
:20234C00677508F0B1FC04F1FC0AAB4604F21317DFF8989120610AF1150362480593D0F846
:20236C000080A0684FF0FF325946134602F0B0FF0646700821D308F097FC2169E26943461F
:20238C0081422CBF091A411A4B43B3FBF9F15218E26163882061564DE382286820830D205E
:2023AC0009F04CF85D4600B9012584F82050A169E269236A606903F04DFCB0080CD365780B
:2023CC003DB109F023F901F0E1FF10B131A008F059FE584609F06AF9300915D39AF8160079
:2023EC00032811D1404DCDF810B0083D387815F8081F884203D16A6805983946904704988A
:20240C00401C05280490F1D96078F1081DD301281BD094F8251294F82422A068914211DD96
:20242C0001F09CFC10B123A008F02CFE01F0AEFF10B118A008F026FE94F82402401C84F8A4
:20244C00240202E0102105F005FA700989D3012009F02CF985E7C046456173794C696E6B9D
:20246C005F696E6974206661696C656400C046C0456173794C696E6B5F656E61626C6552BA
:20248C00784164647246696C746572206661696C656400C0456173794C696E6B5F726563D9
:2024AC00656976654173796E63206661696C656400C046C0456173794C696E6B5F74726158
:2024CC006E736D6974206661696C656400C046C0A80250422005002008800240CC01001052
:2024EC006810002074CE0000041A0020A0860100285009402DE9F04F8F4C071CADF14C0D86
:20250C0004D104F1480009F079F805E097E82E0004F1480080E82E00607858B1E069002183
:20252C0003F0CCFC002808BF092000F00281606902F076FAE078012811D004F1B80008F017
:20254C0091FF4FF47A60E16CC4F8B80029B1206D18B1C4F8CC10C4F8D0000120E070606D6F
:20256C0000211C22206104F1D40005F087F86FF04F0784F8E57043F60500A4F8D40094F872
:20258C00E00020F00F0084F8E00094F8E10020F00F0040F0030084F8E10094F8E400012522
:2025AC0065F3000084F8E40094F8E40065F3C30084F8E40094F8E4000026B04668F3041071
:2025CC0084F8E40094F8EB0084F8486020F00F0040F0040084F8EB0044F62063C4F8EC30A5
:2025EC0007F00EFC3746052808BF2F1C534904F1B803381C11D1084600F14001B1E88052A5
:20260C0004F58676A6E88052B1E88050A6E8805091E8821086E882100CE0084600F140011B
:20262C00B1E8805204F58676A6E8805291E8825086E8825000F11001B1E8005204F1580603
:20264C00A6E8005291E8025086E8025090E8005604F1380787E80056DFF8E4C0BCE8004ECF
:20266C0004F59A71A1E8004EBCE8004EA1E8004E9CE8005600F1280781E80056B7E8005200
:20268C0004F17001A1E8005297E8015081E80150207904F5867204F1580704F1380110B196
:2026AC00052084F8380004F5487000F07DFB04F18806C4F858618821A4F84C1194F8426153
:2026CC0025704FF0E24294F850116061434665F3C71684F8426165F3450184F8501104F1FB
:2026EC002406C4F85C6104F12C06C4F8606102218DE8060039461A4608F008F8464602A8DC
:20270C00242208234146A66109F048F90BA808F031FEE06948B9404602A90BAA07F0EEFA8B
:20272C00E061002808BF032003D005F065FD6570404613B0BDE8F08F6810002010180020EE
:20274C00681A00202DE9F84F07468748DFF80C8235380068800880F0F28007F09BFF86494E
:20276C0008310B6800251C17641C990D0AD2C0F13E0110F10A0F4FEAE101D8BF08218C4294
:20278C00B8BF0C1CDFF8D8E1990E0FD2590E0DD37246143A1168C1F304211629A8BF2039D8
:2027AC001268C2F30462162A0EDB0CE0684AD2F87C11C1F304611629A8BF20391268C2F313
:2027CC000442162A00DB203A09199346162905DA11F10A0FB8BF6FF0090100E015215D4C5F
:2027EC005D4E01F01F0242F4F8522280326812F0030F18BF0125D20828BF45F002050FB186
:20280C0045F00405424692F90740041B052C04DA9479AC4208BF918870D00F28A0F10F0AEA
:20282C002BDB0AEB0014A4F1F00A4FEA2A29B9F1070F88BF4FF007094E46062E88BF0626D1
:20284C005EF82670042404EB8604764634594FEA9508E41B04F0FF06EF0824BFC4F3072709
:20286C003E444FEA550CAF0824BFC4F307473E446F0828BF06EB146605E000264FEA950865
:20288C004FEA550CB1465EF829E05FEA58070EF0FF0424BFCEF307273C445FEA5C0724BFB2
:2028AC00CEF307473C446F0828BF04EB1E64B6B2ABEB0101AAEB09277E43002906F1800682
:2028CC0004EB1624D8BF012103F0FF0334264E43B1B259434FF6FF73B1FBF4F18B4238BF1F
:2028EC00191C802889B2918005DA10F1800FB8BF6FF07F0000E07F20D07195711948006850
:20290C001F2910604FF0000008D340F2FF128A4206D24908401C8A42FBD301E01F21918079
:20292C00124F114E0F39090940EAC10047EA0001C6F8FB1F0025C6F8FF5FBDE8F88F0C49BA
:20294C000C4F424608200F60921D1070BDE8F88F3C1100506E62084024220840E436002019
:20296C009C130050082009403500094000E7A48030100940FDFDA400AC3F005001282DE9B1
:20298C00FE4F40F0EE80DFF810B2DBF8DC00012840F0E4800220CBF8DC0008F0A5F80120C4
:2029AC0007F02AF95FEA000805D00120CBF8DC0008F0AAF8D7E009F0D4F86C49029000208E
:2029CC000860012007F086FC012818BF002003D1002005F0BFFA0120654900900020654FF4
:2029EC0008603868112008F073FF00280CBF00240124102008F06CFF08B144F002040F2037
:202A0C0008F066FF08B144F004040B2008F060FF30B1624814300068574E016B3088884707
:202A2C000A2008F055FF002600B101264FF0805A0AF5DC75301C04D02868504E016B30883B
:202A4C0088474F48012606602868816944F0200088474C48066008F035FF00F00101019130
:202A6C00400814D2484808F0D9FE8146B9F1040FF8D0B9F1010F05D1DAF8D8014268424802
:202A8C00032190474149086820F0030008600020FFF758FE2B683868986B8047019801288F
:202AAC000DD0B9F1010F05D1DAF8D80142683648314690473549086840F0030008602C487F
:202ACC00066028684169204688470B2008F000FF20B12868284BC16A188888470A2008F063
:202AEC00F7FE20B12868254BC16A188888472448032206602349CBF8DC2000230B6028682A
:202B0C00416B204688470128F9D13868042007F073F8044615481E490660386808688009A2
:202B2C00FCD30098012802D1304605F013FA08F0B7FE082007F060F807460298CBF8DC60A4
:202B4C0007F0F6F81348008804F0D0FF07F0DCFF57EA040018BF4FF0FF3804E06FF004082B
:202B6C0001E06FF001084046BDE8FE8F0C400940000222432C20094086C7000082C7000021
:202B8C0028200860800104430040034024220840141009407CCC000064150020A40100109D
:202BAC002DE9FE4F0D46064628687468D6F80880E8B1AF680FB96B68CBB194F8941000202E
:202BCC00012908BF0120384202D16968084205D0012080F00100C0B2012808D108F0AFFFEE
:202BEC00D4F8881031B108F082FF032028740020BDE8FE8F4FF0010985F81090C4F88850FF
:202C0C0000210191C4F88C10C4F8901008F06FFF94F8AC0038B194F895206149D4F8A4005F
:202C2C00114306F067FF6F6808F089FF824694F8E00070B917F0704F06D12FB1042007F08C
:202C4C0057F9062007F054F9022007F051F984F8E090504608F04BFFD8F80010486840F0C7
:202C6C00020048602078002874D12868D8F81C1081426FD9AE680EB904F1AE066F6837B9B5
:202C8C00B8F80E0004F1AE07A4F8AE002868616909292CBF4FF0020BCB465FEA000930D050
:202CAC00DFF800A16069092811D3DAF8000042683988D8F800009047DAF80000C268D8F802
:202CCC00000069469047BDF80000308010E0DAF8000042683978D8F800009047DAF8000067
:202CEC00C268D8F80000694690479DF800003070AB6803B15E446B6803B15F44B9F10109CC
:202D0C00D0D1D8F80010486820F0020048606F6808F015FF054694F8E00078B117F0704F33
:202D2C0006D12FB1062006F0FFFE042006F0FCFE022006F0F9FE019884F8E000284608F039
:202D4C00D6FE0198D4F888100874C4F888000120019022E02046414601F0DCFDD8F800108B
:202D6C00486940F00100486120780028EFD1616804F16C00054608F01EFC0028E7D0D4F80A
:202D8C008800017C012904BF03210174304602F027FA0199284608F00EFC0198BDE8FE8F3E
:202DAC0000000680C40100102DE9F047044669480E4601681F461546ADF1380DBEB1B5B12F
:202DCC0030784FF0010808FA00F001420FD01046002102F015F96660A56008F0B0FE5E4D50
:202DEC0081462878022804DB484608F080FE0020ADE0002861D101F003FD584908680DF14C
:202E0C00280A40F002000860504608F037FC544E5449707852460C9005F1B40006F0AAFC78
:202E2C00514905F1E800524606F0A4FC504608F0F5FB30784D4A192153460B9005F1380087
:202E4C0006F0E2FB4A4A05F154001A21534606F0DBFB4849002205F19000134606F03AF85B
:202E6C00454A05F124000421002307F03BFCB078012802D10E2003F0A5F905F1780008F0DE
:202E8C00C8FA05F1700008F0C4FA002085F820004FF4FA72C5F824212875072185F8B811CF
:202EAC00E861364B1870C5F8282185F821000526A86033492E612878A96105EB8001401C5B
:202ECC00C1F81C41C0B22870484608F010FE1FB903AF384608F0C6FA38682060B8694146AA
:202EEC002062388A61746082786800280CBF40F6C4100021E06021742248A061E06160618B
:202F0C00F86800B1A061786900B1E061B86800B16061A02204F12800002104F0AFFB04F19B
:202F2C004000002107F044FA684608F0ADFD1649029404F1780000226B4605F0CBFF13494F
:202F4C0004F19C0000226B4605F0C4FF20460EB0BDE8F087D4210840B02C00200020094067
:202F6C00B0CD000071B10000315D00007D8300008574000055AB0000A58A0000FA360020A0
:202F8C00915500005F780000B5AE0000B9BA00002DE9F04FADF1240D079001F031FC604811
:202FAC00007806F02DFF5F4D0024012806D90C3804D0401E0ED0401E09D006E008F08AF8A8
:202FCC00022804BF01210C1C06D0696805E005211F2401E0032107246960534A1068C0F3F8
:202FEC008150012806D152F80C0C0127020E07FA02F0044308F02AFB524AFF234018401E8F
:20300C00471C28607F1E02F8013BFBD1079A1268002702F0FF03FE2B20D0DDF81CC096463E
:20302C003B4601260EF0FF02FF2A10D0904205D3914203D806FA02F2144201D002206CE0F3
:20304C0017430EF0FF02DFF8FCE00EF802305CF804EF5B1C0EF0FF02FE2AE5D1092003F069
:20306C00B1F807980121A86005F1280007F0A0F905F19806A8464FF0010A4FF0040B0025E5
:20308C00A9460AFA05F0044216D1074204BF05F0FF0141F4C04104D02A480799405D51F80C
:2030AC002010224802F0DEFAE8B24FF0FF3107F0DFFEC6F8009001E0C6F800B0D8F8000056
:2030CC006D1C361D8542DCD904A808F0A7FA184C184A2078102104AB059008F10C0006F079
:2030EC0093FA684608F0CAFACDF80C906A4660681149029008F1640006F03CFB0F4951F8DD
:20310C000D0C20F4F85040F4005041F80D0C0C4FC1F8FFAF4846C7F800A009B0BDE8F08FCC
:20312C00FB36002050140020B43F0050007FC767E0CD000099AE0000559400000D3009405B
:20314C0008000940941400202DE9FC4F83F0004301E02DE9FC4F1F03FF0847EAD2574FEA35
:20316C0042284FEA43095FEA595906D147EA080A1CBF00210020BDE8FC8F57F000575FF402
:20318C00E06E1EF1FF0EF14505D14FF00000190D0905BDE8FC8F002B05D55FF0000AD8F1E3
:2031AC0000086AEB07070C03E40844EAD0544FEA40254FEA4106760D08D144EA050A19BFBC
:2031CC0000210020191C101CBDE8FC8F44F00054764504D10020090D0905BDE8FC8F00295C
:2031EC0004D55FF0000A6D426AEB0404B6EB090E08D5A2463C465746AA464546D046CEF199
:20320C00000E4E46BEF1360F5CBF4FF0000B23E0BEF1000F04BF4FF0000B1AE0CEF1390ADD
:20322C00BAF120092EBF08FA09FB07FA0AFB4BEA080BDEF1200A07FA0AFA38BFBA4647FA37
:20324C000EF72DBF28FA0EF8AEF1200E4AFA0EF8D04415EB08057C4154EA050A02BF002125
:20326C000020BDE8FC8F002C58BF4FF0000A06D55FF0010A5FF0000E6D426EEB0404A6F12D
:20328C0001066D006441FAD515F4806E11D005F480794BEA090B15F5806554F1000428BF08
:2032AC00761C0BD205F400795BEA090B08BF25F4006525F4E0656D0044EB0404B61CDEBF12
:2032CC0000210020BDE8FC8F5FF4E06E1EF1FF0E76450AD34FF0000013F00043FF21C900AE
:2032EC00C91D09051943BDE8FC8F270547EA1530210B41EA065141EACA71BDE8FC8F7047A5
:20330C002DE9FE4F984692460D46834608F017FC0290654806680CAF5E450CBFD0F804902F
:20332C00B146634C6FF00100B9F1000F019006D009F19C0008F05AF9002840F0A48007F007
:20334C0083FA061C00F0AA800BF1780008F0F3FBF560B4F98C009AF80430401C86F83630BA
:20336C006FF31F30A4F88C00C6F80880B4F88C00B0864E48C6F810B097E80C0020210027AD
:20338C001940104006F1180383E80300B84686F8377006F1200282E880013763F762DAF80C
:2033AC00003003B13363287B00F00F00022804BFA868F062F06800886FF30900B0F5205F27
:2033CC0005D196F8370040F0100086F83700D4F84401834507D194F85001410824BF00F0A7
:2033EC00FE0084F850013846CDF80080484528D05846494632466B4602F0C2FB8046B8F13A
:20340C00010F04D104F17000314607F03AFBB8F1020F0BD100990A6804F170001AB9314663
:20342C0007F01EFB02E0314607F009FBB8F1040F04D196F83610009807F088FE38F0040076
:20344C0004D104F17000314607F00AFB18F1020F10D018F1030F0DD0B6F9340096F83750C9
:20346C00019045F0800086F837008BF8C07007F085FE13E0B4F98C0000F6FF706FF31F30D6
:20348C00A4F88C0002E06FF00200019094F8500140F0040084F85001C4F844B1029808F003
:2034AC0026FB0198BDE8FE8FCC2D0020FDEFFF9FB02C00202DE9F843614C5A4D5A4EDFF851
:2034CC0070815E4F94F8E4100846401E0B2864D8DFE800F07B2C430623430623430676644E
:2034EC00042907D001220A2945F8212C14BF0220032004E0202045F8210C0120024684F851
:20350C00E200002045F8390C0827C5F8FF7FC5F8F37F45F8392CBDE8F883052914BF092096
:20352C000620002784F8E400376075E094F8E170383D0120002FC5F81B0004BF0620002162
:20354C0002D00021F160032084F8E400032045F8010C3160306880085ED294F8E41033484F
:20356C00012703290ED00068456800216022052300914046A84794F8E400062814BF0A208C
:20358C000720CFE700684568002160220523022000904046A8470420C4E7FEE72548264FA5
:2035AC000026012506600E203D6002F051FD022006F0BAFA84F8E45084F8E360BDE8F883E7
:2035CC00002038600C25786024E04FF08059D9F8A0010168202088472C3D0F2045F8010C36
:2035EC0041F61D56C5F80360D9F8A401466800214FF4C0720723022540460095B047D9F807
:20360C00A401C66800214FF4C07207234046B0470120386084F8E45004F1780008F089FA3D
:20362C00BDE8F88339400C4038600C40A401001000A00C402C500C4004800C4034600C409C
:20364C00641500201CB55F4CA07810B95E480078A0702178012913D0206A08F009F9A078F8
:20366C000090206A002126A30A4606F0BFFFA0880090206A0121002225A306F0B7FFA07824
:20368C000090606A002125A30A4606F0AFFFA0880090606A002128A30A4606F0A7FF2078F5
:2036AC00E2882189D8B994F90100B0F1FF3F26D0616AC0B248B1401E04D0401E14BF24A396
:2036CC0026A300E029A3084615E0084600212BA30A4606F08BFF606A08F0D0F81CBD009224
:2036EC000191606A2CA300210A4606F07FFFE0690090606A2DA300210A4606F077FF1CBD85
:20370C004E6F646549443A2030782530327800C04144433A202530346400C0461B5B324AC2
:20372C00201B5B303B30484E6F64652049443A2030782530327800C04E6F646520414443A2
:20374C002052656164696E673A202530346400C04F41443A206572726F7200C04F41443A56
:20376C0020435243206661696C6564004F41443A2061626F7274656400C046C04F41443ADD
:20378C0020636F6D706C65746564207375636365737366756C6C79004F414420426C6F6387
:2037AC006B3A202564206F66202564004F414420426C6F636B20526574726965733A2025B5
:2037CC006400C046500B0020200500202DE9FF410646880FC0F0A780002005F00DF95348ED
:2037EC0007F03CFF012007F06FF9514A40F60A01118000205080137B60F303031373506091
:20380C00537B4FF0010868F303035373B56868802B88A3F60207A7B141F21E03FF1A10D060
:20382C006B7E60F382036B76777C37B92B8B23F47C7343F434732B8313E02B8B60F3091397
:20384C00F9E76B7C60F382036B74777C2FB92B8A23F47C7343F4347302E02B8A60F3091364
:20386C002B828E4670742F46AEF1070101F1010C00E027467C6834B123889E4503D099426A
:20388C0018BF9C45F5D17A602C4C7B7B241F60F303037B73236F33B1DB681B8899421AD0AB
:2038AC006146994217D0338DB3B1F06206F12801488096F8343060F3030386F8343096F87A
:2038CC00353068F3030386F835305160517B60F30301517300E0A0602846694602F00CF8A8
:2038EC00684607F0ABFE07F0C7FD1248A06194F8210058B9404606F0EDFC01280CD0787B3D
:20390C0068F3030078730C4EA66105E005F0F6FE0028FBD008F01DF9284607F09FFE2946B1
:20392C00404606F0A3FF0090BDE8FF8101010E04A83600200D190000558A0000B42C002091
:20394C002DE9F84F804692460868DAF80040067800271D46BB46421C242E0A6026D110F8BC
:20396C00016F521C532E0A6020D1E41C24F00304241D54F8040CE861CAF80040288B00903B
:20398C00A968EA69D8F800005346FEF7F9FA8346D8F8000010B15844C8F80000DAF800409E
:2039AC002868EF600127A0EB0B002860662E05D0002F64D1E869067001205FE0288B40B936
:2039CC00E41D24F007040834A4F1080090E8000309E0E41C24F00304241D54F8040C05F0D1
:2039EC0077FF894680462AA20CCA4946404603F039FC28BF002705D2286989F00049012771
:203A0C00401E286124A20CCA4946404603F06DFC31D3404605F0A6FA064606F0E9FB0B4610
:203A2C00024649464046FFF78FFB1DA20CCA01F073F905F01DFC0146686904220A2303F03F
:203A4C00B1FF401EE8612E2101706B692A69E86931461B1AEB60D21A0A2303F0A3FF002FB7
:203A6C0008BFE86104D0401EE8612D210170E8696969081A02E004A0E8610720E860CAF8AB
:203A8C0000405846BDE8F88F286572726F72290000000000000000000000C0FFFFFFDF41B8
:203AAC00000000000088C3402DE9FF4104466668A7680D4608F043F83178012903D108F0CD
:203ACC0016F800208CE00121317008F010F8287870706878B07068687060A868B060E868ED
:203AEC00F06028693061287D3075687D7075A87DB075A869B061287F3077687F7077A87F85
:203B0C00B0774FF00008C6F82080C6F83080454675627563B562B56386F82C5086F82D5001
:203B2C00786802F04FFB204602F0A0FC204602F065FF70B92C480068C16838688847786830
:203B4C0002F086FA07F0FBFF357007F0D0FF2C4645E0684607F062FD0094387B234A0190AB
:203B6C00B9686B4606F17C0005F04EFD684607F085FD00941E4938696A46029006F1980020
:203B8C0005F0F8FDB07830B906F1CC00294606F00FFC18483061707830B906F1E8002946DB
:203BAC0006F006FC1448F060684607F06DFF01958DF800501149029406F582700A226B461F
:203BCC0005F088F9B969FA6906F13C0007F0EAFC0B4A06F168000421234606F083FD2046B0
:203BEC000090BDE8FF81C046D0010010B53E0000A16A00008DBA00006DBA00009190000090
:203C0C00A9B70000B0B5456884684F48297BADF1180D012916D0217E627E4C4B2F7E014325
:203C2C00009143EA02010191494937F0010718BF081CA27E1043029095F895000322FF28F6
:203C4C0011D00DE0677E217E3843A37E019041F00041009143F000403E49029095F8950028
:203C6C00014304220391FE204DF82200694605F1980002F02BFEC5F8A400002808BF0020ED
:203C8C005FD0287B344951F8200001282BD02068B0F1804F14BF22220A22217ED5F8A400F1
:203CAC0006F044FB2068B0F1804F14BF21220922617ED5F8A40006F039FB2068B0F1804F18
:203CCC0014BF24220C22A17ED5F8A40006F02EFB95F89510FF2933D02068B0F1804F14BFBA
:203CEC0023220B2228E02068B0F1804F14BF21220922217ED5F8A40006F018FB2068B0F1C3
:203D0C00804F14BF22220A22617ED5F8A40006F00DFB2068B0F1804F14BF24220C22A17ED9
:203D2C00D5F8A40006F002FB2068B0F1804F14BF23220B2295F89510D5F8A40006F0F6FA4D
:203D4C00012006B0B0BDC046000480A0004000800004C0A000200080ACC8000070B5514CEF
:203D6C00183C6078ADF1180D002808BF012000F09480E069002102F0A1F8002808BF092027
:203D8C0000F08B80464D2278287B16468028C8BF022000F3828004F5B270294602F0FCFC36
:203DAC002A7B301905F10D0100F5B27002F0F4FC04F5B271287B94F84830C4F88410801960
:203DCC00042BC0B284F87F0004D080190A308100192004E08019502101EBC001052091FB8E
:203DEC00F0F6A86888B994F87C10002060F3030184F87C1094F87C10012565F3C71184F8FF
:203E0C007C10A06704F068F90FE094F87C1021F00F0141F0020184F87C1094F87C1001250C
:203E2C0065F3C71184F87C10A067B1B24FF47A6202FB010002902079626960B902204FF047
:203E4C00E2418DE803000023104604F170012A4602F068FA0DE08DF80C5002204FF0E241C6
:203E6C0000238DE80300104604F1700102AAFFF747FA0146606902224FF0E24301F038F942
:203E8C000025022215EA010602EA000204BF002A0525E06904F0B0F9284606B070BDC04685
:203EAC00B4060020801000202DE9F84F8046D8F808603068D8F80450076CDFF830B147647F
:203ECC00AB6B6A6C286C17F4F06F1946A0EB020934D1F8091ED2780974D3B1B196F8212008
:203EEC005846801D845C601E814294BF1C1C641E4046214605F0D0FCA86B001BA86361D134
:203F0C0005F19800012107F030FE4046494606F01FF857E00029F8D0404605F0BDFC95F8B5
:203F2C002D10A86311B900284CD101E00020A86305F19800012107F018FE43E0F80A20D23E
:203F4C004FF0000A544602E0AB6B5B1EAB6393B14046012105F0A0FC3068446814F00F041B
:203F6C00C0F804A0F0D0286B401E2863686B401E6863A86BE8B905F19800012107F0F5FD54
:203F8C0013E0306844680022202904F00F044260CCBF4FF0200A9A464046514605F07CFC6C
:203FAC00CAF120008145C8BF81464946404605F0CFFFEC77404603F001FE726A12B140462E
:203FCC0021469047B8090FD3A96A69B10F46404605F0EEFCA86238B996F820205946895CC0
:203FEC004046C91904F0A8FDBDE8F88FF8C700004E492DE9F843886F8D6F01F17809002853
:20400C0000F091800646F06840F6030220278846531C02E040687F1EFFB260B15FB10188AE
:20402C008A4218BF8B42F5D131691CC828311CC189C881E88900AE68AA6A0027AF6236B3FC
:20404C0095F8370000F00700401E0BD0401E06D0801E18BF002308D14FF0805304E04FF086
:20406C00804301E04FF000533A4695F83700000908D395F8370010F0070F03D04FF08070FA
:20408C003A430343AC682869B5F93410A04707F056FD0446B8F98E00401C6FF31F30A8F853
:2040AC008E00484685F8377006F0B8FC204607F01EFDB8F98C00B8F98E10884233D12869A7
:2040CC0090F8C00000280CBF0520072003F050F908F58E7128690E68864208BF4E6890F841
:2040EC00C040002C0CBF04683C1C80F8C0704EB196F8C03023B93068A04228BF041C01E096
:20410C0086F8C07064B1B4F1FF3F0CD00849286909687830B4FBF1F107F04FF9BDE8F88326
:20412C00082005F01BFDBDE8F883C046B02C0020F03600202DE9F0414A4DD5F88070D5F86E
:20414C008440002F00F08280B86940F00A0006F0D9FF010924D2810800D30CB307F1180218
:20416C0092E81800002103400C4008BF002B71D0BA69BE6A07F1200410403043B86294E8FE
:20418C000C00C5F8887007F120061943104386E8030005F1B4004FF4804107F0E6FC59E054
:2041AC00B969BE6A41F00A0108403043B86207F1200696E80C000021002619431043C5F83D
:2041CC00806007F1200383E80300254BBA69196891431960FA6953F8081C05F17800804603
:2041EC00914343F8081C394606F03AFC05F1B400022107F0BAFC6CB320693969884229D14D
:20420C0094F8371097F83700084310F0070019D041080AD2810839BF94F83710084394F86E
:20422C00370040F00200024603E094F8370040F0010284F837204046214606F011FCC5F868
:20424C00846007E0022001F061FF03E04FF0FF3006F058FF02F0B8F801F096FEBDE8F08139
:20426C0014100440B02C00202DE9FF410546080B7FD3414C60680421026A2175D20802D39D
:20428C00C369002298473D4904F13800002207F05CFC3B486768A0617968886808B9C868AC
:2042AC0010B1384807F0DAF9012004F0A5FB364807F0D4F9D5F808800020A8F80200A968C8
:2042CC000A88A2F6020747B141F21E02BF1A04D00A8B60F309120A8303E00A8A60F3091232
:2042EC000A8240F60A064246F11F01F1010C00E03A46576837B13B889E4203D0994218BF1A
:20430C009C45F5D15060537B012666F303035373236FDB681B8899421AD06146994217D07A
:20432C002F8DB7B1E86205F12801488095F8343060F3030385F8343095F8353066F30303A0
:20434C0085F835305160517B60F30301517300E0E0604046694601F0CFFA684607F06EF9BC
:20436C0007F08AF8404607F079F94146304606F07DFA0090BDE8FF81B02C002075AB00008E
:20438C000D1900005100070601010E042DE9F041434C6078ADF1180D002808BF01207CD0AC
:2043AC00E069002101F08AFD20B1B4F90600A769002801D4092070E03A4804F124018926BA
:2043CC00E06004F5F872C4F85C1104F12C03A4F8F66101250A60002094F84011C4F8603114
:2043EC00064684F8F40160F3030184F8401194F84011A66265F3C71184F840119846C4F854
:20440C003C0167B994F8531165F3030184F8531194F8531165F3C71184F8531110E094F88B
:20442C00530120F00F0040F0020084F8530194F8530165F3C71084F8530103F04DFEC01905
:20444C00C4F8540131460C22404603F017F904F59A7127796069144B0A6A47B902274FF069
:20446C00E2482A468DE8800101F05CFF0CE002928DF80C5002214FF0E2428DE8060004F5F9
:20448C009A7102AAFEF73CFF0028E08004D5E06903F0B2FE062000E0304606B0BDE8F08194
:2044AC0068100020A5860000B55A0000364AF8B5101D0368B3F1FF3F08BF002306F0A0FCFB
:2044CC00012860D1314E10683268070F02F0FF02802A28BF002206F093FC4FF0FF3101280C
:2044EC0005D1381C4FD0801E04BF143251B2142949DB27482749002501270560264E0F60E8
:20450C00264C376020680028FCD1274A161D2449244F306820F0030001433868C0080CD250
:20452C00106810F0030F0AD041F003003060106800F003000328FAD101E041F001011B486F
:20454C003160006820B11A4800681846FCF778FD184819490560194F0A686FF35B4247EAC4
:20456C000200086016490868C0F30130012806D10A681448104040F400320A600860206834
:20458C000028FCD1F8BDFEE718130050A0100050840460425C600C40082204430C006842AC
:2045AC0004000020B03F00500040034080012843000120438C2108404820034000003901DF
:2045CC0004000940FFFFFCFC2DE9F04304466568A7680E46ADF1140D07F0B1FA95F8E110EA
:2045EC0019B107F084FA00206EE04FF0010985F8E19007F07CFA4FF00008C5F888803069B9
:20460C00286170696861307E2876307B287330782870706885F8AC806860706941460928B7
:20462C0028BF494685F89410387B01F0CBFD204603F0DAFFF87E85F895002046FFF7E2FA79
:20464C0030B9387B01F004FD444685F8E1803AE0684606F0E3FF009478791D4A0190397989
:20466C006B4605F11C0004F0CFFF684607F006F800941849B8686A46029005F1380005F08C
:20468C0079F803F0D1FEC5F8A800287B012808D1D5F8A400104907F00FF9D5F8A40000B1E6
:2046AC0084600E4A05F1CC000421234606F01AF8287830B905F16C00414605F079FE08482C
:2046CC0000E0B068A860204605B0BDE8F083C04665660000A96E0000F591000031B9000043
:2046EC0065BA00002DE9FC4705466E68D5F80880B76B002F18BF4FF0FF307DD13163002424
:20470C00F477171C74631BD006F13C0907F017FA82466946484604F096FF00281ED45046AB
:20472C0007F0E5F99DF80000316B0870306B736B7F1E00F10100306303F101007063E5D1D6
:20474C007078726B316B0128A1EB0201316303D1F36828469847726B14464CE0B763504611
:20476C0007F0C5F907F0EBF9244D0746287820B9022005F0BDFB01202870384607F0B7F9B9
:20478C00D8F80010086B40F400700863D8F80010886B40F4FA608863707808BB716806F1E4
:2047AC00E807384606F007FFB8B1B4633846214606F001FF88B107F0C2F90746287818B188
:2047CC00022005F0B1F92C70384607F090F91027716B306BF777401A3063706BBDE8FC8766
:2047EC0096F82D0038B1706B28B1B46306F19800012107F0BAF92046BDE8FC87F836002007
:20480C002DE9FF47424C94F8E70000286ED10127384E84F8E770F07C84F8E6007568C4F8E0
:20482C001051684607F030F9002504F10C0001956B468DF80050304902952A4604F04AFB42
:20484C002E4904F130006B462A4604F043FB2C4904F154006B4681462A4604F03BFBB16874
:20486C0038468847DFF8A4802648327D08F104030078254E1868C0F3815A22B1BAF1030F3E
:20488C0004D184F8E170BAF1030F15D0BAF1020F12D0BAF1010F0CD0022005F029FB042034
:2048AC0005F018FD012804D030683221B1FBF0F10DE004F07DFF12E0022005F019FBBAF148
:2048CC00030F0CBF4FF47A7142F210713068B1FBF0F1484607F02BF9484607F02AF9404610
:2048EC000068C00802D2284605F002FB00200090BDE8FF876CCC0000CF7D0000C1650000C3
:20490C00997C0000FB360020F0360020B03F0050641500202DE9F84FD0F88890D0F88CB0C6
:20492C00D9F80020A2EB0B02B2F5806F88BF4FF48062C0F89020D0F8908090F894C00C684E
:20494C001FFA88F2B4F1804F02FA0CF21FFA82FA14BF314B314B2D4AD9F808703FB94FEAF9
:20496C008C050095AD18AE6900F1AE050AE04FEA8C050095AD182E690CF101050BFB05755D
:20498C0055446D1E9E6096465D604FEA081643F6F07204F10805103E1D6032409E68B4F174
:2049AC00804F42EA06069E600CBF194E194ED9F804706FB9CC89009BA0F8AE4073449B69AF
:2049CC00B36000F1AE0737600C6804F108050AE0009B73449B68B3600CF101030BFB037336
:2049EC0053445B1E33607560B3681A43B260D0F8A8000A6940684969006811438162606A03
:204A0C0040F003006062BDE8F88FC046ACC8000040040020100500200005002030040020DD
:204A2C002DE9F0413D4C05462078002872D0B4F98E00B4F98C10884215D0284605F0A8F817
:204A4C00021C08D1D4F88010284606F00FFE08B1D4F880203AB1B2F9341028464FF0E043B7
:204A6C00002200F045FB07F06AF8804604F58E700168A94219BF00264660002606602078A6
:204A8C00401EC0B2207088BB6560207D02280ED1082005F063F8404607F029F805F14000B0
:204AAC004FF0FF3106F087FD07F049F8804604F1B40007F054F804F1380007F03EF804F1C8
:204ACC00E80007F04CF804F1540007F036F804F1900007F026F804F1240006F025F80E481D
:204AEC000078012802D10E2001F0B2FA606805F14007854208BF6660404606F0F8FF384621
:204B0C0007F029F805F1780007F00BF805F19C0007F007F8BDE8F081B2CD0000B02C0020F0
:204B2C002DE9F0478046D8F80450D8F8087091460E4607F004F882463868006B400A63D27A
:204B4C0005F5827006F0F7FF0024EC772E6250466C6206F0CCFF06F0F2FF2F4E337882465E
:204B6C0023B9022005F0C4F901203070504606F0BEFF3968086B40F48070086340464946B7
:204B8C0004F016FFA862C0B94046494603F0D4FFA878C8B9A96805F1CC0006F00CFDE0B19E
:204BAC00AC621020E8773946284602F0DDFD06F0C6FF8246307838B322E03968886B40F0B7
:204BCC0020008863A87810B12046BDE8F087A96805F1CC0006F0EFFC10B9686ABDE8F087F0
:204BEC004046494603F0A8FF1020AC623946E877284602F0B9FD06F0A2FF8246307818B1F8
:204C0C00022004F091FF3470504606F070FF4FF0FF30BDE8F087C046F93600202DE9F0431B
:204C2C000646DFF8E880DFF8E8903078394C88F80000D9F80000154641F204010C22ADF1B1
:204C4C001C0D00F00F008002E060684601F0A4FDE979A87900EB0122171100EB01208000D9
:204C6C00A0EB8710A080EA79A87900EB0223191100EB02208000A0EB811082B20AB1491C2B
:204C8C008FB2281D6979007800EB0120ADF80C00BDF80C00ADF80E3042460021430807D3F9
:204CAC00BDF8003000F0010003F00103984203D0B7F5707F00DC07B981B106F0F4FED9F84C
:204CCC000030A06003F00F039B02B0FBF3F0E08006F03DFF002818BF678001D161800F46E8
:204CEC009780D1801FB9304605F0D2F80AE00123537091603046D160194605F0C9F8A020F5
:204D0C0005F098FB07B0BDE8F083C0467816002030240340041C00202DE9FC4191EA0308CC
:204D2C004CBF4FF000484FF000084FEAC32545EA52554FEAC2264FEA43077F0D11BF45F062
:204D4C00004500210020BDE8FC815FF4E06E1EF1FF0E774555D04FEAC12343EA50534FEADB
:204D6C00C0224FEA4104640D11BF43F0004300210020BDE8FC81744543D0E419A3FB050140
:204D8C00A3FB06E7A2FB06631EEB030E57F1000751F10001A2FB05631EEB060E57F1000759
:204DAC0051F10001FF1851F10001C01951F100014CBF4FF4806E4FF4007E10EB0E0051F1E6
:204DCC00000148BF641C01D4400049415FF44077FF37E41BDEBF00210020BDE8FC8117F555
:204DEC008067BC420DD24FEAD02040EA41504FEA41014FEA113141EA045141EA0801BDE8B0
:204E0C00FC810020FF21C900C91D090551EA0801BDE8FC812DE9F84F00298346009106DDE3
:204E2C00024600980021401E42F8041BFBD10098DFF8C880DFF8CC900028C8F800B012DD71
:204E4C002F48009C0768002537F8020B38B1D9F80000AE003158002088474BF80600641EB8
:204E6C0005F10105F0D1284F41460120D7F80080C880B8F1000F22DD4FF0000A00980127F3
:204E8C00002817DDABF104060446002556F8040FB0F1FF3F04D0D9F80010695888473060C0
:204EAC000021B0F1FF3F08BF01212D1D641E01EA0707EBD137B90AF1010AC245DEDB04A022
:204ECC0006F0E0F80D4900200860BDE8F88FC0467864632E72756E74696D652E53746172AF
:204EEC007475703A20276D61785061737365732720657863656564656400C046741C0020E3
:204F0C00D0CE0000D4CE0000CCCE00002DE9F84F0F46824602F00106C2F34009C2F38008FD
:204F2C0006F00DFE334C03258346B7F1FF3F0AD1D4F88010504606F099FB00280CBF276F2E
:204F4C00D4F8807005E039465046002204F0F4FB0746002F48D097F8370030F07F0042D07F
:204F6C00D4F88000B84212D0504639464A46434601F0BCFE002836D0207D012831D0042803
:204F8C002FD004F1B400022106F0EFFD29E097F837100120002E00FA06F040EA010087F890
:204FAC00370014BF1448154805F088FBB8F1000F0ED097F8370040F0080087F837003E69B9
:204FCC00C4F8446194F8500140F0010084F85001B9F1000F05D0216F50464A46434601F0CB
:204FEC0085FE832500E00425584606F080FD2846BDE8F88FB02C00200100020401000104BD
:20500C00F8B501460888A0F6020058B143F20402801A04D0401E64D191F8246000E002260E
:20502C00CF6901E0CE7B4F69002F5AD000213C1F052244F23805084654F8043FB3F1FF3F1C
:20504C004FD01B041B0C9D4206D0521E01F1040100F10100F0D144E08446BCF1050F40DA47
:20506C007A58224B3046C2F30344401F17D01E49401E0FD0001F0BD0801E07D0C01E0AD062
:20508C000F381ABF191C6031091D04E0091F02E0083900E00C390868C0F3834003E019467C
:2050AC000868C0F303200F2806D0A04217D922F4702242EA004210E0761F0AD0761F08D0DD
:2050CC00761F06D00F3E1CBF22F4702242F4802203D122F4002242F4E02247F82C200020C2
:2050EC00F8BD0120F8BDC04604110050201300502DE9F8439946904604460E1C44BF00208E
:20510C00011C68D406F02DFD054631468022204604F012FB071C04D097F8370030F07F00E3
:20512C0003D1284604F004FE53E097F8370010F00F0F46D100200A2107F1200640EA090958
:20514C0041EA080896E8030008EA000019EA010608BF002820D0284604F0EAFD07F120004B
:20516C0003C804F1700604F1700508EA000809EA010986E8000395E80C0007F1200696E8F6
:20518C00030007F120059943904385E80300703494E80300BDE8F8831048B968884202D06C
:2051AC00B968A166B86004F1600080E80003284604F0BEFD04F140004FF0FF3106F0FBF938
:2051CC00E5E7284604F0B4FD97F8370010F00F0FFAD102200021BDE8F883C046D983000070
:2051EC002DE9F84306467468B56806F0A8FCD4F88810002963D00F4606F079FC29684868B2
:20520C0020F0020048602968486A20F0030048626869D4F8A8302969084359680968C1F88B
:20522C0004052968486920F00100486128684FF00108C0F82080304605F07CFA7E6806F070
:20524C007EFC814694F8E00078B116F0704F06D12EB1062004F068FC042004F065FC0220D8
:20526C0004F062FC002084F8E000484606F03FFC387C012804BF022038742969D4F8A830F1
:20528C0068694646084306FA00F158680068C1622868B0F1804F14BF0B490C49D4F8902026
:2052AC00D4F88C00896880188904A0EB9150401E386004F1380006F05AFCBDE8F88306F083
:2052CC0016FCBDE8F883C04600050020300400202DE9F0471E46904689460746B6F1FF3F89
:2052EC00ADF1480D09D046B1314909AB6846324605F070FA0220694601E0002103200C9199
:20530C008DF834002B4DCDF83C902C68CDF8408006F05CFBEFF3118A2025E4190B9085F387
:20532C00118842464946384605F0DEFC031C33D1002E04BF8AF31188002036D006F026FAFE
:20534C000B99064609A88861204609A906F020FB0B9804F007FD9DF834000024022802D109
:20536C000C9802F019FF8AF31188304605F046FAEFF3118385F311880C9810B106F019FCBB
:20538C000C940B98846183F311889DF83400002814BF0E9B231C07E00C9818B106F009FCCF
:2053AC0000200C908AF31188184612B0BDE8F0871DA500007CCE00002DE9F0430D46334AAE
:2053CC00314906462B46ADF1240D04F028FF0028306108BF012053D04FF00108002486F8F2
:2053EC0014802B48B461A84203D1684605F0C2FF6D46A946274D2868274601E07F1C286844
:20540C00B84229DC2448B168244A006800291AD4B168404617468840F060B168B86906F0CB
:20542C00ABFA306406F0B2F9EFF311850746202080F31188304605F091FF85F311883846EB
:20544C0005F0DCF906E01146F46040183064314605F0B6FD204613E0B06B40F827406968F6
:20546C00FB0003EB071040184268002AC6D0304649469047484605F0DBFD0028BED0B81C9D
:20548C0009B0BDE8F083C04621B0000065820000981B002000CE000094CE0000B81900207D
:2054AC00F8B506F0F7F902F055FB06F00BFA054605F00C000C2853D0E80826D204F0FCFF96
:2054CC002A4E376804460120014605F06CFC31686143884219D22649F020B0FBF7F0241A59
:2054EC00887C18B1C868A04238BF041C214D2146284606F060FB284605F080FF0120FDF71F
:20550C003DFA284605F0E0FB2CE0280928D21A4806F084F90428FAD0184A690905D220B18C
:20552C001168104621F0010103E01046016841F001010160983210684FF0805540F00300BE
:20554C001060D5F8B8018169202088470C4CD5F8B8712068B86B804701202060206801E086
:20556C0006F0DDFA06F09CF9F8BDC04674CE00006CCC000070150020004003408C21084075
:20558C002C20094038B52F4C0D46A80849D2E80856D305F049FFA060606804F17005014615
:2055AC00286878B10069054651B18D4208D0296AC90803D3C3690421002298470120687440
:2055CC00294661604868204900780860022004F08FFC112000F0F6FD01201C4D2075287822
:2055EC0010B90E2000F0EEFD60684168886808B9C86810B1164806F031F81649164D072054
:20560C0000230860296815482B606A686B60144B2A68A36140EA02011920296006F091FA78
:20562C0038BDFEF7E5FC204600F17801096811B902F022FD38BDB43045F0020106F095FAE1
:20564C0038BDC046B02C0020D0210840B2CD00005100070600000460141004400A0000401B
:20566C00D93700002DE9F0470D4606465FFA85FA280824BF2E4845402E494FEA8A03C858DF
:20568C0085EA00023240C2F300672B4A06EA0504B043224006F4E0240243B4F5E02F01D16F
:2056AC00500E14D306F4E020074310D002F4E027B7F5A02707D0B7F5803704BF22F40032C0
:2056CC0042F4A02203E022F4803242F4C022DFF86C80CA5008F1D00739680122002002FA76
:2056EC000AF40C4218BF101C5FEA000906D1F00D04D34146C5F3805001F80A00300E0BD324
:20570C0006F01DFA290E34BF0021211C3A68A2431143396006F0EBF9B9F1000F06D0F00D0E
:20572C0004D34046C5F3805100F80A10BDE8F087006000A000100840007F077F002002408A
:20574C00F8B50F1C054637D106F020F8EFF311840646202080F31188287D012811D12846D7
:20576C0006F07FF8286C06F075F820B12849EA68486890434860A86918B1C06808B106F049
:20578C0018FA287D022808D1A86930B106F069F8A869C06808B106F00CFA287D032803D069
:2057AC00284604F0F5FC02E0284606F05AF884F31188304605F022F8012F27D0686AB0F1C3
:2057CC00FF3F03D0296AEA6905F0F8FF022F1DD0104C2068032F19D0002817DD002F14BF9F
:2057EC003F1F071C002F0BDD002660688019416909B1284688477F1E06F11806F5D12068DD
:20580C0082000548A96B006805F0D8FFF8BDC046B819002000CE00009CCE00002DE9F0413A
:20582C0015460446A869A060686A98460E4608B92C4800686062286A002806BF2A480768E3
:20584C00071C06F081F8EB6983B918B1C1194742491E0F40E7610246E169606A434602F019
:20586C0031F82062A8B90120BDE8F081002804BF2362391C09D04142C018401E08402062B8
:20588C003F1AE8693F18E7613940E1614FF0FF306062A6622869E06268692063A86A6063C4
:2058AC00A88D0128A08703D11149C868401CC86010480068002808DD81000C480068002249
:2058CC00434606F095F8A06348B120464146FFF773FD002814BF801C0020BDE8F081022072
:2058EC00BDE8F081A4CE0000A8CE00009CCE0000B819002000CE000080B50288A2F6020715
:20590C003FB143F20502BF1A14BF002290F8242000E0C27B2D482430D0F88832521F0B6071
:20592C0048D0521E3CD0121F30D0921E24D0D21E18D00F3A0CD0D0F890224A60D0F8942253
:20594C008A60D0F8BC0220F0784040F080503AE042694A60C26A8A60406C20F0784040F0DA
:20596C00704030E002694A60826A8A60006C20F0784040F0F04026E0C2684A60426A8A606C
:20598C00C06B20F0784040F0C0401CE082684A60026A8A60806B20F0784040F0A04012E03D
:2059AC0042684A60C2698A60406B20F0784040F0405008E002684A6082698A60006B20F0F3
:2059CC00784040F02050C86080BDC046A01000502F4970B50EC9ADF1500D11A880E80E005A
:2059EC000021182208230BA805F0C0FF294D0BA905F15404204604F075FD002124220823D8
:205A0C0002A8EC6005F0ACFF05F168060024012230462149079402ABADF8184004F088FB9D
:205A2C003C2208232E61214605F18C06304605F0C7FF4FF480600321C5F8AC003246234691
:205A4C0005F1A400016074301449C5F8A80005F1C80003F0CFF9E868124C0C2211A9119029
:205A6C0024340420129001201390204600F094FE684605F0EDFFA4F1080100910C34084901
:205A8C00019405C881E8050003F02EF814B070BD98CD0000500B0020CBBA0000E1140000C6
:205AAC00FC19002078160020F8B5344CE06902210025114015EA030708BF00290DD14FF0D2
:205ACC00E24715401F4008BF002D50D002F094FB4FF0FF30E0800A214AE002F08DFB4FF06C
:205AEC00FF30E080B4F83601B0F5505F05D043F2014181423BD107213AE094F8F40104F5FD
:205B0C00F877032833D1A08D012813D094F8420110F0800003D094F8300001280AD094F835
:205B2C003200012804D094F8310001281FD1D2E708211DE02278387A164607F10901801B30
:205B4C0084F89C0204F5227000F026FE94F89C2204F29D20B919093100F01EFE94F93300AB
:205B6C00676B84F890022946C4F8947200E00621E26812B104F522709047F8BD6810002045
:205B8C002DE9FE4FDFF8C8804FF0000B994616464546019105F170073C688DF800B003F09C
:205BAC00F7FF5FEA000A0BD13A684AB1D8F88010304600F061FB18B101205C468DF80000E4
:205BCC009DF9000088B9BAF1000F18BF544600E02C4654B12568304621462A4600F04CFB4F
:205BEC000028F5D002208DF800009DF9000050B90198314602F07CF9041C04D0A6421CBF38
:205C0C0004208DF800009DF90000B0B9ACB9F1687C68087B00F00F0002280ED1087BC0114F
:205C2C0040080AD27CB9D8F8800030B1D8F8801030465A4600F020FB28B19DF90000C9F81D
:205C4C000040BDE8FE8F6FF00200BDE8FE8FC046B02C00200FB4324800B5017D80F8A11197
:205C6C00002380F8943180F82432417D80F8A211C18A80F8A4110A1280F8A321018B80F82D
:205C8C00A6110A1280F8A521C16980F8AA110A0E80F8A7210A0C80F8A8210A0A90F820100F
:205CAC0080F8A921ADF1040D80F8AB11102180F8A011022180F825121421C0F8281205F06B
:205CCC00A5FCFEF74BF810B106A005F0DBF9FEF75DFB10B10AA005F0D5F901B05DF804EB3F
:205CEC0004B07047456173794C696E6B5F7472616E736D6974206661696C656400C046C0F1
:205D0C00456173794C696E6B5F726563656976654173796E63206661696C656400C046C0CC
:205D2C00200500202DE9FE4F304C94F8B901002850D000260121354694F8B92101FA05F08C
:205D4C00104203D16D1C032DF6D343E094F8B9211020A840104218BF0E1C05F0F0FE94F82C
:205D6C00B9211121A9408A4384F8B92105F0BFFEE8B205F08BFB68B3877A5FB390F90980F8
:205D8C0019490768012E456851F828B0019710D0017A02290DD100F1100191E80006002785
:205DAC004FF0805317EA0A0703EA090108BF002901D101F021FC012E05D0CDF800B0002251
:205DCC004FF0006303E000224FF00073009201984146A84794F8B90120B104F1E8000021A8
:205DEC0005F0C3FEBDE8FE8F94300440B02C00201EF0040F14BFEFF3098169468869EFF3C9
:205E0C00118102B400B5DFF8A0E0F047294A116801EA000010605DF804EB1EF0080F03D167
:205E2C0001BC80F31188704704BC1EF0040F14BFEFF309816946A1F1200114BF81F309887C
:205E4C008D464A604FF08070C8611B488861194B1868086040F201101860704702B401B4EC
:205E6C00EFF3148100291CBF002282F3148802B402B4DFF838E0F04701BC01BC00281CBF59
:205E8C00022181F3148801BCDFF824E0F04705484FF08051016001BC80F3118800BF00BFEF
:205EAC00FEE7C04604ED00E0B588000075BA0000F5BA0000541A0020695E00002DE9F04163
:205ECC000E460746B6F1FF3FADF1380D09D046B12B4909AB6846324604F07CFC02206946F2
:205EEC0001E000210320274C0C91EFF3118825688DF834002024ED1984F31188788980BB0A
:205F0C00002E04BF88F31188002036D005F03EFC064605F05BFD0B9009A9816103F022FF3F
:205F2C00284609A905F034FD9DF834000025022802D10C9802F030F988F31188304604F0E7
:205F4C005DFCEFF3118384F311880C9810B105F030FE0C950B98856183F311889DF83400CC
:205F6C000BE07889401E78810C9818B105F021FE00200C9088F3118801200EB0BDE8F0818C
:205F8C00A1A500008CCE0000F8B5304C04F170052F68012000F0BAF8D4F88000002852D1D1
:205FAC00002F4BD060683969884244D1684602F0EFFA40B1009830B1D4F8840018B9082006
:205FCC0003F0CCFDF8BD082004F07CFF07F1180003C81D49C6430B1F1E601A681042FBD11B
:205FEC000A6810430860F869C04341F80C0CF86951F8082C104341F8080CF868064604F095
:20600C005DFB3088A0F6020040B141F21E01401A04D041F6E671401A012803D801203146D7
:20602C0004F024FC284604F0F9FCC4F88000002000F06CF8F8BD4FF4806100E0022104F168
:20604C00B40005F092FDF8BD14100440B02C00202DE9B043044605F072FD814627482218BC
:20606C0092F8EF10491ECFB2002F82F8EF703FD1254901EB84014A880C78904634F07F07D6
:20608C0018D1E1090FD24FF0805000F5DC75D0F8B8018169104688472868416B40468847CA
:2060AC000228F9D11EE000EB8800D0F804110020884717E04FF08055D5F8B801016A104651
:2060CC008847D5F8B801816A40468847D5F8B801016B404688470A4901200860094908683A
:2060EC008008FCD304F03F00132801DAFFF7B0FF484605F0FCFC0020BDE8B0836415002043
:20610C00282008602820084058C700002C49D0B506461839D1F880000F6FD1F88430B6B9CA
:20612C0000284AD090F83720520946D3002F44D097F83720520940D23A69006982423CD14B
:20614C0001F1B4004FF4004105F00FFDD0BD1B4A012E15D0022E30D1C1F880300020C1F88F
:20616C008400D1F880008069136818431060D1F88000C06952F8081C084342F8080CD0BD11
:20618C00D8B190F837305B0917D3B7B197F837305B0912D23B690469A3420ED1846913684A
:2061AC00A3431360C46952F8083CA34342F8083CC1F884000027C1F88070D0BD1410044059
:2061CC00C82C0020F8B5064605F0B9FC264D0746711991F8EF00421C002881F8EF203ED11D
:2061EC00224C04EB8604267806F03F00132801DAFFF7E8FF648836F07F0018D1F0090FD292
:20620C004FF0805000F5DC75D0F8B8014169204688472868416B204688470128F9D11EE05B
:20622C0005EB8405D5F804110120884717E04FF08055D5F8B801C16920468847D5F8B80191
:20624C00416A20468847D5F8B801C16A20468847074901200860074908688008FCD33846FE
:20626C0005F045FC0020F8BD6415002058C700002820086028200840F8B50F4601460024A2
:20628C00381C08BF0124002302B90123DFF890C0F8B1066BEEB1CF6ADFB100690C69844263
:2062AC0008D0DCF81C410CF58E75844214BFEC68AC6800E00024B8086FF05047A0EB9600E9
:2062CC00001B874225DDB0F1704F01DB002820DD01240AB3D76AFFB10E6BEEB11069096995
:2062EC00884208D0DCF81C210CF58E71824214BFC868886800E00020C0EB97006FF05041F6
:20630C00A0EB9600814204DDB0F1704F03DB002801DC0020F8BD01231C40E0B2F8BDC046C7
:20632C00B02C00202DE9F84F984691468A46054605F005FC834604F087FA0AAF061C37D012
:20634C0005F1780005F0F7FB1D4CC6F80CA0B4F98C0086F83690401C6FF31F30A4F88C0057
:20636C00C6F80880B4F88C00B0861648356197E80C00202106F118071940104006F12002C5
:20638C0087E803000020014682E80300802386F8373004F1700085F8C010314604F060FBAB
:2063AC00206F864201D104F0E9FEB6F9344001E06FF00104584605F09AFB2046BDE8F88FAB
:2063CC00B02C0020FDEFFF9F2DE9F047DFF898A0244E002501244FF002094FF01108E8B2D7
:2063EC0005F054F8071C37D0B87A012834D197F90900AAF10C01113004FA00F0C2430A60E7
:20640C004A681043486097F9090004FA00F0C0B204F058FD07F11000002103F0B3FF01466C
:20642C00812909D1B86918B1002103F0ABFF0146812908BF87F80A9081290DD006F2B9110A
:20644C0097F909000A7808FA00F01043087006F1E800002105F089FB6D1C032DBFD3BDE8EF
:20646C00F087C046B02C002014100440FEB54FF0805647688468D6F8D001C16820688847AD
:20648C00216821488A6B1040886340F2F27120681E4D416494F82000295C94F8210040196A
:2064AC008079084321684863684605F03CFBD6F8D001397F05EB810146680B6ABA69797F77
:2064CC00206805EB810189691943BB7F05EB83052B6B0B430199B0472168C86A40F0100046
:2064EC00C8622168086B40F001000863A07D0027FF2802D0E07DFF2800D11FB1086B40F4C5
:20650C0040400863FEBDC0460DF8FFFFECC70000F8B5064605F012FA234A117819B105F05E
:20652C00E6FA01243EE00124147005F0E0FA1F49086EB1F86820730805D3038813435B080E
:20654C0028BF02242CD21A4D05F10C073B685B0826D3EC633B685B08FCD273083CBF0021FB
:20656C00818007D3848042F0010201F16007A1F868203868B1083ABF0021C180C480F10890
:20658C0038BF0024048105F09DFA05F0A7FA286840F0400028602868002420F04000286019
:2065AC0005F0BAF92046F8BDAC1C00209017002000500C402DE9F04105F0C1FA254D214EE9
:2065CC00804605F1E000007848B93446A168022088470746102003F00FFB6FB31AE005F09B
:2065EC0071F9C0091AD218480068C4681748342101220023A04788B101F0E4FB34460020F8
:20660C00A16885F8E000022088470746102003F0F3FA8FB1A168032088470DE00C480068D6
:20662C003221B1FBF0F101B901213035284605F07EFA284605F07DFA404605F058FABDE806
:20664C00F081C0466CCC0000A401001000A00C40F036002064150020B0B501468B681C68DC
:20666C00E26948682262520824D2D0F8A81049680A685D69D2F80415294206D01C68616A63
:20668C0021F002016162C2F80455D2F8042519690A4230D01A68516A21F001015162D0F878
:2066AC00A8205268196912683830C2F8041505F05EFAB0BD1C68626922F001026261D0F86C
:2066CC008870AFB9626822F0020262601C68626A22F003026262D0F8A8005A6940681C6921
:2066EC0000682243C0F80425084604F023F8B0BD0846FEF775FDB0BDF0B520480127F84285
:20670C0001D002F0B9FA204D204F214EBD4206D203CD0478A4003459401CA047F6E71D48D3
:20672C00002800D08047164D164FBD4202D210CDA047FAE7F0BD03251BE0416808300A1C77
:20674C002A400BD11A1C2A40AB4305D0046804300C600431043BF9D1131C05D00478013089
:20676C000C700131013BF9D1021C2A4001D0A84304300368002BE0D17047C046FFFFFFFFE1
:20678C000000000000000000C8D10000F8D1000094D10000358C0000002A4AD05FEA000CCC
:2067AC008B071CD1830722D1102A08D370B4103A78C978C0103AFBD270BC103238D0042A1A
:2067CC002CD3082A05D30C2A24BF08C908C008C908C008C908C092072AD0920F22E00B7807
:2067EC000370491C401C521E22D08B07F7D1C30714D18307D8D0121F12D308C903801B0C2B
:20680C004380001D121FF8D20AE008C903701B0A43701B0A83701B0AC370001D121FF4D207
:20682C00121D05D00B780370491C401C521EF9D16046704770B50125002124220823ADF17F
:20684C00400D68468DF8185005F0A8F81D4C29466A4604F13806304603F082FC04F15405BF
:20686C00002128466A46666003F07AFC00211822082309A8E56005F079F804F12405284630
:20688C0009A903F02FFE00213C220823A56004F17005284605F094F84FF480600321C4F80F
:2068AC00900000232A4604F18800016000F5D4700549C4F88C0004F1AC0002F09BFA10B014
:2068CC0070BDC04620050020992200002DE9F843234D884606464FF0FF3105F1280081464A
:2068EC0004F069FE00200CE0FF2909D02A688A4204D305EB8101D1F898700FB1002627E0BF
:20690C00401CB8F1000F03D018F82010FE29EBD10024346074600127B46011E0FF280ED0A3
:20692C0005EB80000B787268C0F8986007FA03F0104370600A680949304603F0C1F8641C51
:20694C00B8F1000F04D008EB84010878FE28E5D1484605F002F93046BDE8F883007FC7670A
:20696C00501400202DE9F84F81460020C9F80000684601F00DFEDFF88080DFF878A00026EC
:20698C004FF0FF354FF0190B34460746E0B204F07DFDC0B1837AB3B1017A0126022916D0C9
:2069AC004246516840694B8A92F8BA21C968C9180BFB021103F0D0FCDAF80010B0FBF1F04F
:2069CC00854288BF051C641C032CDFD300E000251FB1012E04D0012F05D0012E04D005E056
:2069EC000098854200D9009DC9F800503E43F0B2BDE8F88FF0360020B02C0020B0B5456802
:206A0C0084682349607DA27DADF1180D40F000400090207D0027FF2A41EA000001904FF06B
:206A2C00020002D0E27DFF2A00D13FB1E37DA07D1943039140F0004002900420FE214DF836
:206A4C00201005F154006946FFF740FF2866002808BF381C1AD0617D0F2203F067FC286E16
:206A6C00217D102203F062FCA17D3846FF2902D0E27DFF2A00D140B1286E112203F056FCFB
:206A8C00286EE17D122203F051FC012006B0B0BD0000C0A02DE9F843054605F064F86C681D
:206AAC00AE680746780818D305F049F8DFF87480814698F8000028B1022003F035F8404603
:206ACC0000210170484605F012F8606B216BE368091A2163626B28469847B8081FD305F081
:206AEC002EF8114F8046387820B1022003F01CF800203870404604F0FAFF3168886B20F0BD
:206B0C00200088633168086B20F480700863606A216A091A21622369626A28469847BDE89E
:206B2C00F883C046F8360020F93600202DE9F0474FF02009EFF3118889F31188204CA06872
:206B4C00012105F02EF84FF0010A0027226861696569A4F81CA0891A2268E783461B801A6F
:206B6C00884228D388F3118838462D18361A5046294600F0BDFDB042F7D9EFF3118889F3B5
:206B8C001188E18B012903D13846294600F0B0FDB0F1FF3F06D0A169801B814238BF081C24
:206BAC00291801E0A069411904F0EEF9A4F820A0A783256000E0A78388F31188BDE8F08724
:206BCC00281B00208B4208BF824204D90B1C021C002100207047002B08BF002A0BD10B1CB5
:206BEC00021C00210020002B08BF002A1CBFC943C04301F000BFF0B51C4615460B46024679
:206C0C0000200021B4FA84F6202E04BFB5FA85F62036B3FA83F7202F04BFB2FA82F72037B9
:206C2C00F61BB6F1200727BF05FA07F400257F42B4403EBF25FA07F73C43B540A34208BF75
:206C4C00AA4201D3521BA341404149416D0845EAC4756408761EF1D5F0BD704770B5ADF142
:206C6C00200D02F013F92048083038C86A4638C209C8694682E8090005A8FFF727FE1421A3
:206C8C000022044602F0D0FDB926002520460A21002202F0C9FDC5F10700092146FA00F235
:206CAC00204602F0010202F0BFFD20460A21012202F0BAFD082004F0F3FE6D1C082DE5DBD7
:206CCC0020460A21002202F0AFFD20461421012202F0AAFD4FF42F7004F0E2FE204604F0F0
:206CEC0053F808B070BDC04608C700002DE9FE4F0190214800F170063768994692460D4616
:206D0C000024804600E03F6897B3BD42FBD1D7F800B00198394604F0A9FC18B397F8370020
:206D2C0006F10803B9F1000F009340F0040087F837000ED097F8370040F0080087F837007D
:206D4C00286998F85031C8F8440143F0010088F850013046394603F065FD0098394603F027
:206D6C007FFE641CBAF1000F18BF5FEA0B07CED12046BDE8FE8FC046B02C0020F8B50F46E3
:206D8C0001468E684D683846203829D0401E33D0401E2ED1287B1478012814BF19491A4978
:206DAC00FF2C41EA040119D0D5F8A40001F06EF8C8B93068B0F1804F14BF23220B22D5F820
:206DCC00A400214603F0B2FAD5F8A40095F8951001F0B2FB85F895400020F8BDFF24F3E798
:206DEC00287B012802D04FF0FF30F8BD0121002004E06FF00100F8BD0021084685F8AC10E3
:206E0C00F8BDC0460004C0A0002000802DE9F8438146EFF31188202080F311881E4D1A4CF7
:206E2C00184F012605F11C000660A4F114000660F86A016A14208847D9F81000810C14BF20
:206E4C00000C04202060386802682321002090470E480F4F0660386800280CBF311C032113
:206E6C000C4807680FB141F00401183C206820F4E02040EA014020602E6088F31188BDE82B
:206E8C00F883C04684010010182009408002244320CE000024CE0000000024432DE9F843CE
:206EAC0005466C68A968D4F88870002F3AD0D4F88C203868801AB0F5806F29D8387C012875
:206ECC0004BF002038744FF00008D4F88860C4F88880776804F033FE814694F8E00070B100
:206EEC0017F0704F06D12FB1062002F01DFE042002F01AFE022002F017FE84F8E080484615
:206F0C0004F0F5FDA268284631469047BDE8F883D4F89020D4F88C008018C4F88C0020467F
:206F2C00FDF7F8FCBDE8F88370B506467468B568206E03F029FF29681C488A6B1040886305
:206F4C00304600F0C3F8304600F038FE2968C86A20F01000C862296815480A6B104008633D
:206F6C006868FFF775F804F17C0004F0E6FD04F1980004F0F4FDA07818B904F1CC0004F07A
:206F8C00EAFD607818B904F1E80004F0E4FD04F5827004F0C6FD04F0D2FD0021217004F098
:206FAC00A6FD04F1680003F0BFFD70BD0DF8FFFFFEFCFFFF7FB5164604461D461E4A0898A9
:206FCC00D269618252F821301C4A12689A420CD0184A12680092164E019100220292318881
:206FEC00AA2304F033F8012020E0084602F062F9A66068696060286AB0F1FF3F08BFFF20EF
:20700C0020740026E660288B00280EBF301C0120E0600146A88C10B141F00200E0602046FA
:20702C0001F092FB002814BF801C301C00907FBD06C700002CCE0000341A002040CE0000D4
:20704C002DE9F8431F4E4FF00009A6F8089001E002F0B8F970680028FAD07068B5697469C7
:20706C00F827B0FA80F1A7EBC1004019844223D2D6F81080706104F0A0FD0746306189F349
:20708C001188114D29684C460BE06A68E00000EB04108018C2681AB1404639469047296834
:2070AC00641CA142F1DC202080F3118807F1100108F1100004F032FB30890028C5D1BDE8F9
:2070CC00F883C046B819002000CE00002DE9F04106467568B46804F032FDA96A39B9216827
:2070EC008969090903D204F002FDBDE8F0810027AF6204F0FCFCA17D3846FF2902D0E17D8A
:20710C00FF2900D118B12846214600F02DFB2168886B20F0200088632168086B20F480701D
:20712C00086304F00CFD0A4C8046207818B1022002F0FAFC2770404604F0D9FC686A296A09
:20714C00091A29622B696A6A30469847BDE8F081F93600202DE9F04100781F4C0E460321B1
:20716C00804606F8011C606815464FF0FF31FEF7A5FEAD1CB71EEDB2207884F89481B11EC3
:20718C002A46387004F2A110FFF706FB84F8A051002084F82502C4F8280284F82402FCF782
:2071AC00DDFD10B105A003F06DFF606801F024F8384604F013F80120BDE8F0814561737909
:2071CC004C696E6B5F7472616E736D6974206661696C656400C046C0200500202DE9F0416D
:2071EC002026ADF1500D86F311881D4C01E002F0E9F860680028FAD06068F827B0FA80F157
:20720C00A7EBC100A1694018606104F0D6FC002320610220238104F061FA984688F311887B
:20722C000E4D29681F460BE06A68F80000EB07108018C2681AB121694046904729687F1C9A
:20724C00B942F1DC86F3118804F07AF9216904A8103104F063FA14B0BDE8F08100CE000071
:20726C00B819002010B5994201D1904233D050EA020404D141EA03046400002C2BD050EABE
:20728C00410401D19C4226E04C006415641C07D15C006415641C03D1DC0FB4EBD1741AE0D8
:2072AC00002B0CD4002916D4994214D190EA020401D490420FE0002A0DD101240BE000298D
:2072CC0009DC8B4207D190EA020401D4824202E0002800D10124EFF3008454BF44F00054FE
:2072EC0024F0005484F3008810BD10B58B4201D1824233D052EA000404D143EA0104640078
:20730C00002C2BD052EA430401D18C4226E05C006415641C07D14C006415641C03D1CC0FF0
:20732C00B4EBD3741AE000290CD4002B16D48B4214D192EA000401D482420FE000280DD183
:20734C0001240BE0002B09DC994207D192EA000401D4904202E0002A00D10124EFF30084BF
:20736C0054BF44F0005424F0005484F3008810BDF8B5044604F0E3FB1D4D064605F5A871A0
:20738C000878A04305F58E7408702068002808BF002706D020689C3004F028F9002700B155
:2073AC000127606838B19C3004F020F90024384318BF0124274695F85001A0B9012F12D0BE
:2073CC00D5F8440178B1016A89080CD3C469304604F08DFBD5F8440102210022A04700200E
:2073EC00C5F84401F8BD304604F081FBF8BDC046B02C0020B0B504F0CAFB002808BF002000
:20740C0030D01948194C07682268002509E06168E80000EB0510095811B1284688472268F8
:20742C006D1CAA42F3DC002F0BDD3C4600250020294604F0A3F90021FDF7BEFF6D1C641E42
:20744C00F5D10B48006858B10A4D07460024286B50F824000021FDF7AFFF641C7F1EF6D128
:20746C004FF0FF30B0BDC04698CE000000CE0000ACCE0000B81900202DE9F8431D4C1B4863
:20748C00D4F8807004F0D2F81949054608680E6800F02000284006F4602616D0AFB107F19D
:2074AC00200191E800030346C4F8887000202037190040EA080041EA090187E8030004F1C8
:2074CC00B4004FF4005104F050FB16EA05000AD094F8B91141EA504084F8B901002104F1DD
:2074EC00E80004F042FBBDE8F883C04620000E000C100440B02C00201D491E482DE9F041A4
:20750C00352751F8048B51F804EB51F804CB51F8046B51F8045B40F8048B51F8044B40F8E4
:20752C0004EB51F8043B40F804CB51F8042B40F8046B40F8045B40F8044B40F8043B7F1E70
:20754C0040F8042BDDD151F8045B51F8044B40F8045B51F8043B40F8044B51F8042B40F874
:20756C00043B40F8042B09680160BDE8F081C046A4BE000000C00021B0B51E48164AC169D3
:20758C001648C2F8081D07681548D2F8083D98420ED06FB1134B1B6800240F2C2CBF1D1C8B
:2075AC000568001D641C0D607F1E01F10401F4D10D48D2F80C7D0D4D0168202427F47F4066
:2075CC0000EB01204019C2F80C0D094B82F8224D1868C2F8140DB0BD00E000E030CE0000A4
:2075EC001010000040CE000044CE00000000FA0538CE0000341A0020F8B5074604F09FFA45
:20760C0004467FB3B87A68B397F9092003F0BCFA012303FA02F1CDB248B1144E113203FA05
:20762C0002F0326882433260C34346F8043C00200246BA723A723A6007F110067A600346CC
:20764C0086E80C000A4AB86102F5DC7003781943017092F8BA0110B1401E82F8BA012846A5
:20766C0002F07CFA204604F042FAF8BD0C100440B02C0020002213460A46194671B510F09F
:20768C00030F0BD0002A82BF00F8011BB2F1010210F0030FF6D1002A08BF71BD11F0FF01D3
:2076AC0041EA0121042A18D341EA0141082A0FD30E46102A08D30C460D46B2F10F0312F012
:2076CC000F0272C0103BFCD812F0080F18BF42C012F0040F18BF40F8041B12F0020F18BF1D
:2076EC0020F8021B12F0010F18BF017071BD70472DE9F0470E46804619491A480C6824182F
:20770C00204604F05AFA4FF0FF374FF0000A814621E04D46284604F052FA8146A88A0128C6
:20772C0019D1B8F1010F0ED1E86886420BD12B69002B08BFA5F814A002D0E868C018E860AE
:20774C00A969E8698847A88A012804D1E868801B874288BF071C4C45DBD13846BDE8F087C6
:20776C0070CE0000281B002038B50C4621680546886B20F020008863286E217D012201F0F3
:20778C00CDFB286E217D012202F04EF8286E217D002202F0CBFD286EA17D002202F0C6FDEB
:2077AC00A878012806D005F1CC004FF0FF3103F002FF03E0216888690009FCD2286E217D11
:2077CC00102202F0B3FDA17D0020FF2902D0E27DFF2A00D118B1286E112202F0A7FD38BD1B
:2077EC00F8B50B4601464C69601E024218BF221C1846631E10EA03071CBF2044C01BCF6878
:20780C0001F10C0C77B1531E796803EA070613EA070518BF561B84198C4205D9BC463F689B
:20782C00002FF1D10020F8BD091ABA198D1B3EB98E4204BF3868674608D03968674602E0F9
:20784C007E6025B1396810180160456038601046F8BD7047034670B52020EFF3118580F3A6
:20786C00118818680143164800681960C418C01803F0F0FF00BB03F089FF0646204604F0EE
:20788C009CF90446A169E269184603F02DFA606160B1204603F0E5FF01202074E06808B16B
:2078AC0003F012FAA068294601F052F885F31188304602F0A3FF70BD85F3118870BDC0467F
:2078CC007CCE00002DE9FF411D4607460C461346284603F0ADFB804613B904F08FF8034642
:2078EC00002F12BF381C104800681A4621462B4604F0A4F8061C12D1B8F1010F03D02846A1
:20790C0003F096FB58B90A48006800900197074B0294198800222846342303F097FB304679
:20792C000090BDE8FF81C046C4CE00000CCF0000B0CE0000F8B505461446A969EA691F4679
