:20000000004B0020D54B0100FDC90110FDC90110FDC90110FDC90110FDC90110FDC901104A
:1C002000FDC90110FDC90110FDC90110FDC90110FDC90110FDC901103BCA0110A4
:20003C00000105090004081000040810020402010101010902000120181A18182C34041E41
:20005C00000C0E020B040B0A070800110F00A6AAACA4A9A9A399B19ABCB6A8313117191AD6
:20007C0021241B1D1F31313331313118191A22311C1E20313134310000000500BD00B70068
:20009C00B100BC001C00300038000800380102000000000002000000020000000A00000002
:2000BC0002000000020001000000000000000000000000000000000000000000000000001F
:2000DC00000000000E000000C003000080070000000F0000001E0000003C000000780000CB
:2000FC0000F0000000E0010000C003000080070000000F0000001E0000003C0000007800E8
:20011C000000F0000000F00038C40D00C80000008100000032000F0100C50D0090010000EC
:20013C004000000096000501952B0D00C80000002200000032000F020000000000000000CD
:20015C0000000000000000000000000000000000000000000000000000000200000002007F
:20017C00020002000000320004000100000002000000000000000000050001000000070019
:20019C00060001000000030007000800000000000F0001000100FF00100008000000000002
:2001BC0018000800000000002200020000000000010171010101010111010101310101011F
:2001DC00010180010001100161013B001400630173017201620143010001130106013D0171
:2001FC00350004011201000100010001000104010401330133013C01440132013600000134
:20021C00000165010001350081010001050182018301000166010001000108010901030213
:20023C007102300160021102700201020202020280020002100261023A00410063027302BE
:20025C007202620243020002130238000002000204021202000200020002000204020402E4
:20027C00370037003C024402000239000002000265020002350281020002050282028302FC
:20029C00000266020002000208020902030471040204600411047004020402040104020439
:2002BC00000410046104000414046304730472046204430400041304060400040004040453
:2002DC00120400040004000400045104640000040004000444040004000400040004650456
:2002FC00000435048104640005040004830400046604000400040804090400003600010062
:20031C000600000000000000000F000000000000000000000000000000000300FFFF0000AB
:20033C000403FFFF0000FFFF0F00E8030005401F0310000101000000FF3F0F0008000E00C8
:20035C0000000000000000000300010F000009010000000000000000000000000000000064
:20037C0000000000000000000000000000000000000000000000000000000000AD000001B3
:20039C00000000000001363601010001020100010301000104010606080400000C0100346A
:2003BC000D01000F10040101140100FF1608000020020000220100FF23010001240100FE30
:2003DC00250100082602000028010001290100012A0200002C01000F2E020000300100018C
:2003FC0031010008320200FF34010007350102FF360100003701000138010001390100FF1E
:20041C003A01000F3C0200FF3E01010F3F0100014001041F41010001420100FF43010080FC
:20043C00440800004E0100084F01000F50010001510100FF5201000A53010089540100016B
:20045C00580400005C0400006004000064040000680400006C040000700400007404000030
:20047C00780400007C040000800100FF81010001820100018301010284010001354525151C
:20049C0002030504FFFFFFFFFFFFFFFF9A1000000000000000000000000000000000000090
:2004BC00000000000000000000000000000000000000FAFA14000000000000000000000117
:2004DC000000010100000000000000000000000000000000000000000000000000000000FE
:2004FC000000000000000000000000000000000000000000000000000000000000000000E0
:20051C0000000000000000780008020030000A00000800000000000000000804FA000000F5
:20053C00FFFFFF000C1100000000000000001D1100000000000000002E010F000000FA001F
:20055C0000002F0100000000FA000000300100000000FF000000310100000000FF000000F4
:20057C00320100000000030000003301000000000300000034010000000001000000350285
:20059C0000000000FFFF0000370200000000FF000000390200000000FF0000003B02000092
:2005BC000000FFFF00003D0100000000FF0000003E0100000000010000003F010000000064
:2005DC00010000004001000000000700000041200000000000000000610200000000FFFFF4
:2005FC000000630800000000000000006B0800000000000000007308000000000000000086
:20061C007B0800000000000000008302050000005802000085010000000010000000860239
:20063C000000000032000000880200000000320000008A02000000000A0000000071370171
:20065C00000071030100022F78000000A7810100012F78000000A781010003A9EA000000D0
:20067C00A7810100041781010000A78101000129810100012381010001A781010001A781CA
:20069C00010001A781010000E951010001A781010001A781010001A781010001A781010030
:2006BC000229810100022381010002A781010000E951010002A781010002A78101000255B7
:2006DC003A010002A781010004EB4E000000A781010003298101000323810100032F780032
:2006FC0000032F78000003A781010003A9EA000003A781010000E951010003A781010003DC
:20071C00A781010004298101000423810100042F780000042F780000042F78000004EB4EFE
:20073C00000004A781010004A7810100041181010000E95101000104C13500000300000073
:20075C0000040000E1F701007FF90100D3F90100F1F3010051F40100C9F8010055FA01001D
:20077C00BBF90100A5FA0100F1F2010009F5010061F90100F5F801005DF50100B1FA0100DD
:20079C00C9FA010091FA01007DFA010037FA010029FA0100C9F6010063FA0100A1F9010066
:2007BC0009FA010091F60100D3FA0100712201008D5F010001F00100B1F5010029F101008E
:2007DC00F1F9010025520100957601007D760100ADF40100C17E0100B37E01004DF6010042
:2007FC00000000000000000027800100397D010009F701000000000000000000000000007D
:20081C0000000000000104000033333333333333330000000000000000000000000000001F
:20083C000100000000000000020000000000000003333333333333333303010000000000FA
:20085C0000000000000000000000FFFFFFFFFFFFFFFFFFFFFFFFFFFFFFFFFFFFFFFFFFFF92
:20087C00FFFFFFFFFFFFFFFFFFFFFFFFFFFFFFFFFFFFFFFFFFFFFFFFFFFFFFFFFF46485497
:20089C006573740000000000000000000000000000000000000000000000000000000000F0
:2008BC004D08000001000000180B0000080000005207000001123456789ABCDEF000000009
:2008DC000000000000000000000000000300710030016000110070003102200350040000CC
:2008FC00070010006100000014006300730072006200430000001300060000000000040046
:20091C001200000000000000000004000400370037003C024400000000000000000065004C
:20093C000000350081000000050000008300000066000000000008000900FF7F1404C0A0F0
:20095C00FE0000001404C0A00A0480A0090480A008400080FE0000000608808007088080C7
:20097C000D2007C00E2007C01400C080024000800300C0800108C0801E08808009400080E1
:20099C00084000800A400080FE0000008F0000008F0001008F0002008F00030090000001D8
:2009BC008F00010190000002900000038F0001048F0000058F0008048F0000048A0000067F
:2009DC00510000007F0001003F0004003F0002003F0001007F0002007B756E6B6E6F776E5A
:2009FC002D696E7374616E63652D6E616D657D007B656D7074792D696E7374616E63652DB5
:200A1C006E616D657D00C0467B7374617469632D696E7374616E63652D6E616D657D00C006
:200A3C0000000102030410000810182004040810181C10040810181C000000000800000074
:200A5C0000000000200000004000000060000000000000000600000002000000860000002C
:200A7C0082000000DD100100B13301006D77010029A500004DBB00004D810100752B0100DA
:200A9C00A1C200005381010035150100001000400600000015000000FF000000000000004D
:200ABC000302FFFF2830002020000000010300000000000000000000FFFFFFFFFFFFFFFF83
:200ADC0000000000000000000101010100C2010003000000000000007BC80110C5BC01104A
:200AFC00D9B2011033C20110BDAD0110C1B101106DBA011065BB01101DC0011000000000E3
:200B1C0000000000000000000000000000000000000000000000000000000000FFFFFFFFBD
:200B3C000000000000000000000000003A01000000000000000000000000000099D20000F3
:200B5C0091320100000000000000000101010000C33B3D3A5D3A713AA10A8F3A0F3BB30981
:200B7C00495E850A2F3B853B001610160E18151C021203241858030210025800010000004B
:200B9C0000000000000000000000010000000040004002400B00000027000000FF00000045
:200BBC00800A0000A02C0020A80A000041B5011095A6011015B80110010B010102080102A5
:200BDC000101000000BE040A00BE0208FFFFFFFFFFFFFFFF582F0020AC0B0000FF0000000E
:200BFC00000000000D770100C53E01000F000000158200000000000000000000D1C0011008
:1C0C1C0061AD01100A000000D41E0020756401001782010095C40000EB80010048
:201000003C000000000000000000000034100000000000000000000001000000000000004F
:1C10200000000000000000000000000001000000000000000800000000000000AB
:20103C003400000000000000000000006810000000000000000000000100000000000000E7
:14105C00010000000000000000000000080000000000000077
:2010700030000000000000000000000098100000040000000000000001000000FFFFFFFF87
:10109000FF00000001000000080000000000000048
:2010A0002C0000000000000000000000C4100000040000000000000001000000FFFFFFFF2F
:0C10C000FFFFFFFF080000000000000020
:2010CC0038140000E410000095A1011091A70110A1C2011009B2011041B80110A5BC011078
:0810EC0085BC01102E0000007C
:2010F400280000000000000000000000141100000000000000000000FFFFFFFF0000000093
:081114000800000000000000CB
:20111C00341400003011000065C2011069C101101BC2011091BA011005BC0110E5BB0110EA
:04113C00300000007F
:20114000341400005411000071C20110A5B6011099BF011045B60110B5BA011025BC01104B
:04116000310000005A
:201164002400000000000000000000008011000000000000000000000000000008000000AE
:041184000000000067
:20118800240000000000000000000000A41100000000000000000000000000000800000066
:0411A8000000000043
:2011AC00240000000000000000000000C8110000000000000100000000000000080000001D
:0411CC00000000001F
:2011D00000000000E81F002004000000000000000000000020000000701000003000000004
:2011F0001C110000F01F00200400000000000000000000000C000000301300001800000018
:2012100040110000F81F00200400000000000000000000002400000048130000180000009B
:20123000000000000020002004000000000000000000000010000000A01000002C0000006E
:20125000CC100000082000200400000000000000000000002000000064110000240000009D
:20127000FFFFFFFF1020002004000000000000000000000028000000881100002400000029
:20129000FFFFFFFF18200020040000000000000000000000580000003C100000340000000E
:2012B000FFFFFFFF2020002004000000000000000000000010000000601300001800000023
:2012D000FFFFFFFF282000200400000000000000000000001C000000AC1100002400000099
:2012F000FFFFFFFF3020002004000000000000000000000038000000F4100000280000000A
:20131000FFFFFFFF3820002004000000000000000000000054000000001000003C000000A5
:1813300018000000000000000000000040130000080000000000000032
:1813480018000000000000000000000058130000080000000000000002
:18136000180000000000000000000000701300000800000000000000D2
:0813780002000000000C00005F
:041384000100000064
:0413880000000E0053
:04138C0000000F004E
:041390003200000027
:041394000100000054
:04139800441F0020CE
:04139C00000200004B
:0413A0002F81010098
:0413A400FDC901106E
:0413A8000000000041
:0413AC00000000003D
:0413B0000800000031
:0413B4000000220013
:0413B800341D0020C0
:0413BC00010000002C
:0413C0005C1F00208E
:0413C400080000001D
:0413C8000000000021
:0413CC00000000001D
:0413D0000000000019
:0413D400080000000D
:0413D8000000000011
:0413DC00000000000D
:0413E0000100000008
:0413E400301E002097
:0413E80006000000FB
:0413EC0001000000FC
:0413F000101C0020AD
:0413F40000000000F5
:0413F80000000000F1
:0413FC0000020000EB
:0414000000000000E8
:021406002900BB
:021408000100E1
:02140A002500BB
:02140C003000AE
:02140E003100AB
:021410002E00AC
:021412000100D7
:0114140001D6
:0814180003000000C80B0000F6
:081420000000000000000000C4
:0414280000000100BF
:04142C0000000300B9
:0414300083C4011060
:041434003C14000064
:041438003C14000060
:04143C0000000000AC
:041440009000000018
:041444009000000014
:0414480000000000A0
:04144C005C1F002001
:04145000C57C010056
:041454002000000074
:04145800980B0000ED
:04145C00F40A00008E
:0414600009C30110AB
:041464006B4D0100CB
:04146800A755010083
:04146C0095C801100E
:0414700097C8011008
:041474000000000074
:04147800970B0000CE
:04147C000C0A000056
:04148000240A00003A
:04148400F409000067
:0214880008005A
:02148A00090057
:02148C0001005D
:02148E0000005C
:01149000015A
:041494000000000054
:041498000000000050
:04149C00000000004C
:0414A0000000000048
:0414A4000F820100B2
:0414A800B95801002E
:0414AC00556C01007A
:0414B0003D5D01009D
:0414B4003B5E01009A
:0414B8002D510100B1
:0414BC00C10F01005B
:0414C000F97E0100B0
:0414C400F9390100F1
:0414C8000DC801103A
:0414CC001DC8011026
:0414D0000800000010
:0414D40024000000F0
:0414D80018000000F8
:0414DC0028000000E4
:0414E00020000000E8
:0414E4003C000000C8
:0414E8000C000000F4
:0414EC0034000000C8
:2014F00083482DE9F04F0C4601210170DFF80892DFF80882DFF808A2DFF808B27D499C464B
:2015100020270023ADF1540D002517EA0C070B70C949119291F83C33C849CDF848C005EA24
:201530000200139108BF00287AD111984FF0E04761462A460F4002EA000008BF002843D157
:20155000129E119B4FF48600B9F8AA10DFF824C3CDF82C9012EA060700EA030008BF0028C7
:2015700019D1C34812EA060700EA030008BF00286ED037464046119E048100F1380341811E
:20159000002F83E8C00004BF331CB3F1806F5FD102295DD111E037464046119E048100F19A
:2015B00038034181002F83E8C00004BF331CB3F5803F4DD1B1F5505F4AD1006A67464369FA
:2015D00038682146984741E046465146B6F9087091F90000BC42A0F10100087017D1728935
:2015F00006F1380003C8002904BFB0F5803FB2F5505F08D0002904BFB0F1806F022A02D0E9
:2016100011F0BEFF03E013F0A1F916F01FF9139890F90020521E02706FF00101318113E022
:2016300046466FF0010006F10801088063B1BE480078832802D0812059460870316919B1FB
:20165000284688472146E9E7CDF82C90B9F8AA10119A129E02202F461040374008BF002872
:2016700000F0D183B24A43F201408842149200F0A383C01C884200F09F83504690F9000047
:2016900052464746401E1070B7F90800844209D0139843F604078F420A9040F09E8315F030
:2016B000E9FC9AE3644890F83CC307F1380090E800034FF482062F4617EA090706EA080091
:2016D00008BF002820D113980C4F0A9007F1380003C84FF400322F460F4002EA000208BF91
:2016F000002A02D111F04CFF77E313F02FF974E3A51F00209C1F00204C190020B01B002086
:20171000A31F0020C73000202846BCF1010F59460E9002D00F78002F7AD1844C8120149E62
:20173000277808702B46A5816069A770427A017A337002F0070301EB032152098DB234BF98
:20175000291F891EDFF8F081437A8DB233F07F0340F01D8377490988A942C0F218830A300E
:2017700029460FF023FF216A04F118000522083116F0C0F8ED1EADB20D960520E17E227FE1
:20179000A37E2D4EA081C1F3011B227103EB012096F83C136081002908BFBBF1020F00F0AF
:2017B000F682BBF1020F00F3F28269B110F0070F00F0ED8241B15C490978862904D100F062
:2017D0000701022940F0E382011301F00201022952DA6378DFF8509100F00700022836D117
:2017F0004646D6F804A0002B31D1216A09A801220D3116F07FF80620A081D047804699F8DF
:2018100000300D48B56847680C96862B18D10FB916F09DFC9DF9240016F0E5FC9DF9246009
:2018300078770020B8774046FE77A847608900F0100010F06BFE05E008020020A21F00202E
:201850004046A84713980A9015F076FEA5E299F800000026862808BF01261398CDF830804B
:201870000A9076B1002012F0E1FEA77808E0C04600000C8C741D0020CDF8308013980A9086
:2018900063788FB183B9012F00F07E826089022F03D110F0070F40F07782032F05D100F09C
:2018B0000701032901D06FE2608901094FEAE00C09D310F4405F00F06782BA4991F8E07373
:2018D000002F00F06182011301F00201022902DA810A80F05982B2490978C1F381098E11B8
:2018F000B9F1010F00F05082012E00F04D82AB49BBF1020F09D08A5D11F809108918CFB2B9
:2019100006B3C1091ED3BF1E0BE072184944127909798918CFB2C10910D259EA060311D05C
:20193000BF1CFFB20EE0C046CB300020D82F0020C9300020961F0020C01A002059EA0603A1
:2019500008BF0227C0F30020391A60718D42C0F21B82ED1B5FEA5C010544A8B2208124BF9D
:2019700025210E910E990818743080B215F032FB65782061002800F007820021742210F0ED
:201990001DFA0020E070B4F80A801DB90D9908F02000087000250D9B60790F951D781090EF
:2019B000002D3BD0051C39D108F00708B8F1030F06D0B8F1010F22D17A4890F82A04F0B157
:2019D0007848B0F854000023810809D3754991F8825095B94D681DB16D7E35F07F050CD158
:2019F0005BB98008984605D385498D68887805B1A84710B9B8F1000F01D00420E0706948A6
:201A100090F83C0310B1BBF1020F01DA15F09CF86079B4F80A801090E0780F90216901F1DB
:201A300074004860886525890D812089A1F85C005FEA18100FD31098C0F1030082B2A1F837
:201A50005C20886DCF4915F055FF2169B1F85C20886D801888655248CA4B0078C0F301127E
:201A7000109D18780F9BA1F80C8000F07800104318430874FF228A7320790E9005B100208D
:201A900081F8306081F83A9081F84900A089002F2946A0EB010085B2A58100F06A81BA469D
:201AB000216AE780684652464919083115F022FF3B487F19BDB2A581216900780A7C6E4631
:201AD000C0F3011B801002F0400910F0030F00F0030744D0BBF1020F4FF0000301D1D00992
:201AF0000BD29DF801209DF8000000EB0220A1F844000DF10206A1F84200C94AB1F84400E3
:201B1000B2F85A20824203D04FF6FF72824223D1032F12D072783078C14B00EB022082B299
:201B30004A86B3F85810B61C0120914213D04FF6FF71914218BF00200DE0C94800683146AD
:201B5000323016F010FBC648B54900684F31323015F000FD08360346002B00F00D81104822
:201B70000078831126D02069BBF1020F03D0017CC90903D309E059EA070706D17278317871
:201B9000B61C01EB0221A0F84210032B0CD07178327802EB012202850CE0C046E00B000059
:201BB000F32F002008020020AD4800683146283016F0D9FA08F00708B8F1030F07D0B8F162
:201BD000010F39D1A84890F82A74002F34D0A6482669876F4FF00008EFB17B7E33F07F039A
:201BF00015D096F8300002280CD003280FD107F1700006F1280115F0ADFC40B11CE0C046F8
:201C1000A81F0020B7F87000318D884214D057F80C7C002FE1D1B8F1000F0DD1914F594B70
:201C30004046E07038784246C0F3011118780F9200F07800084330748B4890F83C7317B167
:201C5000BBF1020F0BDA0D98077847B1109830B90E980F9911F022F8A589B4F806A02069B3
:201C700081890909C0F08580806D6946524615F041FE2169886D50448865276AB1F85C0075
:201C900001225044A1F85C000DF125007919083115F030FE6E1CB5B2A58121699DF825000C
:201CB000896D087021699DF825709DF82530886D401C8865B1F85C00401CA1F85C0007F07D
:201CD000070081F82400C3F3C10781F8257091F8246020898046002E4ED05F497F183E7807
:201CF000361D8642E68047DC216A05A832464919083115F0FFFD38789DF817209DF81410AF
:201D10009DF8163040193D78001D01EB026180B201EB0341A0819DF81530206901EB032168
:201D300081616DB14E4800686D1E06A92A461C3015F0E0FD397820696944C97D80F82610E2
:201D5000806D05A9324615F0D5FD2169886D80198865B1F85C00A8EB06078019A1F85C0051
:201D7000781E82B22281B1F85C000A818018A1F85C0000F07FFC10E016F01EF911F000FC54
:201D90000BE0C046F22F002015F006FF05E015F003FFCDF8308013980A90DDF83080D8F8FC
:201DB00004008047216A0A680023137109682162D8F80810884710E0404680784146574667
:201DD000401C887097F900005146401E087011F0D7FB15F04FF913980A9023480B99104FCF
:201DF00000226FF0010690F83C03A1F8AA203E8110B11498007808B915F028FD0A9991F965
:201E10000000401E0870194890F9000010B9134800210170139A92F9000098B102E0C046D3
:201E3000B01B0020119B129F02214FF0E0401940384008BF002908D092F90000002804DC9C
:201E500016F085F9002003F0C3FC0949002015B00870BDE8F08FC0463C0000009A1F00202E
:201E7000E82F0020F32F002008020020A31F0020A51F00202DE9F04F0320ADF14C0D14F076
:201E90000DF98449022001F11C020023401E42F80C3F1F469760F8D18B4606270BF14000C8
:201EB00001461A467F1E21F80C2BFAD10821D24DD04FD24E01809A462D1D87600BF11C047E
:201ED00025F003052B46701BCBF820002A46CBF818501946CBF81C502D18954200F2A98393
:201EF00082104FF0E80901EB820242F804AC20F00300C3F80090EC38C1F8E800E8315046E4
:201F1000CBF810101DF0AEF9CBF81400BC4D2068BE4FCBF81000296807F10C0631606868D6
:201F30007060B8490822304614F032FE20B9B6480168316040687060D048D149C0F8B010F9
:201F5000D04FC0F8B4705546C0F8B850CE4CC0F8CC50CE4BC0F8BC40CD4AC0F8C030D0F8D9
:201F7000B010C0F8C420574600F1B005C0F8C87009B1384688471DF0EDF9DFF818833946D7
:201F90003C2208F118000FF019FF10240820ADF808000227ADF80A70DBF82410039402A812
:201FB000884700280CBF049F574608200124ADF80800DBF82410ADF80A4002A888479349CA
:201FD0009DF80C00049C0A460870546077B1D021397054467C70B8705346FB7052463A717D
:201FF0003946BC600220FB6013F046FBB64918201DF0EEF8B549182001221DF0E9F830468E
:2020100015F06AFE18201DF0C9FB80490F4648707868C8F8080008F0B1FF08F15400394648
:202030008860AB4C6562D8F80860A6600121F52015F0F8FAF820514615F0F4FAA54D0E27B5
:202050000D20687005F10C01AF7005F118000EF01FFAA860687815F013FD00280CBF082606
:202070005646A87815F00CFD08B946F01006C949A86815F059FFC849C82205F1240012F0E3
:20209000D5FBC648102E686013D1606A88B1C2687AB101E0C01A0020FF208DF820004FF62C
:2020B000FF77ADF8227008AEADF8247096E803009047B4A015F0ACFDB94F07F1140007F10E
:2020D00008010EF0E5F97860504615F057FF5646BD1E11905046022305F8020F30466B7010
:2020F00015F0B7FF0146119A7868C9B213F0FCFA761C022EEEDBAB4907F120004FF4FA7289
:2021100012F094FBA84D05F10C00291D0EF0C0F901212860484615F085FAE720092115F038
:2021300081FA552040F20D3115F070FAE0201B2115F078FA4F20032115F074FA572005216A
:2021500015F070FA4E20042115F06CFA5920032115F068FA954904F12C00642212F066FB16
:202170009349E0604FF47A7204F1E00012F05EFB90492062642204F1500012F057FB2061D9
:202190004EF6602013F06AFE012108F1040015F01BFCC84FC64E4FF006093D46A7F10C0124
:2021B0001191291D1291B8F804004108C0F09E8098F80170606A002F40F0928051460028BE
:2021D0000E9137D00769002F34D08DF828900EADADF82A90504600950AABADF82C0093E823
:2021F000030052460423B84790B90E9819300E90606A21E041F90100CC300020004B0020AB
:20221000C8FF0100E80B0000F0120050741F0020636A8DF8289050465746ADF82A900AAA9E
:202230000F905D69ADF82C7092E803000FAB0422A847606A51460E9170B3076967B302AB42
:202250008DF83090012000935546ADF832000CAAADF8345092E803000E235246B847D8B94E
:202270000E980EF0EDFE12F099FAC1B202A810F02DFA012088F8000032E0C046D407002032
:202290006D4F01001553010009040100C156010059E40000241A0020504688F800000E988B
:2022B0000EF0CEFE012015F06DFB5046AC4AC110525C00F00703012707FA03F111420BD165
:2022D000401C8128F2DB08E0A972010015480000481800205C1C00203076032015F084FC55
:2022F000C948012115F065FB40468088810807D309F0DCF9C448022115F05BFB404680885F
:20231000C10861D3CC4832220C3830F80C1F4FF6FF738B420BD041894B0808D301F44073B2
:20233000B3F5407F03D14FF6FF4319404181521EEBD14FF440704FF4807114F0A9F8002890
:202350003CD1BD4D32200C3D35F80C2F4FF6FF71914231D069894B082ED311F4407F2BD1C4
:2023700002208DF81000ADF8082002A80BF0A2FA20BB68894FF6FF5140F4807068810840D2
:2023900068811BE0544920436F6C6C6563746F7200C046C069570100B57701001D7901009A
:2023B000F01C00204D0C01002C1F00202D750100D9740100BD740100401EC5D19248042106
:2023D00015F0F7FA40468088000919D38E48082115F0EFFA0A208DF80800B8F85000014689
:2023F00015F0FDFE8DF80900084615F0ADFE8DF80A0002A811F0CAFA42F2107013F02EFD61
:20241000B188480809D32B48514615F031FE1198012115F0CEFA30468188880809D31298DC
:20243000022115F025FE1198022115F0C2FA30468188F07FCA10520860D3C01E55D0401EFE
:2024500056D1864902A80E2238310DF0EFFEB06800283BD1504601278249B06005ABE122B1
:202470008DF8157018201CF0B3FE502002A915F02BFC7C4903AB1820E2221CF0A9FE0DF1A6
:202490000A01532015F020FC754918201CF0A0FE40F6B83051460FF06FFE41F294100221D2
:2024B0000FF06AFEF06848B1016839B104E0C046A0100020B010002002A88847B07F022895
:2024D00014BF0320042015F05DFA11E0056850B1082107900527ADF8181006A8DBF82410A9
:2024F000ADF81A7088472846B2E701200FF090FD1198082115F05DFA30468188C8080AD3C0
:202510004120514615F076F8484615F03BFA1198042115F04EFAA08840083DD3A0780009BC
:202530000DD310F053FD4FF6FF71ADF80800814205D002208DF8100002A813F02DF8A078C0
:20255000400923D3207868B9012020703BA015F05FFB4120012115F04DF805200CE0C046A4
:20257000660800005046207038A015F051FB4120514615F03FF8484615F004FA3A4815F042
:2025900013FC012802D1384815F027FE5046A0703648012115F00DFAB8F8040000287FF4D5
:2025B00002AE08200A27ADF808004FF0FF35ADF80A70DBF82410039502A8884700287FF410
:2025D000F2AD08200727ADF80800DBF82410ADF80A7002A88847049D00289DF80E209DF889
:2025F0000C0010957FF4DFAD21490978914210D11F494978814209D01D4989684B6C43B1B5
:2026100051462A46984704E0281A0020284602F0B1FA109800283FF4C6AD0820ADF8080028
:2026300003270395DBF82410ADF80A7002A88847B9E542F804AB50E4401100205065726D69
:2026500069744A6F696E2D4F4E2000C05065726D69744A6F696E2D4F464600C02008000062
:20267000E56E01004D4B0100041900204C180020741F00202DE9F04FB64D28692C89296AB8
:20269000AE89806DADF1440D22468919083115F031F92969886D00198865296A3619B6B2CE
:2026B000012210A88919083115F024F9296A761CB4B2042209A8AC810919083115F01AF930
:2026D0009DF827109DF8240000EB01602B699DF82610241D00EB01409DF82510AC8100EB6B
:2026F0000120099015F026FAD863099814F098FEA3F84000EA2014F063FF022196482C6994
:202710000170217CE878084320749DF9400015F06AFD84F8460021899DF94000DFF8F4B25B
:2027300084F8480004F17400A065B4F85C00401A61684FF0000AA946401801466060A0896C
:2027500084F847A0820A18D2020955D310F0070F07D000F00700032812BF081C6068401C35
:2027700046E06168C87800F00702401000F0380000EB42004018001D3AE00CB915F0E7FC40
:20279000A089800A2ED361684878C7112AD12589616650464B780A7803F07F035B0003EB0B
:2027B000E2137E2B0DD07F2B09D002F07F0280188918801C891C80B28542EBDC08E05146DF
:2027D00000E00121801C84F8601080B2854201DA504605E06168091861602189091A2181F6
:2027F000A4F86800606E10B1B4F86800B8B160686061A089000918D294F86000002800F010
:202810001981204611F080FBD9F81040E06C002800F01081B4F85000002840F00B8115F031
:20283000B9FB5046C9F8100035E2504656460A9094F824700B900AA90BAA0CAB0C962046A8
:2028500004F0DCFE002840F0E8800A9B656960682689291A701A86B20BB915F078FCB4F802
:202870005C00009001950B9B0296181D03900A98A169A36D3A4615300EF0BEFA002840F031
:20289000CC80BB4894F860502689C15D701A208115B1204611F038FBA58905F00705032DE6
:2028B00002D160680078E07394F80F8073200EA913F032FF83200DF1420105F057FF514643
:2028D000DC460AE0C278012A03D1002F08BFDC2028D0001D491C0E90C9B29DF8420088427D
:2028F00040F39A800E988278032D07D00378AB420DD09CF800600EB1022D08D0032DE8D1EC
:202910000378032BE5D103465B784345E1D1BB10B3EBA20F05DA02F0030207F003039A4229
:20293000D0DD504680460A98E77B90F814E0514601E0491CC9B28E456ADD06694B00032DA2
:2029500006EB03020AD1F35C032BF2D15278BA42EFD10CE0D82F0020C73000201278AA4230
:2029700005D09CF80020002AE3D0022DE1D10B98077C002F08BFB8F1DC0F4DD0A069B0F189
:20299000FF3F43D071200DA913F0C6FEB448078947B30D9D514684460A9A95421CD19CF83B
:2029B0000AE0BEF1000F08BF50460CD00B98C2687346504696888E4205D05B1E02F10802D1
:2029D00000F10100F6D186451ED00B9AD268A36952F830209A4217D87F1E05F12C0501F16F
:2029F0000101D9D1C2000B98A169C368491CD150C0681058B0F1FF3F02D10C980121C170C2
:202A100084F801A0504609E0DB2007E0DB2004E0DC2002E044050020DD206070D9F8104014
:202A30006070A0696778606527B1F22014F0C8FDD9F810409A4D95F83C03002800F0AB803F
:202A5000A189DFF8608201F00702022A63D199F80170002F5FD16778002F5CD1D9F810109C
:202A70008DF841A004A8283115F07DFBD9F8101006A80A22283114F03DFF414601F110026F
:202A9000D9F81070D5F860331088401C1080786E04210DF141029847444609F1100B28B946
:202AB000686818B19DF8411080F86810D9F8107097F83000022811D1DBF8000005F56A71D3
:202AD0000E4602222830203114F062F830B906F1160104A815F047FBD9F8107072480078FA
:202AF000862807D1608A401C6082B88900F010000FF00CFD95F83C0328B1D5F8841311B104
:202B1000D9F81000884715F045FA5046C9F8100014F012FDC1E0654A1778002F30D0C1F375
:202B3000013102292CD16078002840F0B4809DF840005F49464699F803700870B08A04F113
:202B500028021C34002F00F10100B0820CBF50460820584953460B6000900194B5F8CE3397
:202B7000117A0D2004F05CFE20B913F0EDFF03E04000000014F070FC5846D9F810400078AD
:202B900048B1D5F8841331B1204688472846D9F8104090F83C03A7890F9407F0070760B172
:202BB000A07BFF2873D0032F05D1204640680078042802DD6BE0012F69D1381C3AD0401E76
:202BD00050D0801E63D1A089C0F30130022803D16068007807282BD02089002857D0204620
:202BF00041684A1C42600F78A446C7739CF824606EB9002F4BD00A2F49DA2F490089C95D5D
:202C1000814209D0082F42D1082805D03FE0C07B00283CD00A283ADA20460189491E01810C
:202C3000C17B0B3101700F99C87B401CC8731BE0322018E095F8B5030F280AD014F098FFE3
:202C500038B90F988189091301F00201022900DAD04795F8EB030F9C2074152003E0C046BE
:202C7000881F0020162020700F9905F17C0013F029F8124C6068804795F88410491C85F889
:202C90008410A1688847202015F0B6F83DE70FA811F0FEFF39E710F073FC11B0BDE8F08F78
:202CB00008020020901E0020CB300020C9300020A61C0020D41D002047000000C01A0020A4
:202CD0002DE9FE4FDD4981460122A1F130000260D8480768002FFCD0D74AE34EC027D8486A
:202CF000D84B17603268920808D2324652F8042C03F14104120C42F0F00222704FF0000AD4
:202D10008346C1F800A0DFF88CC3DBF80810E04F0191880E43D2480E41D3802018744FF629
:202D3000D802A3F8512018703868C0F30464162CA8BF203C1E460F3E307800F01F001628AF
:202D5000A8BF2038844223D0624602F1980EE44ACEF800A0251A022D05DC15F1020FB8BF39
:202D70006FF0010500E002254019156800F01F05844245F4F855A6F866504FF00105156093
:202D9000E8D110682E4616601068CEF80050106838460068C0F30420162808DB06E0A7F1A6
:202DB000D0000068C0F30460162800DB203800EB2170401C162805DA10F10A0FB8BF6FF05E
:202DD000090000E01520D54E00F01F0040F4F850A3F85900306880083ABFD148C0F800A099
:202DF00041F040616246C80E8E0E80F0010000F00100106086F0010000F001009060019814
:202E100010F04EF80146182012F0D6FDA7F13806CD4C30683568A4F10408C0F3870105F013
:202E3000030041EA0021D8F80400C04D446840F2FF32534688B22C21009028464038A047C6
:202E5000F06AC0F30D011C2012F0B6FDB549706A014000F07C400143142012F0ADFD316AD2
:202E700001F47C000904090C0143102012F0A4FD7D4AB06A1268C0F30351C0F303445208E2
:202E900013D2DBF80020130511EB237103D41029A8BF0F2100E05146120414EB227403D402
:202EB000102CA8BF0F2400E0544644EA011400F47F4200F0FF01B9F1220F42EA044241EA52
:202ED000020124BF00F0804001430C2012F074FD954CB9F1220F32BF01202068C0F30070F0
:202EF000B9F1220F4FEA400040F0200085F8090126BF2068C0F3407001208D4EB9F1200FF2
:202F100040F0100085F8090138BF514606D33168C80C00F44070C1F384510143282012F04B
:202F30004BFDB9F1200F26BF3068C0F301505046B9F1220F4FEA400040F0600085F80C01DB
:202F500026BF2068C0F3C0605046B9F1220F4FEAC00040F0800085F8010126BF2068C0F368
:202F700045505046B9F1200F4FEA800040F47C40A5F89C0138BF6F490AD3306801038A1593
:202F9000920501F47C1100F00F00114341EA0031082012F011FDCC3F4FF480002860664A1B
:202FB000B86D40F21E216FF31F40814216D93868030E03F00F0113F00F0FC0F3034018BF56
:202FD000491E072805D006280EBF0720801C00F00F0041EA0011A2F108000170DDF804C0D8
:202FF000CCF381477F1E02D07F1E31D02CE02068810C29D24FF480412960D2F80210430A5B
:20301000C0F3033703F0800321F08F010B4347EA0301C2F80210D2F80130060A66F30303E3
:20303000C2F80130116800F0E70721F0E70147EA01000CE09402224300600C4040100940E7
:20305000AC3F0050156208404FF000402A46106005480068C0F3C0070FB94020A8624FF463
:203070000070286402E0C046B03F005020684027C0F3C14040F0300085F8C800CCF3815045
:2030900080B3401E08D0FFE7401E23D0022122E08813005000002043012013F05FF9064645
:2030B0000420314610F0BCF8042013F057F98642FAD12248066826F07F4012F0D7FFD8F852
:2030D0001400036807214FF06022300E98474FF4806028600321042010F0A2F809E0C046DF
:2030F0002C2009400420012110F09AF8144812F0BDFF203C206800F03F0085F8CB0FD8F8FF
:203110000030124ED96830680220884710480D4C076001212160BDE8FE8FC0460000094009
:2031300094042A43FCFCFC008C13005040A00C409813005000803F400A600840A83F005088
:20315000BD37860094046042A40100102C20094000600C402DE9F04FADF1840D1A9104463C
:203170001B920DF15F00CF491C93082214F0C2FB2046694612F0D0FB1D9018B900200146BC
:20319000209006E202200027A41CDFF820B31E90C54E2097204602A910F05DFF5FEA00099D
:2031B00000F0F38120990DF14100162215F021F89DF809707F1E00F088807F1E40F0DD817F
:2031D000B9F10A0F40F3E481A41C06A80422214614F090FB241D07A80222214614F08AFBF6
:2031F00042F20B000DF11E0111F016F9BDF81E00BDF81C10884200F3CB81A41C14F8010BBE
:2032100014F8017B14F8015B8DF8410014F8011B8DF842700DF141028DF84350204605F0D5
:2032300013FEC24909780028044400F0B1811D9D012905F1020500F099814FF400500DF1D3
:20325000570111F0E9F80DF157000DF15F01082213F09EFC40B11A990DF15700082213F084
:2032700097FC002840F0828142F2010006A905F0C1FE42F20B0007A905F0BCFE42F20500E1
:203290000DF1410105F0B6FE0DF1420142F2060005F0B0FE0DF1430142F2070005F0AAFEFD
:2032B00011A942F2090005F0A5FE9DF8440028B1022840F05B8142F2030001E042F20D002E
:2032D0000DF1450105F096FE50E1B9F1040F40F35F81A41C14F8010B14F8017B14F8015B48
:2032F0008DF8410014F8011B8DF842700DF141028DF84350204605F0A7FD0028044400F0E1
:2033100047811A9808A905F043FF9DF83E00002840F00E819DF8440000287BD1B6F84E70C8
:20333000002F00F00081B6F85200874207D0308B718B884201D108F0ABFEB06D20E0B76D08
:203350004FF4005004A911F067F813F083FD4FF6FF78209D1F90AA46B6F84E00A84243DC1D
:20337000B06D4FF6FF7141450AD04FEA480707EB88073818808811F011FDB06D3F1823D133
:20339000B6F84E300746002B08BF209D19D05846209D40681946D846BF1FBF1DFA782AB185
:2033B000491E05F10105F8D1BF1D0AE08047B6F85210491CA6F85210D8F808108847B6F86A
:2033D0004E30AB4200F097801A9809F0EBFEB8800120F870FD788DF83E50B888ADF83F006A
:2033F000209B8DF82B30A3E0B88810F0ADFE0146082204A813F0CCFB40B1388801041F9860
:2034100014F0CBFE82453CBF8246A8466D1CBF1DADB2A1E7B6F84C70002F00F08480B6F8D0
:203430005000874207D0308B718B884201D108F02FFE706D1FE0776D4FF4005004A910F014
:20345000EBFF13F007FD4FF6FF78209D1F90AA46B6F84C00A84250DC706D4FF6FF7141452B
:2034700009D008EB48173818B0F81F0011F096FC706D3F1829D1B6F84C300746002B08BFD0
:20349000209D20D0DBF80400209D1946D846213F2137BA7F62B1491E05F10105F8D12137D6
:2034B00011E0C046A004000098130020C01A00208047B6F85010491CA6F85010D8F808107C
:2034D0008847B6F84C30AB4215D020993846212214F08FFE1A9809F065FEA7F81F00012316
:2034F000FF2039462122BB770546787208A8FD7214F000FA1CE0612057E0B7F81F0010F0D5
:2035100023FE0146082204A813F042FB38B179681F9814F042FE82453CBF8246A8466D1C57
:203530002137ADB294E764203FE0C0460A0200209DF83E000DF14101162240F004008DF870
:203550003E000AA814F0D6F91D9D9DF84400AD1C48B19DF856700DF14500394610F0CAFA62
:203570003F1A8DF83D7008A80FF0E6F81E9809EB0007BF1CB8B21E9003E01D9D4C44A41C92
:20359000AD1C1E9885423FF705AE1E98022803DC20990A46672004E01D9A911C121A209871
:2035B000921C1B9B19801C990A8021B0BDE8F08F2DE9F04F0D46C64C016861624168806853
:2035D0006160ADF12C0DA060284612F0FDF84FF008094FF0010BADF8089002A8ADF80AB0FD
:2035F000616A08908847C94E9DF80C1071700499716108B113F042FE28688047A046D8F868
:203610000400804709904FF40057ADF808901E20D8F82410ADF80A0008980397884711F064
:20363000F3FFBB4C206C40688047206CC16868468847206C83686A46002001469847E063A4
:2036500008B913F01BFE14F005F8B34FC4F8D470B34AC4F8DC20B349C4F8E010AD48306197
:203670000025A4F85450AD4BC4F8D830AE4FC4F8E47004F5C472C4F8642104F1C001C4F82A
:20369000681104F1D400C4F86C01A84BC4F8E83012F040FF04F1EC07C4F87C7104F16803B6
:2036B000C4F88031A24AC4F8BC20A249C4F80C1104F14400C4F878019F4FA7609F4BE360B5
:2036D0009F4AA2619F49E1619F4BB4F854709F4AC4F840339E49C4F8442347F00200C4F853
:2036F00048139C4FC4F84C739B4BC4F850339B4AC4F854239A49C4F8581384F83C53B56092
:20371000984FC4F85C73984BC4F86033974AC4F864239749C4F86813964FC4F86C73A4F89E
:203730005400954BC4F87033944AC4F874239449C4F87813934FC4F87C73934BC4F88033B7
:20375000924AC4F884239249C4F88813914FC4F88C73914BC4F89033904AC4F894239049CC
:20377000C4F898138F4FC4F89C738F4BC4F8A0338E4AC4F8A4238E490D608E4F87F800B015
:2037900002207D8013F0A4F8FF210222F06214F030FDF01CFF21022214F02BFD022013F0F3
:2037B00097F8854F386008B913F068FD38682946022214F01EFD07A806A911F041FFF06A8A
:2037D0009DF81C10421C01709DF81C00107025709DF81C00B07013F0EDFAB061089FD8F840
:2037F0002410ADF808901420ADF80A00384688471523ADF808900398ADF80A30D8F8241025
:20381000F0613846884703986D4FDFF8C0A16D4B3D70801E3062694E1D700AF10E023570E2
:20383000108875700E30356180B213F0D3FB074677610FB914F08BFC02978DF80C509DF89D
:203850000D00614965F301008DF80D009DF80D00534665F383008DF80D00D8899DF80D20EB
:20387000088065F307128DF80D20ADF80E00706902A94A4614F03EF83762756211F0AEF875
:20389000534E3078012802D0284601F0A1FF51480570514F3D703078012802D0284601F078
:2038B00097FFD8F808100998884700F02DFC13F0B1FB94F8EB0311F06DF8584601F088FF4C
:2038D0000EF059FC454805703078012805D001E0C01A0020284601F07BFF0FF0DBFB18201C
:2038F0003F4FADF808903F4EADF80A00D8F82410039708980496884710B1FFE714F027FC3C
:2039100002F0F0FC0BB0BDE8F08FC046A01D00200802002089460100B5850000F13501009C
:20393000DF710100FDCE0000EDE10000311F0100A802000005F20000713401005945010056
:2039500077800100C97D0100690001002D680000CD230100E15501004D7C000031EC00000B
:203970007D5D00006531000023140100E9830000E9CF0000417A01000590000029440100AC
:20399000396A0100D1D00000CDA30000056D000039720100F1EC0000AD3A0100156A0100FF
:2039B000094B0100256D01004D7601001D810100A830002048200020BC300020D82F0020F9
:2039D000C7300020C93000200C1A0020881F0020A51F0020CB300020C2300020C830002071
:2039F000DB260100281F00202DE9F04FBF4C0546A07AADF1340DC00012F06AFFDFF8F09226
:203A1000089009F10400006880470B900AA9822004F0ACFEBDF82800002834D14FF00008F2
:203A30004FF6FF76ADF8288024E0ADF81460BDF82800ADF81660FF210822ADF8100006A8AD
:203A500014F0D7FBA77A57B143461946089AC8007F1E01F10101135010448680F6D18DF86B
:203A70002480D42004A903F015F8BDF82800401CADF82800A088BDF828108842D5DC8220B9
:203A90000AA903F007F8B94F0020A0464FF6FF79A2463988ADF8280006E0B44FBDF828006A
:203AB0003988401CADF82800BDF828008142DCBF8F48816840F34F81AD4800784FF0000B57
:203AD00001265C460FE08A49B8F804008968641CA4B2ACE0BAF80600641CA4B23CE0A448AE
:203AF000641CA4B20078A04208DC002ED5D1BBF1000F2ED1687F0028CFD02AE0BDF828007F
:203B10008DF802406946ADF80000D02004F02EFE0028E4D19DF80C30012B08D19DF80B0017
:203B300028B90DF1030013F0CDFE0028B5D16F7B002F0CBF052209225E469F42CFD10DF1BE
:203B5000030005F10E0113F0B5FA0028C7D04FF0010BB8F806000024A0425CDDBDF82800BF
:203B7000ADF802406946ADF80000D12004F0FEFD0028AFD1BDF804008145ABD0ADF81000C3
:203B900004A9D42004F0F2FD00285AD106A8291D082213F08FFA00289CD028886F88ADF8B4
:203BB0001400BBF1000FADF8167022D0287B98F80A708DF82400381C08BF00200FD00899F8
:203BD000024600208B88994509D0BDF828609E4205D0521E01F1080100F10100F2D18742C8
:203BF0002FDD0899AA69C000BDF828700A5040188780D42004A902F04DFFBBF1000F0AD0BB
:203C1000287F9DF80610884205D08DF806006946D12002F03FFFB8F80600A0427FF43DAF51
:203C30003349B8F80400DFF84CA189680024A04240F38F80ADF81040D42004A904F096FD2A
:203C500018B12B498968192486E006AB184613F039FE38B9291D1846082213F02BFA00282B
:203C70003FF431AF6F882888ADF816702E7BADF8140098F80A708DF824603B1C08BF00209C
:203C90000FD008991A4600208B88994509D0BDF828609E4205D0521E01F1080100F10100FB
:203CB000F2D1874203DC124989681A2454E0089A2E1DBBF1000F0CBF0021A969C000115004
:203CD0001218BDF8280031469080082206A813F011FE9AF83C0330B1DAF88C231AB1BDF8A9
:203CF000101030469047002606E0C046881F0020C01A0020761CB6B2B8F80600B04221DDD4
:203D1000BDF82800ADF802606946ADF80000D12004F02CFDE82803D0BDF804008145E9D131
:203D3000BDF810000023ADF804002F7F8DF8073004A98DF80670D42002F0ACFED1206946A0
:203D500002F0A8FE0C488168B8F80400B0427FF7BEAEA042A9D000240B988847089813F062
:203D700009F820460DB0BDE8F08FC046901F0020931F002008020020C01A00202DE9F04FCB
:203D9000064692F808B0307D09AF8846ADF1240D04933528039205D0114606F170000A223B
:203DB00013F0A8FDDFF8C8C238F07F0506BF604600884FF6FF700590F08A800934BF0020EC
:203DD00008203076F08AC00834BF102080207076F08A400903D260460E30007800E0002026
:203DF000B076F08A41082CBF20240024000928BF44F010047568002108F07F08307D06917E
:203E10006D1E02280EDB0C2808DC0C2803D1022044F40854069044F0030404E00D280CBF69
:203E300002200120044396F88C0008B144F00804E110220900D328B1DFF8BC9299F8E03344
:203E500013B908B1DF204CE149086ED306F12401DFF8A8A296F88D50079100EB0A011AF8C7
:203E700005300A7999183389491DCAB29918A44B1A8808908A42C0F2368100284CD0049A3A
:203E9000039906F184000AF011FC0799002808603FD0806AB0F1FF3F39D070680023401E8A
:203EB0008DB196F88E10524600F80119515D491EC9B241B18A1992F88320491EC9B2002981
:203ED00000F80129F6D1079970660968896AB162090E00F8011996F82A1000F8011996F86B
:203EF0002910089A00F8011996F8281005F0030500F8011902F0070141EAC50101707168BB
:203F10003589091ACAB27060A918318105E0DB2700E0F3277770E7E00023F08A7370C0081A
:203F300028BF44F0100475686D1E336DA3B9B36D93B999F8F913012903D13089B0F5EE7F0C
:203F500006DA200904D202290AD144F4005401E044F48054012002E044F4085402200690A4
:203F700099F8020001280CD099F83C0348B196F86B00042805D1022024F48054069044F4F9
:203F9000005444EA8834B8F1020FA4B20AD0B8F1030F10D1ED1F09F57B71284614F0E3F80A
:203FB0006D1E08E0B9F8D203001205F8010999F8D20305F80109069802280CD0B8F1000F16
:203FD00015D0BBF1000F0CD004990598814208D144F040040BE0BBF1000F08D1B8F1000FD0
:203FF00005D00599081205F8010905F8011944EA8B24BBF1020FA4B209D0BBF1030F0ED1A0
:204010000399ED1F284614F0AEF86D1E07E003990888001205F80109087805F80109BBF1E6
:20403000000F05D00498011205F8011905F801093878F8B933480178307D0D2814D068B983
:20405000306D28B999F8BC03411C89F8BC130AE099F8E103411C89F8E11304E099F8CA0362
:20407000411C89F8CA13014605F8011904E0C046D605002044F48074201205F801092C7031
:2040900070683789401BC1B2756078183081200926D3B06D00B1306299F83C0310B1307DD4
:2040B0000D281DD1746A14F1150001D114F04FF8A16A481CA0623289306AB162471B0092EB
:2040D000D21B019090B20290706A96F88C202B4615300AF0B5FB00281CBF7070071C07D12C
:2040F0000020707005E0E5277770F32013F068FAF8B209B0BDE8F08F080200203C00000073
:20411000961F0020DC2F00202DE9F04FD54D286A416EADF11C0D02A888474FF00009D24F2E
:20413000CDF80890B8688DF80C90002833D111F085FFB8B111F082FF012813D011F07EFFAB
:2041500005280FD011F07AFF0C280BD011F076FF0D2807D011F072FF0B2803D011F06EFF52
:204170000E280BD111F06AFF787000280CBF48460120B870286A00F1200408B913F0E7FFB0
:20419000216807F1180088474FF4FA703885B74EFE6206243C63DFF8D882EA6998F8FB43BD
:2041B0004FF0010A4946080100EB41108018867F2EB9437F491C9C42C9B2F4D102E0417F66
:2041D000A14204D1824202D011F0FEFAEA69DFF8A4B2686A1BC88BE81B0097F9010001280B
:2041F00005D00D2803D00E2818BF484600D105208BF8000098F8291450699F4C50F82100E4
:20421000C4F89C0013F01AF9632005A910F096FC98F8FB0311F0D4FC064694F88E006AF33B
:20423000020084F88E0010F039FF042825D010F035FF032811D094F8900040F00F0084F8F2
:20425000900094F8970069F3030084F89700B07B052814BF2420292016E094F8900040F02F
:204270000F0084F89000292384F8943094F8970069F3030084F8970008E094F8900040F0BE
:204290000F0084F89000212084F8940094F8950069F3871084F8950010F000FF042818D06A
:2042B000B37A7BB99DF8140094F89510401E60F3050184F8951094F8960020F03F0040F03A
:2042D000180014E09DF8141094F8950061F3050005E094F8950020F03F0040F0020084F88C
:2042F000950094F8960020F03F0040F0200084F89600B189B07BB4F88E200A23401D484372
:2043100090FBF3F161F3CF02A4F88E20B08994F890201923800390FBF3F102F00F00D4F83F
:2043300090200F23484390FBF3F161F31C22C4F89020E86994F89820017F61F3020284F8AA
:20435000982094F89810007FC01060F3C30184F8981098F9EA0310F0D1F8B0F1FF3F05D0DC
:20437000010828BF4FF6FF70A4F89A00308971683368EA69401E414303EB51004FF47A7184
:20439000B0FBF1F0A4F8A00090690078A4F88290C4F8849094F88D3084F8A4006AF303038A
:2043B00084F88D3013F0FCFDC8B9B089334A98F8FB63B1FBF0F0C0B21070B1FBF0F0304910
:2043D000022E487006D010F069FE032807D105225C2001E00222A8202A4B1A700870BB689B
:2043F0002E6A5BB3484610F031FCF87898F8FB13884212D13A7998F829142E6AB8688A428D
:204410000DD102214A468DE80600366D80344B4602AA2146B047EC601BE02E6AB8687168B6
:20443000884719482B6A80F800A01E68174880345946224607F11803B04707E080342246E2
:204450001248346807F118035946A047B860686AA86298F8FB0398F82964F87007B03E7150
:20447000BDE8F08FB01B00206C1D00203F1E0100080200208C3000204C190020141F002038
:20449000A41C0020901E0020A61F0020C82D00202DE9F843DFF828830F460446F80B80F07F
:2044B0007481DFF81893B80F80F02D81C54DB80880F02281F80A80F00081B80B80F0EE8017
:2044D000780B80F0C080380C80F0AF803809C0F07F81082013F040FD002840F0A180802044
:2044F00013F03AFD002840F09B8068460CF01CF8012803D10098002800F092800024012538
:20451000E0B213F0EFFA48B1867A3EB1857290F9090005FA00F0C0B211F0B6FA641C032CDB
:20453000EED34C46032020756068783013F02FFEAB48002601680660AA4950F8082CB14672
:20455000324640F8089C04F1380013F030FE304612F0D0FC13F08AFA0146A268E069891A91
:20457000090BC1F1FF3282422CBF08444FF0FF30E06194F820601EB12169B0EBC12F1FD9A2
:2045900012F018FD494600B12946081C14D0964840F60901018049464180427B65F3030234
:2045B0004273027B61F303020273416013F0E4FB418811F4406FFBD084F820504946E16163
:2045D00010F082FE89484D4649460560022012F073FA022011F03EFA11200AF0DFFB20786A
:2045F00018B96068403013F0EAFD8148007810B90E200AF0D3FB94F8210020B184F821504D
:20461000052011F027FA7B48B4F98C60A061B4F98E1025758E4214BF022007200DF092F88E
:2046300027F008070EF05CFED2E00835296839B1C86840880028FBD0C86840880128F7D0AF
:2046500027F40047EEE711F06BF838B12046A4696FF4807100224FF00073A04768494C4601
:20467000002204F1380013F0A2FD0220E668207513F0FCF9D4F81C21636804F58E719A4294
:2046900014BF0122002226B1801B01EB8206030BB360002027F48057E060C3E740460668FB
:2046B00046B1B06830B13069B6F93410B46800222023A04727F400578AE013F072FD4C4626
:2046D0000546206F064688B1606810B1783013F05EFD3069606013F0C9F9E06046484FF4AD
:2046F0000061A06104F1B40013F071FD284613F043FE27F480676BE006F05EFA286808B990
:2047100027F0020764E013F04CFD0546042011F025FEC8B1207CB8B148460830006898B151
:20473000064613F0A3F9E168801BE060000B8842E06002D240184008E06040F6C4118142C3
:204750002CBFB0F5967FE160284613F015FE10F0E7FF80B1A56920466FF4807100224FF09F
:204770000073A84725480068002808BF47F0020701D00EF0B5FD2046646900214FF08063CC
:204790000A46A04727F0005722E013F00AFD41460E68CEB1B16A890816D2B56AB16AA94322
:2047B000B16213F0E9FDB06880B17DB13069B6F93410B4682A460023A04707E02027002006
:2047D000A82700209827002013F0D6FD27F4804727B1404639462C3013F0F9FCBDE8F883F2
:2047F00014100440893801006430002000000460B61F002045D50000E5B7000090270020E5
:2048100001B200002DE9F04FC34C07466068ADF1140D80470025DFF804830390002F88F811
:20483000035000F0C68011F075FE08F52A702946402213F0DEFCBA4C04F1080001882C2747
:2048500007FB01F080B212F043F8C8F8CC02002800F05D81E17A20894843410001EBC001E5
:2048700088B212F035F80028C8F8D00200F04F81E18820894843800080B212F029F80028AB
:20489000C8F8D40200F043812089800080B212F01FF80028C8F8D80200F03981208980B104
:2048B0002A46D8F8CC1289180D75D8F8CC1289180D71D8F8CC12401E114402F12C028D814A
:2048D000EFD1A188880000EB011080B212F000F80028C8F8DC0200F01A814FF6FF7AA94631
:2048F000AB4615E0A77A7FB12946D8F8DC028019C368CA0042F803B0C0687F1E01F1010120
:204910001044A0F804A0F0D109F101001FFA80F9A088484500F3EA809548FF210822C01D93
:2049300013F067FC9248FF21082288F8B712103013F05FFC032688F8C8622789A8F8CAA267
:20495000C7B14FF0010C04232A46D8F8D802910001F800C0D8F8D80240184370D8F8D80299
:2049700040188670D8F8D8027F1E02F101020844C370EAD17E48012104230522022734309F
:2049900000F8041F437082707F1EC170F8D1784880F83C60A08848B12946D8F8DC22401E20
:2049B0000A4401F11401A2F802A0F6D1022088F8AC0298F83C0318B1D8F8400300B180471C
:2049D0000EF068FB98F9EA0313F059F911F0B8FD13F0BAF812F02EFF12F020FF514E07240E
:2049F00056F8040B00B18047641EF9D112F052FF444604F14C00016809B110F049F94A4871
:204A1000006884F8565020B10CF058FE0028009068D146480078012802D0284600F0D8FEB3
:204A3000434804F178060570A06F002852D1361DE06F002846D1A5673E48C4F88801E56795
:204A50003D4FC4F88C7184F882503C4EC4F8906184F883503A4BC4F89431A570394AC4F8D3
:204A7000982184F884503849C4F89C113B49C4F8C010364FC4F8A071394FC4F8C470344ED7
:204A9000C4F8A461374E334BC4F8C8602249C4F8A831354B304AC4F8CC308968C4F8AC2132
:204AB000324A0398C4F8D020884704F2D131522004F064FF94F8EB030FF00EFC0EF0EAFA2E
:204AD000284626E0304610F0B7FE029002A810F0DFF8ADE7304610F0AFFE019001A810F023
:204AF000D7F8A1E7684610F0D3F88DE7A37AD8F8DC724846860006EB0016D80011F0E8FE4D
:204B1000F119F319C860D86800287FF4EBAE13F01EFB05B0BDE8F08FC01A002008020020BA
:204B3000881F002010030020BC300020A51F0020C63000206B26010065810100696801001A
:204B5000A98C00007DDA0000057001009D5B010009B9000069A200000D6101008F0A010074
:204B700081AA0000F92801003108010031350100B0040020B0B50446BA480768ADF1480D50
:204B9000002F00F0A8812078401E112800F2A381DFE810F06A015201380123011B01040175
:204BB000F100E300C300B2008D005D0053004200A1012A001C001200F86B002800F08B819C
:204BD000684621460CF0C8FAF96B82E1386C002800F081816846002101220DF0EFF86078BF
:204BF0008DF80000396C74E1F86A002800F07381684600210E220DF0E1F8A11C684612F076
:204C1000E9FDA57BA1890022ADF80A1005B101228DF80C20F96A5DE1B86B002800F05B8131
:204C30006846002102220DF0C9F8A5788DF8015060788DF80000B96B4BE1786B002800F018
:204C50004A81684621460CF087FA796B41E1386B08B36846002114220DF0B0F8A5788DF837
:204C70000150A3680193A289ADF80820A17B8DF80A1060788DF80000E57B8DF80B50237C45
:204C90008DF80C3094F911208DF80D2061690491396B684688476068002800F01C8101468F
:204CB000F22008700020487010F0E6FC13E1B86A002800F010816846002124220DF07EF859
:204CD0006078A11C8DF800000DF1020012F082FD04F10C0103A812F07DFD257EE08A04F1FE
:204CF00019018DF818500B22ADF816000DF119000BF09CFAB96AECE0786A002800F0EB80B9
:204D10006846002102220DF059F8A5788DF8015060788DF80000796ADBE0386A002800F09A
:204D3000DA806846002112220DF048F8658862796078ADF8025023798DF80520E11D8DF869
:204D50000000A5798DF804300B220DF107008DF806500BF06BFA396ABBE0F869002800F048
:204D7000BA806846002101220DF028F860788DF80000F969ADE0B86910B120460FF0EEF861
:204D9000A07820B9A069002800F0A58003E0A069002800F0A08011F0FDFF9CE07869002826
:204DB00000F099806846002113220DF007F86D46A01C0168406829600B22686004F10A01DC
:204DD00002A80BF033FA796983E03869002800F0828020460AF024FC7DE0F86800287AD042
:204DF000684600210E220CF0E9FF6078A11C8DF800000DF1020012F0EDFCA089ADF80C00E1
:204E1000F96866E0B868002865D06846002114220CF0D4FFA01C01686D46296040686860B9
:204E3000A07A0B2204F10B018DF808000DF109000BF0FCF9B9684CE0786800284BD0684678
:204E5000002110220CF0BAFF60786588211D8DF800000B22ADF8025001A80BF0E7F9796829
:204E700037E0C0467C1F00203868A0B36846002119220CF0A3FFA01C01686D4629604068A6
:204E90006860A07A410824BF01218DF80810810824BF01218DF80910C10824BF01218DF8B6
:204EB0000A10010924BF01218DF80B10C10924BF01218DF80C1030F07F001CBF01208DF889
:204ED0000D000B220DF10E0004F10B010BF0AEF939686846884712B0B0BD7047BA482DE9BD
:204EF000F84F0025B94CB749056094F8E200002800F06381012800F02F81B54E02283CD060
:204F1000032840F05A8151F8250CD4F8B8100029A0F5C060C4F8D400B8BF49420028B8BF2E
:204F30004042814226DA4FF08057D7F8A4014568B4F8BC0030214FF47F42082300903046F7
:204F5000A847D7F8A4014568B4F8C00004214FF4F802122300903046A847D7F8A401B4F819
:204F7000D070456820214FF440620A2330460097A847012584F8D8501AE151F8258C12F024
:204F9000C1FF2F4600B901273946924F38680028FCD0B146012609F10409D9F82CA03E6097
:204FB00009B112F0B5FFCAF30720C4F8BC0012F0A9FFAA4600B9B2463B68002BFCD0D9F85F
:204FD00000B0BAF1000F3E6001D012F0A1FFCBF38440C4F8C00012F095FFAA4600B9B24611
:204FF0003B68002BFCD0D9F81C90BAF1000F3E6001D012F08DFFC9F38120C4F8D000B8F53D
:20501000C061C4F8B81000F09C8094F8D80068B9C4F8D410D4F8C000C4F8C800D4F8BC70A2
:20503000C4F8C470D4F8D030C4F8CC30D4F8D400D4F8BC30002854BF02226FF0010204F1DE
:20505000C8010F6800EB40008018421000EB927207EBA2000860D4F8C810C4F8C430002983
:205070001CDD1E293CDDD4F8CC0030B93429B4BF15391E21C4F8C81025E02A29BABFD4F8B8
:20509000C8000B381E20C4F8C800D4F8C4003F28B4BF401C3F20C4F8C4001FE0D4F8CC00F7
:2050B000032812D011F10B0FC6BFD4F8C8000B30301CC4F8C800D4F8C4000028C4BF401EFA
:2050D000051CC4F8C450032508E011F1150FC6BFD4F8C8001530301CC4F8C800C4F8CC5093
:2050F0004FF08057D7F8A401B4F8C43030214FF47F424568364800930823A847D7F8A401D5
:2051100004214FF400321123456831480096A847B4F8C860D7F8A40104214FF4F802122327
:2051300045682B480096A847D7F8A40120214FF440620A23B4F8CC60456825480096A8477C
:2051500001E084F8D85040F2FF50404502D8801C40452DD208202EE051F8251C1E4F4BF250
:20517000F5204843060A3868C0F3814001280AD111F0E6FA10F08AF812F0D0FE3111C01012
:20519000484306EBE03694F8E50030B91348006820F07F403618760801E084F8E5501048CB
:2051B000310C0660012741600E4D8760287808B90B2000E0052084F8E40004F017FBBDE895
:2051D000F88FC0462D400C402C500C403417002000A00C4000800C40B43F005010200940D2
:2051F0003C600C40690B00002DE9F04F09AFADF13C0D08900A92388809911E46ADF81800A0
:20521000101C08BF002000F06C81017800274FF0010B401C4FF0FF39B846DA460A9058E1DF
:20523000252940F04D810178401C0A902D2918BFADF8068004D10178ADF806B0401C0A90AC
:2052500030291CBF4246434604D10178401C5A465B460A902A29CDF800804D4617D10493CA
:2052700030680A9BCDF80890C01C20F00300001D306050F8044C1978002C009403F101000A
:205290000A9018D5ADF806A06442009413E044460AE0600000EBC4004018A0F130040A98BD
:2052B00001780094401C0A90302901DB3A29F0DBCDF8089004932E2929D10178401C2A290B
:2052D0000A9011D13168CDF80880C91C21F00301091D316051F8045C002D48BF45460178CA
:2052F0002B46401C0A9011E0454643460AE0680000EBC5004018A0F130050A9801782B4686
:20531000401C0A90302901DB3A29F0DB02930AB1224604926C2904D04C2918BFADF80480F8
:2053300004D10178ADF804A0401C0A900BA8CDF80C800FAB07906429059379D0692977D034
:20535000BDF818C0752965D0782961D06F295DD0702946D0632936D073291AD00A98401E7F
:205370000A900998012812D961490C68B5F1FF3F03D0A84288BF6D1C00D8099D029508A87A
:205390000AA932466B46A0473F18039865E0454617E03068C01C20F00300001D306050F805
:2053B000040CBCF1010F014608B94FA00146079112F010FC0390B5F1FF3F4FD0A8424DD986
:2053D000039528464AE03068C01C20F00300001D306010F8040C8DF82C005D4603955846B7
:2053F0003CE0082035680490E81C20F00300001D306050F8041C082210230FA80DF02EF9C4
:20541000401E079040210170079823E0082302E0102300E00A233068C01C20F00300001D22
:20543000306050F8041CAA42BCBF2A1C04920DE03068C01C20F00300001D306050F8041C98
:20545000AA42BCBF2A1C04926FF009030FA80DF005F907900599081A0390009C241ABDF863
:20547000065000945DB906E008A8202109AA11F016F97F1C009C641E0094F5D50398401E72
:20549000B0F1FF3F03900FD1BDF8060001281CD10098401E009018D408A8202109AA11F0C2
:2054B000FEF800987F1CF4E70798017809AA08A811F0F5F80798401C079003987F1CDEE7E2
:2054D00008A809AA11F0EBF87F1C0A980178401C0A9000297FF4A4AE089808B1414601708A
:2054F00038460FB0BDE8F08F286E756C6C2900C0300C00002DE9F04FA64D824605F120000D
:205510000068416EADF12C0D03A88847AF4C201D0768002F00F036814FF0000B38897968AA
:205530009B4DCDF81CB0C600097828781036890906D340F6485191FBF0F1761806F5AF7660
:205550003D7D70438600352D0CBF5F464FF4FA570DF12601E8200FF0F1FA9DF826000328E5
:2055700008BF44F620676068007DF619352803D1D4F8A003804746430220894F8DF82000B0
:2055900007F108000068069606A908F043F8D8468048824D804980F8008001200870297865
:2055B000012901D000F014F960680589466811F041FD3088000935D394F83C0390B3616800
:2055D0004B6A4F6E986AB0F1FF3F25D027B3421C9A628862030E07F80139606890F82A0091
:2055F00007F80109606890F8290007F80109606890F8280038706268106A00950190801BEB
:20561000281A80B20290916A506A92F88C203346153009F015F900E0DB20D4F88073002802
:2056300040F0A680294630460BF0C0FF642009A90FF084FA5B4894F83C13007831B994F846
:20565000EB0309F08BFA012805D08DE009F086FA012840F08980DFF85091A81C87B20DF1D5
:20567000250109F170000780E9200FF067FA9DF82500012805D13D46C5F3022040F018003C
:2056900005E02D1DADB2C5F3022040F0080006F8010D06F8015D4D469DF82400A5F8628027
:2056B0000028EE670CBF41484148CDF80CB002238DF8103005F12806A6F8028005F1600972
:2056D000C5F8B8003B4FC9F8180095F8350020F00F0040F0030085F8350078688047DFF89E
:2056F000D8800A90BAF1010F1DD0BAF1040F1AD0BAF1000F14D0BAF1050F0ED0BAF1030F60
:2057100008D194F8FB0310F05BFAC07B022818BF4E460AE005F1600607E0DFF8A08004E0E9
:2057300005F1440601E005F128061A48006A1C4B046D594602208DE80300986803AA314613
:205750004346A0471E490880B96800280AD41D4A92F900000F4F6035401C10700A98FD60F3
:20577000884711E00A9888471A200CF06FF90BE0002F08BFE420F8D0134880F80080E42046
:20579000B84701E012F0E3FC0BB0BDE8F08FC046141F0020B01B00209B1F0020A51F002057
:2057B0006C1D0020A71C00204C1900204E9055550E7A5555C01A0020E1A70000D5DD0000DA
:2057D000D01D0020A21F0020CB300020080200202DE9F04F9F4C06466068ADF11C0D8047A4
:2057F000A44D012E069000F0DA8012F03BF8002800F0D08098480078A0B99848007888B9B2
:205810009748007870B99748007858B99648007840B99648007828B995480078002808BFC6
:20583000012000D00020296A002801F13C0100F0B180914E0868347880477168A300401AA4
:20585000B0FBF3F7F168B0688D4E4FF00008C246AB46524689464F4572EB0A0201DA88420E
:2058700007D80246434651469742994141DA114600E043460A46D21B73EB080310461946E8
:205890002246E31712F04EF8272507464FF47A7200238846ADF80A500820ADF80800384643
:2058B0000CF0A4FE6B49496A039002A88847049853464FF0000100F6FC02BF1A78EB030817
:2058D000784271EB080112DA6C480268414638460CF08CFE884607464FF00001784271EB93
:2058F000080104DA38460FF0D9FA002000E001203070307800284DD1002738460CF04CFBCA
:2059100000B10127B246384600284FF000073FD15C4D287800283BD1DBF820005A4C436CE5
:20593000A068022102AA98479DF8080080B3DFF85C81DBF82020A06898F900103E4611F1DB
:20595000020F18BF01264FF0010936B1926B98F900109047DBF82020A0684D4E96F900102E
:2059700011F1020F03D0926B96F9001090476FF00100307088F8000085F80090384612F0B1
:2059900023FADBF82000C169A06888478BF801708AF800702F4906988968884757E00120D2
:2059B0000CF0FAFA2146069889688847354CDFF8F0A02078012838D1012012F005FA11F04D
:2059D0009FF858BB234840688047002602278346DFF8C090286AA9F80260416E277002A86F
:2059F000884702968DF80C70286A2E4A2A4BD0F850C0B0468DE880011068494602AAE04712
:205A100014498968002819D4244A4F4692F90000EF60401C10705846884706E02078012846
:205A300003D10020207011F029FF11F069F870B92078022804D15046007808B112F087FB3C
:205A500050460078012802D020780228FCD007B0BDE8F08FC01A0020C7300020C93000209A
:205A7000CB300020C83000209A1F00209B1F00209C1F0020B01B0020141F0020BC1D00201E
:205A9000CA300020A61F00206C1D0020981F0020991F00204C190020A5450100A21F00204E
:205AB000A51F0020741D00202DE9F04FAC4C07460020ADF13C0DDFF8A482ADF80C00201DB5
:205AD00000688946017D252900F00281703005A903F05EFB002818BFC0B240F03B8101A8A0
:205AF00004A90CF083FB0FF0D9FA042814BF41F2081543F2C82504A901A80CF077FB98F8D8
:205B10002B2201993B684FF47A7A504650430AFB1100C01A8542C0F2D880D8F80422521A68
:205B30000AFB02F1C91A8D4200F3CF808542A34609DD002807DD95FBFAF04FF4916100B266
:205B500001FB003038609DF81F00002857D042F204000DF136010EF05FFC11F05BF90699B4
:205B7000441A42F206000DF135010EF055FC9DF835009DF81D10FF2804BF0A208DF83500A0
:205B9000FF2908BF0A219DF835609DF81C507548B4FBF0F2701884B25646A8105443704306
:205BB000A04298BF041C41F20810241805A810F0DEFE9DF81C103D68B0FBF1F24A43821A4F
:205BD000714392B272438B1A891A5B1B491B8C4201D9002908D56142994212D2002B10D5C6
:205BF000B4FBF6F109B203E06100B1FBF6F189B23A684FF4916303FB01253D6001E03D6812
:205C1000002006460DF1120102A80CF0EFFA0298D8F804120024B5FBFAF28018029081423B
:205C300003D998F82B32834202D998F898712FBB9DF81C00B6180004B04298BF361A9DF8B7
:205C50001F00002808BF9DF8200024D09DF81C00B6FBF0F085B2BDF833000EF075FA9DF81A
:205C70003120014628460EF001FF054610F06CFE024608A928460EF0A7FB0CE0814204D8C9
:205C9000BDF81200401CADF81200BDF8120098F89B110CF0CBFB89F8000088F8F501DBF88B
:205CB0000400007D052811D19BF8D10370B999F8000003A9ADF80C0042F20C0003F09AF900
:205CD000BDF80C00A8F8F00100E06524204641E00FF0E4F9042814BF41F2081543F2C82525
:205CF000214800784FF47A7404FB00F13868491BA1F5FA62824206D2A1F57A61B0FBF1F201
:205D10004A43801A386068460DF10E010CF06EFA3868009998F82B2204FB01015443009156
:205D3000611A8D4211DCA4F5FA648C42BCBF00F5FA60386098F89B11B8F878010CF076FB23
:205D50000146002089F8001002E099F80010652088F8F5110FB0BDE8F08FC04698130020F9
:205D700008020020A0860100C31500202DE9F04F00289A461446ADF1340D00F0F48011F4CB
:205D90007C1F40F0ED8011F00F0F00F0EC8007460591002006900B900A904FF00009099091
:205DB0004D4608954FF0010BCDF810B0054648460790059805990BEA000021EA0B014FEAE3
:205DD0004B0B401E059100F0AB80401E70D0801E5DD0001F40F0BE8042F205000DF10E0112
:205DF0000EF01AFB9DF80E60002E00F0B3801CB1276694F86B0006900720152607F8010BD8
:205E1000022301A907F8016B42F2010007F8013B0EF002FB684603A90CF0E8F906980DF0FB
:205E3000CFF90146019A00983E4640180090824206D8801ABDF80C300090581CADF80C00C2
:205E5000009B50084946804609041804030C194300044B4610EB080041EB09010AF0C4FDCD
:205E70000090BDF80C309DF80C009DF800209DF8011006F8010B181206F8010B9DF8023090
:205E900006F8012B9DF803200935BF1D42E00220152607F8010B042307F8016BBAF1000F20
:205EB00007F8013B0CBF09989AF800002D1D4EE01CB1E76594F86B00069005201526049B7C
:205ED00007F8010B0DF10F0107F8016B42F2040007F8013B0EF0A0FA02A80EF07FFF06985F
:205EF0000DF06EF902999DF80F609DF80F30069AED1D4018000200EB6600B0FBF3F03E4654
:205F100002903F1D06F8012B9DF808109DF809309DF80A2006F8011B06F8013B327018E031
:205F30000320152607F8010BBAF1000F07F8016B034607F8013B04BF0B9807F8010B05D0F9
:205F50009AF8000007F8010B9AF801006D1D07F8010BADB2059800287FF42BAF2E4661E046
:205F700011F00F0F01D000205DE080468A4602264FF4803908F1020509EA0A002AEA090AE6
:205F90004FEA4909B0F580301AD0B0F5803014D0B0F500300ED0B0F5802009D0B0F5002058
:205FB00004D0B0F580102AD1072404E0062402E0052400E00424002704E00224012701E047
:205FD00001242746A81C214600F030F847B104F00F04C0F30A0141EAC42141F4004105E0B4
:205FF00004F07F0400F0FF0141EA042105F8011B0912871929702D18B81C6D1C86B2BAF1E8
:20601000000FB9D1022ED8BF00260BDDB01E4FF6FE7708F8010BF019C0F3022040F0A000C0
:2060300088F8000030460DB0BDE8F08FF0B504460846ADF16C0D401E70D0401E0DD0801EAE
:2060500000F00981401E00F0EF80401E00F0E180401E00F0AD80002042E142F2010007A9A7
:206070000EF0DAF942F20B0008A90EF0D5F942F206000DF165010EF0CFF942F207000DF1E6
:2060900066010EF0C9F942F2050019A90EF0C4F904A809F001FE06460DF1670142F2090080
:2060B0000EF0BAF99DF86700002808BF002503D0022010F03DF90546204607A9042211F05C
:2060D00019FC241D08A90222204611F013FCA71C9DF864009DF865309DF866109DF86740E2
:2060F00007F8010B9DF8672007F8013B2B4607F8011B610706F0070444EA916005F003041E
:2061100004AD40EA8410314607F8010B012400953846019406F03AF90A309AE042F206009A
:206130000DF165010EF078F942F207000DF166010EF072F942F2040019A90EF06DF904A869
:2061500009F0AAFD05460DF1670142F208000EF063F99DF86700002808BF002303D0012046
:2061700010F0E6F803469DF864009DF8657004F8010B9DF8666004F8017B9DF867209DF8F9
:206190006770790704F8016B03F0030705F0070646EA916004AE40EA8710294604F8010B26
:2061B000002700962046019706F0F0F8001D50E042F2150011A90EF02FF913AF42F21600B4
:2061D00039460EF029F915AD42F2170029460EF023F917AE42F2180031460EF01DF9204678
:2061F00011A9082211F086FB083408222046394611F080FB04F1080708223846294611F046
:2062100079FB082207F10800314611F073FB202066E042F214000DF122010EF0FDF8BDF853
:20623000221002200A1258E009A80021202211F0E0FF42F2130009A90EF0EEF809A811F023
:20625000DAFF024609A9204611F054FB09A811F0D2FF80B244E042F20E0002A90EF0DCF80D
:206270000DF10A0142F20F000EF0D6F80DF10B0142F20A000EF0D0F803A942F210000EF0FA
:20629000CBF80DF10D0142F211000EF0C5F80DF10E0142F212000EF0BFF8BDF808009DF8C5
:2062B0000B209DF80C709DF80D609DF80E509DF80A1004F8010B02F00102001204F8010BD7
:2062D00007F0010042EA400206F0010042EA800205F0070042EA4012042004F8011B22705B
:2062F0001BB0F0BD2DE9F04FAA4C04F128000068ADF11C0D0EF0B2FD08B110F0B1FFA04881
:20631000DFF878B2DFF89082DFF87CA200689F4D059010F0F1FA10F04DFDE769A669B7F565
:206330007A7F13D0801B4FF47A720023A7FB00010AF05AFB81464FF47A72002311F0F2FA8C
:206350003A4600230AF050FB301801E0A0EB0609A061DBF8000020F00200CBF80000686809
:206370008047DAF80010DAF804204E468919B1F57A7F0DD34FF47A73B1FBF3F3D218CAF84B
:2063900004204FF47A731F46B1FBF7F25A43891ACAF80010A9688847686800968047D8F8B0
:2063B00004108919C8F80410A9688847D8F8000000285AD007464FF0000968688047049081
:2063D000BDF80200002690B99DF8010078B99DF800003979884204DD0098796888420AD2AF
:2063F0000BE09DF800103879401A387108E000987968884201D3314601E07968091A796015
:20641000B88878B9FB8853B9FB6843B13B8933B1B87A194609F04CFBF8687860B88808B963
:20643000FB880BB13B896BB9B9F1000F04BF3868C8F8000003D03868C9F8000038683E46F1
:20645000074601E0B9463F68A9680498884756B1B3882BB9F3881BB9B07A318909F028FB67
:20647000304610F087FC002FA7D1DBF8000040F00200CBF80000E06828B3804723E016F8A9
:20649000060C2169A6F10C07032819D0E16A9DF806000978884210D116F8080C0FF076FEEB
:2064B000B979012903D0022908BFB07000E03070002031460DF0C4F805E010F0D1FE02E025
:2064D00009B13046884708200727ADF80000696AADF8027068468847029E0028CFD0294873
:2064F00000680088C8B1686880472649096800220E880A80A9688847059A002031462070C4
:2065100090470646FF202070686880471D4909680A8816430E80A968884710F0EDF907469F
:20653000B7F1FF3F1CD0686807B9194F216AB94238BF0F1C80471C230646626AADF80230E4
:206550000820ADF80000696A019268468847A16A3846491CA1620EF07BFEA96830468847BD
:2065700008200A27ADF800004FF0FF36ADF80270696A019668468847CBE6C04610E000E014
:206590000C0C0000BC300020C01F0020C01A00208EC2F528A01D0020A43000202DE9FE4F2D
:2065B0000546287D012807D195F917000DF0A6FFB0F1FF3F00F016819548EF7B0178954890
:2065D0001FB990F883208A4208DB012F03D190F882208A4202DBF120BDE8FE8F80462E6A81
:2065F00095F83500B5F8289095F83470AC8B4FF0000A5FEA060B029017D098F83C33002BB6
:206610002FD0D8F8541300292BD006F0FF008847D8F8541306B20BF47F008847361830B2E0
:20663000001D00B2C83086B200E0C8260CB1241DA4B298F8E003012809D147B17648029962
:206650003F1897F804A0405C8019401D86B209EB040080195044801C80B210F0ABFA071C1B
:2066700002D11A20BDE8FE8F09EB0A0033193881002C03EB070078600EBF0020B819801C75
:2066900000217822C7F8A40007F10C0011F0B1FD09EB0600FF2110220019A7F84C0007F1D1
:2066B0003C0011F0A6FD07F12C000F21102211F0A0FD00243C707C707868696A2A8D11F09F
:2066D00019F907F1840005F12C010B2211F012F907F19000294610F059FF6889A7F89A0047
:2066F000287B87F89C00687B05F10E0687F89D00326869460A60706848609DF80010204685
:20671000012908BF01209DF80110012908BF40F004009DF80210012908BF40F008009DF827
:206730000310012908BF40F010009DF80410012908BF40F020009DF80510012908BF40F050
:2067500040009DF80610012908BF40F080009DF80710012908BF40F48070A7F89E00A87D7A
:2067700087F8A000E87D87F8A10095F8380087F86C00AA8BA7F8A82022B1D7F8A400A969C1
:2067900011F0B8F8A87F87F8AA00286AC7F8AC00B7F8A800C0B1D7F8A400A8B17868401E19
:2067B0007860F82101707868401E78600470B7F8A810B7F8A8607868401A78603889801953
:2067D000801C38817868B865B7F89E00410A16D395F83710052905DB00F0040100F001000E
:2067F000084302D0E820BDE8FE8F08F1880630460AF020FF95F83710304610F04BFC98F8FB
:20681000000039460CF01CFF2046BDE8FE8FC046881F0020080200203C0000002DE9F041C0
:2068300042F20400ADF1280D0DF123010DF0F4FD42F205000DF122010DF0EEFD42F20100B6
:2068500069460DF0E9FD8B4C8B489DF82310C4F8A80164204143C4F8A0118849C4F8C411E8
:206870009DF822104843C4F8BC018548854EC4F8E001B07888B342F203000DF106010DF064
:20689000CBFD10F061F805460DF1060029460DF031F92D1A9DF8220084F89B5170B10098C3
:2068B00060B104F5DC700DF0FFFB04F5BA7009F057FD012084F8940184F8980142F202008E
:2068D0000DF106010DF0A8FD0DF1060010F032FA04F5CE700DF0E8FB11E042F202000DF195
:2068F00006010DF099FD0DF1060010F023FA04F5CE700DF0D9FB04F5BA700CF031FF96F8E8
:20691000FB030FF05DF9C07B022804BF012084F8F40194F8F801002840F0A88004F1280038
:206930000021382211F065FC0026A681E08900EB800080B280460FF0CBFF04F12805074619
:2069500027610FB911F027FC38463146424611F050FC4D484D4FE06305F1080067630DF0B0
:20697000A3FB42F21B0001A90DF056FDBDF8040001A9A4F84C0042F21C000DF04DFDBDF889
:20699000040001A9A4F84E0042F21D000DF044FDBDF8040009A920835D200EF0CFF89DF8DB
:2069B000240000280CBF301C012084F85C00B4F84C0038B100EB401080B20FF089FF00286E
:2069D000606551D0B4F84E0040B1410001EB800188B20FF07DFF0028A06543D0208B38B19F
:2069F000C00080B20FF074FF606108B911F0D3FB27490DF11A00082210F07CFF0127354602
:206A1000208BA84223DCB4F84C50668355B1606D4FF6FF720146A0F81F206D1E8E7701F178
:206A30002100F7D1B4F84E504DB1A06D4FF6FF71024681806D1ED67002F10600F8D1201D3A
:206A50003146062211F0D5FB84F8F8710EE060690DF11A01082200EBC50010F04BFF6D1C54
:206A7000ADB2CDE711F097FB11F095FB0AB0BDE8F081C04698130020094101004DCA0000CC
:206A90000B8101000802002095B50000002A7515A00400002DE9F0410D46904CDFF84CC232
:206AB000DFF84482A188D128074613DCDFF840E2D12800F0A280713800F0E280401E00F07E
:206AD000DB80401E00F0D280113810D04C3800F0AF8007E0D2387AD0401E61D0401E34D0B3
:206AF000401E2CD0384611F0D3F8FF2802D1F420BDE8F0817A4C04EBC004217909B9E08881
:206B100060B1E088884208BFFB2000F0E5802A78914200F395809042C0F29280714E706841
