:20000000004B0020414B0100FDC90110FDC90110FDC90110FDC90110FDC90110FDC90110DE
:1C002000FDC90110FDC90110FDC90110FDC90110FDC90110FDC901103BCA0110A4
:20003C00BD0400214D040021810400218504002121050021A10500215106002179060021DA
:20005C00F8B51047F8B50E4600210125AD0430470A48037800F00FF89B070BD0124C2078D9
:20007C00FF2807D0FF2121700E490F24240220436031C882F8BDF8B5014800476B02002147
:20009C00E54C0000094801E00848000C064C05492278FF2A01D1CA7A22706031C8827046E9
:2000BC00801C004700620840C8060021070F0808F0B4084710B501480047000089090000A8
:2000DC0070B503461546012906D0002906D0114A2846FFF7B5FF70BD0F4800E00F480524E5
:2000FC00834203D84008641E002CF9DCE340012040031818820B012907D006490023803111
:20011C002846FFF79FFFE0B270BD0249044B6C31F6E70000835C0000A0BC862300830D2357
:20013C0098060021F8B51A4E0546716B1948CC09E401002D11D01849097802290FD0007B18
:20015C00044372B60120154F4002B847114820380088C109C90704D016E0C07AF0E7407BE5
:20017C00EEE70F497463CC61400AC0070CD001208003316B002D01D0014300E081430846D1
:20019C0031630749403948630020B84762B6F8BD80020021880000219B0200217B3F00008B
:2001BC004040044010B5224A0021516121498968C90009D42149204BCA0598424B6B01D84D
:2001DC00134300E093434B631D49FFF771FF10BD38B51A4D287F002827D11A480088C009E2
:2001FC00C00722D1124C606900281ED1684600F04FF868460078012817D168464078102831
:20021C0013D208206061686A4009400120600E4A0021D1620D4A0221116001210843206094
:20023C00032108436862206038BD0948804738BD00400440180000210000930880020021EC
:20025C00CF680000680000210011044080E200E0C33B00000749002800D00420064A72B649
:20027C000978C90701D0105800E0802062B640B2704700006B0200215860044010B5034CF9
:20029C00FFF718FF20680028FAD110BD0011044003B40148019001BDA56F00000000000035
:2002BC00010003000A001F005900EB003902EA04F9099712EB1FA132784A0A66FA828C9E28
:2002DC0063B617C964D6EDDEC1E3E0E5FF0000003E606F14333C3C33CCCCC33C0500CF2F03
:2002FC009D0F3EDB7F7F0000010002000300000003000C000F00CC00C3003C003300CCCC65
:20031C0033CCCC333333000F0F0F0000030007001F000000000000040F0000008703010069
:20033C00C048430000800480F00600001E0924055400050000082048480000001F007F7FDE
:20035C004C01333C3C33CCCCC33C00002072487203730573037204730673047276737672D9
:20037C00C0C70180010001901090010801900C720D720E72C0B00071F0B0C0A018723281F2
:20039C002010523970062000301601110114016C746076608A600E617460746074607560C2
:2003BC0020126B60101220720F731073117381811000809170B052606A606A60E1C182C278
:2003DC0070C42018136F236E111612167A6882C410C8201887400312236E1216846800D0AA
:2003FC0070916A600F73107300C0C09109C07081803970061016101E9944B7C008C01EC0C9
:20041C00AA60201E9F44F7C018C03EC0AA60401EA54437C138C07EC0AA60801E684477C1FD
:20043C0078C0FEC030C0F965D8B0007108B1D8A000B280B403B013B002B012B0468146391C
:20045C00F4C046041616D0B004C03CC170C09092117870C012103206C214236F93940071B0
:20047C0000B12139C2681416641CC0441178F10B70C012103206C214236F9394007100B1BD
:20049C002139D168F4C4D5C666C0AF81F764E0811022E340DD6070C010160FC0F764E568E9
:2004BC00D1A030C0609740C08097F1B0C1B00071F1B0C1A0767203A002A020726A601F067E
:2004DC006F31F90091104104C197DA871A0691105104C197DB871B061B31BA1419397A14DD
:2004FC00A36F93949E92007100B10070F8B0E48A12410493F0C10094A07810941B7277815F
:20051C00761087397706C797D887181640D06798F965207830943078409440785094507868
:20053C0060945A65907810986D6507B017B004B1D4B005C204C0E165F265541C3849909179
:20055C0014165181011E33417116411C334DD7A0BE79CF79EE95FF950412F2651416541C78
:20057C004B419091456105A250C0F965D7A0D4A006720272047203720472057306737673E5
:20059C0076726A6061C0813102C0F3CF126E1116126E1116E0C7136E1116126E1116636926
:2005BC00F0CF126E11166969007006B016B004B014B002B012B070783090509080784090BF
:2005DC00609005B272B090C0B09317B1E7B016B1E6B0007173B007B1E7A0E7A0B0807022CB
:2005FC00A245E6A0E7A0D7B08EB8007116B107B141B061B0F0C0B0938FB8648914315495D7
:20061C0044A0007107B14DB06DB074B001B2007107B10070D7B089B844898431843D249761
:20063C006078309750C0AB69408701C21014603D04836431643D0418F0CF20350404049304
:20065C00B0C0B09369B060D06498F965007107B1D7A07D6109120A12D76509141A14171EB7
:20067C00D441D76519140A14371ED441D76509141A14D76519140A14893C8A3C00700071DE
:20069C0007B1007107B1F08780318039018881390070C2659B10AC10C265BD108D31DB149A
:2006BC00CD108D31DC148A31A9149B149C14EB95FC950070D7A079B0007104B1D7B0208846
:2006DC000070509840880022FA4530B800700000A36100007F1407134D00F1242E1F133F73
:2006FC00B00A3F0007FF0000304000400140034007400F404F40CF40CF41CF43CF47CF4F21
:20071C00CF3FCF2FCF1FCF0F000000000F00080000003F00000040003F00000004006800A4
:20073C000E00DC00060043001A00050000000000020000003F00000000000400C000000046
:20075C000400C0000000070050C00091007070C00091007082312100319110B10070018127
:20077C0001B100A18231329110B101911110418141224F40F106007051C0019130181039D1
:20079C00833108D01831416F3100319110B1831414165B680070251050C00091F4C3C0C003
:2007BC002014036F3110410422C082312100319110B163393110410482C0823121003191BE
:2007DC0010B163393110A2C082312100319110B1501015310514059200703F6452C03110EA
:2007FC0031066131C102426412C13110213971065131E102426400708A65996588C0208274
:20081C0050398039001E9F4041C001301814181A89C0308260398039001EA94041C0013067
:20083C001914191A3C64369110B1349110B154B0007154A064B0F0800022AF404012B090FE
:20085C0032B053825339533985643F6411C122C1426470C1C26811C1C2C0426470C1C76811
:20087C0050C00091277298921516141642105310F0C12182313131398139313151B070B28F
:20089C0072652772999270B262107310F0C331822131213981391B107265E2C08231608285
:2008BC0080318039020061B00071329110B151A061B0277230C2F36800008012B09032B00E
:2008DC00007050C000912772999262107310F0C3318221312139813951B070B27E652772C7
:2008FC00989270B242105310F0C1218231313139813931311A107E6551A061B02772B0C087
:20091C0018693F6401C122C1426401C1C2C04264151A3C64359110B153828564C012B0903C
:20093C0032B000703F6472C281C0426422C111C1426402C011C1426462C031C3426462C315
:20095C0011C1426402C311C14264538253398564E2C347641122404142C281C8426452C271
:20097C0011C1426472C2E1CE426402C281C8426402C201C84264B0C0546900703F6442C230
:20099C0001C8426452C211C0426472C2E1C0426402C001C1426462C001C3426422C101C16B
:2009BC00426462C301C1426402C301C1426453828564007061B000711214231C7A4D33911B
:2009DC0010B10070329110B17269007061B000711318321C8649329110B10070339110B1B8
:2009FC007E690070C2C047641510C2C01216476441311514C0C0803105145410A078040474
:200A1C000070E6C0863101CC161467106182F0C3010417140070067305720B720E7250B05C
:200A3C000071818060B050A092804122C3458080F1C11004301601110114016CD661D7619C
:200A5C00D861D961DA61DB61DC61DE61E061E261E461366339639180F2C0210421318280DA
:200A7C00422A1214321601112114016CEE610B62F4613963EE610B62F4613963E661E661E4
:200A9C00E661E661E661E6619464E661F964E6612A65E6615665E6614667E6611012B0900D
:200ABC000E720673057210123090A761F0CF3C67D4C103C0C0C354644078509150781092C8
:200ADC00607820927078309280784092907860923078909110824039F006011010311014C2
:200AFC0000924267E661BCA0E2A054A0F08050221546408000222B470D6240A02D828D3139
:200B1C008D391082F1C0100409101A824A391A041082803910040E10AB10BC10C2106364A9
:200B3C002972E0CF3C6713B003B0C86653B050B054B064B013B0A5661082E0223846AE66F9
:200B5C000071418001222B47F08010224B46F022184764B03122384263B0CE661082E02252
:200B7C0038467066386264B06F818F318F3DD0DFFF923C670071418001222B4764B0F080AD
:200B9C005022654263B01182C1226046CE6605671182D12252467066526261817281813122
:200BBC00813D8231823DC0EFF19202933C670B62B081C091D381978290A2D3187F4EF30B3B
:200BDC001316E31CA44AC391E3813B149062BA1C8B46231E8B4AE31C8B4E90B207228B421D
:200BFC0090A21B1A9662E31CA44AC391E3813B18AB1CA04E9B1CA24ABC1CA442B210108218
:200C1C00D0229D42F0801022A4466364A566A462AB1094629B10946200703082F1C010044A
:200C3C0063B00071A86ABC10E0B00070B281C291D281018212185181121841828131813D81
:200C5C00121CBF4AE2B032B0B0DFF2923C67F1C72114C34E12C86291729131B0E1B0007067
:200C7C0008C006C000C86091709100700182B081C091D0811018518110180614E1804282E9
:200C9C008231823D201CE44AE2B02122E84632B00510A0DFF5923C672122E842E2A032B0E8
:200CBC0031824139F0C00104011EF642181610C01030081C04476010103C0610F1C7611433
:200CDC00FA4E16C8669171818131813D161C014B769131B006C008C0007061818131813DC3
:200CFC00408280390118F11C174B0114B080C0221747BCB033B090EFF1920F933C6700704A
:200D1C0003A063B064B0EFB056650071408000222B4764B02A65EFA00071408000222B47D7
:200D3C0064B003B03862018262818231823D80EFF19202933C6703A05665E661A2806364A6
:200D5C00E66150B00071E661E092D08200223D47C0B20070A080F022594330B002C1623128
:200D7C0001C0A080001E5243F0225343A0F56031603953632010101A136F236E11161216EA
:200D9C00546B0070BD820000DDC20000000000000000000000000000C9C70000898201008E
:200DBC0025220100817C01001D83010017830100BD7C0100000000007982010069270100CE
:200DDC006533010049750100BDC80000357E0100CDF30000418F0000D1690100AD5001009D
:200DFC0000000000013B010081820100F6C0080000004100000001C310000002421000006F
:200E1C0003C414000004C518000005C618000006C71C000007C920000008CB24000009CD71
:200E3C002C00000AD33800000BDA5000000C18B800000D3FA600000E3FA700007FFFFF3FA2
:200E5C0000F6C004000000C312000001C416000002C518000003C61C0000044418000005E3
:200E7C00C820000006C924000007CB2A000008CE32000009D24000000AD85800000BE590A2
:200E9C0000000C2BBC00000E3FAB00007FFFFF3F00050000673D0100E5800100CDDB0000D7
:200EBC00618201007B830100DD120100B9680100CF820100DB820100D58201000500000014
:180EDC00E38301009138010099180100080E00005D0E00005D0E00002F
:201000003C000000000000000000000034100000000000000000000001000000000000004F
:1C10200000000000000000000000000001000000000000000800000000000000AB
:20103C003400000000000000000000006810000000000000000000000100000000000000E7
:14105C00010000000000000000000000080000000000000077
:2010700030000000000000000000000098100000040000000000000001000000FFFFFFFF87
:10109000FF00000001000000080000000000000048
:2010A0002C0000000000000000000000C4100000040000000000000001000000FFFFFFFF2F
:0C10C000FFFFFFFF080000000000000020
:2010CC0038140000E410000095A1011091A70110A1C2011009B2011041B80110A5BC011078
:0810EC0085BC01102E0000007C
:2010F400280000000000000000000000141100000000000000000000FFFFFFFF0000000093
:081114000800000000000000CB
:20111C00341400003011000065C2011069C101101BC2011091BA011005BC0110E5BB0110EA
:04113C00300000007F
:20114000341400005411000071C20110A5B6011099BF011045B60110B5BA011025BC01104B
:04116000310000005A
:201164002400000000000000000000008011000000000000000000000000000008000000AE
:041184000000000067
:20118800240000000000000000000000A41100000000000000000000000000000800000066
:0411A8000000000043
:2011AC00240000000000000000000000C8110000000000000100000000000000080000001D
:0411CC00000000001F
:2011D00000000000741D00200400000000000000000000002000000070100000300000007A
:2011F0001C1100007C1D00200400000000000000000000000C00000030130000180000008E
:2012100040110000841D002004000000000000000000000024000000481300001800000011
:20123000000000008C1D002004000000000000000000000010000000A01000002C000000E5
:20125000CC100000941D002004000000000000000000000020000000641100002400000014
:20127000FFFFFFFF9C1D0020040000000000000000000000280000008811000024000000A0
:20129000FFFFFFFFA41D0020040000000000000000000000580000003C1000003400000085
:2012B000FFFFFFFFAC1D00200400000000000000000000001000000060130000180000009A
:2012D000FFFFFFFFB41D00200400000000000000000000001C000000AC1100002400000010
:2012F000FFFFFFFFBC1D002004000000000000000000000038000000F41000002800000081
:20131000FFFFFFFFC41D002004000000000000000000000054000000001000003C0000001C
:1813300018000000000000000000000040130000080000000000000032
:1813480018000000000000000000000058130000080000000000000002
:18136000180000000000000000000000701300000800000000000000D2
:08137800020000005891010081
:041384000100000064
:0413880000000E0053
:04138C0000000F004E
:041390003200000027
:041394000100000054
:04139800D01C002045
:04139C00000200004B
:0413A00005830100C0
:0413A400FDC901106E
:0413A8000000000041
:0413AC00000000003D
:0413B0000800000031
:0413B4000000220013
:0413B800DC1A00201B
:0413BC00010000002C
:0413C000E81C002005
:0413C400080000001D
:0413C8000000000021
:0413CC00000000001D
:0413D0000000000019
:0413D400080000000D
:0413D8000000000011
:0413DC00000000000D
:0413E0000100000008
:0413E400D81B0020F2
:0413E80006000000FB
:0413EC0001000000FC
:0413F000B819002008
:0413F40000000000F5
:0413F80000000000F1
:0413FC0000020000EB
:0414000000000000E8
:021406002900BB
:021408000100E1
:02140A002500BB
:02140C003000AE
:02140E003100AB
:021410002E00AC
:021412000100D7
:0114140001D6
:08141800030000002091010017
:081420000000000000000000C4
:0414280000000100BF
:04142C0000000300B9
:0414300083C4011060
:041434003C14000064
:041438003C14000060
:04143C0000000000AC
:041440009000000018
:041444009000000014
:0414480000000000A0
:04144C00E81C002078
:04145000A17E010078
:041454002000000074
:04145800F09001000F
:04145C004C900100AF
:0414600009C30110AB
:041464002B4E01000A
:04146800BF5B010065
:04146C0095C801100E
:0414700097C8011008
:041474000000000074
:04147800EF900100F0
:04147C00648F010078
:041480007C8F01005C
:041484004C8F010088
:0214880008005A
:02148A00090057
:02148C0001005D
:02148E0000005C
:01149000015A
:041494000000000054
:041498000000000050
:04149C00000000004C
:0414A0000000000048
:0414A400E7830100D9
:0414A800195B0100CB
:0414AC00AD6E010020
:0414B0009D5F01003B
:0414B4009B60010038
:0414B8006D52010070
:0414BC00910F01008B
:0414C000D7800100D0
:0414C400ED380100FE
:0414C8000DC801103A
:0414CC001DC8011026
:0414D0000800000010
:0414D40024000000F0
:0414D80018000000F8
:0414DC0028000000E4
:0414E00020000000E8
:0414E4003C000000C8
:0414E8000C000000F4
:0414EC0034000000C8
:2014F00083482DE9F04F0C4601210170DFF80892DFF80882DFF808A2DFF808B27D499C464B
:2015100020270023ADF1540D002517EA0C070B70C949119291F83C33C849CDF848C005EA24
:201530000200139108BF00287AD111984FF0E04761462A460F4002EA000008BF002843D157
:20155000129E119B4FF48600B9F8AA10DFF824C3CDF82C9012EA060700EA030008BF0028C7
:2015700019D1C34812EA060700EA030008BF00286ED037464046119E048100F1380341811E
:20159000002F83E8C00004BF331CB3F1806F5FD102295DD111E037464046119E048100F19A
:2015B00038034181002F83E8C00004BF331CB3F5803F4DD1B1F5505F4AD1006A67464369FA
:2015D00038682146984741E046465146B6F9087091F90000BC42A0F10100087017D1728935
:2015F00006F1380003C8002904BFB0F5803FB2F5505F08D0002904BFB0F1806F022A02D0E9
:2016100011F068FF03E012F0E7FF16F017FA139890F90020521E02706FF00101318113E034
:2016300046466FF0010006F10801088063B1BE480078832802D0812059460870316919B1FB
:20165000284688472146E9E7CDF82C90B9F8AA10119A129E02202F461040374008BF002872
:2016700000F0D183B24A43F201408842149200F0A383C01C884200F09F83504690F9000047
:2016900052464746401E1070B7F90800844209D0139843F604078F420A9040F09E8315F030
:2016B000D7FF9AE3644890F83CC307F1380090E800034FF482062F4617EA090706EA0800A0
:2016D00008BF002820D113980C4F0A9007F1380003C84FF400322F460F4002EA000208BF91
:2016F000002A02D111F0F6FE77E312F075FF74E3311D0020281D0020141600205819002013
:201710002F1D00204F2E00202846BCF1010F59460E9002D00F78002F7AD1844C8120149E52
:20173000277808702B46A5816069A770427A017A337002F0070301EB032152098DB234BF98
:20175000291F891EDFF8F081437A8DB233F07F0340F01D8377490988A942C0F218830A300E
:2017700029460FF0C5FE216A04F118000522083116F0B8F9ED1EADB20D960520E17E227F47
:20179000A37E2D4EA081C1F3011B227103EB012096F83C136081002908BFBBF1020F00F0AF
:2017B000F682BBF1020F00F3F28269B110F0070F00F0ED8241B15C490978862904D100F062
:2017D0000701022940F0E382011301F00201022952DA6378DFF8509100F00700022836D117
:2017F0004646D6F804A0002B31D1216A09A801220D3116F077F90620A081D047804699F8E6
:2018100000300D48B56847680C96862B18D10FB916F088FD9DF9240016F0D1FD9DF9246030
:2018300078770020B8774046FE77A847608900F0100010F045FE05E0080200202E1D0020CA
:201850004046A84713980A9015F056FFA5E299F800000026862808BF01261398CDF830806A
:201870000A9076B1002012F003FFA77808E0C04600000C8C1C1B0020CDF8308013980A90BD
:2018900063788FB183B9012F00F07E826089022F03D110F0070F40F07782032F05D100F09C
:2018B0000701032901D06FE2608901094FEAE00C09D310F4405F00F06782BA4991F8E07373
:2018D000002F00F06182011301F00201022902DA810A80F05982B2490978C1F381098E11B8
:2018F000B9F1010F00F05082012E00F04D82AB49BBF1020F09D08A5D11F809108918CFB2B9
:2019100006B3C1091ED3BF1E0BE072184944127909798918CFB2C10910D259EA060311D05C
:20193000BF1CFFB20EE0C046532E0020602D0020512E0020221D00206418002059EA0603E3
:2019500008BF0227C0F30020391A60718D42C0F21B82ED1B5FEA5C010544A8B2208124BF9D
:2019700025210E910E990818743080B215F04CFC65782061002800F007820021742210F0D2
:20199000F7F90020E070B4F80A801DB90D9908F02000087000250D9B60790F951D78109016
:2019B000002D3BD0051C39D108F00708B8F1030F06D0B8F1010F22D17A4890F82A04F0B157
:2019D0007848B0F854000023810809D3754991F8825095B94D681DB16D7E35F07F050CD158
:2019F0005BB98008984605D385498D68887805B1A84710B9B8F1000F01D00420E0706948A6
:201A100090F83C0310B1BBF1020F01DA15F0C8F96079B4F80A801090E0780F90216901F1AE
:201A300074004860886525890D812089A1F85C005FEA18100FD31098C0F1030082B2A1F837
:201A50005C20886DCF4916F04DF82169B1F85C20886D801888655248CA4B0078C0F301128C
:201A7000109D18780F9BA1F80C8000F07800104318430874FF228A7320790E9005B100208D
:201A900081F8306081F83A9081F84900A089002F2946A0EB010085B2A58100F06A81BA469D
:201AB000216AE780684652464919083116F01AF83B487F19BDB2A581216900780A7C6E463F
:201AD000C0F3011B801002F0400910F0030F00F0030744D0BBF1020F4FF0000301D1D00992
:201AF0000BD29DF801209DF8000000EB0220A1F844000DF10206A1F84200C94AB1F84400E3
:201B1000B2F85A20824203D04FF6FF72824223D1032F12D072783078C14B00EB022082B299
:201B30004A86B3F85810B61C0120914213D04FF6FF71914218BF00200DE0C94800683146AD
:201B5000323016F0FEFBC648B54900684F31323015F0E0FD08360346002B00F00D81104854
:201B70000078831126D02069BBF1020F03D0017CC90903D309E059EA070706D17278317871
:201B9000B61C01EB0221A0F84210032B0CD07178327802EB012202850CE0C046389101007A
:201BB0007B2D002008020020AD4800683146283016F0C7FB08F00708B8F1030F07D0B8F1ED
:201BD000010F39D1A84890F82A74002F34D0A6482669876F4FF00008EFB17B7E33F07F039A
:201BF00015D096F8300002280CD003280FD107F1700006F1280115F08DFD40B11CE0C04617
:201C1000341D0020B7F87000318D884214D057F80C7C002FE1D1B8F1000F0DD1914F594BE6
:201C30004046E07038784246C0F3011118780F9200F07800084330748B4890F83C7317B167
:201C5000BBF1020F0BDA0D98077847B1109830B90E980F9910F0C6FFA589B4F806A0206909
:201C700081890909C0F08580806D6946524615F039FF2169886D50448865276AB1F85C007C
:201C900001225044A1F85C000DF125007919083115F028FF6E1CB5B2A58121699DF8250013
:201CB000896D087021699DF825709DF82530886D401C8865B1F85C00401CA1F85C0007F07D
:201CD000070081F82400C3F3C10781F8257091F8246020898046002E4ED05F497F183E7807
:201CF000361D8642E68047DC216A05A832464919083115F0F7FE38789DF817209DF81410B6
:201D10009DF8163040193D78001D01EB026180B201EB0341A0819DF81530206901EB032168
:201D300081616DB14E4800686D1E06A92A461C3015F0D8FE397820696944C97D80F82610E9
:201D5000806D05A9324615F0CDFE2169886D80198865B1F85C00A8EB06078019A1F85C0058
:201D7000781E82B22281B1F85C000A818018A1F85C0000F07FF810E016F018FA11F0AAFBB4
:201D90000BE0C0467A2D002015F0F4FF05E015F0F1FFCDF8308013980A90DDF83080D8F89A
:201DB00004008047216A0A680023137109682162D8F80810884710E0404680784146574667
:201DD000401C887097F900005146401E087011F081FB15F03DFC13980A9023480B99104F34
:201DF00000226FF0010690F83C03A1F8AA203E8110B11498007808B915F020FE0A9991F96C
:201E10000000401E0870194890F9000010B9134800210170139A92F9000098B102E0C046D3
:201E300058190020119B129F02214FF0E0401940384008BF002908D092F90000002804DCF6
:201E500016F070FA002003F0D5FC0949002015B00870BDE8F08FC04668850100261D0020F4
:201E7000702D00207B2D0020080200202F1D0020311D00202DE9F04FB64D28692C89296A98
:201E9000AE89806DADF1440D22468919083115F029FE2969886D00198865296A3619B6B2D9
:201EB000012210A88919083115F01CFE296A761CB4B2042209A8AC810919083115F012FE3E
:201ED0009DF827109DF8240000EB01602B699DF82610241D00EB01409DF82510AC8100EB73
:201EF0000120099015F01EFFD863099815F078FBA3F84000EA2015F043FC022196482C69E3
:201F10000170217CE878084320749DF9400016F056FA84F8460021899DF94000DFF8F4B279
:201F300084F8480004F17400A065B4F85C00401A61684FF0000AA946401801466060A08974
:201F500084F847A0820A18D2020955D310F0070F07D000F00700032812BF081C6068401C3D
:201F700046E06168C87800F00702401000F0380000EB42004018001D3AE00CB916F0D2F95F
:201F9000A089800A2ED361684878C7112AD12589616650464B780A7803F07F035B0003EB13
:201FB000E2137E2B0DD07F2B09D002F07F0280188918801C891C80B28542EBDC08E05146E7
:201FD00000E00121801C84F8601080B2854201DA504605E06168091861602189091A2181FE
:201FF000A4F86800606E10B1B4F86800B8B160686061A089000918D294F86000002800F018
:202010001981204611F0A4FFD9F81040E06C002800F01081B4F85000002840F00B8116F010
:20203000B3F85046C9F8100035E2504656460A9094F824700B900AA90BAA0CAB0C962046B9
:2020500005F01CFC002840F0E8800A9B656960682689291A701A86B20BB916F063F9B4F8E2
:202070005C00009001950B9B0296181D03900A98A169A36D3A4615300EF0A8FE002840F04B
:20209000CC80BB4894F860502689C15D701A208115B1204611F05CFFA58905F00705032DC6
:2020B00002D160680078E07394F80F8073200EA914F036FC83200DF1420106F09FFC514603
:2020D000DC460AE0C278012A03D1002F08BFDC2028D0001D491C0E90C9B29DF84200884285
:2020F00040F39A800E988278032D07D00378AB420DD09CF800600EB1022D08D0032DE8D1F4
:202110000378032BE5D103465B784345E1D1BB10B3EBA20F05DA02F0030207F003039A4231
:20213000D0DD504680460A98E77B90F814E0514601E0491CC9B28E456ADD06694B00032DAA
:2021500006EB03020AD1F35C032BF2D15278BA42EFD10CE0602D00204F2E00201278AA422C
:2021700005D09CF80020002AE3D0022DE1D10B98077C002F08BFB8F1DC0F4DD0A069B0F191
:20219000FF3F43D071200DA914F0CAFBB448078947B30D9D514684460A9A95421CD19CF841
:2021B0000AE0BEF1000F08BF50460CD00B98C2687346504696888E4205D05B1E02F10802D9
:2021D00000F10100F6D186451ED00B9AD268A36952F830209A4217D87F1E05F12C0501F177
:2021F0000101D9D1C2000B98A169C368491CD150C0681058B0F1FF3F02D10C980121C170CA
:2022100084F801A0504609E0DB2007E0DB2004E0DC2002E044050020DD206070D9F810401C
:202230006070A0696778606527B1F22015F0A8FAD9F810409A4D95F83C03002800F0AB8069
:20225000A189DFF8608201F00702022A63D199F80170002F5FD16778002F5CD1D9F81010A4
:202270008DF841A004A8283116F06BF8D9F8101006A80A22283115F035FC414601F1100295
:20229000D9F81070D5F860331088401C1080786E04210DF141029847444609F1100B28B94E
:2022B000686818B19DF8411080F86810D9F8107097F83000022811D1DBF8000005F56A71DB
:2022D0000E4602222830203114F0A0FD30B906F1160104A816F035F8D9F8107072480078D3
:2022F000862807D1608A401C6082B88900F0100010F0E6F895F83C0328B1D5F8841311B136
:20231000D9F81000884715F03FFF5046C9F8100015F0F2F9C1E0654A1778002F30D0C1F3A1
:20233000013102292CD16078002840F0B4809DF840005F49464699F803700870B08A04F11B
:2023500028021C34002F00F10100B0820CBF50460820584953460B6000900194B5F8CE339F
:20237000117A0D2005F09CFB20B914F019FD03E06C85010015F05EF95846D9F810400078AE
:2023900048B1D5F8841331B1204688472846D9F8104090F83C03A7890F9407F0070760B17A
:2023B000A07BFF2873D0032F05D1204640680078042802DD6BE0012F69D1381C3AD0401E7E
:2023D00050D0801E63D1A089C0F30130022803D16068007807282BD02089002857D0204628
:2023F00041684A1C42600F78A446C7739CF824606EB9002F4BD00A2F49DA2F490089C95D65
:20241000814209D0082F42D1082805D03FE0C07B00283CD00A283ADA20460189491E018114
:20243000C17B0B3101700F99C87B401CC8731BE0322018E095F8B5030F280BD015F086FCFE
:2024500040B90F988189091301F00201022901DA2969884795F8EB030F9C2074152002E07A
:20247000141D0020162020700F9905F17C0013F073FD124C6068804795F88410491C85F8B8
:202490008410A1688847202015F0ACFD3DE70FA812F03CFC39E711F01DF811B0BDE8F08FA2
:2024B00008020020381C0020532E0020512E00204E1A00207C1B002073850100641800205A
:2024D0002DE9FE4FDD4981460122A1F130000260D8480768002FFCD0D74AE34EC027D84872
:2024F000D84B17603268920808D2324652F8042C03F14104120C42F0F00222704FF0000ADC
:202510008346C1F800A0DFF88CC3DBF80810E04F0191880E43D2480E41D3802018744FF631
:20253000D802A3F8512018703868C0F30464162CA8BF203C1E460F3E307800F01F001628B7
:20255000A8BF2038844223D0624602F1980EE44ACEF800A0251A022D05DC15F1020FB8BF41
:202570006FF0010500E002254019156800F01F05844245F4F855A6F866504FF0010515609B
:20259000E8D110682E4616601068CEF80050106838460068C0F30420162808DB06E0A7F1AE
:2025B000D0000068C0F30460162800DB203800EB2170401C162805DA10F10A0FB8BF6FF066
:2025D000090000E01520D54E00F01F0040F4F850A3F85900306880083ABFD148C0F800A0A1
:2025F00041F040616246C80E8E0E80F0010000F00100106086F0010000F00100906001981C
:2026100010F026FC0146182013F006FBA7F13806CD4C30683568A4F10408C0F3870105F010
:20263000030041EA0021D8F80400C04D446840F2FF32534688B22C21009028464038A047CE
:20265000F06AC0F30D011C2013F0E6FAB549706A014000F07C400143142013F0DDFA316A7E
:2026700001F47C000904090C0143102013F0D4FA7D4AB06A1268C0F30351C0F303445208BC
:2026900013D2DBF80020130511EB237103D41029A8BF0F2100E05146120414EB227403D40A
:2026B000102CA8BF0F2400E0544644EA011400F47F4200F0FF01B9F1220F42EA044241EA5A
:2026D000020124BF00F0804001430C2013F0A4FA954CB9F1220F32BF01202068C0F30070CA
:2026F000B9F1220F4FEA400040F0200085F8090126BF2068C0F3407001208D4EB9F1200FFA
:2027100040F0100085F8090138BF514606D33168C80C00F44070C1F384510143282013F052
:202730007BFAB9F1200F26BF3068C0F301505046B9F1220F4FEA400040F0600085F80C01B6
:2027500026BF2068C0F3C0605046B9F1220F4FEAC00040F0800085F8010126BF2068C0F370
:2027700045505046B9F1200F4FEA800040F47C40A5F89C0138BF6F490AD3306801038A159B
:20279000920501F47C1100F00F00114341EA0031082013F041FACC3F4FF480002860664AF5
:2027B000B86D40F21E216FF31F40814216D93868030E03F00F0113F00F0FC0F3034018BF5E
:2027D000491E072805D006280EBF0720801C00F00F0041EA0011A2F108000170DDF804C0E0
:2027F000CCF381477F1E02D07F1E31D02CE02068810C29D24FF480412960D2F80210430A63
:20281000C0F3033703F0800321F08F010B4347EA0301C2F80210D2F80130060A66F30303EB
:20283000C2F80130116800F0E70721F0E70147EA01000CE09402224300600C4040100940EF
:20285000AC3F0050156208404FF000402A46106005480068C0F3C0070FB94020A8624FF46B
:202870000070286402E0C046B03F005020684027C0F3C14040F0300085F8C800CCF381504D
:2028900080B3401E08D0FFE7401E23D0022122E08813005000002043012013F091FE064616
:2028B0000420314610F0C6FC042013F089FE8642FAD12248066826F07F4013F0BFFCD8F82F
:2028D0001400036807214FF06022300E98474FF4806028600321042010F0ACFC09E0C046D9
:2028F0002C2009400420012110F0A4FC144813F0A5FC203C206800F03F0085F8CB0FD8F813
:202910000030124ED96830680220884710480D4C076001212160BDE8FE8FC0460000094011
:2029300094042A43FCFCFC008C13005040A00C409813005000803F400A600840A83F005090
:20295000BD37860094046042A40100102C20094000600C402DE9F04F0D46C94C01686162D4
:20297000416880686160ADF12C0DA060284613F03FF84FF008094FF0010BADF8089002A8F4
:20299000ADF80AB0616A08908847BE4E9DF80C1071700499716108B114F06CFD286880470C
:2029B000A046D8F80400804709904FF40057ADF808901E20D8F82410ADF80A0008980397EB
:2029D000884712F0FDFECA4C206C40688047206CC16868468847206C83686A46002001464A
:2029F0009847E06308B914F045FD14F013FFC24FC4F8D470C24AC4F8DC20C249C4F8E010FC
:202A1000BC4830610025A4F85450BC4BC4F8D830BD4FC4F8E47004F5C472C4F8642104F160
:202A3000C001C4F8681104F1D400C4F86C01B74BC4F8E83013F08AFE04F1980704F51C7024
:202A5000C4F87471B34AC4F87001B14BC4F80821B14FC4F8B03003F16E00A765B04AC4F8FA
:202A7000B400AE4B2266B04FE365B4F85410C4F8107241F00100A4F85400AD4AC4F8302255
:202A9000A8496166A94BC4F8203204F15807C4F88471AC486062A7492161A84AE261A64B19
:202AB000A361A749216214F057F9A74FC4F84073A849C4F84C13A54BC4F84433A44AC4F8FD
:202AD0004823A54FC4F85073A649C4F85C13A34BC4F85433A24AC4F85823A34FC4F8607319
:202AF000A449C4F86C13A14BC4F86433A04AC4F8682384F83C53B4F85400B56040F01000CE
:202B1000A4F854009C4FC4F870739E49C4F87C139A4BC4F874339A4AC4F878239A4FC4F8D1
:202B300080739C49C4F88C13984BC4F88433984AC4F88823984FC4F890739A49C4F89C13BF
:202B5000964BC4F89433964AC4F89823964FC4F8A073984981F800B0944BC4F8A433944A9C
:202B7000156002204D8013F0F3FFFF210222F06215F02BFCF01CFF21022215F026FC022091
:202B900013F0E6FF8C4F386008B914F073FC38682946022215F019FC07A806A912F02CFEBF
:202BB000F06A9DF81C10421C01709DF81C00107025709DF81C00B07014F016FAB061089FB8
:202BD000D8F82410ADF808901420ADF80A00384688471523ADF808900398ADF80A30D8F8B5
:202BF0002410F061384688470398754FDFF8DCA1744B3D70801E3062704E1D700AF10E024E
:202C10003570108875700E30356180B214F0FCFA074677610FB915F085FB02978DF80C5096
:202C30009DF80D00684965F301008DF80D009DF80D00534665F383008DF80D00D8899DF8A8
:202C50000D20088065F307128DF80D20ADF80E00706902A94A4614F045FF3762756212F00B
:202C700011F85B4E3078012802D0284602F0C2FD58480570584F3D703078012807D003E0DC
:202C900064180020481B0020284602F0B3FDD8F808100998884701F087F814F0D5FA94F8CE
:202CB000EB0311F051FE584602F0A4FD0FF03DFA4A4805703078012802D0284602F09AFDBE
:202CD00010F0F2F91820464FADF80890454EADF80A00D8F82410039708980496884708B14D
:202CF00015F020FB03F00EFB0BB0BDE8F08FC04608020020CD46010045880000453501003D
:202D1000F373010035D1000091E10000891B0100F886010049D000003DBA000019B20000C5
:202D300011490100655E01000D3F01005D1F010041830100CD8B000059D80000996A010048
:202D5000F51D0100C9590100050201004D6800008123010099570100CD800000CDEB0000D5
:202D70009D5D0000F92D0000671301007986000021D20000097C0100519400006D44010099
:202D9000916C010009D3000089A600008D6F00002F7401008DEC0000A13901006D6C01004C
:202DB000754A0100596F01000D780100F3820100302E0020D41D0020442E0020602D0020B0
:202DD0004F2E0020512E0020D4160020141D0020311D0020532E00204A2E0020502E002007
:202DF0008F260100CC1C00202DE9F04FADF1840D1A9104461B920DF15F00CF491C93082291
:202E100014F070FE2046694612F0B6FE1D9018B900200146209006E202200027A41CDFF808
:202E300020B31E90C54E2097204602A911F00DF95FEA000900F0F38120990DF14100162239
:202E500015F0C3FA9DF809707F1E00F088807F1E40F0DD81B9F10A0F40F3E481A41C06A809
:202E70000422214614F03EFE241D07A80222214614F038FE42F20B000DF11E0111F0EEFA7B
:202E9000BDF81E00BDF81C10884200F3CB81A41C14F8010B14F8017B14F8015B8DF84100D7
:202EB00014F8011B8DF842700DF141028DF84350204606F0EFF9C24909780028044400F01A
:202ED000B1811D9D012905F1020500F099814FF400500DF1570111F0C1FA0DF157000DF1CD
:202EF0005F01082213F092FF40B11A990DF15700082213F08BFF002840F0828142F2010064
:202F100006A906F09DFA42F20B0007A906F098FA42F205000DF1410106F092FA0DF14201B2
:202F300042F2060006F08CFA0DF1430142F2070006F086FA11A942F2090006F081FA9DF8DB
:202F5000440028B1022840F05B8142F2030001E042F20D000DF1450106F072FA50E1B9F134
:202F7000040F40F35F81A41C14F8010B14F8017B14F8015B8DF8410014F8011B8DF842702E
:202F90000DF141028DF84350204606F083F90028044400F047811A9808A906F01FFB9DF8C0
:202FB0003E00002840F00E819DF8440000287BD1B6F84E70002F00F00081B6F852008742BA
:202FD00007D0308B718B884201D109F0FFF8B06D20E0B76D4FF4005004A911F03FFA14F008
:202FF00063F84FF6FF78209D1F90AA46B6F84E00A84243DCB06D4FF6FF7141450AD04FEADE
:20301000480707EB88073818808811F027FFB06D3F1823D1B6F84E300746002B08BF209DC1
:2030300019D05846209D40681946D846BF1FBF1DFA782AB1491E05F10105F8D1BF1D0AE01E
:203050008047B6F85210491CA6F85210D8F808108847B6F84E30AB4200F097801A980AF0A1
:20307000BDF9B8800120F870FD788DF83E50B888ADF83F00209B8DF82B30A3E0B88811F0BE
:203090005DF80146082204A813F0C0FE40B1388801041F9815F06DF982453CBF8246A8469D
:2030B0006D1CBF1DADB2A1E7B6F84C70002F00F08480B6F85000874207D0308B718B884208
:2030D00001D109F083F8706D1FE0776D4FF4005004A911F0C3F913F0E7FF4FF6FF78209D7B
:2030F0001F90AA46B6F84C00A84250DC706D4FF6FF71414509D008EB48173818B0F81F00B7
:2031100011F0ACFE706D3F1829D1B6F84C300746002B08BF209D20D0DBF80400209D1946BD
:20313000D846213F2137BA7F62B1491E05F10105F8D1213711E0C046CC89010060100020FC
:20315000641800208047B6F85010491CA6F85010D8F808108847B6F84C30AB4215D020991F
:203170003846212215F031F91A980AF037F9A7F81F000123FF2039462122BB770546787249
:2031900008A8FD7214F0AEFC1CE0612057E0B7F81F0010F0D3FF0146082204A813F036FEAA
:2031B00038B179681F9815F0E4F882453CBF8246A8466D1C2137ADB294E764203FE0C046C1
:2031D0000A0200209DF83E000DF14101162240F004008DF83E000AA814F084FC1D9D9DF8EC
:2031F0004400AD1C48B19DF856700DF14500394610F0FAFB3F1A8DF83D7008A80FF040FA33
:203210001E9809EB0007BF1CB8B21E9003E01D9D4C44A41CAD1C1E9885423FF705AE1E9828
:20323000022803DC20990A46672004E01D9A911C121A2098921C1B9B19801C990A8021B0AC
:20325000BDE8F08F2DE9F04F0320ADF1440D13F00DF8C94C0025022004F11C0141F80C5FB9
:20327000401E8D60FAD104F14000A846062701467F1E21F80C8BFBD14FF00809CA4BC94901
:20329000CA4EA0F800901B1D816004F11C07AA4623F003031A46F11A21621046A3611E46F8
:2032B000E3615B18834200F2BE81881021F00301E82302EB800040F804ACEC393360404606
:2032D000C2F8E810E83222611BF0CCFF6061B9493868DFF8E8B220610A680BF10C06326052
:2032F00049687160B248B4494A4613F08FFD28B9AF48CE490A68026049684160CC48CD4FE1
:20331000C0F8AC70C0F8B450C0F8C450CD4EC0F8C850CD4BC0F8B060CC4AC0F8B830CC4FA5
:20333000D0F8AC10C0F8BC20C0F8C07009B1404688471CF00FF8C74ECDF82CA041460C2200
:2033500006F128000EF014FDC34F0222ADF820904EF66023F762708DADF82220616A33633F
:203370001027099740F01900708508A8884700280CBF0A9F47460120ADF82090616AADF89A
:20339000220008A888479DF824005C4620700A99616077B1D021397087F80180B87087F8C4
:2033B000038087F804803946BD600220FD6011F0EFFFAA49182001221BF00AFF7C49E22044
:2033D00014F088FD18201CF0EBF960706068B346CBF808000BF02EFBAA4F0BF18400A06033
:2033F000DBF808509E4C41466762F520A56014F0F9F9F820414614F0F5F99A4D0D200E266F
:20341000687005F10C01AE7005F118000DF0C0F8A860687814F022FC00B1C146A87814F0FA
:203430001DFC08B949F010098F49A86814F06AFE8E49C82205F1240011F01AFA8C48B9F18E
:20345000100F686010D1606A70B1C26862B1FF208DF810004FF6FF77ADF8127004AEADF87F
:20347000147096E803009047824D05F1140005F108010DF08DF86860404614F079FE4746B0
:20349000AE1E814606F8028F02207070384614F0D5FE014668684A46C9B212F001FA7F1CE9
:2034B000022FEFDB744905F120004FF4FA7211F0DFF9724D05F11000291D0DF069F82860B5
:2034D000606A002845D00769DFF8B4916FB1009449460EA80A68898802600EAE818096E830
:2034F000030001234246B847606A002831D0C26852B149460EA80B68898803600EAF818004
:2035100097E803009047606A18B307690FB306208DF80800ADF80A000DAEADF80C8002AD7E
:20353000009695E8030042460223ADF83420B847666ABDF834007769A08057B1BDF8340016
:2035500002AE401CADF8340096E8030002220DABB84739A014F04AFCE820812114F042F90E
:20357000E7200A2114F03EF9606A0626002837D00769002F34D001E0641800208DF818608C
:203590000425ADF81A500BA8ADF81C8006AB009093E8030042462B46B84788B90B9819300B
:2035B00082461DE045F90100542E0020004B00200C1D0020C8FF010040910100001D0020CA
:2035D000606A8DF8186006AFADF81A504469ADF81C8097E80300CDF830A02A460CABA0473D
:2035F000CDF82CA050460DF013FDE0200C2114F0F9F84F20032114F0F5F85720052114F040
:20361000F1F84E20042114F0EDF85920032114F0E9F813F0ADFF0BF10200012114F0CBFA1B
:2036300000F086FDFCE740F804AB3BE6F0120050D40700202D50010054492053656E736F8C
:203650007200C046915401000905010079580100FDE30000EC160020C027090039480000A8
:2036700010150020041A002021590100757901000D7B0100981A0020210C01009C1C0020EC
:2036900060910100800800202DE9F04FBF4C0546A07AADF1340DC00013F05AFADFF8F0926C
:2036B000089009F10400006880470B900AA9822005F0A4F9BDF82800002834D14FF0000862
:2036D0004FF6FF76ADF8288024E0ADF81460BDF82800ADF81660FF210822ADF8100006A811
:2036F00014F073FEA77A57B143461946089AC8007F1E01F10101135010448680F6D18DF830
:203710002480D42004A903F009FBBDF82800401CADF82800A088BDF828108842D5DC822025
:203730000AA903F0FBFAB94F0020A0464FF6FF79A2463988ADF8280006E0B44FBDF82800D7
:203750003988401CADF82800BDF828008142DCBF8F48816840F34F81AD4800784FF0000BBA
:2037700001265C460FE08A49B8F804008968641CA4B2ACE0BAF80600641CA4B23CE0A44811
:20379000641CA4B20078A04208DC002ED5D1BBF1000F2ED1687F0028CFD02AE0BDF82800E2
:2037B0008DF802406946ADF80000D02005F026F90028E4D19DF80C30012B08D19DF80B0087
:2037D00028B90DF1030014F081F90028B5D16F7B002F0CBF052209225E469F42CFD10DF172
:2037F000030005F10E0113F05FFD0028C7D04FF0010BB8F806000024A0425CDDBDF8280076
:20381000ADF802406946ADF80000D12005F0F6F80028AFD1BDF804008145ABD0ADF8100032
:2038300004A9D42005F0EAF800285AD106A8291D082213F039FD00289CD028886F88ADF876
:203850001400BBF1000FADF8167022D0287B98F80A708DF82400381C08BF00200FD008995B
:20387000024600208B88994509D0BDF828609E4205D0521E01F1080100F10100F2D187422B
:203890002FDD0899AA69C000BDF828700A5040188780D42004A903F041FABBF1000F0AD02E
:2038B000287F9DF80610884205D08DF806006946D12003F033FAB8F80600A0427FF43DAFC5
:2038D0003349B8F80400DFF84CA189680024A04240F38F80ADF81040D42004A905F08EF89A
:2038F00018B12B498968192486E006AB184614F0EDF838B9291D1846082213F0D5FC002834
:203910003FF431AF6F882888ADF816702E7BADF8140098F80A708DF824603B1C08BF0020FF
:203930000FD008991A4600208B88994509D0BDF828609E4205D0521E01F1080100F101005E
:20395000F2D1874203DC124989681A2454E0089A2E1DBBF1000F0CBF0021A969C000115067
:203970001218BDF8280031469080082206A814F0B9F89AF83C0330B1DAF88C231AB1BDF869
:20399000101030469047002606E0C046141D002064180020761CB6B2B8F80600B04221DD0B
:2039B000BDF82800ADF802606946ADF80000D12005F024F8E82803D0BDF804008145E9D1A1
:2039D000BDF810000023ADF804002F7F8DF8073004A98DF80670D42003F0A0F9D120694614
:2039F00003F09CF90C488168B8F80400B0427FF7BEAEA042A9D000240B988847089813F0D6
:203A1000D3FA20460DB0BDE8F08FC0461C1D00201F1D002008020020641800202DE9F04FAC
:203A3000064692F808B0307D09AF8846ADF1240D04933528039205D0114606F170000A229E
:203A500014F050F8DFF8C8C238F07F0506BF604600884FF6FF700590F08A800934BF0020AB
:203A700008203076F08AC00834BF102080207076F08A400903D260460E30007800E0002089
:203A9000B076F08A41082CBF20240024000928BF44F010047568002108F07F08307D0691E1
:203AB0006D1E02280EDB0C2808DC0C2803D1022044F40854069044F0030404E00D280CBFCD
:203AD00002200120044396F88C0008B144F00804E110220900D328B1DFF8BC9299F8E033A8
:203AF00013B908B1DF204CE149086ED306F12401DFF8A8A296F88D50079100EB0A011AF82B
:203B100005300A7999183389491DCAB29918A44B1A8808908A42C0F2368100284CD0049A9D
:203B3000039906F184000AF02DFD0799002808603FD0806AB0F1FF3F39D070680023401ED0
:203B50008DB196F88E10524600F80119515D491EC9B241B18A1992F88320491EC9B20029E4
:203B700000F80129F6D1079970660968896AB162090E00F8011996F82A1000F8011996F8CE
:203B90002910089A00F8011996F8281005F0030500F8011902F0070141EAC501017071681E
:203BB0003589091ACAB27060A918318105E0DB2700E0F3277770E7E00023F08A7370C0087E
:203BD00028BF44F0100475686D1E336DA3B9B36D93B999F8F913012903D13089B0F5EE7F70
:203BF00006DA200904D202290AD144F4005401E044F48054012002E044F408540220069008
:203C100099F8020001280CD099F83C0348B196F86B00042805D1022024F48054069044F45C
:203C3000005444EA8834B8F1020FA4B20AD0B8F1030F10D1ED1F09F57B71284614F081FBCC
:203C50006D1E08E0B9F8D203001205F8010999F8D20305F80109069802280CD0B8F1000F79
:203C700015D0BBF1000F0CD004990598814208D144F040040BE0BBF1000F08D1B8F1000F33
:203C900005D00599081205F8010905F8011944EA8B24BBF1020FA4B209D0BBF1030F0ED103
:203CB0000399ED1F284614F04CFB6D1E07E003990888001205F80109087805F80109BBF1A9
:203CD000000F05D00498011205F8011905F801093878F8B933480178307D0D2814D068B9E7
:203CF000306D28B999F8BC03411C89F8BC130AE099F8E103411C89F8E11304E099F8CA03C6
:203D1000411C89F8CA13014605F8011904E0C046D605002044F48074201205F801092C7094
:203D300070683789401BC1B2756078183081200926D3B06D00B1306299F83C0310B1307D37
:203D50000D281DD1746A14F1150001D114F0EAFAA16A481CA0623289306AB162471B0092B1
:203D7000D21B019090B20290706A96F88C202B4615300AF035FD00281CBF7070071C07D10D
:203D90000020707005E0E5277770F32013F0F8FCF8B209B0BDE8F08F080200206885010092
:203DB000221D0020642D00202DE9F04FD54D286A416EADF11C0D02A888474FF00009D24F82
:203DD000CDF80890B8688DF80C90002833D112F01DFAB8B112F01AFA012813D012F016FA53
:203DF00005280FD012F012FA0C280BD012F00EFA0D2807D012F00AFA0B2803D012F006FA66
:203E10000E280BD112F002FA787000280CBF48460120B870286A00F1200408B914F082FAE8
:203E3000216807F1180088474FF4FA703885B74EFE6206243C63DFF8D882EA6998F8FB4320
:203E50004FF0010A4946080100EB41108018867F2EB9437F491C9C42C9B2F4D102E0417FC9
:203E7000A14204D1824202D011F0C2FDEA69DFF8A4B2686A1BC88BE81B0097F901000128A7
:203E900005D00D2803D00E2818BF484600D105208BF8000098F829145069A44C50F8210042
:203EB000C4F89C0013F0B8FB632005A910F0FCFD98F8FB0312F06AFA064694F88E006AF303
:203ED000020084F88E0011F071FB042825D011F06DFB032811D094F8900040F00F0084F8EC
:203EF000900094F8970069F3030084F89700B07B052814BF2420292016E094F8900040F093
:203F10000F0084F89000292384F8943094F8970069F3030084F8970008E094F8900040F021
:203F30000F0084F89000212084F8940094F8950069F3871084F8950011F038FB042818D098
:203F5000B37A7BB99DF8140094F89510401E60F3050184F8951094F8960020F03F0040F09D
:203F7000180014E09DF8141094F8950061F3050005E094F8950020F03F0040F0020084F8EF
:203F9000950094F8960020F03F0040F0200084F89600B189B07BB4F88E200A23401D4843D5
:203FB00090FBF3F161F3CF02A4F88E20B08994F890201923800390FBF3F102F00F00D4F8A3
:203FD00090200F23484390FBF3F161F31C22C4F89020E86994F89820017F61F3020284F80E
:203FF000982094F89810007FC01060F3C30184F8981098F9EA0310F0A3FAB0F1FF3F05D06C
:20401000010828BF4FF6FF70A4F89A00308971683368EA69401E414303EB51004FF47A71E7
:20403000B0FBF1F0A4F8A00090690078A4F88290C4F8849094F88D3084F8A4006AF30303ED
:2040500084F88D3014F0A6F8C8B9B089324A98F8FB63B1FBF0F0C0B21070B1FBF0F02F49CF
:20407000022E487006D011F0A1FA032807D105225C2001E00222A820294B1A700870BB68CA
:204090002E6A5BB3484610F01FFEF87898F8FB13884212D13A7998F829142E6AB8688A4200
:2040B0000DD102214A468DE80600366D80344B4602AA2146B047EC601BE02E6AB86871681A
:2040D000884718482B6A80F800A01E68164880345946224607F11803B04707E08034224648
:2040F0001148346807F118035946A047B860686AA86298F8FB0398F82964F87007B03E71B5
:20411000BDE8F08F58190020141B0020F31D010008020020142E0020B81C00204C1A002074
:20413000381C0020321D0020502B0020141600202DE9F041C84CC94DDFF824836088ADF132
:20415000400D4108C0F0838006A802A90FF032F901286DD1404624300068D8B10769CFB161
:20417000062009AB8DF83000022600930022ADF832600CAEADF8342096E803000C23B8472A
:2041900040B9BDF8240060850A9FE7620B98206313F03CFD0226BDF80A10BDF8080084F8D4
:2041B000246003AAA1830FF085FA011C02D0B6A014F0AFF830460EF0E5FDBDF818009DF874
:2041D0001470A5F8400007A985F8427005F1500014F02FF8BDF81A0005F1460603A9A5F8C4
:2041F0004E00304614F025F8BDF80A00B5F84010A5F84400502013F0E9FAB5F84E10532059
:2042100013F0E4FA4A20314613F064FE95F84210E12013F0E7FAB5F844104B2013F0D6FA64
:2042300005F10A00102113F0C6FC0120207008E012F0EAFEE06001200EF0A4FD002013F0D2
:20425000C1FDA01C012113F0A0FC2046408880080DD3E06A12F03AF812F076FB00B2A082B8
:20427000E08202F027FCA01C022113F08EFC6F89780805D305F10A00012113F086FC6F895C
:20429000B80805D305F10A00022113F07EFC6F89780917D38349182042220FAB1AF098FFB0
:2042B00095F85A0005F10A06032818BF042802D1286E11F0F3FF10F0B1FF3046102113F01D
:2042D00064FC6F89B80907D30DF0D2FC05F10A00202113F05AFC6F89F80907D30BF0CAF9E5
:2042F00005F10A00402113F050FC6F89780A0AD395F85D0013F066FD05F10A004FF4807123
:2043100013F043FC6F89380951D395F85C0005F10A0600283FD0401E37D0401E02D0401ED5
:2043300031D03FE095F85810472013F05BFA95F85910542013F056FAB5F844104B2013F06D
:2043500045FAB5F84010502013F040FA0A27812395F842008DF8097002AA8DF80A305249BC
:204370008DF8080001278DF80B7018201AF030FF95F85A00012815D1E87898B130462021B1
:2043900013F019FC0EE003200AE05220012113F011FA022004E05220012113F00BFA012095
:2043B0000EF088FC3046082113F0EFFB6F89454617B1A86814F0CCF8E988687849081CD32B
:2043D000A97802094FF0000601D301290ED040090ED301290CD030A013F008FDA01C01219A
:2043F00013F0E9FBA86814F0B3F801E010F0D4F96E70A81D012113F0C8FB608800283FD1AE
:204410000A200825294CADF80A004FF0FF37ADF80850616A039702A88847002830D1072071
:20443000ADF80850616AADF80A0002A88847049E0E9628BB1E499DF80E200878904214D1F2
:204450009DF80C004A7882420CD089684B6C63B100213246984708E0EC160020B81700201C
:2044700010150020304600F097FB0E9840B1ADF808500320ADF80A00616A039602A88847AC
:2044900010B0BDE8F081C04641757468204572726F723A20307800C05374617274696E6766
:2044B0002E2E2E00B94A01007182010064180020001D00202DE9F843DFF828830F4604461F
:2044D000F80B80F07481DFF81893B80F80F02D81C54DB80880F02281F80A80F00081B80B62
:2044F00080F0EE80780B80F0C080380C80F0AF803809C0F07F81082013F01CFE002840F02A
:20451000A180802013F016FE002840F09B8068460CF08AF8012803D10098002800F0928055
:2045300000240125E0B213F0CBFB48B1867A3EB1857290F9090005FA00F0C0B211F0D4FB24
:20455000641C032CEED34C46032020756068783013F009FFAB48002601680660AA4950F8F3
:20457000082CB146324640F8089C04F1380013F00AFF304612F0D8FD13F066FB0146A26871
:20459000E069891A090BC1F1FF3282422CBF08444FF0FF30E06194F820601EB12169B0EB7E
:2045B000C12F1FD912F020FE494600B12946081C14D0964840F60901018049464180427B80
:2045D00065F303024273027B61F303020273416013F0C8FC418811F4406FFBD084F82050D2
:2045F0004946E16110F02EFF89484D4649460560022012F08DFB022011F05CFB11200AF004
:20461000F9FB207818B96068403013F0C4FE8148007810B90E200AF0EDFB94F8210020B198
:2046300084F82150052011F045FB7B48B4F98C60A061B4F98E1025758E4214BF02200720E9
:204650000CF0DEFF27F008070EF054FED2E00835296839B1C86840880028FBD0C8684088AE
:204670000128F7D027F40047EEE711F035F938B12046A4696FF4807100224FF00073A04769
:2046900068494C46002204F1380013F07CFE0220E668207513F0D8FAD4F81C21636804F554
:2046B0008E719A4214BF0122002226B1801B01EB8206030BB360002027F48057E060C3E7F4
:2046D0004046066846B1B06830B13069B6F93410B46800222023A04727F400578AE013F013
:2046F0004CFE4C460546206F064688B1606810B1783013F038FE3069606013F0A5FAE060CA
:2047100046484FF40061A06104F1B40013F04BFE284613F019FF27F480676BE006F0FCFA9F
:20473000286808B927F0020764E013F026FE0546042011F045FFC8B1207CB8B14846083095
:20475000006898B1064613F07FFAE168801BE060000B8842E06002D240184008E06040F6AD
:20477000C41181422CBFB0F5967FE160284613F0EBFE11F0B1F880B1A56920466FF48071AE
:2047900000224FF00073A84725480068002808BF47F0020701D00EF0ADFD20466469002175
:2047B0004FF080630A46A04727F0005722E013F0E4FD41460E68CEB1B16A890816D2B56A0D
:2047D000B16AA943B16213F0BFFEB06880B17DB13069B6F93410B4682A460023A04707E06F
:2047F000A8240020302500202025002013F0ACFE27F4804727B1404639462C3013F0D3FD48
:20481000BDE8F883141004407D370100EC2D002000000460421D002099D60000D5B6000035
:2048300018250020E5B000002DE9F04FC34C07466068ADF1140D80470025DFF80483039061
:20485000002F88F8035000F0C68011F07FFF08F52A702946402213F0B8FDBA4C04F108006E
:2048700001882C2707FB01F080B212F071F9C8F8CC02002800F05D81E17A20894843410067
:2048900001EBC00188B212F063F90028C8F8D00200F04F81E18820894843800080B212F0F8
:2048B00057F90028C8F8D40200F043812089800080B212F04DF90028C8F8D80200F0398117
:2048D000208980B12A46D8F8CC1289180D75D8F8CC1289180D71D8F8CC12401E114402F18C
:2048F0002C028D81EFD1A188880000EB011080B212F02EF90028C8F8DC0200F01A814FF60E
:20491000FF7AA946AB4615E0A77A7FB12946D8F8DC028019C368CA0042F803B0C0687F1E8B
:2049300001F101011044A0F804A0F0D109F101001FFA80F9A088484500F3EA809548FF2186
:204950000822C01D13F041FD9248FF21082288F8B712103013F039FD032688F8C862278996
:20497000A8F8CAA2C7B14FF0010C04232A46D8F8D802910001F800C0D8F8D8024018437017
:20499000D8F8D80240188670D8F8D8027F1E02F101020844C370EAD17E4801210423052262
:2049B0000227343000F8041F437082707F1EC170F8D1784880F83C60A08848B12946D8F8CF
:2049D000DC22401E0A4401F11401A2F802A0F6D1022088F8AC0298F83C0318B1D8F8400318
:2049F00000B180470EF060FB98F9EA0313F035FA11F0C2FE13F0A0F913F014F813F006F8B9
:204A1000514E072456F8040B00B18047641EF9D113F044F8444604F14C00016809B110F06E
:204A300075F94A48006884F8565020B10CF0A4FD0028009068D146480078012802D028460E
:204A500000F0D8FE434804F178060570A06F002852D1361DE06F002846D1A5673E48C4F884
:204A70008801E5673D4FC4F88C7184F882503C4EC4F8906184F883503A4BC4F89431A5701D
:204A9000394AC4F8982184F884503849C4F89C113B49C4F8C010364FC4F8A071394FC4F82E
:204AB000C470344EC4F8A461374E334BC4F8C8602249C4F8A831354B304AC4F8CC308968E5
:204AD000C4F8AC21324A0398C4F8D020884704F2D131522005F0ACF894F8EB030FF01EFC15
:204AF0000EF0E2FA284626E0304610F0D5FF029002A810F00BF9ADE7304610F0CDFF019067
:204B100001A810F003F9A1E7684610F0FFF88DE7A37AD8F8DC724846860006EB0016D80011
:204B300012F016F8F119F319C860D86800287FF4EBAE13F0F7FB05B0BDE8F08F6418002039
:204B500008020020141D002010030020442E0020311D00204E2E00201F2601003B830100F6
:204B7000716A0100F5900000F5DA000039720100315E0100F9B7000025A500006D6301006E
:204B9000F70A0100E1AB0000412801000108010055300100B0040020B0B50446BA48076889
:204BB000ADF1480D002F00F0A8812078401E112800F2A381DFE810F06A0152013801230183
:204BD0001B010401F100E300C300B2008D005D0053004200A1012A001C001200F86B002857
:204BF00000F08B81684621460CF09EFAF96B82E1386C002800F081816846002101220DF08C
:204C1000B7F860788DF80000396C74E1F86A002800F07381684600210E220DF0A9F8A11CB6
:204C3000684612F0ABFEA57BA1890022ADF80A1005B101228DF80C20F96A5DE1B86B00286A
:204C500000F05B816846002102220DF091F8A5788DF8015060788DF80000B96B4BE1786B7C
:204C7000002800F04A81684621460CF05DFA796B41E1386B08B36846002114220DF078F803
:204C9000A5788DF80150A3680193A289ADF80820A17B8DF80A1060788DF80000E57B8DF87D
:204CB0000B50237C8DF80C3094F911208DF80D2061690491396B684688476068002800F059
:204CD0001C810146F22008700020487010F060FB13E1B86A002800F010816846002124224F
:204CF0000DF046F86078A11C8DF800000DF1020012F044FE04F10C0103A812F03FFE257E7C
:204D1000E08A04F119018DF818500B22ADF816000DF119000BF00AFBB96AECE0786A002825
:204D300000F0EB806846002102220DF021F8A5788DF8015060788DF80000796ADBE0386A6F
:204D5000002800F0DA806846002112220DF010F8658862796078ADF8025023798DF80520EC
:204D7000E11D8DF80000A5798DF804300B220DF107008DF806500BF0D9FA396ABBE0F8694F
:204D9000002800F0BA806846002101220CF0F0FF60788DF80000F969ADE0B86910B1204640
:204DB0000FF000F9A07820B9A069002800F0A58003E0A069002800F0A08012F005F99CE014
:204DD0007869002800F099806846002113220CF0CFFF6D46A01C0168406829600B226860E5
:204DF00004F10A0102A80BF0A1FA796983E03869002800F0828020460AF0E6FB7DE0F86865
:204E100000287AD0684600210E220CF0B1FF6078A11C8DF800000DF1020012F0AFFDA08974
:204E3000ADF80C00F96866E0B868002865D06846002114220CF09CFFA01C01686D46296090
:204E500040686860A07A0B2204F10B018DF808000DF109000BF06AFAB9684CE07868002842
:204E70004BD06846002110220CF082FF60786588211D8DF800000B22ADF8025001A80BF039
:204E900055FA796837E0C046081D00203868A0B36846002119220CF06BFFA01C01686D4635
:204EB000296040686860A07A410824BF01218DF80810810824BF01218DF80910C10824BF0C
:204ED00001218DF80A10010924BF01218DF80B10C10924BF01218DF80C1030F07F001CBF68
:204EF00001208DF80D000B220DF10E0004F10B010BF01CFA39686846884712B0B0BD7047A0
:204F1000BA482DE9F84F0025B94CB749056094F8E200002800F06381012800F02F81B54E5D
:204F300002283CD0032840F05A8151F8250CD4F8B8100029A0F5C060C4F8D400B8BF494277
:204F50000028B8BF4042814226DA4FF08057D7F8A4014568B4F8BC0030214FF47F4208233E
:204F700000903046A847D7F8A4014568B4F8C00004214FF4F802122300903046A847D7F844
:204F9000A401B4F8D070456820214FF440620A2330460097A847012584F8D8501AE151F866
:204FB000258C13F09DF82F4600B901273946924F38680028FCD0B146012609F10409D9F858
:204FD0002CA03E6009B113F091F8CAF30720C4F8BC0013F085F8AA4600B9B2463B68002BC6
:204FF000FCD0D9F800B0BAF1000F3E6001D013F07DF8CBF38440C4F8C00013F071F8AA4659
:2050100000B9B2463B68002BFCD0D9F81C90BAF1000F3E6001D013F069F8C9F38120C4F812
:20503000D000B8F5C061C4F8B81000F09C8094F8D80068B9C4F8D410D4F8C000C4F8C800FD
:20505000D4F8BC70C4F8C470D4F8D030C4F8CC30D4F8D400D4F8BC30002854BF02226FF0BE
:20507000010204F1C8010F6800EB40008018421000EB927207EBA2000860D4F8C810C4F888
:20509000C43000291CDD1E293CDDD4F8CC0030B93429B4BF15391E21C4F8C81025E02A29C0
:2050B000BABFD4F8C8000B381E20C4F8C800D4F8C4003F28B4BF401C3F20C4F8C4001FE02A
:2050D000D4F8CC00032812D011F10B0FC6BFD4F8C8000B30301CC4F8C800D4F8C400002823
:2050F000C4BF401E051CC4F8C450032508E011F1150FC6BFD4F8C8001530301CC4F8C8006A
:20511000C4F8CC504FF08057D7F8A401B4F8C43030214FF47F424568364800930823A84750
:20513000D7F8A40104214FF400321123456831480096A847B4F8C860D7F8A40104214FF4C2
:20515000F802122345682B480096A847D7F8A40120214FF440620A23B4F8CC6045682548B2
:205170000096A84701E084F8D85040F2FF50404502D8801C40452DD208202EE051F8251C55
:205190001E4F4BF2F5204843060A3868C0F3814001280AD111F0D8FB10F036F912F0ACFFDD
:2051B0003111C010484306EBE03694F8E50030B91348006820F07F403618760801E084F826
:2051D000E5501048310C0660012741600E4D8760287808B90B2000E0052084F8E40004F09F
:2051F0005FFCBDE8F88FC0462D400C402C500C40FC13002000A00C4000800C40B43F005067
:20521000102009403C600C40C19001002DE9F04F09AFADF13C0D08900A92388809911E46E5
:20523000ADF81800101C08BF002000F06C81017800274FF0010B401C4FF0FF39B846DA46D5
:205250000A9058E1252940F04D810178401C0A902D2918BFADF8068004D10178ADF806B0AF
:20527000401C0A9030291CBF4246434604D10178401C5A465B460A902A29CDF800804D4633
:2052900017D1049330680A9BCDF80890C01C20F00300001D306050F8044C1978002C009460
:2052B00003F101000A9018D5ADF806A06442009413E044460AE0600000EBC4004018A0F17E
:2052D00030040A9801780094401C0A90302901DB3A29F0DBCDF8089004932E2929D10178C4
:2052F000401C2A290A9011D13168CDF80880C91C21F00301091D316051F8045C002D48BFFF
:20531000454601782B46401C0A9011E0454643460AE0680000EBC5004018A0F130050A984B
:2053300001782B46401C0A90302901DB3A29F0DB02930AB1224604926C2904D04C2918BF17
:20535000ADF8048004D10178ADF804A0401C0A900BA8CDF80C800FAB07906429059379D0C4
:20537000692977D0BDF818C0752965D0782961D06F295DD0702946D0632936D073291AD086
:205390000A98401E0A900998012812D961490C68B5F1FF3F03D0A84288BF6D1C00D8099DA1
:2053B000029508A80AA932466B46A0473F18039865E0454617E03068C01C20F00300001D76
:2053D000306050F8040CBCF1010F014608B94FA00146079112F0ECFC0390B5F1FF3F4FD0C2
:2053F000A8424DD9039528464AE03068C01C20F00300001D306010F8040C8DF82C005D46BD
:20541000039558463CE0082035680490E81C20F00300001D306050F8041C082210230FA891
:205430000DF0F6F8401E079040210170079823E0082302E0102300E00A233068C01C20F037
:205450000300001D306050F8041CAA42BCBF2A1C04920DE03068C01C20F00300001D3060C0
:2054700050F8041CAA42BCBF2A1C04926FF009030FA80DF0CDF807900599081A0390009C07
:20549000241ABDF8065000945DB906E008A8202109AA11F0F4F97F1C009C641E0094F5D57A
:2054B0000398401EB0F1FF3F03900FD1BDF8060001281CD10098401E009018D408A820215D
:2054D00009AA11F0DCF900987F1CF4E70798017809AA08A811F0D3F90798401C07900398B0
:2054F0007F1CDEE708A809AA11F0C9F97F1C0A980178401C0A9000297FF4A4AE089808B123
:205510004146017038460FB0BDE8F08F286E756C6C2900C0909101002DE9F04FA64D824624
:2055300005F120000068416EADF12C0D03A88847AF4C201D0768002F00F036814FF0000B16
:20555000388979689B4DCDF81CB0C600097828781036890906D340F6485191FBF0F17618BE
:2055700006F5AF763D7D70438600352D0CBF5F464FF4FA570DF12601E8200FF095FA9DF852
:205590002600032808BF44F620676068007DF619352803D1D4F8A003804746430220894FE4
:2055B0008DF8200007F108000068069606A908F0DBF8D8468048824D804980F80080012021
:2055D00008702978012901D000F014F960680589466811F049FE3088000935D394F83C03CA
:2055F00090B361684B6A4F6E986AB0F1FF3F25D027B3421C9A628862030E07F80139606817
:2056100090F82A0007F80109606890F8290007F80109606890F8280038706268106A009544
:205630000190801B281A80B20290916A506A92F88C203346153009F0D3F800E0DB20D4F814
:205650008073002840F0A680294630460BF050FF642009A90FF028FA5B4894F83C1300784D
:2056700031B994F8EB0309F047FA012805D08DE009F042FA012840F08980DFF85091A81CFE
:2056900087B20DF1250109F170000780E9200FF00BFA9DF82500012805D13D46C5F3022089
:2056B00040F0180005E02D1DADB2C5F3022040F0080006F8010D06F8015D4D469DF824003E
:2056D000A5F862800028EE670CBF41484148CDF80CB002238DF8103005F12806A6F8028032
:2056F00005F16009C5F8B8003B4FC9F8180095F8350020F00F0040F0030085F835007868BD
:205710008047DFF8D8800A90BAF1010F1DD0BAF1040F1AD0BAF1000F14D0BAF1050F0ED05E
:20573000BAF1030F08D194F8FB0310F02FFEC07B022818BF4E460AE005F1600607E0DFF838
:20575000A08004E005F1440601E005F128061A48006A1C4B046D594602208DE80300986813
:2057700003AA31464346A0471E490880B96800280AD41D4A92F900000F4F6035401C1070AE
:205790000A98FD60884711E00A9888471A200CF0BBF80BE0002F08BFE420F8D0134880F860
:2057B0000080E420B84701E012F0BCFD0BB0BDE8F08FC046B81C002058190020271D0020EC
:2057D000311D0020141B00204F1A0020141600204E9055550E7A55556418002041A90000E9
:2057F00049DE0000781B00202E1D0020532E0020080200202DE9F04F9E4C05466068ADF199
:205810001C0D8047A34EDFF898B2012D069000F0D58012F02BF9002800F0CB80964800788E
:20583000A0B99648007888B99548007870B99548007858B99448007840B99448007828B902
:2058500093480078002808BF012700D00027306A002F00F13C0000F0AC80994C00682578DB
:2058700080476168DFF83492E368AA00401AB0FBF2F7A0684FF00008B24642469F421446FE
:2058900072EB040101DA984205D8414687428A4140DA034600E0414618462A46EB17C01B74
:2058B00071EB080112F036F9272607464FF47A7200238846ADF80A600820ADF80800384626
:2058D0000CF06EFE6B49496A039002A88847049823464FF0000100F6FC02BF1A78EB03085D
:2058F000784271EB080112DA6B480268414638460CF056FE884607464FF00001784271EBAA
:20591000080104DA38460FF029FB002000E001204C4620704C46207800284AD1002738469A
:205930000CF050FB00B101270026381C3FD15D46287800283BD1DAF820005A4C436CA068E7
:20595000022102AA98479DF8080080B3DFF85881DAF82020A06898F90010374611F1020FBE
:2059700018BF01274FF0010937B1926B98F900109047DAF82020A0684C4F97F9001011F11B
:20599000020F03D0926B97F9001090476FF00100387088F8000085F80090304612F00AFB8D
:2059B000DAF82000C169A06888478AF801603B480670304906988968884757E001200CF0DD
:2059D00001FB21460698896888475D46DFF8ECA02878012838D1012012F0ECFA11F0CEF94D
:2059F00058BB204640688047002402278346DFF8C090306AA9F80240416E2F7002A888472E
:205A100002948DF80C70306A2E4A2A4BD0F850C0A0468DE880011068494602AAE04715496C
:205A30008968002819D4244A4F4692F90000F760401C10705846884706E02878012803D19F
:205A50000020287012F01EF811F098F970B92878022804D15046007808B112F063FC50464E
:205A70000078012802D028780228FCD007B0BDE8F08FC046641800204F2E0020512E002054
:205A9000532E0020502E0020261D0020271D0020281D002058190020641B0020522E0020BB
:205AB000321D0020141B0020241D0020251D0020141600209D4501002E1D0020311D00204F
:205AD000B81C00201C1B00202DE9F04FAC4C07460020ADF13C0DDFF8A482ADF80C00201DDF
:205AF00000688946017D252900F00281703005A903F074FD002818BFC0B240F03B8101A868
:205B100004A90CF013FB0FF051FD042814BF41F2081543F2C82504A901A80CF007FB98F81C
:205B30002B2201993B684FF47A7A504650430AFB1100C01A8542C0F2D880D8F80422521A48
:205B50000AFB02F1C91A8D4200F3CF808542A34609DD002807DD95FBFAF04FF4916100B246
:205B700001FB003038609DF81F00002857D042F204000DF136010EF071FC11F075FA069967
:205B9000441A42F206000DF135010EF067FC9DF835009DF81D10FF2804BF0A208DF835006E
:205BB000FF2908BF0A219DF835609DF81C507548B4FBF0F2701884B25646A81054437043E6
:205BD000A04298BF041C41F20810241805A810F0FAFF9DF81C103D68B0FBF1F24A43821A12
:205BF000714392B272438B1A891A5B1B491B8C4201D9002908D56142994212D2002B10D5A6
:205C1000B4FBF6F109B203E06100B1FBF6F189B23A684FF4916303FB01253D6001E03D68F1
:205C3000002006460DF1120102A80CF07FFA0298D8F804120024B5FBFAF28018029081428B
:205C500003D998F82B32834202D998F898712FBB9DF81C00B6180004B04298BF361A9DF897
:205C70001F00002808BF9DF8200024D09DF81C00B6FBF0F085B2BDF833000EF05FFA9DF810
:205C90003120014628460EF0A7FE054610F088FF024608A928460EF0B9FB0CE0814204D8D5
:205CB000BDF81200401CADF81200BDF8120098F89B110CF095FB89F8000088F8F501DBF8A1
:205CD0000400007D052811D19BF8D10370B999F8000003A9ADF80C0042F20C0003F0B0FBC8
:205CF000BDF80C00A8F8F00100E06524204641E00FF05CFC042814BF41F2081543F2C8258A
:205D1000214800784FF47A7404FB00F13868491BA1F5FA62824206D2A1F57A61B0FBF1F2E0
:205D30004A43801A386068460DF10E010CF0FEF93868009998F82B2204FB010154430091A7
:205D5000611A8D4211DCA4F5FA648C42BCBF00F5FA60386098F89B11B8F878010CF040FB39
:205D70000146002089F8001002E099F80010652088F8F5110FB0BDE8F08FC0466010002014
:205D900008020020A08601008B1200202DE9F04F00289A461446ADF1340D00F0F48011F4E6
:205DB0007C1F40F0ED8011F00F0F00F0EC8007460591002006900B900A904FF00009099071
:205DD0004D4608954FF0010BCDF810B0054648460790059805990BEA000021EA0B014FEAC3
:205DF0004B0B401E059100F0AB80401E70D0801E5DD0001F40F0BE8042F205000DF10E01F2
:205E10000EF02CFB9DF80E60002E00F0B3801CB1276694F86B0006900720152607F8010BA5
:205E3000022301A907F8016B42F2010007F8013B0EF014FB684603A90CF078F906980DF039
:205E5000C9F90146019A00983E4640180090824206D8801ABDF80C300090581CADF80C00A8
:205E7000009B50084946804609041804030C194300044B4610EB080041EB09010AF0E8FD89
:205E90000090BDF80C309DF80C009DF800209DF8011006F8010B181206F8010B9DF8023070
:205EB00006F8012B9DF803200935BF1D42E00220152607F8010B042307F8016BBAF1000F00
:205ED00007F8013B0CBF09989AF800002D1D4EE01CB1E76594F86B00069005201526049B5C
:205EF00007F8010B0DF10F0107F8016B42F2040007F8013B0EF0B2FA02A80EF0CFFF0698DD
:205F10000DF068F902999DF80F609DF80F30069AED1D4018000200EB6600B0FBF3F03E4639
:205F300002903F1D06F8012B9DF808109DF809309DF80A2006F8011B06F8013B327018E011
:205F50000320152607F8010BBAF1000F07F8016B034607F8013B04BF0B9807F8010B05D0D9
:205F70009AF8000007F8010B9AF801006D1D07F8010BADB2059800287FF42BAF2E4661E026
:205F900011F00F0F01D000205DE080468A4602264FF4803908F1020509EA0A002AEA090AC6
:205FB0004FEA4909B0F580301AD0B0F5803014D0B0F500300ED0B0F5802009D0B0F5002038
:205FD00004D0B0F580102AD1072404E0062402E0052400E00424002704E00224012701E027
:205FF00001242746A81C214600F030F847B104F00F04C0F30A0141EAC42141F4004105E094
:2060100004F07F0400F0FF0141EA042105F8011B0912871929702D18B81C6D1C86B2BAF1C7
:20603000000FB9D1022ED8BF00260BDDB01E4FF6FE7708F8010BF019C0F3022040F0A000A0
:2060500088F8000030460DB0BDE8F08FF0B504460846ADF16C0D401E70D0401E0DD0801E8E
:2060700000F00981401E00F0EF80401E00F0E180401E00F0AD80002042E142F2010007A987
:206090000EF0ECF942F20B0008A90EF0E7F942F206000DF165010EF0E1F942F207000DF190
:2060B00066010EF0DBF942F2050019A90EF0D6F904A809F06FFE06460DF1670142F20900CE
:2060D0000EF0CCF99DF86700002808BF002503D0022010F05FFA0546204607A9042211F007
:2060F00001FD241D08A90222204611F0FBFCA71C9DF864009DF865309DF866109DF86740F1
:2061100007F8010B9DF8672007F8013B2B4607F8011B610706F0070444EA916005F00304FD
:2061300004AD40EA8410314607F8010B012400953846019406F048FA0A309AE042F206006B
:206150000DF165010EF08AF942F207000DF166010EF084F942F2040019A90EF07FF904A813
:2061700009F018FE05460DF1670142F208000EF075F99DF86700002808BF002303D00120A5
:2061900010F008FA03469DF864009DF8657004F8010B9DF8666004F8017B9DF867209DF8B5
:2061B0006770790704F8016B03F0030705F0070646EA916004AE40EA8710294604F8010B06
:2061D000002700962046019706F0FEF9001D50E042F2150011A90EF041F913AF42F2160073
:2061F00039460EF03BF915AD42F2170029460EF035F917AE42F2180031460EF02FF9204622
:2062100011A9082211F06EFC083408222046394611F068FC04F1080708223846294611F053
:2062300061FC082207F10800314611F05BFC202066E042F214000DF122010EF00FF9BDF84E
:20625000221002200A1258E009A80021202212F0BCF842F2130009A90EF000F909A812F019
:20627000B6F8024609A9204611F03CFC09A812F0AEF880B244E042F20E0002A90EF0EEF847
:206290000DF10A0142F20F000EF0E8F80DF10B0142F20A000EF0E2F803A942F210000EF0B6
:2062B000DDF80DF10D0142F211000EF0D7F80DF10E0142F212000EF0D1F8BDF808009DF86F
:2062D0000B209DF80C709DF80D609DF80E509DF80A1004F8010B02F00102001204F8010BB7
:2062F00007F0010042EA400206F0010042EA800205F0070042EA4012042004F8011B22703B
:206310001BB0F0BD2DE9F04FAA4C04F128000068ADF11C0D0EF002FE08B111F09DF8A04829
:20633000DFF878B2DFF89082DFF87CA200689F4D059010F021FC10F057FEE769A669B7F508
:206350007A7F13D0801B4FF47A720023A7FB00010AF07EFB81464FF47A72002311F0DAFB5F
:206370003A4600230AF074FB301801E0A0EB0609A061DBF8000020F00200CBF800006868C5
:206390008047DAF80010DAF804204E468919B1F57A7F0DD34FF47A73B1FBF3F3D218CAF82B
:2063B00004204FF47A731F46B1FBF7F25A43891ACAF80010A9688847686800968047D8F890
:2063D00004108919C8F80410A9688847D8F8000000285AD007464FF0000968688047049061
:2063F000BDF80200002690B99DF8010078B99DF800003979884204DD0098796888420AD28F
:206410000BE09DF800103879401A387108E000987968884201D3314601E07968091A7960F4
:20643000B88878B9FB8853B9FB6843B13B8933B1B87A194609F00AFCF8687860B88808B984
:20645000FB880BB13B896BB9B9F1000F04BF3868C8F8000003D03868C9F8000038683E46D1
:20647000074601E0B9463F68A9680498884756B1B3882BB9F3881BB9B07A318909F0E6FB89
:20649000304610F091FD002FA7D1DBF8000040F00200CBF80000E06828B3804723E016F87E
:2064B000060C2169A6F10C07032819D0E16A9DF806000978884210D116F8080C0FF0AEFF92
:2064D000B979012903D0022908BFB07000E03070002031460DF05EF805E010F0BDFF02E07E
:2064F00009B13046884708200727ADF80000696AADF8027068468847029E0028CFD0294853
:2065100000680088C8B1686880472649096800220E880A80A9688847059A002031462070A3
:2065300090470646FF202070686880471D4909680A8816430E80A968884710F01DFB07464D
:20655000B7F1FF3F1CD0686807B9194F216AB94238BF0F1C80471C230646626AADF80230C4
:206570000820ADF80000696A019268468847A16A3846491CA1620EF029FFA96830468847EE
:2065900008200A27ADF800004FF0FF36ADF80270696A019668468847CBE6C04610E000E0F4
:2065B0006C910100442E00204C1D0020641800208EC2F528481B00202C2E00202DE9FE4F49
:2065D0000546287D012807D195F917000DF0B8FFB0F1FF3F00F016819548EF7B017895485E
:2065F0001FB990F883208A4208DB012F03D190F882208A4202DBF120BDE8FE8F80462E6A61
:2066100095F83500B5F8289095F83470AC8B4FF0000A5FEA060B029017D098F83C33002B95
:206630002FD0D8F8541300292BD006F0FF008847D8F8541306B20BF47F008847361830B2C0
:20665000001D00B2C83086B200E0C8260CB1241DA4B298F8E003012809D147B17648029942
:206670003F1897F804A0405C8019401D86B209EB040080195044801C80B210F0D9FB071CCC
:2066900002D11A20BDE8FE8F09EB0A0033193881002C03EB070078600EBF0020B819801C55
:2066B00000217822C7F8A40007F10C0011F08DFE09EB0600FF2110220019A7F84C0007F1D4
:2066D0003C0011F082FE07F12C000F21102211F07CFE00243C707C707868696A2A8D11F0C5
:2066F00001FA07F1840005F12C010B2211F0FAF907F19000294611F029F86889A7F89A008C
:20671000287B87F89C00687B05F10E0687F89D00326869460A60706848609DF80010204664
:20673000012908BF01209DF80110012908BF40F004009DF80210012908BF40F008009DF807
:206750000310012908BF40F010009DF80410012908BF40F020009DF80510012908BF40F030
:2067700040009DF80610012908BF40F080009DF80710012908BF40F48070A7F89E00A87D5A
:2067900087F8A000E87D87F8A10095F8380087F86C00AA8BA7F8A82022B1D7F8A400A969A1
:2067B00011F0A0F9A87F87F8AA00286AC7F8AC00B7F8A800C0B1D7F8A400A8B17868401E10
:2067D0007860F82101707868401E78600470B7F8A810B7F8A8607868401A78603889801933
:2067F000801C38817868B865B7F89E00410A16D395F83710052905DB00F0040100F00100EE
:20681000084302D0E820BDE8FE8F08F1880630460AF0FAFF95F83710304610F035FF98F813
:20683000000039460CF0B6FE2046BDE8FE8FC046141D002008020020688501002DE9F041CB
:2068500042F20400ADF1280D0DF123010DF006FE42F205000DF122010DF000FE42F2010070
