:20000000004B002035170100FDC90110FDC90110FDC90110FDC90110FDC90110FDC901101E
:1C002000FDC90110FDC90110FDC90110FDC90110FDC90110FDC901103BCA0110A4
:20003C00BD0400214D040021810400218504002121050021A10500215106002179060021DA
:20005C00F8B51047F8B50E4600210125AD0430470A48037800F00FF89B070BD0124C2078D9
:20007C00FF2807D0FF2121700E490F24240220436031C882F8BDF8B5014800476B02002147
:20009C00E54C0000094801E00848000C064C05492278FF2A01D1CA7A22706031C8827046E9
:2000BC00801C004700620840C8060021070F0808F0B4084710B501480047000089090000A8
:2000DC0070B503461546012906D0002906D0114A2846FFF7B5FF70BD0F4800E00F480524E5
:2000FC00834203D84008641E002CF9DCE340012040031818820B012907D006490023803111
:20011C002846FFF79FFFE0B270BD0249044B6C31F6E70000835C0000A0BC862300830D2357
:20013C0098060021F8B51A4E0546716B1948CC09E401002D11D01849097802290FD0007B18
:20015C00044372B60120154F4002B847114820380088C109C90704D016E0C07AF0E7407BE5
:20017C00EEE70F497463CC61400AC0070CD001208003316B002D01D0014300E081430846D1
:20019C0031630749403948630020B84762B6F8BD80020021880000219B0200217B3F00008B
:2001BC004040044010B5224A0021516121498968C90009D42149204BCA0598424B6B01D84D
:2001DC00134300E093434B631D49FFF771FF10BD38B51A4D287F002827D11A480088C009E2
:2001FC00C00722D1124C606900281ED1684600F04FF868460078012817D168464078102831
:20021C0013D208206061686A4009400120600E4A0021D1620D4A0221116001210843206094
:20023C00032108436862206038BD0948804738BD00400440180000210000930880020021EC
:20025C00CF680000680000210011044080E200E0C33B00000749002800D00420064A72B649
:20027C000978C90701D0105800E0802062B640B2704700006B0200215860044010B5034CF9
:20029C00FFF718FF20680028FAD110BD0011044003B40148019001BDA56F00000000000035
:2002BC00010003000A001F005900EB003902EA04F9099712EB1FA132784A0A66FA828C9E28
:2002DC0063B617C964D6EDDEC1E3E0E5FF0000003E606F14333C3C33CCCCC33C0500CF2F03
:2002FC009D0F3EDB7F7F0000010002000300000003000C000F00CC00C3003C003300CCCC65
:20031C0033CCCC333333000F0F0F0000030007001F000000000000040F0000008703010069
:20033C00C048430000800480F00600001E0924055400050000082048480000001F007F7FDE
:20035C004C01333C3C33CCCCC33C00002072487203730573037204730673047276737672D9
:20037C00C0C70180010001901090010801900C720D720E72C0B00071F0B0C0A018723281F2
:20039C002010523970062000301601110114016C746076608A600E617460746074607560C2
:2003BC0020126B60101220720F731073117381811000809170B052606A606A60E1C182C278
:2003DC0070C42018136F236E111612167A6882C410C8201887400312236E1216846800D0AA
:2003FC0070916A600F73107300C0C09109C07081803970061016101E9944B7C008C01EC0C9
:20041C00AA60201E9F44F7C018C03EC0AA60401EA54437C138C07EC0AA60801E684477C1FD
:20043C0078C0FEC030C0F965D8B0007108B1D8A000B280B403B013B002B012B0468146391C
:20045C00F4C046041616D0B004C03CC170C09092117870C012103206C214236F93940071B0
:20047C0000B12139C2681416641CC0441178F10B70C012103206C214236F9394007100B1BD
:20049C002139D168F4C4D5C666C0AF81F764E0811022E340DD6070C010160FC0F764E568E9
:2004BC00D1A030C0609740C08097F1B0C1B00071F1B0C1A0767203A002A020726A601F067E
:2004DC006F31F90091104104C197DA871A0691105104C197DB871B061B31BA1419397A14DD
:2004FC00A36F93949E92007100B10070F8B0E48A12410493F0C10094A07810941B7277815F
:20051C00761087397706C797D887181640D06798F965207830943078409440785094507868
:20053C0060945A65907810986D6507B017B004B1D4B005C204C0E165F265541C3849909179
:20055C0014165181011E33417116411C334DD7A0BE79CF79EE95FF950412F2651416541C78
:20057C004B419091456105A250C0F965D7A0D4A006720272047203720472057306737673E5
:20059C0076726A6061C0813102C0F3CF126E1116126E1116E0C7136E1116126E1116636926
:2005BC00F0CF126E11166969007006B016B004B014B002B012B070783090509080784090BF
:2005DC00609005B272B090C0B09317B1E7B016B1E6B0007173B007B1E7A0E7A0B0807022CB
:2005FC00A245E6A0E7A0D7B08EB8007116B107B141B061B0F0C0B0938FB8648914315495D7
:20061C0044A0007107B14DB06DB074B001B2007107B10070D7B089B844898431843D249761
:20063C006078309750C0AB69408701C21014603D04836431643D0418F0CF20350404049304
:20065C00B0C0B09369B060D06498F965007107B1D7A07D6109120A12D76509141A14171EB7
:20067C00D441D76519140A14371ED441D76509141A14D76519140A14893C8A3C00700071DE
:20069C0007B1007107B1F08780318039018881390070C2659B10AC10C265BD108D31DB149A
:2006BC00CD108D31DC148A31A9149B149C14EB95FC950070D7A079B0007104B1D7B0208846
:2006DC000070509840880022FA4530B800700000A36100007F1407134D00F1242E1F133F73
:2006FC00B00A3F0007FF0000304000400140034007400F404F40CF40CF41CF43CF47CF4F21
:20071C00CF3FCF2FCF1FCF0F000000000F00080000003F00000040003F00000004006800A4
:20073C000E00DC00060043001A00050000000000020000003F00000000000400C000000046
:20075C000400C0000000070050C00091007070C00091007082312100319110B10070018127
:20077C0001B100A18231329110B101911110418141224F40F106007051C0019130181039D1
:20079C00833108D01831416F3100319110B1831414165B680070251050C00091F4C3C0C003
:2007BC002014036F3110410422C082312100319110B163393110410482C0823121003191BE
:2007DC0010B163393110A2C082312100319110B1501015310514059200703F6452C03110EA
:2007FC0031066131C102426412C13110213971065131E102426400708A65996588C0208274
:20081C0050398039001E9F4041C001301814181A89C0308260398039001EA94041C0013067
:20083C001914191A3C64369110B1349110B154B0007154A064B0F0800022AF404012B090FE
:20085C0032B053825339533985643F6411C122C1426470C1C26811C1C2C0426470C1C76811
:20087C0050C00091277298921516141642105310F0C12182313131398139313151B070B28F
:20089C0072652772999270B262107310F0C331822131213981391B107265E2C08231608285
:2008BC0080318039020061B00071329110B151A061B0277230C2F36800008012B09032B00E
:2008DC00007050C000912772999262107310F0C3318221312139813951B070B27E652772C7
:2008FC00989270B242105310F0C1218231313139813931311A107E6551A061B02772B0C087
:20091C0018693F6401C122C1426401C1C2C04264151A3C64359110B153828564C012B0903C
:20093C0032B000703F6472C281C0426422C111C1426402C011C1426462C031C3426462C315
:20095C0011C1426402C311C14264538253398564E2C347641122404142C281C8426452C271
:20097C0011C1426472C2E1CE426402C281C8426402C201C84264B0C0546900703F6442C230
:20099C0001C8426452C211C0426472C2E1C0426402C001C1426462C001C3426422C101C16B
:2009BC00426462C301C1426402C301C1426453828564007061B000711214231C7A4D33911B
:2009DC0010B10070329110B17269007061B000711318321C8649329110B10070339110B1B8
:2009FC007E690070C2C047641510C2C01216476441311514C0C0803105145410A078040474
:200A1C000070E6C0863101CC161467106182F0C3010417140070067305720B720E7250B05C
:200A3C000071818060B050A092804122C3458080F1C11004301601110114016CD661D7619C
:200A5C00D861D961DA61DB61DC61DE61E061E261E461366339639180F2C0210421318280DA
:200A7C00422A1214321601112114016CEE610B62F4613963EE610B62F4613963E661E661E4
:200A9C00E661E661E661E6619464E661F964E6612A65E6615665E6614667E6611012B0900D
:200ABC000E720673057210123090A761F0CF3C67D4C103C0C0C354644078509150781092C8
:200ADC00607820927078309280784092907860923078909110824039F006011010311014C2
:200AFC0000924267E661BCA0E2A054A0F08050221546408000222B470D6240A02D828D3139
:200B1C008D391082F1C0100409101A824A391A041082803910040E10AB10BC10C2106364A9
:200B3C002972E0CF3C6713B003B0C86653B050B054B064B013B0A5661082E0223846AE66F9
:200B5C000071418001222B47F08010224B46F022184764B03122384263B0CE661082E02252
:200B7C0038467066386264B06F818F318F3DD0DFFF923C670071418001222B4764B0F080AD
:200B9C005022654263B01182C1226046CE6605671182D12252467066526261817281813122
:200BBC00813D8231823DC0EFF19202933C670B62B081C091D381978290A2D3187F4EF30B3B
:200BDC001316E31CA44AC391E3813B149062BA1C8B46231E8B4AE31C8B4E90B207228B421D
:200BFC0090A21B1A9662E31CA44AC391E3813B18AB1CA04E9B1CA24ABC1CA442B210108218
:200C1C00D0229D42F0801022A4466364A566A462AB1094629B10946200703082F1C010044A
:200C3C0063B00071A86ABC10E0B00070B281C291D281018212185181121841828131813D81
:200C5C00121CBF4AE2B032B0B0DFF2923C67F1C72114C34E12C86291729131B0E1B0007067
:200C7C0008C006C000C86091709100700182B081C091D0811018518110180614E1804282E9
:200C9C008231823D201CE44AE2B02122E84632B00510A0DFF5923C672122E842E2A032B0E8
:200CBC0031824139F0C00104011EF642181610C01030081C04476010103C0610F1C7611433
:200CDC00FA4E16C8669171818131813D161C014B769131B006C008C0007061818131813DC3
:200CFC00408280390118F11C174B0114B080C0221747BCB033B090EFF1920F933C6700704A
:200D1C0003A063B064B0EFB056650071408000222B4764B02A65EFA00071408000222B47D7
:200D3C0064B003B03862018262818231823D80EFF19202933C6703A05665E661A2806364A6
:200D5C00E66150B00071E661E092D08200223D47C0B20070A080F022594330B002C1623128
:200D7C0001C0A080001E5243F0225343A0F56031603953632010101A136F236E11161216EA
:200D9C00546B0070AD6B0000A99E00000000000000000000000000009DA1000033460100F1
:200DBC00B1F3000091400100AB460100A5460100CD400100000000002346010085F80000CE
:200DDC00B9030100FD39010091A2000021420100C1C80000A9740000613001008D1A01008C
:200DFC0000000000090B01002B460100F6C0080000004100000001C3100000024210000029
:200E1C0003C414000004C518000005C618000006C71C000007C920000008CB24000009CD71
:200E3C002C00000AD33800000BDA5000000C18B800000D3FA600000E3FA700007FFFFF3FA2
:200E5C0000F6C004000000C312000001C416000002C518000003C61C0000044418000005E3
:200E7C00C820000006C924000007CB2A000008CE32000009D24000000AD85800000BE590A2
:200E9C0000000C2BBC00000E3FAB00007FFFFF3F00050000170D0100A5440100E9B20000E0
:200EBC001346010003470100D5E50000712F0100814601008D4601008746010005000000A7
:180EDC005F4701004509010091EB0000080E00005D0E00005D0E0000A0
:201000003C000000000000000000000034100000000000000000000001000000000000004F
:1C10200000000000000000000000000001000000000000000800000000000000AB
:20103C003400000000000000000000006810000000000000000000000100000000000000E7
:14105C00010000000000000000000000080000000000000077
:2010700030000000000000000000000098100000040000000000000001000000FFFFFFFF87
:10109000FF00000001000000080000000000000048
:2010A0002C0000000000000000000000C4100000040000000000000001000000FFFFFFFF2F
:0C10C000FFFFFFFF080000000000000020
:2010CC0038140000E410000095A1011091A70110A1C2011009B2011041B80110A5BC011078
:0810EC0085BC01102E0000007C
:2010F400280000000000000000000000141100000000000000000000FFFFFFFF0000000093
:081114000800000000000000CB
:20111C00341400003011000065C2011069C101101BC2011091BA011005BC0110E5BB0110EA
:04113C00300000007F
:20114000341400005411000071C20110A5B6011099BF011045B60110B5BA011025BC01104B
:04116000310000005A
:201164002400000000000000000000008011000000000000000000000000000008000000AE
:041184000000000067
:20118800240000000000000000000000A41100000000000000000000000000000800000066
:0411A8000000000043
:2011AC00240000000000000000000000C8110000000000000100000000000000080000001D
:0411CC00000000001F
:2011D000000000004C1D0020040000000000000000000000200000007010000030000000A2
:2011F0001C110000541D00200400000000000000000000000C0000003013000018000000B6
:20121000401100005C1D002004000000000000000000000024000000481300001800000039
:2012300000000000641D002004000000000000000000000010000000A01000002C0000000D
:20125000CC1000006C1D00200400000000000000000000002000000064110000240000003C
:20127000FFFFFFFF741D0020040000000000000000000000280000008811000024000000C8
:20129000FFFFFFFF7C1D0020040000000000000000000000580000003C10000034000000AD
:2012B000FFFFFFFF841D0020040000000000000000000000100000006013000018000000C2
:2012D000FFFFFFFF8C1D00200400000000000000000000001C000000AC1100002400000038
:2012F000FFFFFFFF941D002004000000000000000000000038000000F410000028000000A9
:20131000FFFFFFFF9C1D002004000000000000000000000054000000001000003C00000044
:1813300018000000000000000000000040130000080000000000000032
:1813480018000000000000000000000058130000080000000000000002
:18136000180000000000000000000000701300000800000000000000D2
:081378000200000044520100D4
:041384000100000064
:0413880000000E0053
:04138C0000000F004E
:041390003200000027
:041394000100000054
:04139800A81C00206D
:04139C00000200004B
:0413A000934601006F
:0413A400FDC901106E
:0413A8000000000041
:0413AC00000000003D
:0413B0000800000031
:0413B4000000220013
:0413B800B41A002043
:0413BC00010000002C
:0413C000C01C00202D
:0413C400080000001D
:0413C8000000000021
:0413CC00000000001D
:0413D0000000000019
:0413D400080000000D
:0413D8000000000011
:0413DC00000000000D
:0413E0000100000008
:0413E400B01B00201A
:0413E80006000000FB
:0413EC0001000000FC
:0413F0009019002030
:0413F40000000000F5
:0413F80000000000F1
:0413FC0000020000EB
:0414000000000000E8
:021406002900BB
:021408000100E1
:02140A002500BB
:02140C003000AE
:02140E003100AB
:021410002E00AC
:021412000100D7
:0114140001D6
:08141800030000000C5201006A
:081420000000000000000000C4
:0414280000000100BF
:04142C0000000300B9
:0414300083C4011060
:041434003C14000064
:041438003C14000060
:04143C0000000000AC
:041440009000000018
:041444009000000014
:0414480000000000A0
:04144C00C01C0020A0
:041450008D420100C8
:041454002000000074
:04145800DC51010062
:04145C003851010002
:0414600009C30110AB
:04146400BF2701009D
:041468002735010023
:04146C0095C801100E
:0414700097C8011008
:041474000000000074
:04147800DB51010043
:04147C0050500100CB
:0414800068500100AF
:0414840038500100DB
:0214880008005A
:02148A00090057
:02148C0001005D
:02148E0000005C
:01149000015A
:041494000000000054
:041498000000000050
:04149C00000000004C
:0414A0000000000048
:0414A4006347010099
:0414A800A922010074
:0414AC0059340100AE
:0414B000C126010050
:0414B4008D2701007F
:0414B800CD1B010047
:0414BC0089E20000C1
:0414C000974401004C
:0414C400FD0901001D
:0414C8000DC801103A
:0414CC001DC8011026
:0414D0000800000010
:0414D40024000000F0
:0414D80018000000F8
:0414DC0028000000E4
:0414E00020000000E8
:0414E4003C000000C8
:0414E8000C000000F4
:0414EC0034000000C8
:2014F00083482DE9F04F0C4601210170DFF80892DFF80882DFF808A2DFF808B27D499C464B
:2015100020270023ADF1540D002517EA0C070B70C949119291F83C33C849CDF848C005EA24
:201530000200139108BF00287AD111984FF0E04761462A460F4002EA000008BF002843D157
:20155000129E119B4FF48600B9F8AA10DFF824C3CDF82C9012EA060700EA030008BF0028C7
:2015700019D1C34812EA060700EA030008BF00286ED037464046119E048100F1380341811E
:20159000002F83E8C00004BF331CB3F1806F5FD102295DD111E037464046119E048100F19A
:2015B00038034181002F83E8C00004BF331CB3F5803F4DD1B1F5505F4AD1006A67464369FA
:2015D00038682146984741E046465146B6F9087091F90000BC42A0F10100087017D1728935
:2015F00006F1380003C8002904BFB0F5803FB2F5505F08D0002904BFB0F1806F022A02D0E9
:201610000EF0F2FF03E00FF0B9FF12F03FFC139890F90020521E02706FF00101318113E0B8
:2016300046466FF0010006F10801088063B1BE480078832802D0812059460870316919B1FB
:20165000284688472146E9E7CDF82C90B9F8AA10119A129E02202F461040374008BF002872
:2016700000F0D183B24A43F201408842149200F0A383C01C884200F09F83504690F9000047
:2016900052464746401E1070B7F90800844209D0139843F604078F420A9040F09E8312F033
:2016B0005BF89AE3644890F83CC307F1380090E800034FF482062F4617EA090706EA080023
:2016D00008BF002820D113980C4F0A9007F1380003C84FF400322F460F4002EA000208BF91
:2016F000002A02D10EF080FF77E30FF047FF74E3091D0020001D0020C41600203019002084
:20171000071D0020272E00202846BCF1010F59460E9002D00F78002F7AD1844C8120149EA2
:20173000277808702B46A5816069A770427A017A337002F0070301EB032152098DB234BF98
:20175000291F891EDFF8F081437A8DB233F07F0340F01D8377490988A942C0F218830A300E
:2017700029460CF0FDFF216A04F118000522083112F0D4FBED1EADB20D960520E17E227FF7
:20179000A37E2D4EA081C1F3011B227103EB012096F83C136081002908BFBBF1020F00F0AF
:2017B000F682BBF1020F00F3F28269B110F0070F00F0ED8241B15C490978862904D100F062
:2017D0000701022940F0E382011301F00201022952DA6378DFF8509100F00700022836D117
:2017F0004646D6F804A0002B31D1216A09A801220D3112F093FB0620A081D047804699F8CC
:2018100000300D48B56847680C96862B18D10FB912F04FFF9DF9240012F091FF9DF92460AD
:2018300078770020B8774046FE77A847608900F010000DF09BFE05E008020020061D00209F
:201850004046A84713980A9012F0A2F9A5E299F800000026862808BF01261398CDF8308027
:201870000A9076B100200FF01DFDA77808E0C04600000C8CF41A0020CDF8308013980A90D1
:2018900063788FB183B9012F00F07E826089022F03D110F0070F40F07782032F05D100F09C
:2018B0000701032901D06FE2608901094FEAE00C09D310F4405F00F06782BA4991F8E07373
:2018D000002F00F06182011301F00201022902DA810A80F05982B2490978C1F381098E11B8
:2018F000B9F1010F00F05082012E00F04D82AB49BBF1020F09D08A5D11F809108918CFB2B9
:2019100006B3C1091ED3BF1E0BE072184944127909798918CFB2C10910D259EA060311D05C
:20193000BF1CFFB20EE0C0462B2E0020382D0020292E0020FA1C00203818002059EA0603B0
:2019500008BF0227C0F30020391A60718D42C0F21B82ED1B5FEA5C010544A8B2208124BF9D
:2019700025210E910E990818743080B211F0A4FE65782061002800F00782002174220DF07F
:20199000F7FA0020E070B4F80A801DB90D9908F02000087000250D9B60790F951D78109015
:2019B000002D3BD0051C39D108F00708B8F1030F06D0B8F1010F22D17A4890F82A04F0B157
:2019D0007848B0F854000023810809D3754991F8825095B94D681DB16D7E35F07F050CD158
:2019F0005BB98008984605D385498D68887805B1A84710B9B8F1000F01D00420E0706948A6
:201A100090F83C0310B1BBF1020F01DA11F09EFC6079B4F80A801090E0780F90216901F1D9
:201A300074004860886525890D812089A1F85C005FEA18100FD31098C0F1030082B2A1F837
:201A50005C20886DCF4912F069FA2169B1F85C20886D801888655248CA4B0078C0F3011272
:201A7000109D18780F9BA1F80C8000F07800104318430874FF228A7320790E9005B100208D
:201A900081F8306081F83A9081F84900A089002F2946A0EB010085B2A58100F06A81BA469D
:201AB000216AE780684652464919083112F036FA3B487F19BDB2A581216900780A7C6E4625
:201AD000C0F3011B801002F0400910F0030F00F0030744D0BBF1020F4FF0000301D1D00992
:201AF0000BD29DF801209DF8000000EB0220A1F844000DF10206A1F84200C94AB1F84400E3
:201B1000B2F85A20824203D04FF6FF72824223D1032F12D072783078C14B00EB022082B299
:201B30004A86B3F85810B61C0120914213D04FF6FF71914218BF00200DE0C94800683146AD
:201B5000323012F0C2FDC648B54900684F31323012F02CF808360346002B00F00D8110484E
:201B70000078831126D02069BBF1020F03D0017CC90903D309E059EA070706D17278317871
:201B9000B61C01EB0221A0F84210032B0CD07178327802EB012202850CE0C04624520100CD
:201BB000532D002008020020AD4800683146283012F08BFD08F00708B8F1030F07D0B8F153
:201BD000010F39D1A84890F82A74002F34D0A6482669876F4FF00008EFB17B7E33F07F039A
:201BF00015D096F8300002280CD003280FD107F1700006F1280111F0D9FF40B11CE0C046CD
:201C10000C1D0020B7F87000318D884214D057F80C7C002FE1D1B8F1000F0DD1914F594B0E
:201C30004046E07038784246C0F3011118780F9200F07800084330748B4890F83C7317B167
:201C5000BBF1020F0BDA0D98077847B1109830B90E980F990EF020F8A589B4F806A02069B8
:201C700081890909C0F08580806D6946524612F055F92169886D50448865276AB1F85C0069
:201C900001225044A1F85C000DF125007919083112F044F96E1CB5B2A58121699DF8250000
:201CB000896D087021699DF825709DF82530886D401C8865B1F85C00401CA1F85C0007F07D
:201CD000070081F82400C3F3C10781F8257091F8246020898046002E4ED05F497F183E7807
:201CF000361D8642E68047DC216A05A832464919083112F013F938789DF817209DF81410A2
:201D10009DF8163040193D78001D01EB026180B201EB0341A0819DF81530206901EB032168
:201D300081616DB14E4800686D1E06A92A461C3012F0F4F8397820696944C97D80F82610D6
:201D5000806D05A9324612F0E9F82169886D80198865B1F85C00A8EB06078019A1F85C0045
:201D7000781E82B22281B1F85C000A818018A1F85C0000F06FFC10E012F0ECFB0EF034FC67
:201D90000BE0C046522D002012F0FCF905E012F0F9F9CDF8308013980A90DDF83080D8F8C4
:201DB00004008047216A0A680023137109682162D8F80810884710E0404680784146574667
:201DD000401C887097F900005146401E08700EF00BFC11F0C1FC13980A9023480B99104F2C
:201DF00000226FF0010690F83C03A1F8AA203E8110B11498007808B912F048F80A9991F94D
:201E10000000401E0870194890F9000010B9134800210170139A92F9000098B102E0C046D3
:201E300030190020119B129F02214FF0E0401940384008BF002908D092F90000002804DC1E
:201E500012F037FC002003F0FFF90949002015B00870BDE8F08FC046E4480100FE1C0020F2
:201E7000482D0020532D002008020020071D0020091D00202DE9F04F0320ADF14C0D10F0FA
:201E90006FFDD349022001F11C020023401E42F80C3F1F469760F8D18A463D460AF14000BF
:201EB000062701467F1E21F80C5BFBD10821CA4BC84FCA4E01801B1D0AF11C04876023F07A
:201ED00003031A46F11ACAF820101046CAF818301E46CAF81C305B18834200F29A838810DE
:201EF0004FF0E80B21F0030102EB800040F8045CEC39C6F800B02846C2F8E810E832CAF8F7
:201F100010201DF0AFF9CAF81400D1492068B44FCAF810000A6807F10C0002604968416055
:201F3000CC498146082211F035FA28B9CA4801684A46116040685060C848C949C0F8B0100C
:201F5000C84FC0F8B4702E46C0F8B860C64CC0F8CC60C64BC0F8BC40C54AC0F8C030D0F800
:201F7000B010C0F8C4203746C0F8C87000F1B00609B1384688471DF0EDF9DFF8FC82394613
:201F90003C2208F118000CF0F3FF10240820ADF808000227ADF80A70DAF82410039402A83C
:201FB000884700280CBF049F2F1C08200124ADF80800DAF82410ADF80A4002A88847884928
:201FD0009DF80C00049C0A46087054606FB1D02139707D70B8702C46FD702B463D713946E8
:201FF000BC600220FB6010F03FF8A249182001221DF0EEF8484612F053F918201DF0CEFBDE
:2020100077490F4648707868C8F808000BF0D4F908F154003946CC4C8860D8F80870666297
:202030002946F520A76011F029FEF820294611F025FEC64E0D200E27707006F10C01B770B1
:2020500006F118000BF08AFBB060707812F00EF800280CBF08272F1CB07812F007F808B98A
:2020700047F01007BA49B06812F02CFAB949C82206F124000FF0F2F9B7487060102F10D1DF
:20209000606A70B1C26862B1FF208DF820004FF6FF77ADF8227008AEADF8247096E80300E2
:2020B0009047A5A012F0AAF8DFF8B09209F1140009F108010BF052FBC9F80400284612F0A9
:2020D0002BFA2F461190A9F1020606F8025F02207070384612F086FA0146119AD9F80400EB
:2020F000C9B20FF0F9FF7F1C022FEEDB9C4909F120004FF4FA720FF0B1F99A4E06F1100083
:20211000311D0BF02BFB81213060584611F0B6FDE7200A2111F0B2FD552040F6354111F0B8
:20213000A1FDE0200C2111F0A9FD4F20032111F0A5FD5720052111F0A1FD4E20042111F017
:202150009DFD5920032111F099FDC54904F12C0064220FF083F9CB49E0604FF47A7204F1F9
:20217000E0000FF07BF9CA492062642204F150000FF074F92061012108F1040011F038FF58
:202190004FF00609C64EB8F804004108C0F0878098F80170606A002F7BD1294600280E919D
:2021B00031D007697FB38DF82890ADF82A900EA800900AABADF82C5093E803002A4604239F
:2021D000B84778B90E9819300E90606A1DE0C0463818002041F901002C2E0020004B0020D5
:2021F000D81C00208DF828902846636AADF82A900AAA0F905F69ADF82C5092E803000FAB71
:202210000422B847606A29460E91002836D00769002F33D08DF8309002AB00930120ADF896
:2022300032000CAAADF8345092E803000E232A46B84718BB0E980CF067F80FF0C7F8C1B25B
:2022500002A80DF0ABFA012088F8000021E0C046C8FF01002C520100F0120050D4070020E6
:202270000D1A0100791D0100D5D60000B1200100E9BB0000613F00009C1700200E9888F8D5
:2022900000500CF041F8012011F090FE012011F0A1FFAC48012111F0A0FE4046808881086B
:2022B00007D307F007F9A748022111F096FE40468088C10860D3A44832220C3830F80C1F35
:2022D0004FF6FF738B420BD041894B0808D301F44073B3F5407F03D14FF6FF431940418112
:2022F000521EEBD14FF440704FF4807110F01CFD00283BD1944F32200C3F37F80C2F4FF6FF
:20231000FF71914230D079894B082DD311F4407F2AD102208DF81000ADF8082002A808F030
:2023300091FE18BB78894FF6FF5140F480707881084078811AE0C046544920436F6C6C658B
:2023500063746F7200C046C0C0150020DC19002059210100F53D0100453F0100701A002008
:2023700085DE0000741C0020401EC6D17548042111F033FE40468088000925D371480821C0
:2023900011F02BFE0A208DF80800B8F85000014612F0D1F98DF80900084612F087F98DF856
:2023B0000A0002A80EF0F4FAA54811F0E1FF012802D1A34812F0BDF9206942F2107112F0C0
:2023D00034F99F4812F0B3F9B188480805D39D48012111F002FE30468188880805D39948FA
:2023F000022111F0FAFD30468188F07FCA10520877D3B768401E6BD0401E67D0401E43D088
:20241000401E68D18D4902A80E220BF00DF9384640BB2846B06088498DF8155005ABE122FF
:2024300018201CF0D5FE502002A911F031FF824903AB1820E2221CF0CBFE0DF10A01532023
:2024500011F026FFF06818B1016809B102A88847B07F022814BF0320042011F0A7FD3AE057
:20247000853B0100076850B1082107900523ADF8181006A8DAF82410ADF81A308847384676
:20249000C6E7C0464D3B0100327E708B05E0C046313B0100401C80B270833B4609E0C046FC
:2024B000A0100020997C8A4202D1D989884203D01B68002BF6D129468142EBD0B18B532078
:2024D00011F0D0FB28460CF07DFE04E0284600E001200DF07DFC5B48082111F07EFD3046B4
:2024F0008188C8080AD34120294611F0AFFB484611F05CFD5348042111F06FFDA088400816
:202510003CD3A07800090DD30DF092FD4FF6FF71ADF80800814205D002208DF8100002A8B4
:202530000FF04EFDA078400923D3207870B90120207039A011F062FE4120012111F086FB39
:2025500005200CE0A017002040110020257036A011F054FE4120294611F078FB484611F081
:2025700025FD394811F004FF012802D1364812F0E0F83648A570012111F02FFDB8F80400BA
:2025900000287FF400AE08200A27ADF808004FF0FF33ADF80A70DAF82410039302A8884737
:2025B00000287FF4F0AD08200727ADF80800DAF82410ADF80A7002A888470028049F9DF8D2
:2025D0000E209DF80C0010977FF4DDAD2049097891420ED11E494978814207D01C498968C4
:2025F0004B6C33B129463A46984702E0384601F067FE109800283FF4C6AD0820ADF8080061
:2026100003230397DAF82410ADF80A3002A88847B9E540F8045B5FE45065726D69744A6FEA
:20263000696E2D4F4E2000C05065726D69744A6F696E2D4F464600C0AD160100444E0100E9
:2026500010160020A41000207C160020C4150020D81C00202DE9F04FB64D28692C89296A60
:20267000AE89806DADF1440D22468919083111F055FC2969886D00198865296A3619B6B2CB
:20269000012210A88919083111F048FC296A761CB4B2042209A8AC810919083111F03EFC0A
:2026B0009DF827109DF8240000EB01602B699DF82610241D00EB01409DF82510AC8100EB8B
:2026D0000120099011F02CFDD863099811F0E2F9A3F84000EA2011F09FFA022196482C6939
:2026F0000170217CE878084320749DF9400012F026F884F8460021899DF94000DFF8F4B2C8
:2027100084F8480004F17400A065B4F85C00401A61684FF0000AA946401801466060A0898C
:2027300084F847A0820A18D2020955D310F0070F07D000F00700032812BF081C6068401C55
:2027500046E06168C87800F00702401000F0380000EB42004018001D3AE00CB911F0A9FF9F
:20277000A089800A2ED361684878C7112AD12589616650464B780A7803F07F035B0003EB2B
:20279000E2137E2B0DD07F2B09D002F07F0280188918801C891C80B28542EBDC08E05146FF
:2027B00000E00121801C84F8601080B2854201DA504605E06168091861602189091A218116
:2027D000A4F86800606E10B1B4F86800B8B160686061A089000918D294F86000002800F030
:2027F000198120460EF0E4FAD9F81040E06C002800F01081B4F85000002840F00B8111F0F6
:2028100097FE5046C9F8100035E2504656460A9094F824700B900AA90BAA0CAB0C962046E7
:2028300003F0A4FD002840F0E8800A9B656960682689291A701A86B20BB911F03AFFB4F89B
:202850005C00009001950B9B0296181D03900A98A169A36D3A4615300BF0EAFB002840F027
:20287000CC80BB4894F860502689C15D701A208115B120460EF09CFAA58905F00705032DA6
:2028900002D160680078E07394F80F8073200EA910F08EFB83200DF1420104F041FC514628
:2028B000DC460AE0C278012A03D1002F08BFDC2028D0001D491C0E90C9B29DF8420088429D
:2028D00040F39A800E988278032D07D00378AB420DD09CF800600EB1022D08D0032DE8D10C
:2028F0000378032BE5D103465B784345E1D1BB10B3EBA20F05DA02F0030207F003039A424A
:20291000D0DD504680460A98E77B90F814E0514601E0491CC9B28E456ADD06694B00032DC2
:2029300006EB03020AD1F35C032BF2D15278BA42EFD10CE0382D0020272E00201278AA4294
:2029500005D09CF80020002AE3D0022DE1D10B98077C002F08BFB8F1DC0F4DD0A069B0F1A9
:20297000FF3F43D071200DA910F022FBB448078947B30D9D514684460A9A95421CD19CF805
:202990000AE0BEF1000F08BF50460CD00B98C2687346504696888E4205D05B1E02F10802F1
:2029B00000F10100F6D186451ED00B9AD268A36952F830209A4217D87F1E05F12C0501F18F
:2029D0000101D9D1C2000B98A169C368491CD150C0681058B0F1FF3F02D10C980121C170E2
:2029F00084F801A0504609E0DB2007E0DB2004E0DC2002E044050020DD206070D9F8104035
:202A10006070A0696778606527B1F22011F004F9D9F810409A4D95F83C03002800F0AB802A
:202A3000A189DFF8608201F00702022A63D199F80170002F5FD16778002F5CD1D9F81010BC
:202A50008DF841A004A8283111F03FFED9F8101006A80A22283111F061FA414601F11002B2
:202A7000D9F81070D5F860331088401C1080786E04210DF141029847444609F1100B28B966
:202A9000686818B19DF8411080F86810D9F8107097F83000022811D1DBF8000005F56A71F3
:202AB0000E4602222830203110F074FC30B906F1160104A811F009FED9F810707248007847
:202AD000862807D1608A401C6082B88900F010000CF04CFD95F83C0328B1D5F8841311B1E7
:202AF000D9F81000884711F023FD5046C9F8100011F04EF8C1E0654A1778002F30D0C1F385
:202B1000013102292CD16078002840F0B4809DF840005F49464699F803700870B08A04F133
:202B300028021C34002F00F10100B0820CBF50460820584953460B6000900194B5F8CE33B7
:202B5000117A0D2003F024FD20B910F0FFFB03E0E848010010F0BAFF5846D9F810400078C2
:202B700048B1D5F8841331B1204688472846D9F8104090F83C03A7890F9407F0070760B192
:202B9000A07BFF2873D0032F05D1204640680078042802DD6BE0012F69D1381C3AD0401E96
:202BB00050D0801E63D1A089C0F30130022803D16068007807282BD02089002857D0204640
:202BD00041684A1C42600F78A446C7739CF824606EB9002F4BD00A2F49DA2F490089C95D7D
:202BF000814209D0082F42D1082805D03FE0C07B00283CD00A283ADA20460189491E01812D
:202C1000C17B0B3101700F99C87B401CC8731BE0322018E095F8B5030F280AD011F09EFA05
:202C300038B90F988189091301F00201022900DAD04795F8EB030F9C2074152003E0C046DE
:202C5000EC1C0020162020700F9905F17C000FF0FBFC124C6068804795F88410491C85F876
:202C70008410A1688847202011F0AAFB3DE70FA80EF0BEFD39E70DF0B7FC11B0BDE8F08FA9
:202C900008020020101C00202B2E0020292E00202E190020541B0020EF4801003818002020
:202CB0002DE9FE4FDD4981460122A1F130000260D8480768002FFCD0D74AE34EC027D8488A
:202CD000D84B17603268920808D2324652F8042C03F14104120C42F0F00222704FF0000AF4
:202CF0008346C1F800A0DFF88CC3DBF80810E04F0191880E43D2480E41D3802018744FF64A
:202D1000D802A3F8512018703868C0F30464162CA8BF203C1E460F3E307800F01F001628CF
:202D3000A8BF2038844223D0624602F1980EE44ACEF800A0251A022D05DC15F1020FB8BF59
:202D50006FF0010500E002254019156800F01F05844245F4F855A6F866504FF001051560B3
:202D7000E8D110682E4616601068CEF80050106838460068C0F30420162808DB06E0A7F1C6
:202D9000D0000068C0F30460162800DB203800EB2170401C162805DA10F10A0FB8BF6FF07E
:202DB000090000E01520D54E00F01F0040F4F850A3F85900306880083ABFD148C0F800A0B9
:202DD00041F040616246C80E8E0E80F0010000F00100106086F0010000F001009060019834
:202DF0000DF090F8014618200FF0A8FAA7F13806CD4C30683568A4F10408C0F3870105F029
:202E1000030041EA0021D8F80400C04D446840F2FF32534688B22C21009028464038A047E6
:202E3000F06AC0F30D011C200FF088FAB549706A014000F07C40014314200FF07FFA316A5A
:202E500001F47C000904090C014310200FF076FA7D4AB06A1268C0F30351C0F30344520836
:202E700013D2DBF80020130511EB237103D41029A8BF0F2100E05146120414EB227403D422
:202E9000102CA8BF0F2400E0544644EA011400F47F4200F0FF01B9F1220F42EA044241EA72
:202EB000020124BF00F0804001430C200FF046FA954CB9F1220F32BF01202068C0F3007044
:202ED000B9F1220F4FEA400040F0200085F8090126BF2068C0F3407001208D4EB9F1200F12
:202EF00040F0100085F8090138BF514606D33168C80C00F44070C1F38451014328200FF06F
:202F10001DFAB9F1200F26BF3068C0F301505046B9F1220F4FEA400040F0600085F80C012C
:202F300026BF2068C0F3C0605046B9F1220F4FEAC00040F0800085F8010126BF2068C0F388
:202F500045505046B9F1200F4FEA800040F47C40A5F89C0138BF6F490AD3306801038A15B3
:202F7000920501F47C1100F00F00114341EA003108200FF0E3F9CC3F4FF480002860664A70
:202F9000B86D40F21E216FF31F40814216D93868030E03F00F0113F00F0FC0F3034018BF76
:202FB000491E072805D006280EBF0720801C00F00F0041EA0011A2F108000170DDF804C0F8
:202FD000CCF381477F1E02D07F1E31D02CE02068810C29D24FF480412960D2F80210430A7B
:202FF000C0F3033703F0800321F08F010B4347EA0301C2F80210D2F80130060A66F3030304
:20301000C2F80130116800F0E70721F0E70147EA01000CE09402224300600C404010094007
:20303000AC3F0050156208404FF000402A46106005480068C0F3C0070FB94020A8624FF483
:203050000070286402E0C046B03F005020684027C0F3C14040F0300085F8C800CCF3815065
:2030700080B3401E08D0FFE7401E23D0022122E0881300500000204301200FF0BBFD064609
:20309000042031460DF000F904200FF0B3FD8642FAD12248066826F07F400FF049FCD8F868
:2030B0001400036807214FF06022300E98474FF480602860032104200DF0E6F809E0C046BE
:2030D0002C200940042001210DF0DEF814480FF02FFC203C206800F03F0085F8CB0FD8F872
:2030F0000030124ED96830680220884710480D4C076001212160BDE8FE8FC046000009402A
:2031100094042A43FCFCFC008C13005040A00C409813005000803F400A600840A83F0050A8
:20313000BD37860094046042A40100102C20094000600C402DE9F04FBF4C0546A07AADF172
:20315000340DC00010F010F8DFF8F092089009F10400006880470B900AA9822003F0E0FF76
:20317000BDF82800002834D14FF000084FF6FF76ADF8288024E0ADF81460BDF82800ADF848
:203190001660FF210822ADF8100006A811F0DDFAA77A57B143461946089AC8007F1E01F11A
:2031B0000101135010448680F6D18DF82480D42004A902F051FCBDF82800401CADF828006A
:2031D000A088BDF828108842D5DC82200AA902F043FCB94F0020A0464FF6FF79A246398855
:2031F000ADF8280006E0B44FBDF828003988401CADF82800BDF828008142DCBF8F48816847
:2032100040F34F81AD4800784FF0000B01265C460FE08A49B8F804008968641CA4B2ACE052
:20323000BAF80600641CA4B23CE0A448641CA4B20078A04208DC002ED5D1BBF1000F2ED146
:20325000687F0028CFD02AE0BDF828008DF802406946ADF80000D02003F062FF0028E4D18D
:203270009DF80C30012B08D19DF80B0028B90DF1030010F047FE0028B5D16F7B002F0CBF0F
:20329000052209225E469F42CFD10DF1030005F10E0110F081FA0028C7D04FF0010BB8F86C
:2032B00006000024A0425CDDBDF82800ADF802406946ADF80000D12003F032FF0028AFD1E4
:2032D000BDF804008145ABD0ADF8100004A9D42003F026FF00285AD106A8291D082210F005
:2032F0005BFA00289CD028886F88ADF81400BBF1000FADF8167022D0287B98F80A708DF86B
:203310002400381C08BF00200FD00899024600208B88994509D0BDF828609E4205D0521E2A
:2033300001F1080100F10100F2D187422FDD0899AA69C000BDF828700A5040188780D4208A
:2033500004A902F089FBBBF1000F0AD0287F9DF80610884205D08DF806006946D12002F097
:203370007BFBB8F80600A0427FF43DAF3349B8F80400DFF84CA189680024A04240F38F80A3
:20339000ADF81040D42004A903F0CAFE18B12B498968192486E006AB184610F0B3FD38B94B
:2033B000291D1846082210F0F7F900283FF431AF6F882888ADF816702E7BADF8140098F840
:2033D0000A708DF824603B1C08BF00200FD008991A4600208B88994509D0BDF828609E4235
:2033F00005D0521E01F1080100F10100F2D1874203DC124989681A2454E0089A2E1DBBF1C9
:20341000000F0CBF0021A969C00011501218BDF8280031469080082206A810F07FFD9AF8FA
:203430003C0330B1DAF88C231AB1BDF8101030469047002606E0C046EC1C00203818002044
:20345000761CB6B2B8F80600B04221DDBDF82800ADF802606946ADF80000D12003F060FE42
:20347000E82803D0BDF804008145E9D1BDF810000023ADF804002F7F8DF8073004A98DF8F3
:203490000670D42002F0E8FAD120694602F0E4FA0C488168B8F80400B0427FF7BEAEA042C7
:2034B000A9D000240B988847089810F045F820460DB0BDE8F08FC046F41C0020F71C002060
:2034D00008020020381800202DE9F04F064692F808B0307D09AF8846ADF1240D0493352869
:2034F000039205D0114606F170000A2210F016FDDFF8C8C238F07F0506BF604600884FF610
:20351000FF700590F08A800934BF002008203076F08AC00834BF102080207076F08A400905
:2035300003D260460E30007800E00020B076F08A41082CBF20240024000928BF44F01004D6
:203550007568002108F07F08307D06916D1E02280EDB0C2808DC0C2803D1022044F4085426
:20357000069044F0030404E00D280CBF02200120044396F88C0008B144F00804E1102209CD
:2035900000D328B1DFF8BC9299F8E03313B908B1DF204CE149086ED306F12401DFF8A8A226
:2035B00096F88D50079100EB0A011AF805300A7999183389491DCAB29918A44B1A8808900F
:2035D0008A42C0F2368100284CD0049A039906F1840008F0CDFB0799002808603FD0806AC4
:2035F000B0F1FF3F39D070680023401E8DB196F88E10524600F80119515D491EC9B241B1E4
:203610008A1992F88320491EC9B2002900F80129F6D1079970660968896AB162090E00F8DA
:20363000011996F82A1000F8011996F82910089A00F8011996F8281005F0030500F8011936
:2036500002F0070141EAC501017071683589091ACAB27060A918318105E0DB2700E0F327A4
:203670007770E7E00023F08A7370C00828BF44F0100475686D1E336DA3B9B36D93B999F8B4
:20369000F913012903D13089B0F5EE7F06DA200904D202290AD144F4005401E044F48054E7
:2036B000012002E044F408540220069099F8020001280CD099F83C0348B196F86B00042825
:2036D00005D1022024F48054069044F4005444EA8834B8F1020FA4B20AD0B8F1030F10D164
:2036F000ED1F09F57B71284610F0EFFF6D1E08E0B9F8D203001205F8010999F8D20305F8F3
:203710000109069802280CD0B8F1000F15D0BBF1000F0CD004990598814208D144F0400469
:203730000BE0BBF1000F08D1B8F1000F05D00599081205F8010905F8011944EA8B24BBF10E
:20375000020FA4B209D0BBF1030F0ED10399ED1F284610F0BAFF6D1E07E0039908880012FD
:2037700005F80109087805F80109BBF1000F05D00498011205F8011905F801093878F8B9ED
:2037900033480178307D0D2814D068B9306D28B999F8BC03411C89F8BC130AE099F8E10364
:2037B000411C89F8E11304E099F8CA03411C89F8CA13014605F8011904E0C046D6050020E7
:2037D00044F48074201205F801092C7070683789401BC1B2756078183081200926D3B06D1D
:2037F00000B1306299F83C0310B1307D0D281DD1746A14F1150001D110F05BFFA16A481C82
:20381000A0623289306AB162471B0092D21B019090B20290706A96F88C202B46153008F026
:20383000D5FB00281CBF7070071C07D10020707005E0E5277770F32010F0EEF9F8B209B095
:20385000BDE8F08F08020020E4480100FA1C00203C2D00202DE9F04FD54D286A416EADF1C8
:203870001C0D02A888474FF00009D24FCDF80890B8688DF80C90002833D10FF041F8B8B1C2
:203890000FF03EF8012813D00FF03AF805280FD00FF036F80C280BD00FF032F80D2807D029
:2038B0000FF02EF80B2803D00FF02AF80E280BD10FF026F8787000280CBF48460120B870CB
:2038D000286A00F1200408B910F0F3FE216807F1180088474FF4FA703885B74EFE6206241E
:2038F0003C63DFF8D882EA6998F8FB434FF0010A4946080100EB41108018867F2EB9437F63
:20391000491C9C42C9B2F4D102E0417FA14204D1824202D00EF050FCEA69DFF8A4B2686A88
:203930001BC88BE81B0097F90100012805D00D2803D00E2818BF484600D105208BF800005B
:2039500098F8291450699F4C50F82100C4F89C0010F0AEF8632005A90DF0A0FE98F8FB0325
:203970000EF0F0FD064694F88E006AF3020084F88E000EF0E3F8042825D00EF0DFF8032883
:2039900011D094F8900040F00F0084F8900094F8970069F3030084F89700B07B052814BF0F
:2039B0002420292016E094F8900040F00F0084F89000292384F8943094F8970069F30300FF
:2039D00084F8970008E094F8900040F00F0084F89000212084F8940094F8950069F3871010
:2039F00084F895000EF0AAF8042818D0B37A7BB99DF8140094F89510401E60F3050184F884
:203A1000951094F8960020F03F0040F0180014E09DF8141094F8950061F3050005E094F8A0
:203A3000950020F03F0040F0020084F8950094F8960020F03F0040F0200084F89600B18942
:203A5000B07BB4F88E200A23401D484390FBF3F161F3CF02A4F88E20B08994F8902019232D
:203A7000800390FBF3F102F00F00D4F890200F23484390FBF3F161F31C22C4F89020E8694C
:203A900094F89820017F61F3020284F8982094F89810007FC01060F3C30184F8981098F977
:203AB000EA030DF067FBB0F1FF3F05D0010828BF4FF6FF70A4F89A00308971683368EA699C
:203AD000401E414303EB51004FF47A71B0FBF1F0A4F8A00090690078A4F88290C4F88490D0
:203AF00094F88D3084F8A4006AF3030384F88D3010F024FDC8B9B089334A98F8FB63B1FBBF
:203B1000F0F0C0B21070B1FBF0F03049022E487006D00EF013F8032807D105225C2001E070
:203B30000222A8202A4B1A700870BB682E6A5BB348460DF03BFEF87898F8FB13884212D1CA
:203B50003A7998F829142E6AB8688A420DD102214A468DE80600366D80344B4602AA21464A
:203B7000B047EC601BE02E6AB8687168884719482B6A80F800A01E681748803459462246E9
:203B900007F11803B04707E0803422461248346807F118035946A047B860686AA86298F8F5
:203BB000FB0398F82964F87007B03E71BDE8F08F30190020EC1A00205FE6000008020020EA
:203BD000EC2D0020C4160020901C00202C190020101C00200A1D0020282B00202DE9F8431A
:203BF000DFF828830F460446F80B80F07481DFF81893B80F80F02D81C54DB80880F02281E0
:203C1000F80A80F00081B80B80F0EE80780B80F0C080380C80F0AF803809C0F07F810820D1
:203C300010F068FC002840F0A180802010F062FC002840F09B80684609F0DCFD012803D1A9
:203C50000098002800F0928000240125E0B210F03FFA48B1867A3EB1857290F9090005FA0D
:203C700000F0C0B20EF0D2FB641C032CEED34C46032020756068783010F039FDAB4800268E
:203C900001680660AA4950F8082CB146324640F8089C04F1380010F036FD30460FF09CFC1E
:203CB00010F0DAF90146A268E069891A090BC1F1FF3282422CBF08444FF0FF30E06194F8B7
:203CD00020601EB12169B0EBC12F1FD90FF0E4FC494600B12946081C14D0964840F60901C4
:203CF000018049464180427B65F303024273027B61F303020273416010F022FB418811F43D
:203D1000406FFBD084F820504946E1610EF00EF889484D464946056002200FF0CFFA0220F4
:203D30000EF05AFB112008F03DFB207818B96068403010F0F0FC8148007810B90E2008F002
:203D500031FB94F8210020B184F8215005200EF043FB7B48B4F98C60A061B4F98E10257519
:203D70008E4214BF022007200AF0C6FD27F008070CF0EAFAD2E00835296839B1C868408822
:203D90000028FBD0C86840880128F7D027F40047EEE70EF0BDF938B12046A4696FF480719D
:203DB00000224FF00073A04768494C46002204F1380010F0A8FC0220E668207510F04CF9B8
:203DD000D4F81C21636804F58E719A4214BF0122002226B1801B01EB8206030BB3600020EC
:203DF00027F48057E060C3E74046066846B1B06830B13069B6F93410B46800222023A047FF
:203E100027F400578AE010F078FC4C460546206F064688B1606810B1783010F068FC306923
:203E3000606010F019F9E06046484FF40061A06104F1B40010F077FC284610F047FD27F444
:203E500080676BE004F0EEFE286808B927F0020764E010F052FC054604200EF0CBFEC8B18E
:203E7000207CB8B148460830006898B1064610F0F3F8E168801BE060000B8842E06002D272
:203E900040184008E06040F6C41181422CBFB0F5967FE160284610F019FD0EF039F980B199
:203EB000A56920466FF4807100224FF00073A84725480068002808BF47F0020701D00CF096
:203ED00043FA2046646900214FF080630A46A04727F0005722E010F010FC41460E68CEB1F0
:203EF000B16A890816D2B56AB16AA943B16210F0EDFCB06880B17DB13069B6F93410B468DD
:203F10002A460023A04707E08024002008250020F824002010F0DAFC27F4804727B14046CD
:203F300039462C3010F0FFFBBDE8F8831410044031080100C42D0020000004601A1D00200E
:203F5000B5AD0000ED950000F0240020319100002DE9F04FC34C07466068ADF1140D804778
:203F70000025DFF804830390002F88F8035000F0C6800EF01BFF08F52A702946402210F063
:203F9000E4FBBA4C04F1080001882C2707FB01F080B20FF0E9F8C8F8CC02002800F05D81CA
:203FB000E17A20894843410001EBC00188B20FF0DBF80028C8F8D00200F04F81E1882089DC
:203FD0004843800080B20FF0CFF80028C8F8D40200F043812089800080B20FF0C5F800281D
:203FF000C8F8D80200F03981208980B12A46D8F8CC1289180D75D8F8CC1289180D71D8F8B5
:20401000CC12401E114402F12C028D81EFD1A188880000EB011080B20FF0A6F80028C8F8AC
:20403000DC0200F01A814FF6FF7AA946AB4615E0A77A7FB12946D8F8DC028019C368CA0078
:2040500042F803B0C0687F1E01F101011044A0F804A0F0D109F101001FFA80F9A088484517
:2040700000F3EA809548FF210822C01D10F06DFB9248FF21082288F8B712103010F065FB5A
:20409000032688F8C8622789A8F8CAA2C7B14FF0010C04232A46D8F8D802910001F800C032
:2040B000D8F8D80240184370D8F8D80240188670D8F8D8027F1E02F101020844C370EAD1CC
:2040D0007E480121042305220227343000F8041F437082707F1EC170F8D1784880F83C60E2
:2040F000A08848B12946D8F8DC22401E0A4401F11401A2F802A0F6D1022088F8AC0298F8BC
:204110003C0318B1D8F8400300B180470BF0F4FF98F9EA0310F097F80EF05EFE10F00AF8A5
:204130000FF0A8FE0FF09AFE514E072456F8040B00B18047641EF9D10FF0CCFE444604F100
:204150004C00016809B10DF053FB4A48006884F8565020B10AF08CFB0028009068D14648A8
:204170000078012802D0284601F06EF8434804F178060570A06F002852D1361DE06F002860
:2041900046D1A5673E48C4F88801E5673D4FC4F88C7184F882503C4EC4F8906184F88350BC
:2041B0003A4BC4F89431A570394AC4F8982184F884503849C4F89C113B49C4F8C010364F0D
:2041D000C4F8A071394FC4F8C470344EC4F8A461374E334BC4F8C8602249C4F8A831354BE0
:2041F000304AC4F8CC308968C4F8AC21324A0398C4F8D020884704F2D131522003F05CFDBB
:2042100094F8EB030CF0F2FE0BF076FF284626E030460EF009F8029002A80DF0E9FAADE71F
:2042300030460EF001F8019001A80DF0E1FAA1E768460DF0DDFA8DE7A37AD8F8DC724846A8
:20425000860006EB0016D8000EF08EFFF119F319C860D86800287FF4EBAE10F02AFA05B0D3
:20427000BDE8F08F3818002008020020EC1C0020100300201C2E0020091D0020262E0020F1
:204290003BF30000C9460100013101005D7600000DB20000E93601002125010011970000FC
:2042B00031840000D12901005BDD0000ED8A00005DF90000FDDA000099050100B0040020EF
:2042D000B0B50446BA480768ADF1480D002F00F0A8812078401E112800F2A381DFE810F067
:2042F0006A015201380123011B010401F100E300C300B2008D005D0053004200A1012A00DE
:204310001C001200F86B002800F08B81684621460AF086F8F96B82E1386C002800F08181C6
:204330006846002101220AF023FE60788DF80000396C74E1F86A002800F0738168460021CC
:204350000E220AF015FEA11C68460FF063FDA57BA1890022ADF80A1005B101228DF80C2091
:20437000F96A5DE1B86B002800F05B816846002102220AF0FDFDA5788DF8015060788DF83E
:204390000000B96B4BE1786B002800F04A81684621460AF045F8796B41E1386B08B3684699
:2043B000002114220AF0E4FDA5788DF80150A3680193A289ADF80820A17B8DF80A1060789E
:2043D0008DF80000E57B8DF80B50237C8DF80C3094F911208DF80D2061690491396B684687
:2043F00088476068002800F01C810146F2200870002048700DF038FE13E1B86A002800F057
:2044100010816846002124220AF0B2FD6078A11C8DF800000DF102000FF0FCFC04F10C012A
:2044300003A80FF0F7FC257EE08A04F119018DF818500B22ADF816000DF1190009F0F4F8E2
:20445000B96AECE0786A002800F0EB806846002102220AF08DFDA5788DF8015060788DF831
:204470000000796ADBE0386A002800F0DA806846002112220AF07CFD658862796078ADF8BF
:20449000025023798DF80520E11D8DF80000A5798DF804300B220DF107008DF8065009F014
:2044B000C3F8396ABBE0F869002800F0BA806846002101220AF05CFD60788DF80000F9693C
:2044D000ADE0B86910B120460CF09CFCA07820B9A069002800F0A58003E0A069002800F028
:2044F000A0800FF039F89CE07869002800F099806846002113220AF03BFD6D46A01C0168C0
:20451000406829600B22686004F10A0102A809F08BF8796983E03869002800F082802046D9
:2045300008F026FB7DE0F86800287AD0684600210E220AF01DFD6078A11C8DF800000DF1F8
:2045500002000FF067FCA089ADF80C00F96866E0B868002865D06846002114220AF008FDE5
:20457000A01C01686D46296040686860A07A0B2204F10B018DF808000DF1090009F054F839
:20459000B9684CE0786800284BD06846002110220AF0EEFC60786588211D8DF800000B2201
:2045B000ADF8025001A809F03FF8796837E0C046E01C00203868A0B36846002119220AF00A
:2045D000D7FCA01C01686D46296040686860A07A410824BF01218DF80810810824BF012194
:2045F0008DF80910C10824BF01218DF80A10010924BF01218DF80B10C10924BF01218DF89D
:204610000C1030F07F001CBF01208DF80D000B220DF10E0004F10B0109F006F839686846C1
:20463000884712B0B0BD70472DE9F04F0D46AB4C01686162416880686160ADF12C0DA060C1
:2046500028460DF0B9FD4FF008094FF0010BADF8089002A8ADF80AB0616A08908847A04E28
:204670009DF80C1071700499716108B10FF05CF928688047A046D8F80400804709904FF468
:204690000057ADF808901E20D8F82410ADF80A000898039788470DF0AFFC924C206C4068C2
:2046B0008047206CC16868468847206C83686A46002001469847E06308B90FF035F90FF054
:2046D000E9FA8A4FC4F8D4708A4AC4F8DC208A49C4F8E010844830610025A4F85450844B72
:2046F000C4F8D830854FC4F8E47004F5C472C4F8642104F1C001C4F8681104F1D400C4F822
:204710006C017F4BC4F8E8300EF050FB04F1EC07C4F87C7104F16803C4F88031794AC4F858
:20473000BC207949C4F80C1104F14400C4F87801764FA760764BB560764AE3607649A2611D
:20475000B4F85470E16147F00200A4F85400734B1D60734A82F800B0558002200EF004FD56
:20477000FF210222F0620FF0F0FFF01CFF2102220FF0EBFF02200EF0F7FC6A4F386008B947
:204790000FF0D2F83868294602220FF0DEFF07A806A90DF04DFCF06A9DF81C10421C0170A3
:2047B0009DF81C00107025709DF81C00B0700EF0E3FEB061089FD8F82410ADF80890142046
:2047D000ADF80A00384688471523ADF808900398ADF80A30D8F82410F061384688470398A1
:2047F000524FDFF854A1524B3D70801E30624E4E1D700AF10E023570108875700E30356198
:2048100080B20EF059FF074677610FB90FF051FF02978DF80C509DF80D00464965F30100C0
:204830008DF80D009DF80D00534665F383008DF80D00D8899DF80D20088065F307128DF88D
:204850000D20ADF80E00706902A94A460FF066FB376275620CF0DAFE384E3078012802D087
:20487000284600F0F1FC36480570364F3D703078012802D0284600F0E7FCD8F8081009984B
:204890008847FEF7E7FF0EF037FF94F8EB030CF099FE584600F0D8FC0AF0A3FB2A4805703C
:2048B0003078012802D0284600F0CEFC0BF024FC1820264FADF80890254EADF80A00D8F826
:2048D0002410039708980496884708B10FF0F1FE00F026FE0BB0BDE8F08FC04638180020E1
:2048F000201B00200802002001130100696F000059060100C33801001DAA00007DB90000DD
:20491000E5F00000504B010055C70000D9040100D11101000946010091430100082E0020BE
:20493000241A00201C2E0020382D0020272E0020292E002084170020EC1C0020091D002005
:204950002B2E0020222E0020282E00203BF70000A41C0020BA482DE9F84F0025B94CB7494D
:20497000056094F8E200002800F06381012800F02F81B54E02283CD0032840F05A8151F8D7
:20499000250CD4F8B8100029A0F5C060C4F8D400B8BF49420028B8BF4042814226DA4FF0AF
:2049B0008057D7F8A4014568B4F8BC0030214FF47F42082300903046A847D7F8A4014568F1
:2049D000B4F8C00004214FF4F802122300903046A847D7F8A401B4F8D070456820214FF43E
:2049F00040620A2330460097A847012584F8D8501AE151F8258C0FF053FD2F4600B9012778
:204A10003946924F38680028FCD0B146012609F10409D9F82CA03E6009B10FF047FDCAF378
:204A30000720C4F8BC000FF03BFDAA4600B9B2463B68002BFCD0D9F800B0BAF1000F3E607C
:204A500001D00FF033FDCBF38440C4F8C0000FF027FDAA4600B9B2463B68002BFCD0D9F819
:204A70001C90BAF1000F3E6001D00FF01FFDC9F38120C4F8D000B8F5C061C4F8B81000F00B
:204A90009C8094F8D80068B9C4F8D410D4F8C000C4F8C800D4F8BC70C4F8C470D4F8D03001
:204AB000C4F8CC30D4F8D400D4F8BC30002854BF02226FF0010204F1C8010F6800EB4000B5
:204AD0008018421000EB927207EBA2000860D4F8C810C4F8C43000291CDD1E293CDDD4F84F
:204AF000CC0030B93429B4BF15391E21C4F8C81025E02A29BABFD4F8C8000B381E20C4F85E
:204B1000C800D4F8C4003F28B4BF401C3F20C4F8C4001FE0D4F8CC00032812D011F10B0F58
:204B3000C6BFD4F8C8000B30301CC4F8C800D4F8C4000028C4BF401E051CC4F8C45003258F
:204B500008E011F1150FC6BFD4F8C8001530301CC4F8C800C4F8CC504FF08057D7F8A401A7
:204B7000B4F8C43030214FF47F424568364800930823A847D7F8A40104214FF40032112316
:204B9000456831480096A847B4F8C860D7F8A40104214FF4F802122345682B480096A847D6
:204BB000D7F8A40120214FF440620A23B4F8CC60456825480096A84701E084F8D85040F2F0
:204BD000FF50404502D8801C40452DD208202EE051F8251C1E4F4BF2F5204843060A38683D
:204BF000C0F3814001280AD10EF0F6F90DF080F80FF062FC3111C010484306EBE03694F83E
:204C1000E50030B91348006820F07F403618760801E084F8E5501048310C06600127416002
:204C30000E4D8760287808B90B2000E0052084F8E40002F079FFBDE8F88FC0462D400C40DC
:204C50002C500C40AC14002000A00C4000800C40B43F0050102009403C600C40AD51010041
:204C70002DE9F04F09AFADF13C0D08900A92388809911E46ADF81800101C08BF002000F07E
:204C90006C81017800274FF0010B401C4FF0FF39B846DA460A9058E1252940F04D810178A3
:204CB000401C0A902D2918BFADF8068004D10178ADF806B0401C0A9030291CBF42464346B2
:204CD00004D10178401C5A465B460A902A29CDF800804D4617D1049330680A9BCDF80890FB
:204CF000C01C20F00300001D306050F8044C1978002C009403F101000A9018D5ADF806A058
:204D10006442009413E044460AE0600000EBC4004018A0F130040A9801780094401C0A9011
:204D3000302901DB3A29F0DBCDF8089004932E2929D10178401C2A290A9011D13168CDF8B9
:204D50000880C91C21F00301091D316051F8045C002D48BF454601782B46401C0A9011E0D1
:204D7000454643460AE0680000EBC5004018A0F130050A9801782B46401C0A90302901DB38
:204D90003A29F0DB02930AB1224604926C2904D04C2918BFADF8048004D10178ADF804A012
:204DB000401C0A900BA8CDF80C800FAB07906429059379D0692977D0BDF818C0752965D0F1
:204DD000782961D06F295DD0702946D0632936D073291AD00A98401E0A900998012812D916
:204DF00061490C68B5F1FF3F03D0A84288BF6D1C00D8099D029508A80AA932466B46A0478C
:204E10003F18039865E0454617E03068C01C20F00300001D306050F8040CBCF1010F014639
:204E300008B94FA0014607910FF0CAF90390B5F1FF3F4FD0A8424DD9039528464AE03068A3
:204E5000C01C20F00300001D306010F8040C8DF82C005D46039558463CE00820356804908F
:204E7000E81C20F00300001D306050F8041C082210230FA80AF05AFC401E079040210170CB
:204E9000079823E0082302E0102300E00A233068C01C20F00300001D306050F8041CAA428B
:204EB000BCBF2A1C04920DE03068C01C20F00300001D306050F8041CAA42BCBF2A1C0492BF
:204ED0006FF009030FA80AF031FC07900599081A0390009C241ABDF8065000945DB906E01A
:204EF00008A8202109AA0EF026F87F1C009C641E0094F5D50398401EB0F1FF3F03900FD180
:204F1000BDF8060001281CD10098401E009018D408A8202109AA0EF00EF800987F1CF4E788
:204F30000798017809AA08A80EF005F80798401C079003987F1CDEE708A809AA0DF0FBFF04
:204F50007F1C0A980178401C0A9000297FF4A4AE089808B14146017038460FB0BDE8F08FF5
:204F7000286E756C6C2900C0745201002DE9F04FA64D824605F120000068416EADF12C0D7A
:204F900003A88847AF4C201D0768002F00F036814FF0000B388979689B4DCDF81CB0C600DF
:204FB000097828781036890906D340F6485191FBF0F1761806F5AF763D7D70438600352DD0
:204FD0000CBF5F464FF4FA570DF12601E8200CF065FB9DF82600032808BF44F620676068FE
:204FF000007DF619352803D1D4F8A003804746430220894F8DF8200007F108000068069682
:2050100006A905F03FFFD8468048824D804980F80080012008702978012901D000F014F9F6
:205030006068058946680EF077FB3088000935D394F83C0390B361684B6A4F6E986AB0F137
:20505000FF3F25D027B3421C9A628862030E07F80139606890F82A0007F80109606890F8D2
:20507000290007F80109606890F8280038706268106A00950190801B281A80B20290916AC8
:20509000506A92F88C203346153006F09FFF00E0DB20D4F88073002840F0A68029463046C1
:2050B00009F05EFB642009A90CF0F8FA5B4894F83C13007831B994F8EB0307F0B3F8012845
:2050D00005D08DE007F0AEF8012840F08980DFF85091A81C87B20DF1250109F170000780B5
:2050F000E9200CF0DBFA9DF82500012805D13D46C5F3022040F0180005E02D1DADB2C5F322
:20511000022040F0080006F8010D06F8015D4D469DF82400A5F862800028EE670CBF414821
:205130004148CDF80CB002238DF8103005F12806A6F8028005F16009C5F8B8003B4FC9F808
:20515000180095F8350020F00F0040F0030085F8350078688047DFF8D8800A90BAF1010F36
:205170001DD0BAF1040F1AD0BAF1000F14D0BAF1050F0ED0BAF1030F08D194F8FB030DF032
:20519000E1F9C07B022818BF4E460AE005F1600607E0DFF8A08004E005F1440601E005F136
:2051B00028061A48006A1C4B046D594602208DE80300986803AA31464346A0471E49088051
:2051D000B96800280AD41D4A92F900000F4F6035401C10700A98FD60884711E00A988847A7
:2051F0001A2009F00DFD0BE0002F08BFE420F8D0134880F80080E420B84701E00FF059FA2C
:205210000BB0BDE8F08FC046901C002030190020FF1C0020091D0020EC1A00202F19002055
:20523000C41600204E9055550E7A5555381800204D88000065B50000501B0020061D00207D
:205250002B2E0020080200202DE9F04F9F4C06466068ADF11C0D8047A44D012E069000F013
:20527000DA800EF01FFE002800F0D08098480078A0B99848007888B99748007870B9974898
:20529000007858B99648007840B99648007828B995480078002808BF012000D00020296A07
:2052B000002801F13C0100F0B180914E0868347880477168A300401AB0FBF3F7F168B068C8
:2052D0008D4E4FF00008C246AB46524689464F4572EB0A0201DA884207D802464346514653
:2052F0009742994141DA114600E043460A46D21B73EB0803104619462246E3170EF026FE31
:20531000272507464FF47A7200238846ADF80A500820ADF8080038460AF0D0F96B49496A48
:20533000039002A88847049853464FF0000100F6FC02BF1A78EB0308784271EB080112DA96
:205350006C480268414638460AF0B8F9884607464FF00001784271EB080104DA38460CF09D
:20537000EDFA002000E001203070307800284DD10027384609F0EAFE00B10127B2463846B2
:2053900000284FF000073FD15C4D287800283BD1DBF820005A4C436CA068022102AA984704
:2053B0009DF8080080B3DFF85C81DBF82020A06898F900103E4611F1020F18BF01264FF0C9
:2053D000010936B1926B98F900109047DBF82020A0684D4E96F9001011F1020F03D0926B1F
:2053F00096F9001090476FF00100307088F8000085F8009038460EF0CBFFDBF82000C16937
:20541000A06888478BF801708AF800702F4906988968884757E0012009F098FE21460698FD
:2054300089688847354CDFF8F0A02078012838D101200EF0ADFF0DF065FF58BB2348406898
:205450008047002602278346DFF8C090286AA9F80260416E277002A8884702968DF80C7049
:20547000286A2E4A2A4BD0F850C0B0468DE880011068494602AAE04714498968002819D49C
:20549000244A4F4692F90000EF60401C10705846884706E02078012803D1002020700EF0AD
:2054B0000DFD0DF02FFF70B92078022804D15046007808B10FF0FDF850460078012802D023
:2054D00020780228FCD007B0BDE8F08F38180020272E0020292E00202B2E0020282E002008
:2054F000FE1C0020FF1C0020001D002030190020901C00203C1B00202A2E00200A1D00207F
:20551000EC1A0020FC1C0020FD1C0020C41600201D120100061D0020091D0020F41A002003
:205530002DE9F04FAA4C04F128000068ADF11C0D0CF0E4F908B10EF0E9F9A048DFF878B269
:20555000DFF89082DFF87CA200689F4D05900DF01FFE0EF011F8E769A669B7F57A7F13D06C
:20557000801B4FF47A720023A7FB000108F0A2FB81464FF47A7200230EF0E8FC3A46002358
:2055900008F098FB301801E0A0EB0609A061DBF8000020F00200CBF8000068688047DAF89B
:2055B0000010DAF804204E468919B1F57A7F0DD34FF47A73B1FBF3F3D218CAF804204FF44B
:2055D0007A731F46B1FBF7F25A43891ACAF80010A9688847686800968047D8F8041089192F
:2055F000C8F80410A9688847D8F8000000285AD007464FF00009686880470490BDF802004E
:20561000002690B99DF8010078B99DF800003979884204DD0098796888420AD20BE09DF8B3
:2056300000103879401A387108E000987968884201D3314601E07968091A7960B88878B9F1
:20565000FB8853B9FB6843B13B8933B1B87A194607F02EFCF8687860B88808B9FB880BB182
:205670003B896BB9B9F1000F04BF3868C8F8000003D03868C9F8000038683E46074601E0D0
:20569000B9463F68A9680498884756B1B3882BB9F3881BB9B07A318907F00AFC30460DF00F
:2056B0004BFF002FA7D1DBF8000040F00200CBF80000E06828B3804723E016F8060C21698A
:2056D000A6F10C07032819D0E16A9DF806000978884210D116F8080C0DF0BAF9B9790129BC
:2056F00003D0022908BFB07000E03070002031460AF0DAFF05E00EF009F902E009B13046D4
:20571000884708200727ADF80000696AADF8027068468847029E0028CFD029480068008880
:20573000C8B1686880472649096800220E880A80A9688847059A002031462070904706465E
:20575000FF202070686880471D4909680A8816430E80A96888470DF01BFD0746B7F1FF3F7B
:205770001CD0686807B9194F216AB94238BF0F1C80471C230646626AADF802300820ADF8CB
:205790000000696A019268468847A16A3846491CA1620CF08FFAA9683046884708200A27F1
:2057B000ADF800004FF0FF36ADF80270696A019668468847CBE6C04610E000E05052010098
:2057D0001C2E0020241D0020381800208EC2F528201B0020042E00202DE9FE4F0546287D11
:2057F000012807D195F917000BF0C4FCB0F1FF3F00F016819548EF7B017895481FB990F8D5
:2058100083208A4208DB012F03D190F882208A4202DBF120BDE8FE8F80462E6A95F83500EC
:20583000B5F8289095F83470AC8B4FF0000A5FEA060B029017D098F83C33002B2FD0D8F876
:20585000541300292BD006F0FF008847D8F8541306B20BF47F008847361830B2001D00B2AE
:20587000C83086B200E0C8260CB1241DA4B298F8E003012809D147B1764802993F1897F819
:2058900004A0405C8019401D86B209EB040080195044801C80B20DF08FFD071C02D11A20DE
:2058B000BDE8FE8F09EB0A0033193881002C03EB070078600EBF0020B819801C0021782295
:2058D000C7F8A40007F10C000EF03FFF09EB0600FF2110220019A7F84C0007F13C000EF093
:2058F00034FF07F12C000F2110220EF02EFF00243C707C707868696A2A8D0EF00FFB07F18E
:20591000840005F12C010B220EF008FB07F1900029460EF067F96889A7F89A00287B87F801
:205930009C00687B05F10E0687F89D00326869460A60706848609DF800102046012908BF83
:2059500001209DF80110012908BF40F004009DF80210012908BF40F008009DF803100129A9
:2059700008BF40F010009DF80410012908BF40F020009DF80510012908BF40F040009DF886
:205990000610012908BF40F080009DF80710012908BF40F48070A7F89E00A87D87F8A000FE
:2059B000E87D87F8A10095F8380087F86C00AA8BA7F8A82022B1D7F8A400A9690EF0AEFA08
:2059D000A87F87F8AA00286AC7F8AC00B7F8A800C0B1D7F8A400A8B17868401E7860F821A7
:2059F00001707868401E78600470B7F8A810B7F8A8607868401A786038898019801C3881BD
:205A10007868B865B7F89E00410A16D395F83710052905DB00F0040100F00100084302D013
:205A3000E820BDE8FE8F08F18806304608F0DCFE95F8371030460DF09FFE98F8000039465A
:205A50000AF032FE2046BDE8FE8FC046EC1C002008020020E44801002DE9F0410D46904C79
:205A7000DFF84CC2DFF84482A188D128074613DCDFF840E2D12800F0A280713800F0E28037
:205A9000401E00F0DB80401E00F0D280113810D04C3800F0AF8007E0D2387AD0401E61D017
:205AB000401E34D0401E2CD038460EF0D5FBFF2802D1F420BDE8F0817A4C04EBC004217997
:205AD00009B9E08860B1E088884208BFFB2000F0E5802A78914200F395809042C0F29280FF
:205AF000714E706880472378628807464046A0F13801581829460EF011FAB16838468847C8
:205B1000CBE0297802297DDA40466C1C6EE02888814277DD6746AA88D7F8DC3281008600C1
:205B300001EB001106EB0016D7F8DC025A52E988D7F8DC3280190822418005F10801981976
:205B5000001D0EF0EBF9D7F8DC02A27A29698019C068D2000EF0E2F9297DD7F8DC02801983
:205B700001749AE02E882189304681424ADD6746D7F8CC022C24A91C102204FB060015308B
:205B90000EF0CCF96969D7F8CC0204FB0600816283E029882289A8788A4233DD022831DAEB
:205BB000DCF8CC322C22471C00EB410602FB01331F75DCF8D812022201EB460035E02A8880
:205BD0002089698890421DDDE3888B421ADD704600682C2404FB02008489A142A4BF4C1CF6
:205BF0008481DCF8D40202FB03112C1D00EB810004221BE029882289A8788A4202DDE27A7C
:205C1000824202DCE820BDE8F081DCF8CC422C23471C01FB020603FB01442771DCF8D0128B
:205C30000A22700000EBC6004018EC1C254631E0002D32D0404608222C46F7E76DB3704626
:205C5000103026E025BB27893FB3E588E47A00231A46DCF8CC0202FB04F6710001EBC60161
:205C7000DCF8D0628919C150DCF8D41202FB05F601EB8601DCF8D8627F1E184403F12C030C
:205C9000816006EB820102F101020161E1D104E07046042229460EF041F90020BDE8F081F8
:205CB000EC1C00201C4A010038180020E804002008020020D404002030B50546EC6B0021FF
:205CD0005022ADF1540D684609F052F914F8010B8DF8000021680DF10100016061680834C6
:205CF0004160207861780EF0A8FCA41CADF80A0041080FD3207861780EF09FFCA41CADF8D7
:205D10000C00207861780EF098FCADF80E00BDF80A00A41C810808D3207861780EF08DFCD6
:205D3000ADF81000BDF80A00A41CC1080FD3207861780EF082FCA41CADF81200207861789F
:205D50000EF07BFCADF81400BDF80A00A41C0109C0F0AA80207861780EF06FFCA41CADF863
:205D70001600207861780EF068FCA31CADF81800187859780EF061FC9A1CADF81A001078F5
:205D900051780EF05AFC931CADF81C00187859780EF053FC9A1CADF81E00107851780EF0F0
:205DB0004CFC941CADF82000207861780EF045FCA41CADF82200617820780EF03EFCA31C77
:205DD000ADF82400187859780EF037FC9A1CADF82600107851780EF030FC931CADF82800E0
:205DF000187859780EF029FC9A1CADF82A00107851780EF022FC931CADF82C00187859783C
:205E10000EF01BFC9A1CADF82E00107851780EF014FC931CADF83000187859780EF00DFC89
:205E30009C1CADF83200207861780EF006FCA41CADF83400617820780EF0FFFBA31CADF8EC
:205E50003600187859780EF0F8FB9A1CADF83800107851780EF0F1FB931CADF83A001878BE
:205E700059780EF0EAFB9A1CADF83C00107851780EF0E3FB931CADF83E00187859780EF0A9
:205E9000DCFB9A1CADF84000107851780EF0D5FB931CADF84200187859780EF0CEFBADF8FE
:205EB0004400BDF80A009C1C40090ED320786178A278E3780EF0D9FA241D12906178A27860
:205ED0002078E3780EF0D1FA13900E490E4C086B401C0863207800280CBF01210021012079
:205EF00008F0CEFE298804A010220BF027FA28460AF066F915B030BD53656E736F722030E8
:205F10007800C0469C170020721A00202DE9F84F07468848DFF8108235380068800880F0C4
:205F3000F3800DF059F8874908310B6800251C17641C990D0AD2C0F13E0110F10A0F4FEA77
:205F5000E101D8BF08218C42B8BF0C1CDFF8DCE1990E10D2590E0ED37246143A1168C1F38A
:205F700004211629A8BF20391268C2F30462162AA8BF203A0DE0694AD2F87C11C1F3046147
:205F90001629A8BF20391268C2F30442162AA8BF203A09199346162905DA11F10A0FB8BFD1
:205FB0006FF0090100E015215D4C5E4E01F01F0242F4F8522280326812F0030F18BF01251E
:205FD000D20828BF45F002050FB145F00405424692F90740041B052C04DA9479AC4208BF6C
:205FF000918870D00F28A0F10F0A2BDB0AEB0014A4F1F00A4FEA2A29B9F1070F88BF4FF0E7
:2060100007094E46062E88BF06265EF82670042404EB8604764634594FEA9508E41B04F086
:20603000FF06EF0824BFC4F307273E444FEA550CAF0824BFC4F307473E446F0828BF06EB00
:20605000146605E000264FEA95084FEA550CB1465EF829E05FEA58070EF0FF0424BFCEF398
:2060700007273C445FEA5C0724BFCEF307473C446F0828BF04EB1E64B6B2ABEB0101AAEBE0
:2060900009277E43002906F1800604EB1624D8BF012103F0FF0334264E43B1B259434FF653
:2060B000FF73B1FBF4F18B4238BF191C802889B2918005DA10F1800FB8BF6FF07F0000E03C
:2060D0007F20D07195711A4800681F2910604FF0000008D340F2FF128A4206D24908401C9A
:2060F0008A42FBD301E01F219180134F114E0F39090940EAC10047EA0001C6F8FB1F00258F
:20611000C6F8FF5FBDE8F88F0C490D4F424608200F60921D1070BDE8F88FC0463C11005059
:206130006E620840242208400C2E00209C130050082009403500094000E7A48030100940CD
:20615000FDFDA400AC3F005001282DE9FE4F40F0EE80DFF810B2DBF8DC00012840F0E48027
:206170000220CBF8DC000DF047FA01200CF052FA5FEA000805D00120CBF8DC000DF04CFA7E
:20619000D7E00EF0CCFA6C4902900020086001200CF030FD012818BF002003D1002009F04E
:2061B00015FF0120654900900020654F0860386811200EF093F900280CBF00240124102059
:2061D0000EF08CF908B144F002040F200EF086F908B144F004040B200EF080F930B162486B
:2061F00014300068574E016B308888470A200EF075F9002600B101264FF0805A0AF5DC754E
:20621000301C04D02868504E016B308888474F48012606602868816944F0200088474C48D8
:2062300006600EF055F900F001010191400814D248480EF013F98146B9F1040FF8D0B9F15A
:20625000010F05D1DAF8D80142684248032190474149086820F0030008600020FFF756FE8F
:206270002B683868986B8047019801280DD0B9F1010F05D1DAF8D8014268364831469047C1
:206290003549086840F0030008602C48066028684169204688470B200EF020F920B1286879
:2062B000284BC16A188888470A200EF017F920B12868254BC16A1888884724480322066027
:2062D0002349CBF8DC2000230B602868416B204688470128F9D1386804200CF09BF90446F3
:2062F00015481E490660386808688009FCD30098012802D1304609F069FE0EF0D7F808209D
:206310000CF088F907460298CBF8DC600EF0DAFA1348008809F0BCFB0DF07EF957EA0400EC
:2063300018BF4FF0FF3804E06FF0040801E06FF001084046BDE8FE8F0C40094000022243B4
:206350002C2009401A500100165001002820086080010443004003402422084014100940D0
:20637000A8510100AC140020A40100102DE9F043044694F830900F46984615468B20ADF1C8
:20639000340D0DF10A0100F0CBFE8A20694600F0C7FE94F8250000283FD1B9F1000F19D150
:2063B000BDF80A104FF6FE70884205DCBDF80A10884230D1694615E0B4F844009DF80A6073
:2063D0008DF80E0000128DF80F00BDF80A008DF810601CE0B9F1020F0AD0B9F1030F1AD188
:2063F00004F128010DF10E000EF06FF9092612E0207CC00934BFB4F84200B4F844008DF821
:206410000E0000128DF80F00208D8DF81000001205268DF81100002016E002280CBF05266D
:206430000926012818BF04F11C0106D189200DF11A0100F075FE0DF11A0132460DF10E0072
:206450000DF06CFD94F826000DEB060148733A460DF10E00314608F02DFF002840F09380C8
:20647000B9F1000F19D1BDF80A104FF6FE70884205DCBDF80A10884230D1694615E0B4F852
:2064900044009DF80A608DF8220000128DF82300BDF80A008DF824601CE0B9F1020F0AD0EF
:2064B000B9F1030F1AD104F128010DF122000EF00CF9082012E0207CC00934BFB4F8420084
:2064D000B4F844008DF8220000128DF82300208D8DF8240000128DF8250004203E688146B8
:2064F00003A9822000F01CFEBDF80C10B0898142D8BFBDF80C00002845D0074600247220CF
:2065100029460CF055FDB068BDF80C100019C8F800000088814232DD2B68810001EB001181
:20653000581828600146D8F800008278012A22D0C07840BBB9F1040F07D0091D0DF1220018
:206550000DF034FB012818D019E008884B888DF82A0004220DF122018DF82C3000128DF824
:206570002B0018128DF82D000DF12A000DF014F9012802D003E0C07828B9002004E07F1E3A
:2065900004F10404BBD1F3200DB0BDE8F08370472DE9FE4F0CAF9946934604467D6802912B
:2065B000294603F03FF9061C00F0EC803888F082764F347597F83C0318B1012C04BF152057
:2065D000307506F1840029460B220DF0A7FC012C04D00D2C1CBF7068401C00D170683062CB
:2065F000002597F83C0335650028B5654ED0052C18BF012C45D14FF0040A86F86BA0F08A03
:2066100086F86950C00934BF97F8CD0397F8F60359460A2286F86A0006F170000DF07EFCFF
:206630009BF8080003282CD1032097F8D13302903BB3DFF85C8108EB8408D8F8000010F44A
:206650007F0F0ED086F82CA0D8F8000006F12C01012200F47F003063304601F0F1FBD8F834
:20667000000010F0FF0F0CD02A2086F83C00D8F8000006F13C0100F0FF003064304605F02A
:2066900041FC97F83C0308B10D2C13D0009502994B4630465A46FCF717FF071C73D1E41FC0
:2066B000012C03D8707E40F020007076304605F0F1FC68E00520364C86F86B0004F1340045
:2066D000016811F0F70F18D02A2186F83C10BA78006806F13C01012A00F0FF0030641CBFE6
:2066F00020F00800306497F8D10318B9306C20F002003064304605F005FC009502994B463B
:2067100030465A46FCF7E0FE5FEA000838D1214806603489756801A964200AF0BFFF1E4E6D
:20673000A01C0DF1050187B206F170000780E9200AF0B4FF9DF80500012806D13C46C4F3D9
:206750000220022140F0180006E0241D0421A4B2C4F3022040F0080005F8010D671A05F860
:20677000014DB9B2F567AD1C284607F0F9FF9DF8040000280CBF09480948C6F8B800B06713
:20679000474600E01A27F8B2BDE8FE8F0802002054490100541B0020C41600204E90555586
:2067B0000E7A55552DE9F047064637680C465FEA0208ADF1180D14BF00214FF0FF3107F19C
:2067D000480081460DF036FD002818BF0B2040F0E68000257448FC60B8F1010F057007D068
:2067F000657002200CF0BCF806200CF0B9F801E0012060702078012840F29080801E012873
:2068100057D9801E01282CD9801E012800F2B8800DF073FF8246A078009021782846062966
:2068300008BF0120019001200290A068228A6368E16805F06BF9074650460EF047F8002FAC
:2068500040F0A080B8F1000F02D00DF0EFFA02E030460CF0A2F9002800F087800CF008F85E
