:20000000004B0020F1100100FDC90110FDC90110FDC90110FDC90110FDC90110FDC9011069
:1C002000FDC90110FDC90110FDC90110FDC90110FDC90110FDC901103BCA0110A4
:20003C00BD0400214D040021810400218504002121050021A10500215106002179060021DA
:20005C00F8B51047F8B50E4600210125AD0430470A48037800F00FF89B070BD0124C2078D9
:20007C00FF2807D0FF2121700E490F24240220436031C882F8BDF8B5014800476B02002147
:20009C00E54C0000094801E00848000C064C05492278FF2A01D1CA7A22706031C8827046E9
:2000BC00801C004700620840C8060021070F0808F0B4084710B501480047000089090000A8
:2000DC0070B503461546012906D0002906D0114A2846FFF7B5FF70BD0F4800E00F480524E5
:2000FC00834203D84008641E002CF9DCE340012040031818820B012907D006490023803111
:20011C002846FFF79FFFE0B270BD0249044B6C31F6E70000835C0000A0BC862300830D2357
:20013C0098060021F8B51A4E0546716B1948CC09E401002D11D01849097802290FD0007B18
:20015C00044372B60120154F4002B847114820380088C109C90704D016E0C07AF0E7407BE5
:20017C00EEE70F497463CC61400AC0070CD001208003316B002D01D0014300E081430846D1
:20019C0031630749403948630020B84762B6F8BD80020021880000219B0200217B3F00008B
:2001BC004040044010B5224A0021516121498968C90009D42149204BCA0598424B6B01D84D
:2001DC00134300E093434B631D49FFF771FF10BD38B51A4D287F002827D11A480088C009E2
:2001FC00C00722D1124C606900281ED1684600F04FF868460078012817D168464078102831
:20021C0013D208206061686A4009400120600E4A0021D1620D4A0221116001210843206094
:20023C00032108436862206038BD0948804738BD00400440180000210000930880020021EC
:20025C00CF680000680000210011044080E200E0C33B00000749002800D00420064A72B649
:20027C000978C90701D0105800E0802062B640B2704700006B0200215860044010B5034CF9
:20029C00FFF718FF20680028FAD110BD0011044003B40148019001BDA56F00000000000035
:2002BC00010003000A001F005900EB003902EA04F9099712EB1FA132784A0A66FA828C9E28
:2002DC0063B617C964D6EDDEC1E3E0E5FF0000003E606F14333C3C33CCCCC33C0500CF2F03
:2002FC009D0F3EDB7F7F0000010002000300000003000C000F00CC00C3003C003300CCCC65
:20031C0033CCCC333333000F0F0F0000030007001F000000000000040F0000008703010069
:20033C00C048430000800480F00600001E0924055400050000082048480000001F007F7FDE
:20035C004C01333C3C33CCCCC33C00002072487203730573037204730673047276737672D9
:20037C00C0C70180010001901090010801900C720D720E72C0B00071F0B0C0A018723281F2
:20039C002010523970062000301601110114016C746076608A600E617460746074607560C2
:2003BC0020126B60101220720F731073117381811000809170B052606A606A60E1C182C278
:2003DC0070C42018136F236E111612167A6882C410C8201887400312236E1216846800D0AA
:2003FC0070916A600F73107300C0C09109C07081803970061016101E9944B7C008C01EC0C9
:20041C00AA60201E9F44F7C018C03EC0AA60401EA54437C138C07EC0AA60801E684477C1FD
:20043C0078C0FEC030C0F965D8B0007108B1D8A000B280B403B013B002B012B0468146391C
:20045C00F4C046041616D0B004C03CC170C09092117870C012103206C214236F93940071B0
:20047C0000B12139C2681416641CC0441178F10B70C012103206C214236F9394007100B1BD
:20049C002139D168F4C4D5C666C0AF81F764E0811022E340DD6070C010160FC0F764E568E9
:2004BC00D1A030C0609740C08097F1B0C1B00071F1B0C1A0767203A002A020726A601F067E
:2004DC006F31F90091104104C197DA871A0691105104C197DB871B061B31BA1419397A14DD
:2004FC00A36F93949E92007100B10070F8B0E48A12410493F0C10094A07810941B7277815F
:20051C00761087397706C797D887181640D06798F965207830943078409440785094507868
:20053C0060945A65907810986D6507B017B004B1D4B005C204C0E165F265541C3849909179
:20055C0014165181011E33417116411C334DD7A0BE79CF79EE95FF950412F2651416541C78
:20057C004B419091456105A250C0F965D7A0D4A006720272047203720472057306737673E5
:20059C0076726A6061C0813102C0F3CF126E1116126E1116E0C7136E1116126E1116636926
:2005BC00F0CF126E11166969007006B016B004B014B002B012B070783090509080784090BF
:2005DC00609005B272B090C0B09317B1E7B016B1E6B0007173B007B1E7A0E7A0B0807022CB
:2005FC00A245E6A0E7A0D7B08EB8007116B107B141B061B0F0C0B0938FB8648914315495D7
:20061C0044A0007107B14DB06DB074B001B2007107B10070D7B089B844898431843D249761
:20063C006078309750C0AB69408701C21014603D04836431643D0418F0CF20350404049304
:20065C00B0C0B09369B060D06498F965007107B1D7A07D6109120A12D76509141A14171EB7
:20067C00D441D76519140A14371ED441D76509141A14D76519140A14893C8A3C00700071DE
:20069C0007B1007107B1F08780318039018881390070C2659B10AC10C265BD108D31DB149A
:2006BC00CD108D31DC148A31A9149B149C14EB95FC950070D7A079B0007104B1D7B0208846
:2006DC000070509840880022FA4530B800700000A36100007F1407134D00F1242E1F133F73
:2006FC00B00A3F0007FF0000304000400140034007400F404F40CF40CF41CF43CF47CF4F21
:20071C00CF3FCF2FCF1FCF0F000000000F00080000003F00000040003F00000004006800A4
:20073C000E00DC00060043001A00050000000000020000003F00000000000400C000000046
:20075C000400C0000000070050C00091007070C00091007082312100319110B10070018127
:20077C0001B100A18231329110B101911110418141224F40F106007051C0019130181039D1
:20079C00833108D01831416F3100319110B1831414165B680070251050C00091F4C3C0C003
:2007BC002014036F3110410422C082312100319110B163393110410482C0823121003191BE
:2007DC0010B163393110A2C082312100319110B1501015310514059200703F6452C03110EA
:2007FC0031066131C102426412C13110213971065131E102426400708A65996588C0208274
:20081C0050398039001E9F4041C001301814181A89C0308260398039001EA94041C0013067
:20083C001914191A3C64369110B1349110B154B0007154A064B0F0800022AF404012B090FE
:20085C0032B053825339533985643F6411C122C1426470C1C26811C1C2C0426470C1C76811
:20087C0050C00091277298921516141642105310F0C12182313131398139313151B070B28F
:20089C0072652772999270B262107310F0C331822131213981391B107265E2C08231608285
:2008BC0080318039020061B00071329110B151A061B0277230C2F36800008012B09032B00E
:2008DC00007050C000912772999262107310F0C3318221312139813951B070B27E652772C7
:2008FC00989270B242105310F0C1218231313139813931311A107E6551A061B02772B0C087
:20091C0018693F6401C122C1426401C1C2C04264151A3C64359110B153828564C012B0903C
:20093C0032B000703F6472C281C0426422C111C1426402C011C1426462C031C3426462C315
:20095C0011C1426402C311C14264538253398564E2C347641122404142C281C8426452C271
:20097C0011C1426472C2E1CE426402C281C8426402C201C84264B0C0546900703F6442C230
:20099C0001C8426452C211C0426472C2E1C0426402C001C1426462C001C3426422C101C16B
:2009BC00426462C301C1426402C301C1426453828564007061B000711214231C7A4D33911B
:2009DC0010B10070329110B17269007061B000711318321C8649329110B10070339110B1B8
:2009FC007E690070C2C047641510C2C01216476441311514C0C0803105145410A078040474
:200A1C000070E6C0863101CC161467106182F0C3010417140070067305720B720E7250B05C
:200A3C000071818060B050A092804122C3458080F1C11004301601110114016CD661D7619C
:200A5C00D861D961DA61DB61DC61DE61E061E261E461366339639180F2C0210421318280DA
:200A7C00422A1214321601112114016CEE610B62F4613963EE610B62F4613963E661E661E4
:200A9C00E661E661E661E6619464E661F964E6612A65E6615665E6614667E6611012B0900D
:200ABC000E720673057210123090A761F0CF3C67D4C103C0C0C354644078509150781092C8
:200ADC00607820927078309280784092907860923078909110824039F006011010311014C2
:200AFC0000924267E661BCA0E2A054A0F08050221546408000222B470D6240A02D828D3139
:200B1C008D391082F1C0100409101A824A391A041082803910040E10AB10BC10C2106364A9
:200B3C002972E0CF3C6713B003B0C86653B050B054B064B013B0A5661082E0223846AE66F9
:200B5C000071418001222B47F08010224B46F022184764B03122384263B0CE661082E02252
:200B7C0038467066386264B06F818F318F3DD0DFFF923C670071418001222B4764B0F080AD
:200B9C005022654263B01182C1226046CE6605671182D12252467066526261817281813122
:200BBC00813D8231823DC0EFF19202933C670B62B081C091D381978290A2D3187F4EF30B3B
:200BDC001316E31CA44AC391E3813B149062BA1C8B46231E8B4AE31C8B4E90B207228B421D
:200BFC0090A21B1A9662E31CA44AC391E3813B18AB1CA04E9B1CA24ABC1CA442B210108218
:200C1C00D0229D42F0801022A4466364A566A462AB1094629B10946200703082F1C010044A
:200C3C0063B00071A86ABC10E0B00070B281C291D281018212185181121841828131813D81
:200C5C00121CBF4AE2B032B0B0DFF2923C67F1C72114C34E12C86291729131B0E1B0007067
:200C7C0008C006C000C86091709100700182B081C091D0811018518110180614E1804282E9
:200C9C008231823D201CE44AE2B02122E84632B00510A0DFF5923C672122E842E2A032B0E8
:200CBC0031824139F0C00104011EF642181610C01030081C04476010103C0610F1C7611433
:200CDC00FA4E16C8669171818131813D161C014B769131B006C008C0007061818131813DC3
:200CFC00408280390118F11C174B0114B080C0221747BCB033B090EFF1920F933C6700704A
:200D1C0003A063B064B0EFB056650071408000222B4764B02A65EFA00071408000222B47D7
:200D3C0064B003B03862018262818231823D80EFF19202933C6703A05665E661A2806364A6
:200D5C00E66150B00071E661E092D08200223D47C0B20070A080F022594330B002C1623128
:200D7C0001C0A080001E5243F0225343A0F56031603953632010101A136F236E11161216EA
:200D9C00546B0070F56D0000BDA00000000000000000000000000000B1A30000334201007F
:200DBC0055EF0000413C0100A34201009D4201007D3C0100000000002342010049F3000033
:200DDC0019FE000085350100A5A40000D13D010079C70000F1760000392C01005915010051
:200DFC0000000000090501002B420100F6C0080000004100000001C3100000024210000033
:200E1C0003C414000004C518000005C618000006C71C000007C920000008CB24000009CD71
:200E3C002C00000AD33800000BDA5000000C18B800000D3FA600000E3FA700007FFFFF3FA2
:200E5C0000F6C004000000C312000001C416000002C518000003C61C0000044418000005E3
:200E7C00C820000006C924000007CB2A000008CE32000009D24000000AD85800000BE590A2
:200E9C0000000C2BBC00000E3FAB00007FFFFF3F0005000017070100854001002DB30000C5
:200EBC000B420100FB420100EDE20000492B010079420100854201007F42010005000000FB
:180EDC005B430100A103010029E80000080E00005D0E00005D0E0000BD
:201000003C000000000000000000000034100000000000000000000001000000000000004F
:1C10200000000000000000000000000001000000000000000800000000000000AB
:20103C003400000000000000000000006810000000000000000000000100000000000000E7
:14105C00010000000000000000000000080000000000000077
:2010700030000000000000000000000098100000040000000000000001000000FFFFFFFF87
:10109000FF00000001000000080000000000000048
:2010A0002C0000000000000000000000C4100000040000000000000001000000FFFFFFFF2F
:0C10C000FFFFFFFF080000000000000020
:2010CC0038140000E410000095A1011091A70110A1C2011009B2011041B80110A5BC011078
:0810EC0085BC01102E0000007C
:2010F400280000000000000000000000141100000000000000000000FFFFFFFF0000000093
:081114000800000000000000CB
:20111C00341400003011000065C2011069C101101BC2011091BA011005BC0110E5BB0110EA
:04113C00300000007F
:20114000341400005411000071C20110A5B6011099BF011045B60110B5BA011025BC01104B
:04116000310000005A
:201164002400000000000000000000008011000000000000000000000000000008000000AE
:041184000000000067
:20118800240000000000000000000000A41100000000000000000000000000000800000066
:0411A8000000000043
:2011AC00240000000000000000000000C8110000000000000100000000000000080000001D
:0411CC00000000001F
:2011D00000000000EC1A002004000000000000000000000020000000701000003000000005
:2011F0001C110000F41A00200400000000000000000000000C000000301300001800000019
:2012100040110000FC1A00200400000000000000000000002400000048130000180000009C
:2012300000000000041B002004000000000000000000000010000000A01000002C0000006F
:20125000CC1000000C1B00200400000000000000000000002000000064110000240000009E
:20127000FFFFFFFF141B00200400000000000000000000002800000088110000240000002A
:20129000FFFFFFFF1C1B0020040000000000000000000000580000003C100000340000000F
:2012B000FFFFFFFF241B002004000000000000000000000010000000601300001800000024
:2012D000FFFFFFFF2C1B00200400000000000000000000001C000000AC110000240000009A
:2012F000FFFFFFFF341B002004000000000000000000000038000000F4100000280000000B
:20131000FFFFFFFF3C1B002004000000000000000000000054000000001000003C000000A6
:1813300018000000000000000000000040130000080000000000000032
:1813480018000000000000000000000058130000080000000000000002
:18136000180000000000000000000000701300000800000000000000D2
:0813780002000000144E010008
:041384000100000064
:0413880000000E0053
:04138C0000000F004E
:041390003200000027
:041394000100000054
:04139800481A0020CF
:04139C00000200004B
:0413A0008B4201007B
:0413A400FDC901106E
:0413A8000000000041
:0413AC00000000003D
:0413B0000800000031
:0413B4000000220013
:0413B80054180020A5
:0413BC00010000002C
:0413C000601A00208F
:0413C400080000001D
:0413C8000000000021
:0413CC00000000001D
:0413D0000000000019
:0413D400080000000D
:0413D8000000000011
:0413DC00000000000D
:0413E0000100000008
:0413E400501900207C
:0413E80006000000FB
:0413EC0001000000FC
:0413F0003017002092
:0413F40000000000F5
:0413F80000000000F1
:0413FC0000020000EB
:0414000000000000E8
:021406002900BB
:021408000100E1
:02140A002500BB
:02140C003000AE
:02140E003100AB
:021410002E00AC
:021412000100D7
:0114140001D6
:0814180003000000DC4D01009F
:081420000000000000000000C4
:0414280000000100BF
:04142C0000000300B9
:0414300083C4011060
:041434003C14000064
:041438003C14000060
:04143C0000000000AC
:041440009000000018
:041444009000000014
:0414480000000000A0
:04144C00601A002002
:041450003D3E01001C
:041454002000000074
:04145800AC4D010096
:04145C00084D010036
:0414600009C30110AB
:04146400D31B010095
:04146800C323010099
:04146C0095C801100E
:0414700097C8011008
:041474000000000074
:04147800AB4D010077
:04147C00204C0100FF
:04148000384C0100E3
:04148400084C01000F
:0214880008005A
:02148A00090057
:02148C0001005D
:02148E0000005C
:01149000015A
:041494000000000054
:041498000000000050
:04149C00000000004C
:0414A0000000000048
:0414A4005F430100A1
:0414A800AD1E010074
:0414AC00E12F01002B
:0414B000C522010050
:0414B400912301007F
:0414B80059170100BF
:0414BC00A1DF0000AC
:0414C0007540010072
:0414C400FD03010023
:0414C8000DC801103A
:0414CC001DC8011026
:0414D0000800000010
:0414D40024000000F0
:0414D80018000000F8
:0414DC0028000000E4
:0414E00020000000E8
:0414E4003C000000C8
:0414E8000C000000F4
:0414EC0034000000C8
:2014F00083482DE9F04F0C4601210170DFF80892DFF80882DFF808A2DFF808B27D499C464B
:2015100020270023ADF1540D002517EA0C070B70C949119291F83C33C849CDF848C005EA24
:201530000200139108BF00287AD111984FF0E04761462A460F4002EA000008BF002843D157
:20155000129E119B4FF48600B9F8AA10DFF824C3CDF82C9012EA060700EA030008BF0028C7
:2015700019D1C34812EA060700EA030008BF00286ED037464046119E048100F1380341811E
:20159000002F83E8C00004BF331CB3F1806F5FD102295DD111E037464046119E048100F19A
:2015B00038034181002F83E8C00004BF331CB3F5803F4DD1B1F5505F4AD1006A67464369FA
:2015D00038682146984741E046465146B6F9087091F90000BC42A0F10100087017D1728935
:2015F00006F1380003C8002904BFB0F5803FB2F5505F08D0002904BFB0F1806F022A02D0E9
:201610000EF0F2FC03E00FF097FC12F001FA139890F90020521E02706FF00101318113E020
:2016300046466FF0010006F10801088063B1BE480078832802D0812059460870316919B1FB
:20165000284688472146E9E7CDF82C90B9F8AA10119A129E02202F461040374008BF002872
:2016700000F0D183B24A43F201408842149200F0A383C01C884200F09F83504690F9000047
:2016900052464746401E1070B7F90800844209D0139843F604078F420A9040F09E8311F034
:2016B0001DFE9AE3644890F83CC307F1380090E800034FF482062F4617EA090706EA08005B
:2016D00008BF002820D113980C4F0A9007F1380003C84FF400322F460F4002EA000208BF91
:2016F000002A02D10EF080FC77E30FF025FC74E3A91A0020A01A00208C130020D016002010
:20171000A71A0020C72B00202846BCF1010F59460E9002D00F78002F7AD1844C8120149E68
:20173000277808702B46A5816069A770427A017A337002F0070301EB032152098DB234BF98
:20175000291F891EDFF8F081437A8DB233F07F0340F01D8377490988A942C0F218830A300E
:2017700029460CF089FE216A04F118000522083112F0A2F9ED1EADB20D960520E17E227FA0
:20179000A37E2D4EA081C1F3011B227103EB012096F83C136081002908BFBBF1020F00F0AF
:2017B000F682BBF1020F00F3F28269B110F0070F00F0ED8241B15C490978862904D100F062
:2017D0000701022940F0E382011301F00201022952DA6378DFF8509100F00700022836D117
:2017F0004646D6F804A0002B31D1216A09A801220D3112F061F90620A081D047804699F800
:2018100000300D48B56847680C96862B18D10FB912F04BFD9DF9240012F08FFD9DF92460B7
:2018300078770020B8774046FE77A847608900F010000DF06BFC05E008020020A61A002034
:201850004046A84713980A9011F058FFA5E299F800000026862808BF01261398CDF830806C
:201870000A9076B100200FF01FFAA77808E0C04600000C8C94180020CDF8308013980A9034
:2018900063788FB183B9012F00F07E826089022F03D110F0070F40F07782032F05D100F09C
:2018B0000701032901D06FE2608901094FEAE00C09D310F4405F00F06782BA4991F8E07373
:2018D000002F00F06182011301F00201022902DA810A80F05982B2490978C1F381098E11B8
:2018F000B9F1010F00F05082012E00F04D82AB49BBF1020F09D08A5D11F809108918CFB2B9
:2019100006B3C1091ED3BF1E0BE072184944127909798918CFB2C10910D259EA060311D05C
:20193000BF1CFFB20EE0C046CB2B0020D82A0020C92B00209A1A0020DC15002059EA06039A
:2019500008BF0227C0F30020391A60718D42C0F21B82ED1B5FEA5C010544A8B2208124BF9D
:2019700025210E910E990818743080B211F066FC65782061002800F00782002174220DF0BF
:2019900005F90020E070B4F80A801DB90D9908F02000087000250D9B60790F951D78109008
:2019B000002D3BD0051C39D108F00708B8F1030F06D0B8F1010F22D17A4890F82A04F0B157
:2019D0007848B0F854000023810809D3754991F8825095B94D681DB16D7E35F07F050CD158
:2019F0005BB98008984605D385498D68887805B1A84710B9B8F1000F01D00420E0706948A6
:201A100090F83C0310B1BBF1020F01DA11F074FA6079B4F80A801090E0780F90216901F105
:201A300074004860886525890D812089A1F85C005FEA18100FD31098C0F1030082B2A1F837
:201A50005C20886DCF4912F037F82169B1F85C20886D801888655248CA4B0078C0F30112A6
:201A7000109D18780F9BA1F80C8000F07800104318430874FF228A7320790E9005B100208D
:201A900081F8306081F83A9081F84900A089002F2946A0EB010085B2A58100F06A81BA469D
:201AB000216AE780684652464919083112F004F83B487F19BDB2A581216900780A7C6E4659
:201AD000C0F3011B801002F0400910F0030F00F0030744D0BBF1020F4FF0000301D1D00992
:201AF0000BD29DF801209DF8000000EB0220A1F844000DF10206A1F84200C94AB1F84400E3
:201B1000B2F85A20824203D04FF6FF72824223D1032F12D072783078C14B00EB022082B299
:201B30004A86B3F85810B61C0120914213D04FF6FF71914218BF00200DE0C94800683146AD
:201B5000323012F0BEFBC648B54900684F31323011F0E2FD08360346002B00F00D8110489A
:201B70000078831126D02069BBF1020F03D0017CC90903D309E059EA070706D17278317871
:201B9000B61C01EB0221A0F84210032B0CD07178327802EB012202850CE0C046F44D010002
:201BB000F32A002008020020AD4800683146283012F087FB08F00708B8F1030F07D0B8F1BC
:201BD000010F39D1A84890F82A74002F34D0A6482669876F4FF00008EFB17B7E33F07F039A
:201BF00015D096F8300002280CD003280FD107F1700006F1280111F08FFD40B11CE0C04619
:201C1000AC1A0020B7F87000318D884214D057F80C7C002FE1D1B8F1000F0DD1914F594B71
:201C30004046E07038784246C0F3011118780F9200F07800084330748B4890F83C7317B167
:201C5000BBF1020F0BDA0D98077847B1109830B90E980F990DF082FDA589B4F806A0206952
:201C700081890909C0F08580806D6946524611F023FF2169886D50448865276AB1F85C0096
:201C900001225044A1F85C000DF125007919083111F012FF6E1CB5B2A58121699DF825002D
:201CB000896D087021699DF825709DF82530886D401C8865B1F85C00401CA1F85C0007F07D
:201CD000070081F82400C3F3C10781F8257091F8246020898046002E4ED05F497F183E7807
:201CF000361D8642E68047DC216A05A832464919083111F0E1FE38789DF817209DF81410D0
:201D10009DF8163040193D78001D01EB026180B201EB0341A0819DF81530206901EB032168
:201D300081616DB14E4800686D1E06A92A461C3011F0C2FE397820696944C97D80F8261003
:201D5000806D05A9324611F0B7FE2169886D80198865B1F85C00A8EB06078019A1F85C0072
:201D7000781E82B22281B1F85C000A818018A1F85C0000F07FF810E012F0E8F90EF034F964
:201D90000BE0C046F22A002011F0D4FF05E011F0D1FFCDF8308013980A90DDF83080D8F86D
:201DB00004008047216A0A680023137109682162D8F80810884710E0404680784146574667
:201DD000401C887097F900005146401E08700EF00BF911F083FA13980A9023480B99104F6F
:201DF00000226FF0010690F83C03A1F8AA203E8110B11498007808B911F00AFE0A9991F986
:201E10000000401E0870194890F9000010B9134800210170139A92F9000098B102E0C046D3
:201E3000D0160020119B129F02214FF0E0401940384008BF002908D092F90000002804DC81
:201E500012F033FA002003F0EBF90949002015B00870BDE8F08FC046E04401009E1A002076
:201E7000E82A0020F32A002008020020A71A0020A91A00202DE9F04FB64D28692C89296AC4
:201E9000AE89806DADF1440D22468919083111F013FE2969886D00198865296A3619B6B2F3
:201EB000012210A88919083111F006FE296A761CB4B2042209A8AC810919083111F0FCFD73
:201ED0009DF827109DF8240000EB01602B699DF82610241D00EB01409DF82510AC8100EB73
:201EF0000120099011F0FEFED863099811F096FBA3F84000EA2011F045FC022196482C69F0
:201F10000170217CE878084320749DF9400012F014FA84F8460021899DF94000DFF8F4B2BF
:201F300084F8480004F17400A065B4F85C00401A61684FF0000AA946401801466060A08974
:201F500084F847A0820A18D2020955D310F0070F07D000F00700032812BF081C6068401C3D
:201F700046E06168C87800F00702401000F0380000EB42004018001D3AE00CB912F095F9A0
:201F9000A089800A2ED361684878C7112AD12589616650464B780A7803F07F035B0003EB13
:201FB000E2137E2B0DD07F2B09D002F07F0280188918801C891C80B28542EBDC08E05146E7
:201FD00000E00121801C84F8601080B2854201DA504605E06168091861602189091A2181FE
:201FF000A4F86800606E10B1B4F86800B8B160686061A089000918D294F86000002800F018
:20201000198120460EF0FEFBD9F81040E06C002800F01081B4F85000002840F00B8112F0C1
:2020300083F85046C9F8100035E2504656460A9094F824700B900AA90BAA0CAB0C962046E9
:2020500004F0B0FA002840F0E8800A9B656960682689291A701A86B20BB912F026F9B4F892
:202070005C00009001950B9B0296181D03900A98A169A36D3A4615300BF0B0FE002840F046
:20209000CC80BB4894F860502689C15D701A208115B120460EF0B6FBA58905F00705032D73
:2020B00002D160680078E07394F80F8073200EA910F06AFD83200DF1420105F055F9514620
:2020D000DC460AE0C278012A03D1002F08BFDC2028D0001D491C0E90C9B29DF84200884285
:2020F00040F39A800E988278032D07D00378AB420DD09CF800600EB1022D08D0032DE8D1F4
:202110000378032BE5D103465B784345E1D1BB10B3EBA20F05DA02F0030207F003039A4231
:20213000D0DD504680460A98E77B90F814E0514601E0491CC9B28E456ADD06694B00032DAA
:2021500006EB03020AD1F35C032BF2D15278BA42EFD10CE0D82A0020C72B00201278AA4242
:2021700005D09CF80020002AE3D0022DE1D10B98077C002F08BFB8F1DC0F4DD0A069B0F191
:20219000FF3F43D071200DA910F0FEFCB448078947B30D9D514684460A9A95421CD19CF810
:2021B0000AE0BEF1000F08BF50460CD00B98C2687346504696888E4205D05B1E02F10802D9
:2021D00000F10100F6D186451ED00B9AD268A36952F830209A4217D87F1E05F12C0501F177
:2021F0000101D9D1C2000B98A169C368491CD150C0681058B0F1FF3F02D10C980121C170CA
:2022100084F801A0504609E0DB2007E0DB2004E0DC2002E044050020DD206070D9F810401C
:202230006070A0696778606527B1F22011F0AAFAD9F810409A4D95F83C03002800F0AB806B
:20225000A189DFF8608201F00702022A63D199F80170002F5FD16778002F5CD1D9F81010A4
:202270008DF841A004A8283112F02BF8D9F8101006A80A22283111F01FFC414601F11002F3
:20229000D9F81070D5F860331088401C1080786E04210DF141029847444609F1100B28B94E
:2022B000686818B19DF8411080F86810D9F8107097F83000022811D1DBF8000005F56A71DB
:2022D0000E4602222830203110F03AFE30B906F1160104A811F0F5FFD9F81070724800787A
:2022F000862807D1608A401C6082B88900F010000CF00CFF95F83C0328B1D5F8841311B10D
:20231000D9F81000884711F00FFF5046C9F8100011F0F4F9C1E0654A1778002F30D0C1F3D7
:20233000013102292CD16078002840F0B4809DF840005F49464699F803700870B08A04F11B
:2023500028021C34002F00F10100B0820CBF50460820584953460B6000900194B5F8CE339F
:20237000117A0D2004F030FA20B910F0C5FD03E0E444010011F07CF95846D9F81040007823
:2023900048B1D5F8841331B1204688472846D9F8104090F83C03A7890F9407F0070760B17A
:2023B000A07BFF2873D0032F05D1204640680078042802DD6BE0012F69D1381C3AD0401E7E
:2023D00050D0801E63D1A089C0F30130022803D16068007807282BD02089002857D0204628
:2023F00041684A1C42600F78A446C7739CF824606EB9002F4BD00A2F49DA2F490089C95D65
:20241000814209D0082F42D1082805D03FE0C07B00283CD00A283ADA20460189491E018114
:20243000C17B0B3101700F99C87B401CC8731BE0322018E095F8B5030F280AD011F066FC23
:2024500038B90F988189091301F00201022900DAD04795F8EB030F9C2074152003E0C046C6
:202470008C1A0020162020700F9905F17C000FF007FF124C6068804795F88410491C85F8B1
:202490008410A1688847202011F082FD3DE70FA80EF0F2FE39E70DF0A7FD11B0BDE8F08F91
:2024B00008020020B0190020CB2B0020C92B0020C6170020F4180020EB440100DC15002065
:2024D0002DE9FE4FDD4981460122A1F130000260D8480768002FFCD0D74AE34EC027D84872
:2024F000D84B17603268920808D2324652F8042C03F14104120C42F0F00222704FF0000ADC
:202510008346C1F800A0DFF88CC3DBF80810E04F0191880E43D2480E41D3802018744FF631
:20253000D802A3F8512018703868C0F30464162CA8BF203C1E460F3E307800F01F001628B7
:20255000A8BF2038844223D0624602F1980EE44ACEF800A0251A022D05DC15F1020FB8BF41
:202570006FF0010500E002254019156800F01F05844245F4F855A6F866504FF0010515609B
:20259000E8D110682E4616601068CEF80050106838460068C0F30420162808DB06E0A7F1AE
:2025B000D0000068C0F30460162800DB203800EB2170401C162805DA10F10A0FB8BF6FF066
:2025D000090000E01520D54E00F01F0040F4F850A3F85900306880083ABFD148C0F800A0A1
:2025F00041F040616246C80E8E0E80F0010000F00100106086F0010000F00100906001981C
:202610000DF0E2F9014618200FF09AFCA7F13806CD4C30683568A4F10408C0F3870105F0C9
:20263000030041EA0021D8F80400C04D446840F2FF32534688B22C21009028464038A047CE
:20265000F06AC0F30D011C200FF07AFCB549706A014000F07C40014314200FF071FC316A5A
:2026700001F47C000904090C014310200FF068FC7D4AB06A1268C0F30351C0F3034452082A
:2026900013D2DBF80020130511EB237103D41029A8BF0F2100E05146120414EB227403D40A
:2026B000102CA8BF0F2400E0544644EA011400F47F4200F0FF01B9F1220F42EA044241EA5A
:2026D000020124BF00F0804001430C200FF038FC954CB9F1220F32BF01202068C0F3007038
:2026F000B9F1220F4FEA400040F0200085F8090126BF2068C0F3407001208D4EB9F1200FFA
:2027100040F0100085F8090138BF514606D33168C80C00F44070C1F38451014328200FF056
:202730000FFCB9F1200F26BF3068C0F301505046B9F1220F4FEA400040F0600085F80C0120
:2027500026BF2068C0F3C0605046B9F1220F4FEAC00040F0800085F8010126BF2068C0F370
:2027700045505046B9F1200F4FEA800040F47C40A5F89C0138BF6F490AD3306801038A159B
:20279000920501F47C1100F00F00114341EA003108200FF0D5FBCC3F4FF480002860664A64
:2027B000B86D40F21E216FF31F40814216D93868030E03F00F0113F00F0FC0F3034018BF5E
:2027D000491E072805D006280EBF0720801C00F00F0041EA0011A2F108000170DDF804C0E0
:2027F000CCF381477F1E02D07F1E31D02CE02068810C29D24FF480412960D2F80210430A63
:20281000C0F3033703F0800321F08F010B4347EA0301C2F80210D2F80130060A66F30303EB
:20283000C2F80130116800F0E70721F0E70147EA01000CE09402224300600C4040100940EF
:20285000AC3F0050156208404FF000402A46106005480068C0F3C0070FB94020A8624FF46B
:202870000070286402E0C046B03F005020684027C0F3C14040F0300085F8C800CCF381504D
:2028900080B3401E08D0FFE7401E23D0022122E0881300500000204301200FF097FF064613
:2028B000042031460DF020FA04200FF08FFF8642FAD12248066826F07F400FF00BFED8F88D
:2028D0001400036807214FF06022300E98474FF480602860032104200DF006FA09E0C04684
:2028F0002C200940042001210DF0FEF914480FF0F1FD203C206800F03F0085F8CB0FD8F876
:202910000030124ED96830680220884710480D4C076001212160BDE8FE8FC0460000094011
:2029300094042A43FCFCFC008C13005040A00C409813005000803F400A600840A83F005090
:20295000BD37860094046042A40100102C20094000600C402DE9F04F0320ADF1440D0FF057
:20297000D1FDC94C0025022004F11C0141F80C5F401E8D60FAD104F14000A84606270146BA
:202990007F1E21F80C8BFBD14FF00809CA4BC949CA4EA0F800901B1D816004F11C07AA4636
:2029B00023F003031A46F11A21621046A3611E46E3615B18834200F2BE81881021F00301E8
:2029D000E82302EB800040F804ACEC3933604046C2F8E810E83222611CF044FC6061B949EB
:2029F0003868DFF8E8B220610A680BF10C06326049687160B248B4494A4610F0A1FA28B99E
:202A1000AF48CE490A68026049684160CC48CD4FC0F8AC70C0F8B450C0F8C450CD4EC0F813
:202A3000C850CD4BC0F8B060CC4AC0F8B830CC4FD0F8AC10C0F8BC20C0F8C07009B140467D
:202A500088471CF087FCC74ECDF82CA041460C2206F128000CF09AF8C34F0222ADF8209075
:202A70004EF66023F762708DADF82220616A33631027099740F01900708508A88847002825
:202A90000CBF0A9F47460120ADF82090616AADF8220008A888479DF824005C4620700A9910
:202AB000616077B1D021397087F80180B87087F8038087F804803946BD600220FD600EF03D
:202AD000BFFEAA49182001221CF082FB7C49E22011F0CEF918201CF063FE60706068B3468D
:202AF000CBF8080009F0F2FAAA4F0BF18400A060DBF808509E4C41466762F520A56010F01E
:202B100073FEF820414610F06FFE9A4D0D200E26687005F10C01AE7005F118000AF08AFD58
:202B3000A860687811F07AF800B1C146A87811F075F808B949F010098F49A86811F0B2FA3C
:202B50008E49C82205F124000EF0AEF98C48B9F1100F686010D1606A70B1C26862B1FF2058
:202B70008DF810004FF6FF77ADF8127004AEADF8147096E803009047824D05F1140005F1CC
:202B900008010AF057FD6860404611F0C1FA4746AE1E814606F8028F02207070384611F094
:202BB0001DFB014668684A46C9B20FF07BF87F1C022FEFDB744905F120004FF4FA720EF043
:202BD00073F9724D05F11000291D0AF033FD2860606A002845D00769DFF8B4916FB1009475
:202BF00049460EA80A68898802600EAE818096E8030001234246B847606A002831D0C26895
:202C100052B149460EA80B68898803600EAF818097E803009047606A18B307690FB3062071
:202C30008DF80800ADF80A000DAEADF80C8002AD009695E8030042460223ADF83420B847F2
:202C5000666ABDF834007769A08057B1BDF8340002AE401CADF8340096E8030002220DAB78
:202C7000B84739A011F0A2F8E820812110F0BCFDE7200A2110F0B8FD606A0626002837D062
:202C90000769002F34D001E0DC1500208DF818600425ADF81A500BA8ADF81C8006AB009025
:202CB00093E8030042462B46B84788B90B98193082461DE045F90100CC2B0020004B0020DB
:202CD000841A0020C8FF0100FC4D0100781A0020606A8DF8186006AFADF81A504469ADF885
:202CF0001C8097E80300CDF830A02A460CABA047CDF82CA050460BF093F9E0200C2110F028
:202D100073FD4F20032110F06FFD5720052110F06BFD4E20042110F067FD5920032110F09B
:202D300063FD10F043FC0BF10200012110F02DFF00F086FDFCE740F804AB3BE6F0120050E8
:202D5000D4070020D914010054492053656E736F7200C04641190100ADD500007D1C0100C6
:202D700059BB000064140020C0270900493F0000881200207C170020251D010061390100D4
:202D9000E13A01001018002031DC0000141A00201C4E0100800800202DE9F04FBF4C0546A6
:202DB000A07AADF1340DC0000FF0B6FFDFF8F092089009F10400006880470B900AA9822088
:202DD00004F0D2FABDF82800002834D14FF000084FF6FF76ADF8288024E0ADF81460BDF8F9
:202DF0002800ADF81660FF210822ADF8100006A811F0A9FAA77A57B143461946089AC800B4
:202E10007F1E01F10101135010448680F6D18DF82480D42004A902F03FFFBDF82800401C5A
:202E3000ADF82800A088BDF828108842D5DC82200AA902F031FFB94F0020A0464FF6FF79E3
:202E5000A2463988ADF8280006E0B44FBDF828003988401CADF82800BDF828008142DCBF01
:202E70008F48816840F34F81AD4800784FF0000B01265C460FE08A49B8F804008968641C18
:202E9000A4B2ACE0BAF80600641CA4B23CE0A448641CA4B20078A04208DC002ED5D1BBF116
:202EB000000F2ED1687F0028CFD02AE0BDF828008DF802406946ADF80000D02004F054FA12
:202ED0000028E4D19DF80C30012B08D19DF80B0028B90DF1030010F0E3FD0028B5D16F7B35
:202EF000002F0CBF052209225E469F42CFD10DF1030005F10E0110F011FA0028C7D04FF042
:202F1000010BB8F806000024A0425CDDBDF82800ADF802406946ADF80000D12004F024FA85
:202F30000028AFD1BDF804008145ABD0ADF8100004A9D42004F018FA00285AD106A8291D3C
:202F5000082210F0EBF900289CD028886F88ADF81400BBF1000FADF8167022D0287B98F854
:202F70000A708DF82400381C08BF00200FD00899024600208B88994509D0BDF828609E4214
:202F900005D0521E01F1080100F10100F2D187422FDD0899AA69C000BDF828700A504018E4
:202FB0008780D42004A902F077FEBBF1000F0AD0287F9DF80610884205D08DF80600694632
:202FD000D12002F069FEB8F80600A0427FF43DAF3349B8F80400DFF84CA189680024A042B5
:202FF00040F38F80ADF81040D42004A904F0BCF918B12B498968192486E006AB184610F060
:203010004FFD38B9291D1846082210F087F900283FF431AF6F882888ADF816702E7BADF8BA
:20303000140098F80A708DF824603B1C08BF00200FD008991A4600208B88994509D0BDF89C
:2030500028609E4205D0521E01F1080100F10100F2D1874203DC124989681A2454E0089AFB
:203070002E1DBBF1000F0CBF0021A969C00011501218BDF8280031469080082206A810F0B5
:203090001BFD9AF83C0330B1DAF88C231AB1BDF8101030469047002606E0C0468C1A002010
:2030B000DC150020761CB6B2B8F80600B04221DDBDF82800ADF802606946ADF80000D12026
:2030D00004F052F9E82803D0BDF804008145E9D1BDF810000023ADF804002F7F8DF807308A
:2030F00004A98DF80670D42002F0D6FDD120694602F0D2FD0C488168B8F80400B0427FF7A5
:20311000BEAEA042A9D000240B98884708980FF0C5FF20460DB0BDE8F08FC046941A0020C4
:20313000971A002008020020DC1500202DE9F04F064692F808B0307D09AF8846ADF1240D8E
:2031500004933528039205D0114606F170000A2210F0B2FCDFF8C8C238F07F0506BF6046F1
:2031700000884FF6FF700590F08A800934BF002008203076F08AC00834BF1020802070769F
:20319000F08A400903D260460E30007800E00020B076F08A41082CBF20240024000928BFFF
:2031B00044F010047568002108F07F08307D06916D1E02280EDB0C2808DC0C2803D1022016
:2031D00044F40854069044F0030404E00D280CBF02200120044396F88C0008B144F00804F9
:2031F000E110220900D328B1DFF8BC9299F8E03313B908B1DF204CE149086ED306F12401CF
:20321000DFF8A8A296F88D50079100EB0A011AF805300A7999183389491DCAB29918A44BCB
:203230001A8808908A42C0F2368100284CD0049A039906F1840008F053FD0799002808609E
:203250003FD0806AB0F1FF3F39D070680023401E8DB196F88E10524600F80119515D491EFB
:20327000C9B241B18A1992F88320491EC9B2002900F80129F6D1079970660968896AB16220
:20329000090E00F8011996F82A1000F8011996F82910089A00F8011996F8281005F00305DD
:2032B00000F8011902F0070141EAC501017071683589091ACAB27060A918318105E0DB2730
:2032D00000E0F3277770E7E00023F08A7370C00828BF44F0100475686D1E336DA3B9B36D3B
:2032F00093B999F8F913012903D13089B0F5EE7F06DA200904D202290AD144F4005401E0BA
:2033100044F48054012002E044F408540220069099F8020001280CD099F83C0348B196F853
:203330006B00042805D1022024F48054069044F4005444EA8834B8F1020FA4B20AD0B8F163
:20335000030F10D1ED1F09F57B71284610F0B9FF6D1E08E0B9F8D203001205F8010999F8AB
:20337000D20305F80109069802280CD0B8F1000F15D0BBF1000F0CD004990598814208D1B3
:2033900044F040040BE0BBF1000F08D1B8F1000F05D00599081205F8010905F8011944EA95
:2033B0008B24BBF1020FA4B209D0BBF1030F0ED10399ED1F284610F084FF6D1E07E003991E
:2033D0000888001205F80109087805F80109BBF1000F05D00498011205F8011905F8010950
:2033F0003878F8B933480178307D0D2814D068B9306D28B999F8BC03411C89F8BC130AE01C
:2034100099F8E103411C89F8E11304E099F8CA03411C89F8CA13014605F8011904E0C04610
:20343000D605002044F48074201205F801092C7070683789401BC1B27560781830812009DB
:2034500026D3B06D00B1306299F83C0310B1307D0D281DD1746A14F1150001D110F025FFB4
:20347000A16A481CA0623289306AB162471B0092D21B019090B20290706A96F88C202B4698
:20349000153008F05BFD00281CBF7070071C07D10020707005E0E5277770F32010F072F953
:2034B000F8B209B0BDE8F08F08020020E04401009A1A0020DC2A00202DE9F04FD54D286A23
:2034D000416EADF11C0D02A888474FF00009D24FCDF80890B8688DF80C90002833D10EF0BC
:2034F000E1FFB8B10EF0DEFF012813D00EF0DAFF05280FD00EF0D6FF0C280BD00EF0D2FFF8
:203510000D2807D00EF0CEFF0B2803D00EF0CAFF0E280BD10EF0C6FF787000280CBF4846B9
:203530000120B870286A00F1200408B910F0BDFE216807F1180088474FF4FA703885B74E38
:20355000FE6206243C63DFF8D882EA6998F8FB434FF0010A4946080100EB41108018867F25
:203570002EB9437F491C9C42C9B2F4D102E0417FA14204D1824202D00EF020FCEA69DFF8DB
:20359000A4B2686A1BC88BE81B0097F90100012805D00D2803D00E2818BF484600D105205A
:2035B0008BF8000098F8291450699F4C50F82100C4F89C0010F04EF8632005A90DF04CFD89
:2035D00098F8FB030EF0DAFD064694F88E006AF3020084F88E000EF037F8042825D00EF05D
:2035F00033F8032811D094F8900040F00F0084F8900094F8970069F3030084F89700B07B5D
:20361000052814BF2420292016E094F8900040F00F0084F89000292384F8943094F8970001
:2036300069F3030084F8970008E094F8900040F00F0084F89000212084F8940094F8950047
:2036500069F3871084F895000DF0FEFF042818D0B37A7BB99DF8140094F89510401E60F35C
:20367000050184F8951094F8960020F03F0040F0180014E09DF8141094F8950061F3050033
:2036900005E094F8950020F03F0040F0020084F8950094F8960020F03F0040F0200084F845
:2036B0009600B189B07BB4F88E200A23401D484390FBF3F161F3CF02A4F88E20B08994F8ED
:2036D00090201923800390FBF3F102F00F00D4F890200F23484390FBF3F161F31C22C4F805
:2036F0009020E86994F89820017F61F3020284F8982094F89810007FC01060F3C30184F853
:20371000981098F9EA030DF05DFAB0F1FF3F05D0010828BF4FF6FF70A4F89A0030897168FF
:203730003368EA69401E414303EB51004FF47A71B0FBF1F0A4F8A00090690078A4F8829055
:20375000C4F8849094F88D3084F8A4006AF3030384F88D3010F0EEFCC8B9B089334A98F8D3
:20377000FB63B1FBF0F0C0B21070B1FBF0F03049022E487006D00DF067FF032807D105220D
:203790005C2001E00222A8202A4B1A700870BB682E6A5BB348460DF04DFDF87898F8FB13AD
:2037B000884212D13A7998F829142E6AB8688A420DD102214A468DE80600366D80344B4654
:2037D00002AA2146B047EC601BE02E6AB8687168884719482B6A80F800A01E681748803481
:2037F0005946224607F11803B04707E0803422461248346807F118035946A047B860686A2C
:20381000A86298F8FB0398F82964F87007B03E71BDE8F08FD01600208C18002077E30000CD
:20383000080200208C2B00208C130020301A0020C4170020B0190020AA1A0020C828002076
:203850002DE9F041C84CC94DDFF824836088ADF1400D4108C0F0838006A802A90CF004FB46
:2038700001286DD1404624300068D8B10769CFB1062009AB8DF83000022600930022ADF805
:2038900032600CAEADF8342096E803000C23B84740B9BDF8240060850A9FE7620B98206355
:2038B00010F094F90226BDF80A10BDF8080084F8246003AAA1830CF057FC011C02D0B6A052
:2038D00010F0EAFC30460CF019F8BDF818009DF81470A5F8400007A985F8427005F1500087
:2038F00010F077FCBDF81A0005F1460603A9A5F84E00304610F06DFCBDF80A00B5F8401002
:20391000A5F8440050200FF063FFB5F84E1053200FF05EFF4A20314610F0AAFA95F84210A7
:20393000E1200FF061FFB5F844104B200FF050FF05F10A00102110F028F90120207008E072
:203950000FF0DCFBE06001200BF0D8FF002010F019FAA01C012110F002F92046408880088C
:203970000DD3E06A0EF0FEFD0FF022F900B2A082E08202F05DF8A01C022110F0F0F86F89BE
:20399000780805D305F10A00012110F0E8F86F89B80805D305F10A00022110F0E0F86F893A
:2039B000780917D38349182042220FAB1BF010FC95F85A0005F10A06032818BF042802D165
:2039D000286E0EF0B7FD0DF09FFE3046102110F0C6F86F89B80907D30BF058F805F10A00B2
:2039F000202110F0BCF86F89F80907D309F072F805F10A00402110F0B2F86F89780A0AD32A
:203A100095F85D0010F0BEF905F10A004FF4807110F0A5F86F89380951D395F85C0005F1E8
:203A30000A0600283FD0401E37D0401E02D0401E31D03FE095F8581047200FF0D5FE95F861
:203A5000591054200FF0D0FEB5F844104B200FF0BFFEB5F8401050200FF0BAFE0A2781238B
:203A700095F842008DF8097002AA8DF80A3052498DF8080001278DF80B7018201BF0A8FBC8
:203A900095F85A00012815D1E87898B13046202110F07BF80EE003200AE0522001210FF0BF
:203AB0008BFE022004E0522001210FF085FE01200BF0BCFE3046082110F051F86F89454610
:203AD00017B1A86810F000FDE988687849081CD3A97802094FF0000601D301290ED04009DA
:203AF0000ED301290CD030A010F060F9A01C012110F04BF8A86810F0E7FC01E00DF068F953
:203B10006E70A81D012110F02AF8608800283FD10A200825294CADF80A004FF0FF37ADF8F9
:203B30000850616A039702A88847002830D10720ADF80850616AADF80A0002A88847049E5D
:203B50000E9628BB1E499DF80E200878904214D19DF80C004A7882420CD089684B6C63B1AE
:203B700000213246984708E0641400203015002088120020304600F097FB0E9840B1ADF8EA
:203B900008500320ADF80A00616A039602A8884710B0BDE8F081C046417574682045727257
:203BB0006F723A20307800C05374617274696E672E2E2E00691001001B420100DC15002093
:203BD000781A00202DE9F843DFF828830F460446F80B80F07481DFF81893B80F80F02D81E2
:203BF000C54DB80880F02281F80A80F00081B80B80F0EE80780B80F0C080380C80F0AF8026
:203C10003809C0F07F81082010F064FA002840F0A180802010F05EFA002840F09B8068468B
:203C300009F054FD012803D10098002800F0928000240125E0B210F023F848B1867A3EB18C
:203C5000857290F9090005FA00F0C0B20EF0E0F9641C032CEED34C46032020756068783069
:203C700010F041FBAB48002601680660AA4950F8082CB146324640F8089C04F1380010F029
:203C90003EFB30460FF06AFA0FF0BEFF0146A268E069891A090BC1F1FF3282422CBF084417
:203CB0004FF0FF30E06194F820601EB12169B0EBC12F1FD90FF0B2FA494600B12946081CDF
:203CD00014D0964840F60901018049464180427B65F303024273027B61F303020273416046
:203CF00010F00EF9418811F4406FFBD084F820504946E1610DF0FEFD89484D464946056058
:203D100002200FF09FF802200EF068F9112008F0FFFA207818B96068403010F0F8FA8148DC
:203D3000007810B90E2008F0F3FA94F8210020B184F8215005200EF051F97B48B4F98C60EB
:203D5000A061B4F98E1025758E4214BF022007200AF05EFC27F008070CF026F8D2E00835FE
:203D7000296839B1C86840880028FBD0C86840880128F7D027F40047EEE70DF0AFFF38B11A
:203D90002046A4696FF4807100224FF00073A04768494C46002204F1380010F0B0FA022033
:203DB000E66820750FF030FFD4F81C21636804F58E719A4214BF0122002226B1801B01EBC4
:203DD0008206030BB360002027F48057E060C3E74046066846B1B06830B13069B6F93410BE
:203DF000B46800222023A04727F400578AE010F080FA4C460546206F064688B1606810B17B
:203E1000783010F070FA306960600FF0FDFEE06046484FF40061A06104F1B40010F07FFA98
:203E3000284610F04DFB27F480676BE005F01EF8286808B927F0020764E010F05AFA054610
:203E500004200EF0C3FCC8B1207CB8B148460830006898B106460FF0D7FEE168801BE06038
:203E7000000B8842E06002D240184008E06040F6C41181422CBFB0F5967FE160284610F047
:203E90001FFB0DF02BFF80B1A56920466FF4807100224FF00073A84725480068002808BF51
:203EB00047F0020701D00BF07FFF2046646900214FF080630A46A04727F0005722E010F04B
:203ED00018FA41460E68CEB1B16A890816D2B56AB16AA943B16210F0F3FAB06880B17DB113
:203EF0003069B6F93410B4682A460023A04707E020220020A82200209822002010F0E0FAA9
:203F100027F4804727B1404639462C3010F007FABDE8F8831410044031020100642B00200A
:203F300000000460BA1A0020D5AE0000D195000090220020399200002DE9F04FC34C0746E2
:203F50006068ADF1140D80470025DFF804830390002F88F8035000F0C6800EF013FD08F5AA
:203F70002A702946402210F0EEF9BA4C04F1080001882C2707FB01F080B20EF0CDFEC8F852
:203F9000CC02002800F05D81E17A20894843410001EBC00188B20EF0BFFE0028C8F8D00221
:203FB00000F04F81E18820894843800080B20EF0B3FE0028C8F8D40200F043812089800098
:203FD00080B20EF0A9FE0028C8F8D80200F03981208980B12A46D8F8CC1289180D75D8F8A3
:203FF000CC1289180D71D8F8CC12401E114402F12C028D81EFD1A188880000EB011080B285
:204010000EF08AFE0028C8F8DC0200F01A814FF6FF7AA946AB4615E0A77A7FB12946D8F896
:20403000DC028019C368CA0042F803B0C0687F1E01F101011044A0F804A0F0D109F1010012
:204050001FFA80F9A088484500F3EA809548FF210822C01D10F077F99248FF21082288F894
:20407000B712103010F06FF9032688F8C8622789A8F8CAA2C7B14FF0010C04232A46D8F805
:20409000D802910001F800C0D8F8D80240184370D8F8D80240188670D8F8D8027F1E02F105
:2040B00001020844C370EAD17E480121042305220227343000F8041F437082707F1EC17062
:2040D000F8D1784880F83C60A08848B12946D8F8DC22401E0A4401F11401A2F802A0F6D11F
:2040F000022088F8AC0298F83C0318B1D8F8400300B180470BF062FD98F9EA030FF07BFEED
:204110000EF056FC0FF0F8FD0FF076FC0FF068FC514E072456F8040B00B18047641EF9D18C
:204130000FF0A6FC444604F14C00016809B10DF0A3F84A48006884F8565020B10AF024FA43
:204150000028009068D146480078012802D0284601F066F8434804F178060570A06F0028F6
:2041700052D1361DE06F002846D1A5673E48C4F88801E5673D4FC4F88C7184F882503C4EEB
:20419000C4F8906184F883503A4BC4F89431A570394AC4F8982184F884503849C4F89C11C6
:2041B0003B49C4F8C010364FC4F8A071394FC4F8C470344EC4F8A461374E334BC4F8C860EB
:2041D0002249C4F8A831354B304AC4F8CC308968C4F8AC21324A0398C4F8D020884704F21B
:2041F000D131522003F08CFE94F8EB030CF026FC0BF0E4FC284626E030460DF017FE0290BD
:2042100002A80DF039F8ADE730460DF00FFE019001A80DF031F8A1E768460DF02DF88DE776
:20423000A37AD8F8DC724846860006EB0016D8000EF072FDF119F319C860D86800287FF4BA
:20425000EBAE10F032F805B0BDE8F08FDC150020080200208C1A002010030020BC2B002077
:20427000A91A0020C62B0020DFEE0000C1420100D92C0100A578000051B200006D320100A3
:2042900059210100F596000079860000052601009BDB0000358D000021F40000A5D8000013
:2042B00099FF0000B0040020B0B50446BA480768ADF1480D002F00F0A8812078401E1128F8
:2042D00000F2A381DFE810F06A015201380123011B010401F100E300C300B2008D005D0082
:2042F00053004200A1012A001C001200F86B002800F08B816846214609F01EFFF96B82E1A6
:20431000386C002800F081816846002101220AF03DFC60788DF80000396C74E1F86A0028C9
:2043300000F07381684600210E220AF02FFCA11C68460FF019FBA57BA1890022ADF80A10BC
:2043500005B101228DF80C20F96A5DE1B86B002800F05B816846002102220AF017FCA578EE
:204370008DF8015060788DF80000B96B4BE1786B002800F04A816846214609F0DDFE796B17
:2043900041E1386B08B36846002114220AF0FEFBA5788DF80150A3680193A289ADF808200B
:2043B000A17B8DF80A1060788DF80000E57B8DF80B50237C8DF80C3094F911208DF80D20C5
:2043D00061690491396B684688476068002800F01C810146F2200870002048700DF030FA00
:2043F00013E1B86A002800F010816846002124220AF0CCFB6078A11C8DF800000DF10200FE
:204410000FF0B2FA04F10C0103A80FF0ADFA257EE08A04F119018DF818500B22ADF816009D
:204430000DF1190009F06CF8B96AECE0786A002800F0EB806846002102220AF0A7FBA578F8
:204450008DF8015060788DF80000796ADBE0386A002800F0DA806846002112220AF096FBD9
:20447000658862796078ADF8025023798DF80520E11D8DF80000A5798DF804300B220DF1CA
:2044900007008DF8065009F03BF8396ABBE0F869002800F0BA806846002101220AF076FBB0
:2044B00060788DF80000F969ADE0B86910B120460CF0D2F9A07820B9A069002800F0A5805A
:2044D00003E0A069002800F0A0800EF0F7FD9CE07869002800F099806846002113220AF02A
:2044F00055FB6D46A01C0168406829600B22686004F10A0102A809F003F8796983E03869DA
:20451000002800F08280204608F08EFA7DE0F86800287AD0684600210E220AF037FB607859
:20453000A11C8DF800000DF102000FF01DFAA089ADF80C00F96866E0B868002865D0684667
:20455000002114220AF022FBA01C01686D46296040686860A07A0B2204F10B018DF8080037
:204570000DF1090008F0CCFFB9684CE0786800284BD06846002110220AF008FB607865882E
:20459000211D8DF800000B22ADF8025001A808F0B7FF796837E0C046801A00203868A0B322
:2045B0006846002119220AF0F1FAA01C01686D46296040686860A07A410824BF01218DF83E
:2045D0000810810824BF01218DF80910C10824BF01218DF80A10010924BF01218DF80B106B
:2045F000C10924BF01218DF80C1030F07F001CBF01208DF80D000B220DF10E0004F10B01D4
:2046100008F07EFF39686846884712B0B0BD70472DE9F04F0D46A94C0168616241688068B7
:204630006160ADF12C0DA06028460DF0C7FB4FF008094FF0010BADF8089002A8ADF80AB0C4
:20465000616A089088479E4E9DF80C1071700499716108B10EF02CFF28688047A046D8F83C
:204670000400804709904FF40057ADF808901E20D8F82410ADF80A000898039788470DF0F8
:20469000A1FA904C206C40688047206CC16868468847206C83686A46002001469847E063B6
:2046B00008B90EF005FF0FF0ABF8884FC4F8D470884AC4F8DC208849C4F8E010824830614C
:2046D0000025A4F85450824BC4F8D830834FC4F8E47004F5C472C4F8642104F1C001C4F810
:2046F000681104F1D400C4F86C017D4BC4F8E8300EF048F904F51C70C4F8700104F198071E
:20471000C4F874717949A161774AC4F80821754BC4F8B030B56003F16E00C4F8B400744F78
:20473000E761754981F800B0724A1560B4F854304D8043F00100A4F8540002200EF0ECFAE2
:20475000FF210222F0620FF0FEFDF01CFF2102220FF0F9FD02200EF0DFFA684F386008B96B
:204770000EF0A6FE3868294602220FF0ECFD07A806A90DF043FAF06A9DF81C10421C0170EA
:204790009DF81C00107025709DF81C00B0700EF0A5FCB061089FD8F82410ADF808901420A6
:2047B000ADF80A00384688471523ADF808900398ADF80A30D8F82410F061384688470398C1
:2047D000504FDFF84CA1504B3D70801E30624C4E1D700AF10E023570108875700E303561C6
:2047F00080B20EF02BFD074677610FB90FF05DFD02978DF80C509DF80D00444965F3010009
:204810008DF80D009DF80D00534665F383008DF80D00D8899DF80D20088065F307128DF8AD
:204830000D20ADF80E00706902A94A460FF044F9376275620CF0C8FB364E3078012802D0E2
:20485000284600F0EDFC34480570344F3D703078012802D0284600F0E3FCD8F80810099877
:204870008847FEF729FE0EF009FD94F8EB030CF087FB584600F0D4FC0AF0C1F9284805704A
:204890003078012802D0284600F0CAFC0BF096F91820244FADF80890234EADF80A00D8F8DF
:2048B0002410039708980496884708B10FF0FDFC00F022FE0BB0BDE8F08FC046DC1500205A
:2048D000C018002008020020050D0100B171000059000100673401003DAB0000EDB80000EE
:2048F00001ED00007046010051AA000001420100613F0100A82B00204C1B0020BC2B0020A2
:20491000D82A0020C72B0020C92B00204C1400208C1A0020A91A0020CB2B0020C22B0020F3
:20493000C82B00206BF20000441A0020BA482DE9F84F0025B94CB749056094F8E2000028F5
:2049500000F06381012800F02F81B54E02283CD0032840F05A8151F8250CD4F8B810002904
:20497000A0F5C060C4F8D400B8BF49420028B8BF4042814226DA4FF08057D7F8A4014568C5
:20499000B4F8BC0030214FF47F42082300903046A847D7F8A4014568B4F8C00004214FF435
:2049B000F802122300903046A847D7F8A401B4F8D070456820214FF440620A233046009756
:2049D000A847012584F8D8501AE151F8258C0FF057FB2F4600B901273946924F386800284A
:2049F000FCD0B146012609F10409D9F82CA03E6009B10FF04BFBCAF30720C4F8BC000FF021
:204A10003FFBAA4600B9B2463B68002BFCD0D9F800B0BAF1000F3E6001D00FF037FBCBF378
:204A30008440C4F8C0000FF02BFBAA4600B9B2463B68002BFCD0D9F81C90BAF1000F3E60F1
:204A500001D00FF023FBC9F38120C4F8D000B8F5C061C4F8B81000F09C8094F8D80068B98C
:204A7000C4F8D410D4F8C000C4F8C800D4F8BC70C4F8C470D4F8D030C4F8CC30D4F8D4006A
:204A9000D4F8BC30002854BF02226FF0010204F1C8010F6800EB40008018421000EB927254
:204AB00007EBA2000860D4F8C810C4F8C43000291CDD1E293CDDD4F8CC0030B93429B4BFC3
:204AD00015391E21C4F8C81025E02A29BABFD4F8C8000B381E20C4F8C800D4F8C4003F2844
:204AF000B4BF401C3F20C4F8C4001FE0D4F8CC00032812D011F10B0FC6BFD4F8C8000B30E4
:204B1000301CC4F8C800D4F8C4000028C4BF401E051CC4F8C450032508E011F1150FC6BF70
:204B3000D4F8C8001530301CC4F8C800C4F8CC504FF08057D7F8A401B4F8C43030214FF426
:204B50007F424568364800930823A847D7F8A40104214FF400321123456831480096A847BF
:204B7000B4F8C860D7F8A40104214FF4F802122345682B480096A847D7F8A40120214FF4A9
:204B900040620A23B4F8CC60456825480096A84701E084F8D85040F2FF50404502D8801CBE
:204BB00040452DD208202EE051F8251C1E4F4BF2F5204843060A3868C0F3814001280AD12F
:204BD0000DF0F6FF0CF078FE0FF066FA3111C010484306EBE03694F8E50030B91348006841
:204BF00020F07F403618760801E084F8E5501048310C0660012741600E4D8760287808B911
:204C10000B2000E0052084F8E40003F0B1F8BDE8F88FC0462D400C402C500C407411002000
:204C300000A00C4000800C40B43F0050102009403C600C407D4D01002DE9F04F09AFADF192
:204C50003C0D08900A92388809911E46ADF81800101C08BF002000F06C81017800274FF07D
:204C7000010B401C4FF0FF39B846DA460A9058E1252940F04D810178401C0A902D2918BF6C
:204C9000ADF8068004D10178ADF806B0401C0A9030291CBF4246434604D10178401C5A46AB
:204CB0005B460A902A29CDF800804D4617D1049330680A9BCDF80890C01C20F00300001D59
:204CD000306050F8044C1978002C009403F101000A9018D5ADF806A06442009413E04446CD
:204CF0000AE0600000EBC4004018A0F130040A9801780094401C0A90302901DB3A29F0DB86
:204D1000CDF8089004932E2929D10178401C2A290A9011D13168CDF80880C91C21F00301BA
:204D3000091D316051F8045C002D48BF454601782B46401C0A9011E0454643460AE068000D
:204D500000EBC5004018A0F130050A9801782B46401C0A90302901DB3A29F0DB02930AB140
:204D7000224604926C2904D04C2918BFADF8048004D10178ADF804A0401C0A900BA8CDF842
:204D90000C800FAB07906429059379D0692977D0BDF818C0752965D0782961D06F295DD0E8
:204DB000702946D0632936D073291AD00A98401E0A900998012812D961490C68B5F1FF3FCB
:204DD00003D0A84288BF6D1C00D8099D029508A80AA932466B46A0473F18039865E04546EC
:204DF00017E03068C01C20F00300001D306050F8040CBCF1010F014608B94FA0014607918D
:204E10000EF0B6FF0390B5F1FF3F4FD0A8424DD9039528464AE03068C01C20F00300001D55
:204E3000306010F8040C8DF82C005D46039558463CE0082035680490E81C20F00300001D87
:204E5000306050F8041C082210230FA80AF006FA401E079040210170079823E0082302E0C6
:204E7000102300E00A233068C01C20F00300001D306050F8041CAA42BCBF2A1C04920DE016
:204E90003068C01C20F00300001D306050F8041CAA42BCBF2A1C04926FF009030FA80AF007
:204EB000DDF907900599081A0390009C241ABDF8065000945DB906E008A8202109AA0DF00C
:204ED00026FE7F1C009C641E0094F5D50398401EB0F1FF3F03900FD1BDF8060001281CD16B
:204EF0000098401E009018D408A8202109AA0DF00EFE00987F1CF4E70798017809AA08A8FA
:204F10000DF005FE0798401C079003987F1CDEE708A809AA0DF0FBFD7F1C0A980178401C8A
:204F30000A9000297FF4A4AE089808B14146017038460FB0BDE8F08F286E756C6C2900C05B
:204F50004C4E01002DE9F04FA64D824605F120000068416EADF12C0D03A88847AF4C201DE0
:204F70000768002F00F036814FF0000B388979689B4DCDF81CB0C6000978287810368909B8
:204F900006D340F6485191FBF0F1761806F5AF763D7D70438600352D0CBF5F464FF4FA57E5
:204FB0000DF12601E8200CF057F89DF82600032808BF44F620676068007DF619352803D176
:204FD000D4F8A003804746430220894F8DF8200007F108000068069606A905F0E3FFD846BB
:204FF0008048824D804980F80080012008702978012901D000F014F96068058946680EF015
:205010004DF93088000935D394F83C0390B361684B6A4F6E986AB0F1FF3F25D027B3421C1A
:205030009A628862030E07F80139606890F82A0007F80109606890F8290007F80109606863
:2050500090F8280038706268106A00950190801B281A80B20290916A506A92F88C20334679
:20507000153006F06BFF00E0DB20D4F88073002840F0A6802946304609F0FEF9642009A958
:205090000BF0EAFF5B4894F83C13007831B994F8EB0307F07DF8012805D08DE007F078F884
:2050B000012840F08980DFF85091A81C87B20DF1250109F170000780E9200BF0CDFF9DF84F
:2050D0002500012805D13D46C5F3022040F0180005E02D1DADB2C5F3022040F0080006F859
:2050F000010D06F8015D4D469DF82400A5F862800028EE670CBF41484148CDF80CB002236B
:205110008DF8103005F12806A6F8028005F16009C5F8B8003B4FC9F8180095F8350020F06D
:205130000F0040F0030085F8350078688047DFF8D8800A90BAF1010F1DD0BAF1040F1AD0AB
:20515000BAF1000F14D0BAF1050F0ED0BAF1030F08D194F8FB030DF011F8C07B022818BFA2
:205170004E460AE005F1600607E0DFF8A08004E005F1440601E005F128061A48006A1C4B0B
:20519000046D594602208DE80300986803AA31464346A0471E490880B96800280AD41D4A44
:2051B00092F900000F4F6035401C10700A98FD60884711E00A9888471A2009F06DFB0BE0CF
:2051D000002F08BFE420F8D0134880F80080E420B84701E00FF069F80BB0BDE8F08FC04681
:2051F000301A0020D01600209F1A0020A91A00208C180020C71700208C1300204E9055556A
:205210000E7A5555DC150020958A0000A9B50000F0180020A61A0020CB2B00200802002076
:205230002DE9F04F9F4C06466068ADF11C0D8047A44D012E069000F0DA800EF001FC002859
:2052500000F0D08098480078A0B99848007888B99748007870B99748007858B99648007876
:2052700040B99648007828B995480078002808BF012000D00020296A002801F13C0100F0BF
:20529000B180914E0868347880477168A300401AB0FBF3F7F168B0688D4E4FF00008C24605
:2052B000AB46524689464F4572EB0A0201DA884207D80246434651469742994141DA114678
:2052D00000E043460A46D21B73EB0803104619462246E3170EF008FC272507464FF47A72CE
:2052F00000238846ADF80A500820ADF80800384609F07CFF6B49496A039002A888470498D8
:2053100053464FF0000100F6FC02BF1A78EB0308784271EB080112DA6C480268414638463B
:2053300009F064FF884607464FF00001784271EB080104DA38460CF067F8002000E00120AF
:205350003070307800284DD10027384609F00CFD00B10127B246384600284FF000073FD13B
:205370005C4D287800283BD1DBF820005A4C436CA068022102AA98479DF8080080B3DFF8FB
:205390005C81DBF82020A06898F900103E4611F1020F18BF01264FF0010936B1926B98F911
:2053B00000109047DBF82020A0684D4E96F9001011F1020F03D0926B96F9001090476FF0E9
:2053D0000100307088F8000085F8009038460EF0C7FDDBF82000C169A06888478BF8017067
:2053F0008AF800702F4906988968884757E0012009F0BAFC2146069889688847354CDFF8B1
:20541000F0A02078012838D101200EF0A9FD0DF04FFD58BB2348406880470026022783460F
:20543000DFF8C090286AA9F80260416E277002A8884702968DF80C70286A2E4A2A4BD0F801
:2054500050C0B0468DE880011068494602AAE04714498968002819D4244A4F4692F9000075
:20547000EF60401C10705846884706E02078012803D1002020700EF0EFFA0DF019FD70B936
:205490002078022804D15046007808B10EF00DFF50460078012802D020780228FCD007B046
:2054B000BDE8F08FDC150020C72B0020C92B0020CB2B0020C82B00209E1A00209F1A0020A7
:2054D000A01A0020D0160020301A0020DC180020CA2B0020AA1A00208C1800209C1A0020CB
:2054F0009D1A00208C130020210C0100A61A0020A91A0020941800202DE9F04FAA4C04F109
:2055100028000068ADF11C0D0BF05EFF08B10DF0C1FFA048DFF878B2DFF89082DFF87CA28F
:2055300000689F4D05900DF00BFC0DF0D7FDE769A669B7F57A7F13D0801B4FF47A720023C9
:20555000A7FB000108F0D6FA81464FF47A7200230EF0CAFA3A46002308F0CCFA301801E06B
:20557000A0EB0609A061DBF8000020F00200CBF8000068688047DAF80010DAF804204E46D5
:205590008919B1F57A7F0DD34FF47A73B1FBF3F3D218CAF804204FF47A731F46B1FBF7F21E
:2055B0005A43891ACAF80010A9688847686800968047D8F804108919C8F80410A968884782
:2055D000D8F8000000285AD007464FF00009686880470490BDF80200002690B99DF801001D
:2055F00078B99DF800003979884204DD0098796888420AD20BE09DF800103879401A387115
:2056100008E000987968884201D3314601E07968091A7960B88878B9FB8853B9FB6843B1EF
:205630003B8933B1B87A194607F098FCF8687860B88808B9FB880BB13B896BB9B9F1000F7D
:2056500004BF3868C8F8000003D03868C9F8000038683E46074601E0B9463F68A96804983E
:20567000884756B1B3882BB9F3881BB9B07A318907F074FC30460DF011FD002FA7D1DBF890
:20569000000040F00200CBF80000E06828B3804723E016F8060C2169A6F10C07032819D0B0
:2056B000E16A9DF806000978884210D116F8080C0CF0D0FFB979012903D0022908BFB0709A
:2056D00000E03070002031460AF0EEFC05E00DF0E1FE02E009B13046884708200727ADF822
:2056F0000000696AADF8027068468847029E0028CFD0294800680088C8B1686880472649EC
:20571000096800220E880A80A9688847059A00203146207090470646FF20207068688047B7
:205730001D4909680A8816430E80A96888470DF007FB0746B7F1FF3F1CD0686807B9194F13
:20575000216AB94238BF0F1C80471C230646626AADF802300820ADF80000696A01926846BB
:205770008847A16A3846491CA1620CF087F8A9683046884708200A27ADF800004FF0FF3616
:20579000ADF80270696A019668468847CBE6C04610E000E0284E0100BC2B0020C41A0020F8
:2057B000DC1500208EC2F528C0180020A42B00202DE9FE4F0546287D012807D195F917007B
:2057D0000BF000FAB0F1FF3F00F016819548EF7B017895481FB990F883208A4208DB012FDF
:2057F00003D190F882208A4202DBF120BDE8FE8F80462E6A95F83500B5F8289095F83470F9
:20581000AC8B4FF0000A5FEA060B029017D098F83C33002B2FD0D8F8541300292BD006F0AB
:20583000FF008847D8F8541306B20BF47F008847361830B2001D00B2C83086B200E0C82651
:205850000CB1241DA4B298F8E003012809D147B1764802993F1897F804A0405C8019401D01
:2058700086B209EB040080195044801C80B20DF079FB071C02D11A20BDE8FE8F09EB0A001C
:2058900033193881002C03EB070078600EBF0020B819801C00217822C7F8A40007F10C007E
:2058B0000EF051FD09EB0600FF2110220019A7F84C0007F13C000EF046FD07F12C000F2173
:2058D00010220EF040FD00243C707C707868696A2A8D0EF0F1F807F1840005F12C010B2272
:2058F0000EF0EAF807F1900029460DF031FF6889A7F89A00287B87F89C00687B05F10E06BF
:2059100087F89D00326869460A60706848609DF800102046012908BF01209DF8011001293B
:2059300008BF40F004009DF80210012908BF40F008009DF80310012908BF40F010009DF81E
:205950000410012908BF40F020009DF80510012908BF40F040009DF80610012908BF40F00B
:2059700080009DF80710012908BF40F48070A7F89E00A87D87F8A000E87D87F8A10095F843
:20599000380087F86C00AA8BA7F8A82022B1D7F8A400A9690EF090F8A87F87F8AA00286A78
:2059B000C7F8AC00B7F8A800C0B1D7F8A400A8B17868401E7860F82101707868401E786022
:2059D0000470B7F8A810B7F8A8607868401A786038898019801C38817868B865B7F89E001A
:2059F000410A16D395F83710052905DB00F0040100F00100084302D0E820BDE8FE8F08F14B
:205A10008806304608F07CFD95F8371030460DF075FC98F8000039460AF046FB2046BDE8F4
:205A3000FE8FC0468C1A002008020020E0440100F0B500215022ADF15C0D02A809F0A6F82E
:205A5000F22016A90EF00CFA8F4DBDF8580016A9A5F87000F3200EF003FABDF858000DF193
:205A70000901A5F87200E2200EF0EAF9688DADF81200410806D305F11401096805A80160C2
:205A9000BDF81200810805D3291D098806A80180BDF81200C10807D305F1180109680DF1E0
:205AB0001A000160BDF81200010908D30DF11E0005F15401302207F023FDBDF812004009CF
:205AD00003D3286B1590EF6A14977048007800280CBF01210021012008F01EFFBDF8120041
:205AF00041082CBF0F240B24810824BFA41CA4B2C10824BF241DA4B2010924BF3034A4B294
:205B1000400924BF0834A4B220460DF029F8071C00F0B78005260DF1090100F8016B0A68E0
:205B3000026049684160BDF8121008300EF0D8FABDF81210844648080BD3BDF81410604674
:205B50000EF0CEFABDF816100EF0CAFABDF812108446880807D3BDF8181060460EF0C0FA8C
:205B7000BDF812108446C8080BD3BDF81A1060460EF0B6FABDF81C100EF0B2FA8446BDF889
:205B90001210434A9388080961D3BDF81E1060460EF0A6FABDF820100EF0A2FABDF8221059
:205BB0000EF09EFABDF824100EF09AFABDF826100EF096FABDF828100EF092FABDF82A10E5
:205BD0000EF08EFABDF82C100EF08AFABDF82E100EF086FABDF830100EF082FABDF83210E5
:205BF0000EF07EFABDF834100EF07AFABDF836100EF076FABDF838100EF072FABDF83A10E5
:205C10000EF06EFABDF83C100EF06AFA19460EF067FA11780EF064FABDF842100EF060FAA9
:205C3000BDF844100EF05CFABDF846100EF058FABDF848100EF054FABDF84A100EF050FAEC
:205C5000BDF84C100EF04CFABDF812108446480906D3149960460BF097FF15990BF094FFF4
:205C700005F11C01224630463B4603F011FC0820ADF80260074D01972968ADF800006846A3
:205C9000884717B0F0BDC046641400201218002088120020001600202DE9F0410D46904C63
:205CB000DFF84CC2DFF84482A188D128074613DCDFF840E2D12800F0A280713800F0E280F5
:205CD000401E00F0DB80401E00F0D280113810D04C3800F0AF8007E0D2387AD0401E61D0D5
:205CF000401E34D0401E2CD038460EF08DF8FF2802D1F420BDE8F0817A4C04EBC0042179A0
:205D100009B9E08860B1E088884208BFFB2000F0E5802A78914200F395809042C0F29280BC
:205D3000714E706880472378628807464046A0F13801581829460DF0BFFEB16838468847D4
:205D5000CBE0297802297DDA40466C1C6EE02888814277DD6746AA88D7F8DC32810086007F
:205D700001EB001106EB0016D7F8DC025A52E988D7F8DC3280190822418005F10801981934
:205D9000001D0DF099FED7F8DC02A27A29698019C068D2000DF090FE297DD7F8DC028019DD
:205DB00001749AE02E882189304681424ADD6746D7F8CC022C24A91C102204FB0600153049
:205DD0000DF07AFE6969D7F8CC0204FB0600816283E029882289A8788A4233DD022831DAF7
:205DF000DCF8CC322C22471C00EB410602FB01331F75DCF8D812022201EB460035E02A883E
:205E10002089698890421DDDE3888B421ADD704600682C2404FB02008489A142A4BF4C1CB3
:205E30008481DCF8D40202FB03112C1D00EB810004221BE029882289A8788A4202DDE27A39
:205E5000824202DCE820BDE8F081DCF8CC422C23471C01FB020603FB01442771DCF8D01249
:205E70000A22700000EBC6004018EC1C254631E0002D32D0404608222C46F7E76DB37046E4
:205E9000103026E025BB27893FB3E588E47A00231A46DCF8CC0202FB04F6710001EBC6011F
:205EB000DCF8D0628919C150DCF8D41202FB05F601EB8601DCF8D8627F1E184403F12C03CA
:205ED000816006EB820102F101020161E1D104E07046042229460DF0EFFD0020BDE8F08105
:205EF0008C1A002018460100DC150020E804002008020020D40400202DE9F043071CADF124
:205F1000240D00F01381F86B002800F00F81B7F84020002A00F00A81007817F130014FF00D
:205F3000000603D097F83810052902D0002E00F0FD80DFF80482401E69D0801E55D07F4C84
:205F5000C01E3DD0001F40F0F1807A4DA878002800F0EC8068463146042208F017FEB7F814
:205F700040002A78032840F0E180F86B401C0EF0BDF8434603F17C073988012A01F1010121
:205F9000398009D0D988421A022A05DBB3F87E108918491EA3F87E10D880E7782E7040088F
:205FB00008D2012F00F0C2800121E170304608F0B3FCBBE0002F00F0B980E6703146F5E769
:205FD000012A40F0B3800725E0788DF81C5000280CBF0121311C3046E17008F09DFCE0789C
:205FF00002228DF81D0028460CE0012A40F09E804346B3F85C000122401CA3F85C000420CE
:206010008DF81C00394607AB03F042FA8EE0684631460C2208F0BAFDB7F840000B285ED1AE
:20603000FC6B14F8010BC14689F8280020460EF05DF8A41C034620460DF09CFD0546201DDB
:206050000DF098FD8046387A4C4689F82400022806D0396804F11C0001607A68426001E077
:206070003888A08303F00100190928BF40F00800590928BF40F010006085834218BF0226C6
:20609000B5F57A7FADF8020016D32D48A84213D3E5620DF091FD81460DF08EFD00EB09293A
:2060B0000DF08AFD00EB0920B0FBF5F16943401A0A300CF057FA00E00226E06AB8F57A7F22
:2060D000019008D342F21070404504D3C4F830800DF07CFD00E00226206B029001E04446C2
:2060F000012602258DF8016068468DF800500AF0B7FE03AE0DF10D009DF8011035700DF026
:20611000EFFFBDF802100DF0EBFF01990BF03CFD02990BF039FD39460D222846334603F0B1
:20613000B7F9B4F86200401CA4F8620009B0BDE8F083C046301500206414002088120020A9
:20615000407E05002DE9F84F07468848DFF8108235380068800880F0F3800CF029FD874957
:2061700008310B6800251C17641C990D0AD2C0F13E0110F10A0F4FEAE101D8BF08218C4256
:20619000B8BF0C1CDFF8DCE1990E10D2590E0ED37246143A1168C1F304211629A8BF203994
:2061B0001268C2F30462162AA8BF203A0DE0694AD2F87C11C1F304611629A8BF20391268B0
:2061D000C2F30442162AA8BF203A09199346162905DA11F10A0FB8BF6FF0090100E0152189
:2061F0005D4C5E4E01F01F0242F4F8522280326812F0030F18BF0125D20828BF45F002055E
:206210000FB145F00405424692F90740041B052C04DA9479AC4208BF918870D00F28A0F105
:206230000F0A2BDB0AEB0014A4F1F00A4FEA2A29B9F1070F88BF4FF007094E46062E88BFA6
:2062500006265EF82670042404EB8604764634594FEA9508E41B04F0FF06EF0824BFC4F3CD
:2062700007273E444FEA550CAF0824BFC4F307473E446F0828BF06EB146605E000264FEA96
:2062900095084FEA550CB1465EF829E05FEA58070EF0FF0424BFCEF307273C445FEA5C07BA
:2062B00024BFCEF307473C446F0828BF04EB1E64B6B2ABEB0101AAEB09277E43002906F1E7
:2062D000800604EB1624D8BF012103F0FF0334264E43B1B259434FF6FF73B1FBF4F18B4252
:2062F00038BF191C802889B2918005DA10F1800FB8BF6FF07F0000E07F20D07195711A4882
:2063100000681F2910604FF0000008D340F2FF128A4206D24908401C8A42FBD301E01F21E4
:206330009180134F114E0F39090940EAC10047EA0001C6F8FB1F0025C6F8FF5FBDE8F88FBF
:206350000C490D4F424608200F60921D1070BDE8F88FC0463C1100506E62084024220840B9
:20637000AC2B00209C130050082009403500094000E7A48030100940FDFDA400AC3F0050BB
:2063900001282DE9FE4F40F0EE80DFF810B2DBF8DC00012840F0E4800220CBF8DC000CF001
:2063B000EDFE01200BF052FF5FEA000805D00120CBF8DC000CF0F2FED7E00DF0ACFF6C498F
:2063D00002900020086001200CF000FA012818BF002003D1002009F05BFB012065490090BA
:2063F0000020654F0860386811200DF067FE00280CBF0024012410200DF060FE08B144F06A
:2064100002040F200DF05AFE08B144F004040B200DF054FE30B1624814300068574E016B2B
:20643000308888470A200DF049FE002600B101264FF0805A0AF5DC75301C04D02868504EA2
:20645000016B308888474F48012606602868816944F0200088474C4806600DF029FE00F06A
:2064700001010191400814D248480DF0DFFD8146B9F1040FF8D0B9F1010F05D1DAF8D8015A
:2064900042684248032190474149086820F0030008600020FFF756FE2B683868986B8047E1
:2064B000019801280DD0B9F1010F05D1DAF8D80142683648314690473549086840F003005B
:2064D00008602C48066028684169204688470B200DF0F4FD20B12868284BC16A1888884774
:2064F0000A200DF0EBFD20B12868254BC16A188888472448032206602349CBF8DC200023CD
:206510000B602868416B204688470128F9D1386804200BF09BFE044615481E490660386830
:2065300008688009FCD30098012802D1304609F0AFFA0DF0ABFD08200BF088FE07460298A2
:20655000CBF8DC600DF0B8FF1348008809F002F80CF024FE57EA040018BF4FF0FF3804E00E
:206570006FF0040801E06FF001084046BDE8FE8F0C400940000222432C200940EA4B0100D8
:20659000E64B01002820086080010443004003402422084014100940784D01007411002058
:2065B000A40100102DE9F043044694F830900F46984615468B20ADF1340D0DF10A0100F026
:2065D000D3FE8A20694600F0CFFE94F8250000283FD1B9F1000F19D1BDF80A104FF6FE70B6
:2065F000884205DCBDF80A10884230D1694615E0B4F844009DF80A608DF80E0000128DF889
:206610000F00BDF80A008DF810601CE0B9F1020F0AD0B9F1030F1AD104F128010DF10E0045
:206630000DF04FFE092612E0207CC00934BFB4F84200B4F844008DF80E0000128DF80F0070
:20665000208D8DF81000001205268DF81100002016E002280CBF05260926012818BF04F1BB
:206670001C0106D189200DF11A0100F07DFE0DF11A0132460DF10E000DF01EFA94F8260085
:206690000DEB060148733A460DF10E00314608F0E3FB002840F09380B9F1000F19D1BDF894
:2066B0000A104FF6FE70884205DCBDF80A10884230D1694615E0B4F844009DF80A608DF8A0
:2066D000220000128DF82300BDF80A008DF824601CE0B9F1020F0AD0B9F1030F1AD104F1D9
:2066F00028010DF122000DF0ECFD082012E0207CC00934BFB4F84200B4F844008DF8220064
:2067100000128DF82300208D8DF8240000128DF8250004203E68814603A9822000F024FEAC
:20673000BDF80C10B0898142D8BFBDF80C00002845D007460024722029460CF025FAB06842
:20675000BDF80C100019C8F800000088814232DD2B68810001EB0011581828600146D8F805
:2067700000008278012A22D0C07840BBB9F1040F07D0091D0DF122000CF0CEFF012818D00B
:2067900019E008884B888DF82A0004220DF122018DF82C3000128DF82B0018128DF82D0018
:2067B0000DF12A000CF0BAFD012802D003E0C07828B9002004E07F1E04F10404BBD1F320BA
:2067D0000DB0BDE8F08370472DE9FE4F0CAF9946934604467D680291294603F015F8061CF4
:2067F00000F0EC803888F082764F347597F83C0318B1012C04BF1520307506F18400294642
:206810000B220DF059F9012C04D00D2C1CBF7068401C00D170683062002597F83C033565DB
:206830000028B5654ED0052C18BF012C45D14FF0040A86F86BA0F08A86F86950C00934BF5A
:2068500097F8CD0397F8F60359460A2286F86A0006F170000DF030F99BF8080003282CD13E
