:20000000004B0020BD550100FDC90110FDC90110FDC90110FDC90110FDC90110FDC9011058
:1C002000FDC90110FDC90110FDC90110FDC90110FDC90110FDC901103BCA0110A4
:20003C00000105090004081000040810020402010101010902000120181A18182C34041E41
:20005C00000C0E020B040B0A070800110F00A6AAACA4A9A9A399B19ABCB6A8313117191AD6
:20007C0021241B1D1F31313331313118191A22311C1E20313134310000000500BD00B70068
:20009C00B100BC001C00300038000800380102000000000002000000020000000A00000002
:2000BC0002000000020001000000000000000000000000000000000000000000000000001F
:2000DC00000000000E000000C003000080070000000F0000001E0000003C000000780000CB
:2000FC0000F0000000E0010000C003000080070000000F0000001E0000003C0000007800E8
:20011C000000F0000000F00038C40D00C80000008100000032000F0100C50D0090010000EC
:20013C004000000096000501952B0D00C80000002200000032000F020000000000000000CD
:20015C0000000000000000000000000000000000000000000000000000000200000002007F
:20017C00020002000000320004000100000002000000000000000000050001000000070019
:20019C00060001000000030007000800000000000F0001000100FF00100008000000000002
:2001BC0018000800000000002200020000000000010171010101010111010101310101011F
:2001DC00010180010001100161013B001400630173017201620143010001130106013D0171
:2001FC00350004011201000100010001000104010401330133013C01440132013600000134
:20021C00000165010001350081010001050182018301000166010001000108010901030213
:20023C007102300160021102700201020202020280020002100261023A00410063027302BE
:20025C007202620243020002130238000002000204021202000200020002000204020402E4
:20027C00370037003C024402000239000002000265020002350281020002050282028302FC
:20029C00000266020002000208020902030471040204600411047004020402040104020439
:2002BC00000410046104000414046304730472046204430400041304060400040004040453
:2002DC00120400040004000400045104640000040004000444040004000400040004650456
:2002FC00000435048104640005040004830400046604000400040804090400003600010062
:20031C000600000000000000000F000000000000000000000000000000000300FFFF0000AB
:20033C000403FFFF0000FFFF0F00E8030005401F0310000101000000FF3F0F0008000E00C8
:20035C0000000000000000000300010F000009010000000000000000000000000000000064
:20037C0000000000000000000000000000000000000000000000000000000000AD000001B3
:20039C00000000000001363601010001020100010301000104010606080400000C0100346A
:2003BC000D01000F10040101140100FF1608000020020000220100FF23010001240100FE30
:2003DC00250100082602000028010001290100012A0200002C01000F2E020000300100018C
:2003FC0031010008320200FF34010007350102FF360100003701000138010001390100FF1E
:20041C003A01000F3C0200FF3E01010F3F0100014001041F41010001420100FF43010080FC
:20043C00440800004E0100084F01000F50010001510100FF5201000A53010089540100016B
:20045C00580400005C0400006004000064040000680400006C040000700400007404000030
:20047C00780400007C040000800100FF81010001820100018301010284010001354525151C
:20049C0002030504FFFFFFFFFFFFFFFF9A1000000000000000000000000000000000000090
:2004BC00000000000000000000000000000000000000FAFA14000000000000000000000117
:2004DC000000010100000000000000000000000000000000000000000000000000000000FE
:2004FC000000000000000000000000000000000000000000000000000000000000000000E0
:20051C0000000000000000780008020030000A00000800000000000000000804FA000000F5
:20053C00FFFFFF000C1100000000000000001D1100000000000000002E010F000000FA001F
:20055C0000002F0100000000FA000000300100000000FF000000310100000000FF000000F4
:20057C00320100000000030000003301000000000300000034010000000001000000350285
:20059C0000000000FFFF0000370200000000FF000000390200000000FF0000003B02000092
:2005BC000000FFFF00003D0100000000FF0000003E0100000000010000003F010000000064
:2005DC00010000004001000000000700000041200000000000000000610200000000FFFFF4
:2005FC000000630800000000000000006B0800000000000000007308000000000000000086
:20061C007B0800000000000000008302050000005802000085010000000010000000860239
:20063C000000000032000000880200000000320000008A02000000000A00000000593F0181
:20065C0000007D07010002AB780000004F8D010001AB780000004F8D01000329EB000000DF
:20067C004F8D010004B78C0100004F8D010001C98C010001C38C0100014F8D0100014F8DF9
:20069C000100014F8D010000D55B0100014F8D0100014F8D0100014F8D0100014F8D0100B6
:2006BC0002C98C010002C38C0100024F8D010000D55B0100024F8D0100024F8D0100023D67
:2006DC00420100024F8D0100046B4F0000004F8D010003C98C010003C38C010003AB78006F
:2006FC000003AB780000034F8D01000329EB0000034F8D010000D55B0100034F8D010003CD
:20071C004F8D010004C98C010004C38C010004AB78000004AB78000004AB780000046B4FFF
:20073C000000044F8D0100044F8D010004B18C010000D55B01000104B12C00000300000083
:20075C0000040000E1F701007FF90100D3F90100F1F3010051F40100C9F8010055FA01001D
:20077C00BBF90100A5FA0100F1F2010009F5010061F90100F5F801005DF50100B1FA0100DD
:20079C00C9FA010091FA01007DFA010037FA010029FA0100C9F6010063FA0100A1F9010066
:2007BC0009FA010091F60100D3FA010095280100716A010001F00100B1F5010029F1010075
:2007DC00F1F90100115C01008982010071820100ADF401006D8A01005F8A01004DF60100DC
:2007FC000000000000000000D38B01000189010009F70100000000000000000000000000F2
:20081C0000000000000104000033333333333333330000000000000000000000000000001F
:20083C000100000000000000020000000000000003333333333333333303010000000000FA
:20085C00000000000000000000000F00000000000000000000000000000000FFFFFFFFFF72
:20087C00FFFFFFFFFFFFFFFFFFFFFFFF46485465737400000000000000000000000000003A
:20089C000000000000000000000000004D08000001000000700B000008000000520700000A
:2008BC0001123456789ABCDEF00000000000000000000000000000000300710030016000DE
:2008DC001100700031022003500480000700100061000000140063007300720062004300D8
:2008FC000000130006000000000004001200000000000000000004000400370037003C02F9
:20091C0044000000000000000000650000003500810000000500000083000000660000006E
:20093C000000080009000103710301030103010301030103220302030103000310030003B7
:20095C00000300030003000300030003420300032403060300030003040312032503230381
:20097C0025032303040304030003000300034403000300032303000365032100350381033B
:20099C0000030503000300030003000325032303080309031404C0A0FE0000001404C0A0D1
:2009BC000A0480A0090480A008400080FE00000006088080070880800D2007C00E2007C0F4
:2009DC001400C080024000800300C0800108C0801E08808009400080084000800A400080D8
:2009FC00FE0000008F0000008F0001008F0002008F000300900000018F00010190000002E7
:200A1C00900000038F0001048F0000058F0008048F0000048A000006510000007F00010070
:200A3C003F0004003F0002003F0001007F0002007B756E6B6E6F776E2D696E7374616E63AD
:200A5C00652D6E616D657D007B656D7074792D696E7374616E63652D6E616D657D00C0464D
:200A7C007B7374617469632D696E7374616E63652D6E616D657D00C00000010203041000B0
:200A9C000810182004040810181C10040810181C000000000800000000000000200000000E
:200ABC0040000000600000000000000006000000020000008600000082000000A5160100AE
:200ADC00F93B01006183010079A500008DBC0000ED8C0100F1320100DDC30000F38C0100BB
:200AFC00E5190100001000400600000015000000FF000000000000000302FFFF68300020B6
:200B1C0020000000010300000000000000000000FFFFFFFFFFFFFFFF00000000000000009D
:200B3C000101010100C2010003000000000000007BC80110C5BC0110D9B2011033C2011047
:200B5C00BDAD0110C1B101106DBA011065BB01101DC0011000000000000000000000000024
:200B7C000000000000000000000000000000000000000000FFFFFFFF00000000000000005D
:200B9C00000000003A010000000000000000000000000000C5D40000D93A01000000000051
:200BBC000000000101010000C33B3D3A5D3A713AA10A8F3A0F3BB309495E850A2F3B853B85
:200BDC00001610160E18151C0212032418580302100258000100000000000000000000004B
:200BFC00000001000000FF7F004002400B00000027000000FF000000D80A0000E02C002099
:200C1C00000B000041B5011095A6011015B80110010B0101020801020101004000BE040A53
:200C3C0000BE0208FFFFFFFFFFFFFFFF982F0020040C0000FF00000000000000018301005D
:200C5C005D4701000F0000007D8200000000000000000000D1C0011061AD01100A000000FA
:140C7C001C1F0020B96F0100BB8D0100D1C500008B8C0100E9
:201000003C000000000000000000000034100000000000000000000001000000000000004F
:1C10200000000000000000000000000001000000000000000800000000000000AB
:20103C003400000000000000000000006810000000000000000000000100000000000000E7
:14105C00010000000000000000000000080000000000000077
:2010700030000000000000000000000098100000040000000000000001000000FFFFFFFF87
:10109000FF00000001000000080000000000000048
:2010A0002C0000000000000000000000C4100000040000000000000001000000FFFFFFFF2F
:0C10C000FFFFFFFF080000000000000020
:2010CC0038140000E410000095A1011091A70110A1C2011009B2011041B80110A5BC011078
:0810EC0085BC01102E0000007C
:2010F400280000000000000000000000141100000000000000000000FFFFFFFF0000000093
:081114000800000000000000CB
:20111C00341400003011000065C2011069C101101BC2011091BA011005BC0110E5BB0110EA
:04113C00300000007F
:20114000341400005411000071C20110A5B6011099BF011045B60110B5BA011025BC01104B
:04116000310000005A
:201164002400000000000000000000008011000000000000000000000000000008000000AE
:041184000000000067
:20118800240000000000000000000000A41100000000000000000000000000000800000066
:0411A8000000000043
:2011AC00240000000000000000000000C8110000000000000100000000000000080000001D
:0411CC00000000001F
:2011D0000000000030200020040000000000000000000000200000007010000030000000BB
:2011F0001C110000382000200400000000000000000000000C0000003013000018000000CF
:20121000401100004020002004000000000000000000000024000000481300001800000052
:20123000000000004820002004000000000000000000000010000000A01000002C00000026
:20125000CC1000005020002004000000000000000000000020000000641100002400000055
:20127000FFFFFFFF58200020040000000000000000000000280000008811000024000000E1
:20129000FFFFFFFF60200020040000000000000000000000580000003C10000034000000C6
:2012B000FFFFFFFF68200020040000000000000000000000100000006013000018000000DB
:2012D000FFFFFFFF702000200400000000000000000000001C000000AC1100002400000051
:2012F000FFFFFFFF7820002004000000000000000000000038000000F410000028000000C2
:20131000FFFFFFFF8020002004000000000000000000000054000000001000003C0000005D
:1813300018000000000000000000000040130000080000000000000032
:1813480018000000000000000000000058130000080000000000000002
:18136000180000000000000000000000701300000800000000000000D2
:0813780002000000580C000007
:041384000100000064
:0413880000000E0053
:04138C0000000F004E
:041390003200000027
:041394000100000054
:041398008C1F002086
:04139C00000200004B
:0413A000CF8C0100ED
:0413A400FDC901106E
:0413A8000000000041
:0413AC00000000003D
:0413B0000800000031
:0413B4000000220013
:0413B8007C1D002078
:0413BC00010000002C
:0413C000A41F002046
:0413C400080000001D
:0413C8000000000021
:0413CC00000000001D
:0413D0000000000019
:0413D400080000000D
:0413D8000000000011
:0413DC00000000000D
:0413E0000100000008
:0413E400781E00204F
:0413E80006000000FB
:0413EC0001000000FC
:0413F000581C002065
:0413F40000000000F5
:0413F80000000000F1
:0413FC0000020000EB
:0414000000000000E8
:021406002900BB
:021408000100E1
:02140A002500BB
:02140C003000AE
:02140E003100AB
:021410002E00AC
:021412000100D7
:0114140001D6
:0814180003000000200C00009D
:081420000000000000000000C4
:0414280000000100BF
:04142C0000000300B9
:0414300083C4011060
:041434003C14000064
:041438003C14000060
:04143C0000000000AC
:041440009000000018
:041444009000000014
:0414480000000000A0
:04144C00A41F0020B9
:041450008D88010082
:041454002000000074
:04145800F00B000095
:04145C004C0B000035
:0414600009C30110AB
:041464009757010095
:04146800BF60010060
:04146C0095C801100E
:0414700097C8011008
:041474000000000074
:04147800EF0B000076
:04147C00640A0000FE
:041480007C0A0000E2
:041484004C0A00000E
:0214880008005A
:02148A00090057
:02148C0001005D
:02148E0000005C
:01149000015A
:041494000000000054
:041498000000000050
:04149C00000000004C
:0414A0000000000048
:0414A400B38D010003
:0414A8009963010043
:0414AC00857801003E
:0414B000516801007E
:0414B4004F6901007B
:0414B800195B0100BB
:0414BC00891501008D
:0414C000A58A0100F8
:0414C400E141010001
:0414C8000DC801103A
:0414CC001DC8011026
:0414D0000800000010
:0414D40024000000F0
:0414D80018000000F8
:0414DC0028000000E4
:0414E00020000000E8
:0414E4003C000000C8
:0414E8000C000000F4
:0414EC0034000000C8
:2014F00083482DE9F04F0C4601210170DFF80892DFF80882DFF808A2DFF808B27D499C464B
:2015100020270023ADF1540D002517EA0C070B70C949119291F88033C849CDF848C005EAE0
:201530000200139108BF00287AD111984FF0E04761462A460F4002EA000008BF002843D157
:20155000129E119B4FF48600B9F8AA10DFF824C3CDF82C9012EA060700EA030008BF0028C7
:2015700019D1C34812EA060700EA030008BF00286ED037464046119E048100F1380341811E
:20159000002F83E8C00004BF331CB3F1806F5FD102295DD111E037464046119E048100F19A
:2015B00038034181002F83E8C00004BF331CB3F5803F4DD1B1F5505F4AD1006A67464369FA
:2015D00038682146984741E046465146B6F9087091F90000BC42A0F10100087017D1728935
:2015F00006F1380003C8002904BFB0F5803FB2F5505F08D0002904BFB0F1806F022A02D0E9
:2016100012F0B2FB03E013F0DDFC16F019FF139890F90020521E02706FF00101318113E0F2
:2016300046466FF0010006F10801088063B1BE480078832802D0812059460870316919B1FB
:20165000284688472146E9E7CDF82C90B9F8AA10119A129E02202F461040374008BF002872
:2016700000F0D183B24A43F201408842149200F0A383C01C884200F09F83504690F9000047
:2016900052464746401E1070B7F90800844209D0139843F604078F420A9040F09E8316F02F
:2016B000D5FC9AE3644890F880C307F1380090E800034FF482062F4617EA090706EA080061
:2016D00008BF002820D113980C4F0A9007F1380003C84FF400322F460F4002EA000208BF91
:2016F000002A02D112F040FB77E313F06BFC74E3ED1F0020E41F002090190020F81B00203A
:20171000EB1F0020073100202846BCF1010F59460E9002D00F78002F7AD1844C8120149ED9
:20173000277808702B46A5816069A770427A017A337002F0070301EB032152098DB234BF98
:20175000291F891EDFF8F081437A8DB233F07F0340F01D8377490988A942C0F218830A300E
:20177000294610F0BFF9216A04F118000522083116F0AEFEED1EADB20D960520E17E227F56
:20179000A37E2D4EA081C1F3011B227103EB012096F880136081002908BFBBF1020F00F06B
:2017B000F682BBF1020F00F3F28269B110F0070F00F0ED8241B15C490978862904D100F062
:2017D0000701022940F0E382011301F00201022952DA6378DFF8509100F00700022836D117
:2017F0004646D6F804A0002B31D1216A09A801220D3116F06DFE0620A081D047804699F8EB
:2018100000300D48B56847680C96862B18D10FB917F06DFA9DF9240017F0B7FA9DF9246069
:2018300078770020B8774046FE77A847608900F0100011F0F1F905E008020020EA1F002064
:201850004046A84713980A9016F070FCA5E299F800000026862808BF01261398CDF8308052
:201870000A9076B1002013F0F9FBA77808E0C04600000C8CBC1D0020CDF8308013980A9028
:2018900063788FB183B9012F00F07E826089022F03D110F0070F40F07782032F05D100F09C
:2018B0000701032901D06FE2608901094FEAE00C09D310F4405F00F06782BA4991F824742E
:2018D000002F00F06182011301F00201022902DA810A80F05982B2490978C1F381098E11B8
:2018F000B9F1010F00F05082012E00F04D82AB49BBF1020F09D08A5D11F809108918CFB2B9
:2019100006B3C1091ED3BF1E0BE072184944127909798918CFB2C10910D259EA060311D05C
:20193000BF1CFFB20EE0C0460B3100201830002009310020DE1F0020041B002059EA060351
:2019500008BF0227C0F30020391A60718D42C0F21B82ED1B5FEA5C010544A8B2208124BF9D
:2019700025210E910E990818743080B216F04AF965782061002800F007820021742210F0D6
:201990002DFD0020E070B4F80A801DB90D9908F02000087000250D9B60790F951D781090DC
:2019B000002D3BD0051C39D108F00708B8F1030F06D0B8F1010F22D17A4890F86E04F0B113
:2019D0007848B0F85C000023810809D3754991F88A5095B94D681DB16D7E35F07F050CD148
:2019F0005BB98008984605D385498D68887805B1A84710B9B8F1000F01D00420E0706948A6
:201A100090F8800310B1BBF1020F01DA15F0A2FE6079B4F80A801090E0780F90216901F18B
:201A300074004860886525890D812089A1F85C005FEA18100FD31098C0F1030082B2A1F837
:201A50005C20886DCF4916F043FD2169B1F85C20886D801888655248CA4B0078C0F3011291
:201A7000109D18780F9BA1F80C8000F07800104318430874FF228A7320790E9005B100208D
:201A900081F8306081F83A9081F84900A089002F2946A0EB010085B2A58100F06A81BA469D
:201AB000216AE780684652464919083116F010FD3B487F19BDB2A581216900780A7C6E4644
:201AD000C0F3011B801002F0400910F0030F00F0030744D0BBF1020F4FF0000301D1D00992
:201AF0000BD29DF801209DF8000000EB0220A1F844000DF10206A1F84200C94AB1F84400E3
:201B1000B2F85A20824203D04FF6FF72824223D1032F12D072783078C14B00EB022082B299
:201B30004A86B3F85810B61C0120914213D04FF6FF71914218BF00200DE0C94800683146AD
:201B5000323017F0E6F8C648B54900684F31323016F0FAFA08360346002B00F00D81104856
:201B70000078831126D02069BBF1020F03D0017CC90903D309E059EA070706D17278317871
:201B9000B61C01EB0221A0F84210032B0CD07178327802EB012202850CE0C046380C000000
:201BB0003330002008020020AD4800683146283017F0AFF808F00708B8F1030F07D0B8F14C
:201BD000010F39D1A84890F86E74002F34D0A6482669D0F880704FF00008E7B17B7E33F01E
:201BF0007F0314D096F8300002280BD003280ED107F1700006F1280116F0A6FA38B11BE090
:201C1000F01F0020B7F87000318D884214D057F80C7C002FE2D1B8F1000F0DD1914F594B27
:201C30004046E07038784246C0F3011118780F9200F07800084330748B4890F8807317B123
:201C5000BBF1020F0BDA0D98077847B1109830B90E980F9911F0E0FBA589B4F806A02069F2
:201C700081890909C0F08580806D6946524616F02FFC2169886D50448865276AB1F85C0088
:201C900001225044A1F85C000DF125007919083116F01EFC6E1CB5B2A58121699DF825001F
:201CB000896D087021699DF825709DF82530886D401C8865B1F85C00401CA1F85C0007F07D
:201CD000070081F82400C3F3C10781F8257091F8246020898046002E4ED05F497F183E7807
:201CF000361D8642E68047DC216A05A832464919083116F0EDFB38789DF817209DF81410C2
:201D10009DF8163040193D78001D01EB026180B201EB0341A0819DF81530206901EB032168
:201D300081616DB14E4800686D1E06A92A461C3016F0CEFB397820696944C97D80F82610F5
:201D5000806D05A9324616F0C3FB2169886D80198865B1F85C00A8EB06078019A1F85C0064
:201D7000781E82B22281B1F85C000A818018A1F85C0000F06FFC10E016F0F4FE11F0F4FF92
:201D90000BE0C0463230002016F0EAFC05E016F0E7FCCDF8308013980A90DDF83080D8F8F7
:201DB00004008047216A0A680023137109682162D8F80810884710E0404680784146574667
:201DD000401C887097F900005146401E087011F0CBFF16F03BF913980A9023480B99104FEA
:201DF00000226FF0010690F88003A1F8AA203E8110B11498007808B916F022FB0A9991F928
:201E10000000401E0870194890F9000010B9134800210170139A92F9000098B102E0C046D3
:201E3000F81B0020119B129F02214FF0E0401940384008BF002908D092F90000002804DC54
:201E500016F055FF002003F003FD0949002015B00870BDE8F08FC0463C000000E21F0020CF
:201E7000283000203330002008020020EB1F0020ED1F00202DE9F04F0320ADF14C0D14F064
:201E90007FFED349022001F11C020023401E42F80C3F1F469760F8D18A463D460AF14000AE
:201EB000062701467F1E21F80C5BFBD10821CA4BC84FCA4E01801B1D0AF11C04876023F07A
:201ED00003031A46F11ACAF820101046CAF818301E46CAF81C305B18834200F29A838810DE
:201EF0004FF0E80B21F0030102EB800040F8045CEC39C6F800B02846C2F8E810E832CAF8F7
:201F100010201DF0AFF9CAF81400D1492068B44FCAF810000A6807F10C0002604968416055
:201F3000CC498146082215F04BFC28B9CA4801684A46116040685060C848C949C0F8B010F0
:201F5000C84FC0F8B4702E46C0F8B860C64CC0F8CC60C64BC0F8BC40C54AC0F8C030D0F800
:201F7000B010C0F8C4203746C0F8C87000F1B00609B1384688471DF0EDF9DFF8FC82394613
:201F90003C2208F1180010F029FA10240820ADF808000227ADF80A70DAF82410039402A807
:201FB000884700280CBF049F2F1C08200124ADF80800DAF82410ADF80A4002A88847884928
:201FD0009DF80C00049C0A46087054606FB1D02139707D70B8702C46FD702B463D713946E8
:201FF000BC600220FB6013F029FEA249182001221DF0EEF8484616F053FC18201DF0CEFBE4
:2020100077490F4648707868C8F808000EF08AFF08F154003946CC4C8860D8F808706662D8
:202030000121F520A76016F0F7F8F820294616F0F3F8C64E0D200E27707006F10C01B77064
:2020500006F118000EF02AFCB060707816F0F2FA00280CBF08272F1CB07816F0EBFA08B912
:2020700047F01007BA49B06816F034FDB949C82206F1240013F0F2F8B7487060102F10D1CD
:20209000606A70B1C26862B1FF208DF820004FF6FF77ADF8227008AEADF8247096E80300E2
:2020B0009047A5A016F098FBDFF8B09209F1140009F108010EF0F2FBC9F80400284616F00D
:2020D00033FD2F461190A9F1020606F8025F02207070384616F08EFD0146119AD9F80400D1
:2020F000C9B214F071F87F1C022FEEDB9C4909F120004FF4FA7213F0B1F89A4E06F10C000E
:20211000311D0EF0CBFB01213060584616F084F8E720092116F080F8552040F20D3116F031
:202130006FF8E0201B2116F077F84F20032116F073F85720052116F06FF84E20042116F0D0
:202150006BF85920032116F067F8C54904F12C00642213F083F8CB49E0604FF47A7204F15F
:20217000E00013F07BF8CA492062642204F1500013F074F82061012108F1040016F012FA78
:202190004FF00609C64EB8F804004108C0F0878098F80170606A002F7BD1294600280E919D
:2021B00031D007697FB38DF82890ADF82A900EA800900AABADF82C5093E803002A4604239F
:2021D000B84778B90E9819300E90606A1DE0C046041B002041F901000C310020004B002023
:2021F000BC1F00208DF828902846636AADF82A900AAA0F905F69ADF82C5092E803000FAB8A
:202210000422B847606A29460E91002836D00769002F33D08DF8309002AB00930120ADF896
:2022300032000CAAADF8345092E803000E232A46B84718BB0E980FF0E7F912F0C7FFC1B2CD
:2022500002A810F001FE012088F8000021E0C046C8FF0100400C0000F01200501808002077
:20227000995901003D5D010015080100A1610100D9E4000019450000681A00200E9888F8BC
:2022900000500FF0C1F9012016F06AF9012016F08FFAAC48012116F07AF940468088810845
:2022B00007D309F083F9A748022116F070F940468088C10860D3A44832220C3830F80C1FDD
:2022D0004FF6FF738B420BD041894B0808D301F44073B3F5407F03D14FF6FF431940418112
:2022F000521EEBD14FF440704FF4807114F072FE00283BD1944F32200C3F37F80C2F4FF6A4
:20231000FF71914230D079894B082DD311F4407F2AD102208DF81000ADF8082002A80BF02D
:202330006FFB18BB78894FF6FF5140F480707881084078811AE0C046544920436F6C6C65B0
:2023500063746F7200C046C08C180020A41C002049620100A9830100F9840100381D00207F
:2023700085110100741F0020401EC6D17548042116F00DF940468088000925D371480821AF
:2023900016F005F90A208DF80800B8F85000014616F0F9FC8DF80900084616F0A5FC8DF828
:2023B0000A0002A811F0E6FEA54816F0E1FA012802D1A34816F0E5FC206942F2107116F094
:2023D00040FC9F4816F0DBFCB188480805D39D48012116F0DCF830468188880805D39948E3
:2023F000022116F0D4F830468188F07FCA10520877D3B768401E6BD0401E67D0401E43D0AE
:20241000401E68D18D4902A80E220EF015F9384640BB2846B06088498DF8155005ABE122F4
:2024300018201CF0D5FE502002A916F031FA824903AB1820E2221CF0CBFE0DF10A01532023
:2024500016F026FAF06818B1016809B102A88847B07F022814BF0320042016F081F83AE07D
:2024700021810100076850B1082107900523ADF8181006A8DAF82410ADF81A308847384694
:20249000C6E7C046E9800100327E708B05E0C046CD800100401C80B270833B4609E0C0463A
:2024B000E4100020997C8A4202D1D989884203D01B68002BF6D129468142EBD0B18B532034
:2024D00015F09EFE284610F0EFF804E0284600E0012011F03DF85B48082116F058F83046D5
:2024F0008188C8080AD34120294615F07DFE484616F036F85348042116F049F8A08840088D
:202510003CD3A07800090DD311F052F94FF6FF71ADF80800814205D002208DF8100002A8F4
:2025300013F0C6FDA078400923D3207870B90120207039A016F050F94120012115F054FEFA
:2025500005200CE06C1A002084110020257036A016F042F94120294615F046FE484615F0A7
:20257000FFFF394816F004FA012802D1364816F008FC3648A570012116F009F8B8F80400D4
:2025900000287FF400AE08200A27ADF808004FF0FF33ADF80A70DAF82410039302A8884737
:2025B00000287FF4F0AD08200727ADF80800DAF82410ADF80A7002A888470028049F9DF8D2
:2025D0000E209DF80C0010977FF4DDAD2049097891420ED11E494978814207D01C498968C4
:2025F0004B6C33B129463A46984702E0384602F001FB109800283FF4C6AD0820ADF80800C9
:2026100003230397DAF82410ADF80A3002A88847B9E540F8045B5FE45065726D69744A6FEA
:20263000696E2D4F4E2000C05065726D69744A6F696E2D4F464600C0355501005808000055
:20265000DC180020E81000204819002090180020BC1F00202DE9F04FB64D28692C89296AC9
:20267000AE89806DADF1440D22468919083115F02FFF2969886D00198865296A3619B6B2EA
:20269000012210A88919083115F022FF296A761CB4B2042209A8AC810919083115F018FF48
:2026B0009DF827109DF8240000EB01602B699DF82610241D00EB01409DF82510AC8100EB8B
:2026D0000120099016F01AF8D863099815F094FCA3F84000EA2015F06DFD022196482C69BD
:2026F0000170217CE878084320749DF9400016F04CFB84F8460021899DF94000DFF8F4B29B
:2027100084F8480004F17400A065B4F85C00401A61684FF0000AA946401801466060A0898C
:2027300084F847A0820A18D2020955D310F0070F07D000F00700032812BF081C6068401C55
:2027500046E06168C87800F00702401000F0380000EB42004018001D3AE00CB916F0C7FA81
:20277000A089800A2ED361684878C7112AD12589616650464B780A7803F07F035B0003EB2B
:20279000E2137E2B0DD07F2B09D002F07F0280188918801C891C80B28542EBDC08E05146FF
:2027B00000E00121801C84F8601080B2854201DA504605E06168091861602189091A218116
:2027D000A4F86800606E10B1B4F86800B8B160686061A089000918D294F86000002800F030
:2027F0001981204612F05AF8D9F81040E06C002800F01081B4F85000002840F00B8116F079
:202810009FF95046C9F8100035E2504656460A9094F824700B900AA90BAA0CAB0C962046E4
:2028300004F02AFF002840F0E8800A9B656960682689291A701A86B20BB916F058FAB4F8F4
:202850005C00009001950B9B0296181D03900A98A169A36D3A4615300EF06AFD002840F0A2
:20287000CC80BB4894F860502689C15D701A208115B1204612F012F8A58905F00705032D2E
:2028900002D160680078E07394F80F8073200EA914F0E2FC83200DF1420105F09BFF514671
:2028B000DC460AE0C278012A03D1002F08BFDC2028D0001D491C0E90C9B29DF8420088429D
:2028D00040F39A800E988278032D07D00378AB420DD09CF800600EB1022D08D0032DE8D10C
:2028F0000378032BE5D103465B784345E1D1BB10B3EBA20F05DA02F0030207F003039A424A
:20291000D0DD504680460A98E77B90F814E0514601E0491CC9B28E456ADD06694B00032DC2
:2029300006EB03020AD1F35C032BF2D15278BA42EFD10CE018300020073100201278AA42CE
:2029500005D09CF80020002AE3D0022DE1D10B98077C002F08BFB8F1DC0F4DD0A069B0F1A9
:20297000FF3F43D071200DA914F076FCB448078947B30D9D514684460A9A95421CD19CF8AC
:202990000AE0BEF1000F08BF50460CD00B98C2687346504696888E4205D05B1E02F10802F1
:2029B00000F10100F6D186451ED00B9AD268A36952F830209A4217D87F1E05F12C0501F18F
:2029D0000101D9D1C2000B98A169C368491CD150C0681058B0F1FF3F02D10C980121C170E2
:2029F00084F801A0504609E0DB2007E0DB2004E0DC2002E088050020DD206070D9F81040F1
:202A10006070A0696778606527B1F22015F0D2FBD9F810409A4D95F88003002800F0AB8012
:202A3000A189DFF8608201F00702022A63D199F80170002F5FD16778002F5CD1D9F81010BC
:202A50008DF841A004A8283116F063F9D9F8101006A80A22283115F03BFD414601F11002AD
:202A7000D9F81070D5F8A4331088401C1080786E04210DF141029847444609F1100B28B922
:202A9000686818B19DF8411080F86810D9F8107097F83000022811D1DBF8000005F57B71E2
:202AB0000E4602222830203114F08AFE30B906F1160104A816F02DF9D9F810707248007807
:202AD000862807D1608A401C6082B88900F0100010F0A2F895F8800328B1D5F8C81311B10A
:202AF000D9F81000884716F02BF85046C9F8100015F01CFBC1E0654A1778002F30D0C1F3A8
:202B1000013102292CD16078002840F0B4809DF840005F49464699F803700870B08A04F133
:202B300028021C34002F00F10100B0820CBF50460820584953460B6000900194B5F8123472
:202B5000117A0D2004F0AAFE20B914F003FE03E04000000015F06CFA5846D9F8104000786E
:202B700048B1D5F8C81331B1204688472846D9F8104090F88003A7890F9407F0070760B10A
:202B9000A07BFF2873D0032F05D1204640680078042802DD6BE0012F69D1381C3AD0401E96
:202BB00050D0801E63D1A089C0F30130022803D16068007807282BD02089002857D0204640
:202BD00041684A1C42600F78A446C7739CF824606EB9002F4BD00A2F49DA2F490089C95D7D
:202BF000814209D0082F42D1082805D03FE0C07B00283CD00A283ADA20460189491E01812D
:202C1000C17B0B3101700F99C87B401CC8731BE0322018E095F8F9030F280BD015F08CFDCB
:202C300040B90F988189091301F00201022901DA2969884795F82F040F9C2074152002E04D
:202C5000D01F0020162020700F9905F1840013F0C3FD124C6068804795F88C10491C85F8B2
:202C70008C10A1688847202015F0AAFE3DE70FA812F024FD39E711F077F811B0BDE8F08F70
:202C900008020020D81E00200B31002009310020F61B00201C1E002047000000041B00201D
:202CB0002DE9F04F0D46CF4C01686162416880686160ADF12C0DA060284613F0F5FA4FF04D
:202CD00008094FF0010BADF8089002A8ADF80AB0616A08908847C44E9DF80C1071700499CF
:202CF000716108B115F0D2F828688047A046D8F80400804709904FF40057ADF808901E20E4
:202D1000D8F82410ADF80A0008980397884713F007FAB64C206C40688047206CC168684683
:202D30008847206C83686A46002001469847E06308B915F0ABF815F087FACD4FC4F8DC70F1
:202D5000CD4AC4F8E420CD49C4F8E810C74830610025A4F85C50C74BC4F8E030C84FC4F804
:202D7000EC7004F5C872C4F86C2104F1C801C4F8701104F1DC00C4F87401C24BC4F8F03085
:202D900014F080F904F1F40704F17003C4F88471BD4AC4F88831BD49C4F8C42004F14C003A
:202DB000C4F81411BA4FC4F88001BA4BA760BA4AE360BA49A261BA4BE161B4F85C7023663B
:202DD00047F00200A4F85C00B64A6266B649A166B64FE766B64BC4F8183204F16000C4F87A
:202DF0008C01B44AC4F82822B349C4F83812B34F276114F031F904F14401B34AC4F88011F4
:202E1000AF4B6261AF4F6364B4F85C00A76440F01000A4F85C00AD48C4F81C0114F01CF9EE
:202E3000AE49C4F89013AA4BC4F88433A94FC4F88873A94AC4F88C23AC49C4F8A013A84B60
:202E5000C4F89433A74FC4F89873A74AC4F89C23AA49C4F8B013A64BC4F8A433A54FC4F810
:202E7000A873A54AC4F8AC2384F88053B4F85C00B56040F00800A4F85C00A449C4F8C01395
:202E90009F4BC4F8B4339F4FC4F8B8739E4AC4F8BC23A249C4F8D0139D4BC4F8C4339D4F2C
:202EB000C4F8C8739C4AC4F8CC23A049C4F8E0139B4BC4F8D4339B4FC4F8D8739A4AC4F8A8
:202ED000DC239E4981F800B0994BC4F8E433994FC4F8E873984A156002204D8014F010FBC8
:202EF000FF210222F06215F056FFF01CFF21022215F051FF022014F003FB914F386008B9D0
:202F100014F0C4FF38682946022215F044FF07A806A913F021F9F06A9DF81C10421C0170FA
:202F30009DF81C00107025709DF81C00B07014F059FDB061089FD8F82410ADF80890142063
:202F5000ADF80A00384688471523ADF808900398ADF80A30D8F82410F06138468847039839
:202F7000794FDFF8F0A1794B3D70801E3062754E1D700AF10E023570108875700E3035611F
:202F900080B214F03FFE074677610FB915F0AFFE02978DF80C509DF80D006D4965F30100E4
:202FB0008DF80D009DF80D00534665F383008DF80D00D8899DF80D20088065F307128DF826
:202FD0000D20ADF80E00706902A94A4615F080FA3762756212F02EFB5F4E307801280AD07B
:202FF00006E0C046041B0020E81D002008020020284602F02DFC59480570594F3D703078AB
:20301000012802D0284602F023FCD8F808100998884701F0B5F814F015FE94F82F0412F058
:20303000D1F9584602F014FC0FF0F1FB4D4805703078012802D0284602F00AFC10F04EFCCE
:203050001820494FADF80890484EADF80A00D8F82410039708980496884708B115F047FE64
:2030700003F07EF90BB0BDE8F08FC046B95001001D860000D93D0100EF7D010029D10000C6
:203090006DE2000069230100A802000001F40000B93C01003D4F0100198C01009189010061
:2030B0004DBA000031B2000045530100E566010059480100C9250100118D0100659B000001
:2030D000D9F600006DBB000001AC0000F57B010075040100A9680000D92A0100F9600100E2
:2030F000C97C000071ED0000F95D000015360000D31801005184000015D20000F585010059
:20311000699000000D4E010069760100FDD200001DA40000816D0000497E010031EE000005
:203130009542010045760100F15401005579010041820100BD8C0100E8300020EC1C002068
:20315000FC300020183000200731002009310020501A0020D01F0020ED1F00200B310020D8
:203170000231002008310020572E0100701F00202DE9FE4FDD4981460122A1F130000260C7
:20319000D8480768002FFCD0D74AE34EC027D848D84B17603268920808D2324652F8042CA2
:2031B00003F14104120C42F0F00222704FF0000A8346C1F800A0DFF88CC3DBF80810E04F47
:2031D0000191880E43D2480E41D3802018744FF6D802A3F8512018703868C0F30464162C5C
:2031F000A8BF203C1E460F3E307800F01F001628A8BF2038844223D0624602F1980EE44A6F
:20321000CEF800A0251A022D05DC15F1020FB8BF6FF0010500E002254019156800F01F0505
:20323000844245F4F855A6F866504FF001051560E8D110682E4616601068CEF80050106803
:2032500038460068C0F30420162808DB06E0A7F1D0000068C0F30460162800DB203800EB57
:203270002170401C162805DA10F10A0FB8BF6FF0090000E01520D54E00F01F0040F4F85078
:20329000A3F85900306880083ABFD148C0F800A041F040616246C80E8E0E80F0010000F053
:2032B0000100106086F0010000F001009060019810F0E8F90146182013F0EEF8A7F138067D
:2032D000CD4C30683568A4F10408C0F3870105F0030041EA0021D8F80400C04D446840F2B1
:2032F000FF32534688B22C21009028464038A047F06AC0F30D011C2013F0CEF8B549706A18
:20331000014000F07C400143142013F0C5F8316A01F47C000904090C0143102013F0BCF81F
:203330007D4AB06A1268C0F30351C0F30344520813D2DBF80020130511EB237103D4102937
:20335000A8BF0F2100E05146120414EB227403D4102CA8BF0F2400E0544644EA011400F446
:203370007F4200F0FF01B9F1220F42EA044241EA020124BF00F0804001430C2013F08CF887
:20339000954CB9F1220F32BF01202068C0F30070B9F1220F4FEA400040F0200085F8090179
:2033B00026BF2068C0F3407001208D4EB9F1200F40F0100085F8090138BF514606D3316891
:2033D000C80C00F44070C1F384510143282013F063F8B9F1200F26BF3068C0F30150504602
:2033F000B9F1220F4FEA400040F0600085F80C0126BF2068C0F3C0605046B9F1220F4FEA65
:20341000C00040F0800085F8010126BF2068C0F345505046B9F1200F4FEA800040F47C40E0
:20343000A5F89C0138BF6F490AD3306801038A15920501F47C1100F00F00114341EA0031B3
:20345000082013F029F8CC3F4FF480002860664AB86D40F21E216FF31F40814216D9386861
:20347000030E03F00F0113F00F0FC0F3034018BF491E072805D006280EBF0720801C00F021
:203490000F0041EA0011A2F108000170DDF804C0CCF381477F1E02D07F1E31D02CE0206804
:2034B000810C29D24FF480412960D2F80210430AC0F3033703F0800321F08F010B4347EA3B
:2034D0000301C2F80210D2F80130060A66F30303C2F80130116800F0E70721F0E70147EA36
:2034F00001000CE09402224300600C4040100940AC3F0050156208404FF000402A46106036
:2035100005480068C0F3C0070FB94020A8624FF40070286402E0C046B03F005020684027E5
:20353000C0F3C14040F0300085F8C800CCF3815080B3401E08D0FFE7401E23D0022122E0CD
:203550008813005000002043012013F0A9FC06460420314610F088FA042013F0A1FC86424F
:20357000FAD12248066826F07F4013F0F1FAD8F81400036807214FF06022300E98474FF43D
:20359000806028600321042010F06EFA09E0C0462C2009400420012110F066FA144813F07A
:2035B000D7FA203C206800F03F0085F8CB0FD8F80030124ED96830680220884710480D4CE5
:2035D000076001212160BDE8FE8FC0460000094094042A43FCFCFC008C13005040A00C403C
:2035F0009813005000803F400A600840A83F0050BD37860094046042A40100102C200940DA
:2036100000600C402DE9F04FADF1840D1A9104461B920DF15F00CF491C93082214F058FF1F
:203630002046694612F0E8FE1D9018B900200146209006E202200027A41CDFF820B31E909F
:20365000C54E2097204602A911F0CFF95FEA000900F0F38120990DF14100162215F09BFB35
:203670009DF809707F1E00F088807F1E40F0DD81B9F10A0F40F3E481A41C06A80422214616
:2036900014F026FF241D07A80222214614F020FF42F20B000DF11E0111F0B0FBBDF81E0078
:2036B000BDF81C10884200F3CB81A41C14F8010B14F8017B14F8015B8DF8410014F8011B5A
:2036D0008DF842700DF141028DF84350204605F017FBC24909780028044400F0B1811D9D05
:2036F000012905F1020500F099814FF400500DF1570111F083FB0DF157000DF15F01082244
:2037100014F05EF840B11A990DF15700082214F057F8002840F0828142F2010006A905F095
:203730009BFC42F20B0007A905F096FC42F205000DF1410105F090FC0DF1420142F20600F7
:2037500005F08AFC0DF1430142F2070005F084FC11A942F2090005F07FFC9DF8440028B1D3
:20377000022840F05B8142F2030001E042F20D000DF1450105F070FC50E1B9F1040F40F3E4
:203790005F81A41C14F8010B14F8017B14F8015B8DF8410014F8011B8DF842700DF141020B
:2037B0008DF84350204605F0ABFA0028044400F047811A9808A905F01DFD9DF83E0000284C
:2037D00040F00E819DF8440000287BD1B6F84E70002F00F00081B6F85200874207D0308B66
:2037F000718B884201D108F071FCB06D20E0B76D4FF4005004A911F001FB14F043F94FF6B9
:20381000FF78209D1F90AA46B6F84E00A84243DCB06D4FF6FF7141450AD04FEA480707EB14
:2038300088073818808811F0CFFFB06D3F1823D1B6F84E300746002B08BF209D19D05846AB
:20385000209D40681946D846BF1FBF1DFA782AB1491E05F10105F8D1BF1D0AE08047B6F808
:203870005210491CA6F85210D8F808108847B6F84E30AB4200F097801A9809F0A9FDB88011
:203890000120F870FD788DF83E50B888ADF83F00209B8DF82B30A3E0B88811F01FF9014625
:2038B000082204A813F08CFF40B1388801041F9815F047FA82453CBF8246A8466D1CBF1D04
:2038D000ADB2A1E7B6F84C70002F00F08480B6F85000874207D0308B718B884201D108F07B
:2038F000F5FB706D1FE0776D4FF4005004A911F085FA14F0C7F84FF6FF78209D1F90AA466D
:20391000B6F84C00A84250DC706D4FF6FF71414509D008EB48173818B0F81F0011F054FFD9
:20393000706D3F1829D1B6F84C300746002B08BF209D20D0DBF80400209D1946D846213FC2
:203950002137BA7F62B1491E05F10105F8D1213711E0C046A0040000DC130020041B002046
:203970008047B6F85010491CA6F85010D8F808108847B6F84C30AB4215D0209938462122D2
:2039900015F009FA1A9809F023FDA7F81F000123FF2039462122BB770546787208A8FD72FB
:2039B00014F096FD1CE0612057E0B7F81F0011F095F80146082204A813F002FF38B1796865
:2039D0001F9815F0BEF982453CBF8246A8466D1C2137ADB294E764203FE0C0460A0200205C
:2039F0009DF83E000DF14101162240F004008DF83E000AA814F06CFD1D9D9DF84400AD1CFA
:203A100048B19DF856700DF14500394610F066FC3F1A8DF83D7008A80FF04CFA1E9809EBF4
:203A30000007BF1CB8B21E9003E01D9D4C44A41CAD1C1E9885423FF705AE1E98022803DCA1
:203A500020990A46672004E01D9A911C121A2098921C1B9B19801C990A8021B0BDE8F08F69
:203A70002DE9F04FBF4C0546A07AADF1340DC00013F046FDDFF8F092089009F10400006835
:203A900080470B900AA9822004F0A4FEBDF82800002834D14FF000084FF6FF76ADF8288071
:203AB00024E0ADF81460BDF82800ADF81660FF210822ADF8100006A815F06DF9A77A57B1A0
:203AD00043461946089AC8007F1E01F10101135010448680F6D18DF82480D42004A903F0B2
:203AF00017F8BDF82800401CADF82800A088BDF828108842D5DC82200AA903F009F8B94FC0
:203B10000020A0464FF6FF79A2463988ADF8280006E0B44FBDF828003988401CADF82800AC
:203B3000BDF828008142DCBF8F48816840F34F81AD4800784FF0000B01265C460FE08A4935
:203B5000B8F804008968641CA4B2ACE0BAF80600641CA4B23CE0A448641CA4B20078A04288
:203B700008DC002ED5D1BBF1000F2ED1687F0028CFD02AE0BDF828008DF802406946ADF813
:203B90000000D02004F026FE0028E4D19DF80C30012B08D19DF80B0028B90DF1030014F0D4
:203BB0008BFC0028B5D16F7B002F0CBF052209225E469F42CFD10DF1030005F10E0114F05B
:203BD00081F80028C7D04FF0010BB8F806000024A0425CDDBDF82800ADF802406946ADF845
:203BF0000000D12004F0F6FD0028AFD1BDF804008145ABD0ADF8100004A9D42004F0EAFD0A
:203C100000285AD106A8291D082214F05BF800289CD028886F88ADF81400BBF1000FADF878
:203C3000167022D0287B98F80A708DF82400381C08BF00200FD00899024600208B88994592
:203C500009D0BDF828609E4205D0521E01F1080100F10100F2D187422FDD0899AA69C00020
:203C7000BDF828700A5040188780D42004A902F04FFFBBF1000F0AD0287F9DF8061088429C
:203C900005D08DF806006946D12002F041FFB8F80600A0427FF43DAF3349B8F80400DFF8E4
:203CB0004CA189680024A04240F38F80ADF81040D42004A904F08EFD18B12B49896819244E
:203CD00086E006AB184614F0F7FB38B9291D1846082213F0F7FF00283FF431AF6F882888CF
:203CF000ADF816702E7BADF8140098F80A708DF824603B1C08BF00200FD008991A460020D6
:203D10008B88994509D0BDF828609E4205D0521E01F1080100F10100F2D1874203DC1249B4
:203D300089681A2454E0089A2E1DBBF1000F0CBF0021A969C00011501218BDF828003146CB
:203D50009080082206A814F0C3FB9AF8800330B1DAF8D0231AB1BDF81010304690470026DB
:203D700006E0C046D01F0020041B0020761CB6B2B8F80600B04221DDBDF82800ADF8026075
:203D90006946ADF80000D12004F024FDE82803D0BDF804008145E9D1BDF810000023ADF810
:203DB00004002F7F8DF8073004A98DF80670D42002F0AEFED120694602F0AAFE0C488168D4
:203DD000B8F80400B0427FF7BEAEA042A9D000240B988847089813F0E5FD20460DB0BDE80D
:203DF000F08FC046D81F0020DB1F002008020020041B00202DE9F04F064692F808B0307D04
:203E100009AF8846ADF1240D04933528039205D0114606F170000A2214F05AFBDFF8C8C23B
:203E300038F07F0506BF604600884FF6FF700590F08A800934BF002008203076F08AC00864
:203E500034BF102080207076F08A400903D260460E30007800E00020B076F08A41082CBFE1
:203E700020240024000928BF44F010047568002108F07F08307D06916D1E02280EDB0C28FF
:203E900008DC0C2803D1022044F40854069044F0030404E00D280CBF02200120044396F8A3
:203EB0008C0008B144F00804E110220900D328B1DFF8BC9299F8243413B908B1DF204CE1E6
:203ED00049086ED306F12401DFF8A8A296F88D50079100EB0A011AF805300A7999183389D3
:203EF000491DCAB29918A44B1A8808908A42C0F2368100284CD0049A039906F184000AF0CE
:203F100015FC0799002808603FD0806AB0F1FF3F39D070680023401E8DB196F88E10524614
:203F300000F80119515D491EC9B241B18A1992F88320491EC9B2002900F80129F6D1079979
:203F500070660968896AB162090E00F8011996F82A1000F8011996F82910089A00F8011986
:203F700096F8281005F0030500F8011902F0070141EAC501017071683589091ACAB27060FA
:203F9000A918318105E0DB2700E0F3277770E7E00023F08A7370C00828BF44F010047568BB
:203FB0006D1E336DA3B9B36D93B999F83D14012903D13089B0F5EE7F06DA200904D2022949
:203FD0000AD144F4005401E044F48054012002E044F408540220069099F8020001280CD096
:203FF00099F8800348B196F86B00042805D1022024F48054069044F4005444EA8834B8F1E6
:20401000020FA4B20AD0B8F1030F10D1ED1F09F58661284614F07DFE6D1E08E0B9F8160497
:20403000001205F8010999F8160405F80109069802280CD0B8F1000F15D0BBF1000F0CD0CD
:2040500004990598814208D144F040040BE0BBF1000F08D1B8F1000F05D00599081205F841
:20407000010905F8011944EA8B24BBF1020FA4B209D0BBF1030F0ED10399ED1F284614F08F
:2040900048FE6D1E07E003990888001205F80109087805F80109BBF1000F05D0049801124D
:2040B00005F8011905F801093878F8B933480178307D0D2814D068B9306D28B999F8000483
:2040D000411C89F800140AE099F82504411C89F8251404E099F80E04411C89F80E14014655
:2040F00005F8011904E0C0461A06002044F48074201205F801092C7070683789401BC1B208
:20411000756078183081200926D3B06D00B1306299F8800310B1307D0D281DD1746A14F16F
:20413000150001D114F0E3FDA16A481CA0623289306AB162471B0092D21B019090B2029085
:20415000706A96F88C202B4615300AF01DFC00281CBF7070071C07D10020707005E0E527A3
:204170007770F32014F026F8F8B209B0BDE8F08F080200203C000000DE1F00201C3000209D
:204190002DE9F04FD54D286A416EADF11C0D02A888474FF00009D24FCDF80890B8688DF8AC
:2041B0000C90002833D112F0BBFCB8B112F0B8FC012813D012F0B4FC05280FD012F0B0FCD7
:2041D0000C280BD012F0ACFC0D2807D012F0A8FC0B2803D012F0A4FC0E280BD112F0A0FC0C
:2041F000787000280CBF48460120B870286A00F1200408B914F07BFD216807F118008847B1
:204210004FF4FA703885B74EFE6206243C63DFF8D882EA6998F83F444FF0010A494608017D
:2042300000EB41108018867F2EB9437F491C9C42C9B2F4D102E0417FA14204D1824202D079
:2042500012F032F8EA69DFF8A4B2686A1BC88BE81B0097F90100012805D00D2803D00E2892
:2042700018BF484600D105208BF8000098F86D145069A44C50F82100C4F89C0013F0CAFE0A
:20429000632005A911F04EF998F83F0412F0C0FC064694F88E006AF3020084F88E0011F034
:2042B00017FE042825D011F013FE032811D094F8900040F00F0084F8900094F8970069F3B4
:2042D000030084F89700B07B052814BF2420292016E094F8900040F00F0084F89000292357
:2042F00084F8943094F8970069F3030084F8970008E094F8900040F00F0084F89000212049
:2043100084F8940094F8950069F3871084F8950011F0DEFD042818D0B37A7BB99DF814005E
:2043300094F89510401E60F3050184F8951094F8960020F03F0040F0180014E09DF81410FE
:2043500094F8950061F3050005E094F8950020F03F0040F0020084F8950094F8960020F009
:204370003F0040F0200084F89600B189B07BB4F88E200A23401D484390FBF3F161F3CF0224
:20439000A4F88E20B08994F890201923800390FBF3F102F00F00D4F890200F23484390FB5B
:2043B000F3F161F31C22C4F89020E86994F89820017F61F3020284F8982094F89810007FB7
:2043D000C01060F3C30184F8981098F92E0410F087FDB0F1FF3F05D0010828BF4FF6FF7023
:2043F000A4F89A00308971683368EA69401E414303EB51004FF47A71B0FBF1F0A4F8A000E0
:2044100090690078A4F88290C4F8849094F88D3084F8A4006AF3030384F88D3014F096FB03
:20443000C8B9B089324A98F83F64B1FBF0F0C0B21070B1FBF0F02F49022E487006D011F0C2
:2044500047FD032807D105225C2001E00222A820294B1A700870BB682E6A5BB3484611F0C7
:204470000BF9F87898F83F14884212D13A7998F86D142E6AB8688A420DD102214A468DE8DA
:204490000600366D80344B4602AA2146B047EC601BE02E6AB8687168884718482B6A80F800
:2044B00000A01E68164880345946224607F11803B04707E0803422461148346807F1180398
:2044D0005946A047B860686AA86298F83F0498F86D64F87007B03E71BDE8F08FF81B0020F9
:2044F000B41D00205F24010008020020CC3000205C1F0020F41B0020D81E0020EE1F0020E4
:20451000082E0020901900202DE9F04FC54C07466068ADF1140D80470025DFF80C8303904D
:20453000002F88F8035000F0C68012F0ABFD08F53B702946402214F02EFCBC4C04F10800DD
:2045500001882C2707FB01F080B212F0D9FFC8F81003002800F06181E17A208948434100D3
:2045700001EBC00188B212F0CBFF0028C8F8140300F05381E18820894843800080B212F064
:20459000BFFF0028C8F8180300F047812089800080B212F0B5FF0028C8F81C0300F03D81CC
:2045B000208980B12A46D8F8101389180D75D8F8101389180D71D8F81013401E114402F1E0
:2045D0002C028D81EFD1A188880000EB011080B212F096FF0028C8F8200300F01E814FF67A
:2045F000FF7AA946AB4615E0A77A7FB12946D8F820038019C368CA0042F803B0C0687F1E6A
:2046100001F101011044A0F804A0F0D109F101001FFA80F9A088484500F3EE809748FF21A3
:204630000822C01D14F0B7FB9448FF21082288F8FB12103014F0AFFB032688F80C63278944
:20465000A8F80EA3C7B14FF0010C04232A46D8F81C03910001F800C0D8F81C03401843706B
:20467000D8F81C0340188670D8F81C037F1E02F101020844C370EAD18048012104230522F9
:204690000227343000F8041F437082707F1EC170F8D17A4880F83C60A08848B12946D8F8F0
:2046B0002023401E0A4401F11401A2F802A0F6D1022088F8F00298F8800318B1D8F884032A
:2046D00000B180470FF00AF998F92E0414F0BBF812F0EEFC14F01CF813F0A6FE13F098FE92
:2046F000534E072456F8040B00B18047641EF9D113F0CAFE444604F15400016809B110F0FC
:20471000DDFF4C48006884F85E5020B10DF02EFA002800906CD148480078012802D028462B
:2047300001F096F8454804F180060570D4F88000002855D1361DD4F88400002848D1C4F833
:2047500080503F48C4F89001C4F884503D4FC4F8947184F88A503C4EC4F8986184F88B50DC
:204770003A4BC4F89C31A570394AC4F8A02184F88C503849C4F8A4113B49C4F8C810364F1F
:20479000C4F8A871394FC4F8CC70344EC4F8AC61374E334BC4F8D0602249C4F8B031354BF2
:2047B000304AC4F8D4308968C4F8B421324A0398C4F8D820884704F21541522005F044F8A4
:2047D00094F82F0410F07AFA0FF088F8284626E0304611F0A1FD029002A810F06FFFAAE753
:2047F000304611F099FD019001A810F067FF9DE7684610F063FF89E7A37AD8F820734846EA
:20481000860006EB0016D80012F07AFEF119F319C860D86800287FF4E7AE14F068FA05B0E0
:20483000BDE8F08F041B002008020020D01F002018030020FC300020ED1F002006310020C2
:20485000E72D0100058D0100A9730100BD8E0000C9DB0000357C01007D66010009B800003D
:20487000B9A20000F16B0100330F010075A9000075300100D50C010089380100F4040020AD
:204890002DE9F843DFF828830F460446F80B80F07481DFF81893B80F80F02D81C54DB808F5
:2048B00080F02281F80A80F00081B80B80F0EE80780B80F0C080380C80F0AF803809C0F03A
:2048D0007F81082014F01EF9002840F0A180802014F018F9002840F09B8068460CF02AF818
:2048F000012803D10098002800F0928000240125E0B213F0D1FE48B1867A3EB1857290F9D3
:20491000090005FA00F0C0B211F02EFE641C032CEED34C46032020756068783014F00BFABD
:20493000AB48002601680660AA4950F8082CB146324640F8089C04F1380014F00CFA304618
:2049500013F0E0F813F06CFE0146A268E069891A090BC1F1FF3282422CBF08444FF0FF3062
:20497000E06194F820601EB12169B0EBC12F1FD913F028F9494600B12946081C14D0964845
:2049900040F60901018049464180427B65F303024273027B61F303020273416013F0D0FF69
:2049B000418811F4406FFBD084F820504946E16111F09EF989484D4649460560022012F0CE
:2049D00093FE022011F0B6FD11200AF0E5FA207818B96068403014F0C6F98148007810B9E8
:2049F0000E200AF0D9FA94F8210020B184F82150052011F09FFD7B48B4F98C60A061B4F975
:204A10008E1025758E4214BF022007200DF0F2F827F008070FF088F8D2E00835296839B16C
:204A3000C86840880028FBD0C86840880128F7D027F40047EEE711F0E3FB38B12046A46921
:204A50006FF4807100224FF00073A04768494C46002204F1380014F07EF90220E668207525
:204A700013F0DEFDD4F81C21636804F58E719A4214BF0122002226B1801B01EB8206030B94
:204A9000B360002027F48057E060C3E74046066846B1B06830B13069B6F93410B468002249
:204AB0002023A04727F400578AE014F04EF94C460546206F064688B1606810B1783014F06F
:204AD0003AF93069606013F0ABFDE06046484FF40061A06104F1B40014F04DF9284614F0B7
:204AF0001DFA27F480676BE005F0E0FF286808B927F0020764E014F028F90546042012F023
:204B1000CFF9C8B1207CB8B148460830006898B1064613F085FDE168801BE060000B8842FE
:204B3000E06002D240184008E06040F6C41181422CBFB0F5967FE160284614F0EFF911F062
:204B50005FFB80B1A56920466FF4807100224FF00073A84725480068002808BF47F002072B
:204B700001D00EF0E1FF2046646900214FF080630A46A04727F0005722E014F0E6F84146F0
:204B90000E68CEB1B16A890816D2B56AB16AA943B16214F0C3F9B06880B17DB13069B6F9C4
:204BB0003410B4682A460023A04707E060270020E8270020D827002014F0B0F927F48047A0
:204BD00027B1404639462C3014F0D5F8BDE8F8831410044071400100A43000200000046029
:204BF000FE1F002071D70000E5B60000D0270020FDB00000B0B50446BA480768ADF1480DAE
:204C1000002F00F0A8812078401E112800F2A381DFE810F06A015201380123011B010401F4
:204C3000F100E300C300B2008D005D0053004200A1012A001C001200F86B002800F08B811B
:204C5000684621460CF06CFDF96B82E1386C002800F081816846002101220DF0BFFB6078C4
:204C70008DF80000396C74E1F86A002800F07381684600210E220DF0B1FBA11C684613F021
:204C9000A3FBA57BA1890022ADF80A1005B101228DF80C20F96A5DE1B86B002800F05B81F9
:204CB0006846002102220DF099FBA5788DF8015060788DF80000B96B4BE1786B002800F0C5
:204CD0004A81684621460CF02BFD796B41E1386B08B36846002114220DF080FBA5788DF83D
:204CF0000150A3680193A289ADF80820A17B8DF80A1060788DF80000E57B8DF80B50237CC5
:204D10008DF80C3094F911208DF80D2061690491396B684688476068002800F01C8101460E
:204D3000F22008700020487010F088FF13E1B86A002800F010816846002124220DF04EFB60
:204D50006078A11C8DF800000DF1020013F03CFB04F10C0103A813F037FB257EE08A04F10B
:204D700019018DF818500B22ADF816000DF119000BF062FCB96AECE0786A002800F0EB8070
:204D90006846002102220DF029FBA5788DF8015060788DF80000796ADBE0386A002800F047
:204DB000DA806846002112220DF018FB658862796078ADF8025023798DF80520E11D8DF816
:204DD0000000A5798DF804300B220DF107008DF806500BF031FC396ABBE0F869002800F000
:204DF000BA806846002101220DF0F8FA60788DF80000F969ADE0B86910B120460FF078FD80
:204E1000A07820B9A069002800F0A58003E0A069002800F0A08012F0D5FD9CE078690028CE
:204E300000F099806846002113220DF0D7FA6D46A01C0168406829600B22686004F10A0189
:204E500002A80BF0F9FB796983E03869002800F0828020460AF096FD7DE0F86800287AD087
:204E7000684600210E220DF0B9FA6078A11C8DF800000DF1020013F0A7FAA089ADF80C00DB
:204E9000F96866E0B868002865D06846002114220DF0A4FAA01C01686D462960406868606D
:204EB000A07A0B2204F10B018DF808000DF109000BF0C2FBB9684CE0786800284BD0684630
:204ED000002110220DF08AFA60786588211D8DF800000B22ADF8025001A80BF0ADFB796815
:204EF00037E0C046C41F00203868A0B36846002119220DF073FAA01C01686D462960406812
:204F10006860A07A410824BF01218DF80810810824BF01218DF80910C10824BF01218DF835
:204F30000A10010924BF01218DF80B10C10924BF01218DF80C1030F07F001CBF01208DF808
:204F50000D000B220DF10E0004F10B010BF074FB39686846884712B0B0BD7047BA482DE974
:204F7000F84F0025B94CB749056094F8E200002800F06381012800F02F81B54E02283CD0DF
:204F9000032840F05A8151F8250CD4F8B8100029A0F5C060C4F8D400B8BF49420028B8BFAE
:204FB0004042814226DA4FF08057D7F8A4014568B4F8BC0030214FF47F4208230090304677
:204FD000A847D7F8A4014568B4F8C00004214FF4F802122300903046A847D7F8A401B4F899
:204FF000D070456820214FF440620A2330460097A847012584F8D8501AE151F8258C13F0A3
:2050100057FD2F4600B901273946924F38680028FCD0B146012609F10409D9F82CA03E6082
:2050300009B113F04BFDCAF30720C4F8BC0013F03FFDAA4600B9B2463B68002BFCD0D9F8B4
:2050500000B0BAF1000F3E6001D013F037FDCBF38440C4F8C00013F02BFDAA4600B9B24666
:205070003B68002BFCD0D9F81C90BAF1000F3E6001D013F023FDC9F38120C4F8D000B8F527
:20509000C061C4F8B81000F09C8094F8D80068B9C4F8D410D4F8C000C4F8C800D4F8BC7022
:2050B000C4F8C470D4F8D030C4F8CC30D4F8D400D4F8BC30002854BF02226FF0010204F15E
:2050D000C8010F6800EB40008018421000EB927207EBA2000860D4F8C810C4F8C430002903
:2050F0001CDD1E293CDDD4F8CC0030B93429B4BF15391E21C4F8C81025E02A29BABFD4F838
:20511000C8000B381E20C4F8C800D4F8C4003F28B4BF401C3F20C4F8C4001FE0D4F8CC0076
:20513000032812D011F10B0FC6BFD4F8C8000B30301CC4F8C800D4F8C4000028C4BF401E79
:20515000051CC4F8C450032508E011F1150FC6BFD4F8C8001530301CC4F8C800C4F8CC5012
:205170004FF08057D7F8A401B4F8C43030214FF47F424568364800930823A847D7F8A40154
:2051900004214FF400321123456831480096A847B4F8C860D7F8A40104214FF4F8021223A7
:2051B00045682B480096A847D7F8A40120214FF440620A23B4F8CC60456825480096A847FC
:2051D00001E084F8D85040F2FF50404502D8801C40452DD208202EE051F8251C1E4F4BF2D0
:2051F000F5204843060A3868C0F3814001280AD112F046F810F05EFD13F066FC3111C010C5
:20521000484306EBE03694F8E50030B91348006820F07F403618760801E084F8E55010484A
:20523000310C0660012741600E4D8760287808B90B2000E0052084F8E40004F03DFABDE8EF
:20525000F88FC0462D400C402C500C407817002000A00C4000800C40B43F0050102009400D
:205270003C600C40C10B00002DE9F04F09AFADF13C0D08900A92388809911E46ADF81800C7
:20529000101C08BF002000F06C81017800274FF0010B401C4FF0FF39B846DA460A9058E15F
:2052B000252940F04D810178401C0A902D2918BFADF8068004D10178ADF806B0401C0A902C
:2052D00030291CBF4246434604D10178401C5A465B460A902A29CDF800804D4617D104934A
:2052F00030680A9BCDF80890C01C20F00300001D306050F8044C1978002C009403F101008A
:205310000A9018D5ADF806A06442009413E044460AE0600000EBC4004018A0F130040A983C
:2053300001780094401C0A90302901DB3A29F0DBCDF8089004932E2929D10178401C2A298A
:205350000A9011D13168CDF80880C91C21F00301091D316051F8045C002D48BF4546017849
:205370002B46401C0A9011E0454643460AE0680000EBC5004018A0F130050A9801782B4605
:20539000401C0A90302901DB3A29F0DB02930AB1224604926C2904D04C2918BFADF8048078
:2053B00004D10178ADF804A0401C0A900BA8CDF80C800FAB07906429059379D0692977D0B4
:2053D000BDF818C0752965D0782961D06F295DD0702946D0632936D073291AD00A98401EFF
:2053F0000A900998012812D961490C68B5F1FF3F03D0A84288BF6D1C00D8099D029508A8FA
:205410000AA932466B46A0473F18039865E0454617E03068C01C20F00300001D306050F884
:20543000040CBCF1010F014608B94FA00146079113F0B4F90390B5F1FF3F4FD0A8424DD963
:20545000039528464AE03068C01C20F00300001D306010F8040C8DF82C005D460395584636
:205470003CE0082035680490E81C20F00300001D306050F8041C082210230FA80DF0ACFCC2
:20549000401E079040210170079823E0082302E0102300E00A233068C01C20F00300001DA2
:2054B000306050F8041CAA42BCBF2A1C04920DE03068C01C20F00300001D306050F8041C18
:2054D000AA42BCBF2A1C04926FF009030FA80DF083FC07900599081A0390009C241ABDF862
:2054F000065000945DB906E008A8202109AA11F062FE7F1C009C641E0094F5D50398401EA1
:20551000B0F1FF3F03900FD1BDF8060001281CD10098401E009018D408A8202109AA11F041
:205530004AFE00987F1CF4E70798017809AA08A811F041FE0798401C079003987F1CDEE7BD
:2055500008A809AA11F037FE7F1C0A980178401C0A9000297FF4A4AE089808B141460170B7
:2055700038460FB0BDE8F08F286E756C6C2900C0880C00002DE9F04FA64D824605F1200034
:205590000068416EADF12C0D03A88847AF4C201D0768002F00F036814FF0000B388979682A
:2055B0009B4DCDF81CB0C600097828781036890906D340F6485191FBF0F1761806F5AF76E0
:2055D0003D7D70438600352D0CBF5F464FF4FA570DF12601E8200FF0A5FF9DF826000328AC
:2055F00008BF44F620676068007DF619352803D1D4F8E403804746430220894F8DF82000EC
:2056100007F108000068069606A908F019F9D8468048824D804980F800800120087029780D
:20563000012901D000F014F960680589466812F029FB3088000935D394F8807361688FB3E5
:205650004B6A4F6E986AB0F1FF3F25D027B3421C9A628862030E07F80139606890F82A0010
:2056700007F80109606890F8290007F80109606890F8280038706268106A00950190801B6A
:20569000281A80B20290916A506A92F88C203346153009F079F900E0DB20D4F8C4730028DA
:2056B00040F0A680294630460CF01CFA642009A90FF038FF5B4894F88013007831B994F871
:2056D0002F0409F08BFA012805D08DE009F086FA012840F08980DFF85091A81C87B20DF110
:2056F000250109F170000780E9200FF01BFF9DF82500012805D13D46C5F3022040F0180003
:2057100005E02D1DADB2C5F3022040F0080006F8010D06F8015D4D469DF82400A5F86280A6
:205730000028EE670CBF41484148CDF80CB002238DF8103005F12806A6F8028005F16009F1
:20575000C5F8B8003B4FC9F8180095F8350020F00F0040F0030085F8350078688047DFF81D
:20577000D8800A90BAF1010F1DD0BAF1040F1AD0BAF1000F14D0BAF1050F0ED0BAF1030FDF
:2057900008D194F83F0411F043FAC07B022818BF4E460AE005F1600607E0DFF8A08004E03B
:2057B00005F1440601E005F128061A48006A1C4B046D594602208DE80300986803AA314693
:2057D0004346A0471E490880B96800280AD41D4A92F900000F4F6035401C10700A98FD6073
:2057F000884711E00A9888471A200CF085FB0BE0002F08BFE420F8D0134880F80080E420AE
:20581000B84701E013F073FA0BB0BDE8F08FC0465C1F0020F81B0020E31F0020ED1F002027
:20583000B41D0020F71B0020901900204E9055550E7A5555041B0020D5A60000F5DF000024
:20585000181E0020EA1F00200B310020080200202DE9F04F9E4C05466068ADF11C0D804753
:20587000A34EDFF898B2012D069000F0D58012F0F3FD002800F0CB8096480078A0B996481B
:20589000007888B99548007870B99548007858B99448007840B99448007828B99348007886
:2058B000002808BF012700D00027306A002F00F13C0000F0AC80994C00682578804761683E
:2058D000DFF83492E368AA00401AB0FBF2F7A0684FF00008B24642469F42144672EB0401CC
:2058F00001DA984205D8414687428A4140DA034600E0414618462A46EB17C01B71EB080111
:2059100012F0FEFD272607464FF47A7200238846ADF80A600820ADF8080038460DF024FA43
:205930006B49496A039002A88847049823464FF0000100F6FC02BF1A78EB0308784271EB4E
:20595000080112DA6B480268414638460DF00CFA884607464FF00001784271EB080104DAC5
:2059700038460FF0B1FF002000E001204C4620704C46207800284AD1002738460CF058FE43
:2059900000B101270026381C3FD15D46287800283BD1DAF820005A4C436CA068022102AAFF
:2059B00098479DF8080080B3DFF85881DAF82020A06898F90010374611F1020F18BF01272E
:2059D0004FF0010937B1926B98F900109047DAF82020A0684C4F97F9001011F1020F03D0D6
:2059F000926B97F9001090476FF00100387088F8000085F80090304612F0CAFFDAF820005B
:205A1000C169A06888478AF801603B480670304906988968884757E001200CF009FE214600
:205A30000698896888475D46DFF8ECA02878012838D1012012F0ACFF11F07AFE58BB204660
:205A500040688047002402278346DFF8C090306AA9F80240416E2F7002A8884702948DF82B
:205A70000C70306A2E4A2A4BD0F850C0A0468DE880011068494602AAE0471549896800280E
:205A900019D4244A4F4692F90000F760401C10705846884706E02878012803D100202870A0
:205AB00012F0E6FC11F044FE70B92878022804D15046007808B113F01AF9504600780128D3
:205AD00002D028780228FCD007B0BDE8F08FC046041B002007310020093100200B31002020
:205AF00008310020E21F0020E31F0020E41F0020F81B0020041E00200A310020EE1F0020DA
:205B1000B41D0020E01F0020E11F002090190020894F0100EA1F0020ED1F00205C1F0020B3
:205B3000BC1D00202DE9F04FAC4C07460020ADF13C0DDFF8A482ADF80C00201D0068894699
:205B5000017D252900F00281703005A903F052FB002818BFC0B240F03B8101A804A90CF0B9
:205B700057FE10F0B5F9042814BF41F2081543F2C82504A901A80CF04BFE98F82B2201998F
:205B90003B684FF47A7A504650430AFB1100C01A8542C0F2D880D8F80422521A0AFB02F1D7
:205BB000C91A8D4200F3CF808542A34609DD002807DD95FBFAF04FF4916100B201FB0030B2
:205BD00038609DF81F00002857D042F204000DF136010FF013F911F035FF0699441A42F23C
:205BF00006000DF135010FF009F99DF835009DF81D10FF2804BF0A208DF83500FF2908BF11
:205C10000A219DF835609DF81C507548B4FBF0F2701884B25646A81054437043A04298BF3B
:205C3000041C41F20810241805A811F0B8FC9DF81C103D68B0FBF1F24A43821A714392B236
:205C500072438B1A891A5B1B491B8C4201D9002908D56142994212D2002B10D5B4FBF6F1A7
:205C700009B203E06100B1FBF6F189B23A684FF4916303FB01253D6001E03D6800200646BB
:205C90000DF1120102A80CF0C3FD0298D8F804120024B5FBFAF280180290814203D998F8E4
:205CB0002B32834202D998F898712FBB9DF81C00B6180004B04298BF361A9DF81F0000285C
:205CD00008BF9DF8200024D09DF81C00B6FBF0F085B2BDF833000EF001FF9DF831200146B8
:205CF00028460FF0B7FB054611F046FC024608A928460FF05BF80CE0814204D8BDF81200DC
:205D1000401CADF81200BDF8120098F89B110CF013FF89F8000088F8F501DBF80400007D04
:205D3000052811D19BF8150470B999F8000003A9ADF80C0042F20C0003F08EF9BDF80C0006
:205D5000A8F8F00100E06524204641E010F0C0F8042814BF41F2081543F2C82521480078A8
:205D70004FF47A7404FB00F13868491BA1F5FA62824206D2A1F57A61B0FBF1F24A43801A3A
:205D9000386068460DF10E010CF042FD3868009998F82B2204FB010154430091611A8D42DC
:205DB00011DCA4F5FA648C42BCBF00F5FA60386098F89B11B8F878010CF0BEFE014600203B
:205DD00089F8001002E099F80010652088F8F5110FB0BDE8F08FC046DC1300200802002072
:205DF000A0860100071600202DE9F04F00289A461446ADF1340D00F0F48011F47C1F40F065
:205E1000ED8011F00F0F00F0EC8007460591002006900B900A904FF0000909904D460895AB
:205E30004FF0010BCDF810B0054648460790059805990BEA000021EA0B014FEA4B0B401EDE
:205E5000059100F0AB80401E70D0801E5DD0001F40F0BE8042F205000DF10E010EF0CEFF7A
:205E70009DF80E60002E00F0B3801CB1276694F86B0006900720152607F8010B022301A99B
:205E900007F8016B42F2010007F8013B0EF0B6FF684603A90CF0BCFC06980DF0B5FD0146C2
:205EB000019A00983E4640180090824206D8801ABDF80C300090581CADF80C00009B50085E
:205ED0004946804609041804030C194300044B4610EB080041EB09010AF0D8FF0090BDF8E5
:205EF0000C309DF80C009DF800209DF8011006F8010B181206F8010B9DF8023006F8012B2B
:205F10009DF803200935BF1D42E00220152607F8010B042307F8016BBAF1000F07F8013B8E
:205F30000CBF09989AF800002D1D4EE01CB1E76594F86B00069005201526049B07F8010B2B
:205F50000DF10F0107F8016B42F2040007F8013B0EF054FF02A80FF057FC06980DF054FD0C
:205F700002999DF80F609DF80F30069AED1D4018000200EB6600B0FBF3F03E4602903F1D49
:205F900006F8012B9DF808109DF809309DF80A2006F8011B06F8013B327018E00320152641
:205FB00007F8010BBAF1000F07F8016B034607F8013B04BF0B9807F8010B05D09AF8000045
:205FD00007F8010B9AF801006D1D07F8010BADB2059800287FF42BAF2E4661E011F00F0F39
:205FF00001D000205DE080468A4602264FF4803908F1020509EA0A002AEA090A4FEA4909FA
:20601000B0F580301AD0B0F5803014D0B0F500300ED0B0F5802009D0B0F5002004D0B0F5E9
:2060300080102AD1072404E0062402E0052400E00424002704E00224012701E001242746AD
:20605000A81C214600F030F847B104F00F04C0F30A0141EAC42141F4004105E004F07F044E
:2060700000F0FF0141EA042105F8011B0912871929702D18B81C6D1C86B2BAF1000FB9D145
:20609000022ED8BF00260BDDB01E4FF6FE7708F8010BF019C0F3022040F0A00088F8000059
:2060B00030460DB0BDE8F08FF0B504460846ADF16C0D401E70D0401E0DD0801E00F0098134
:2060D000401E00F0EF80401E00F0E180401E00F0AD80002042E142F2010007A90EF08EFE17
:2060F00042F20B0008A90EF089FE42F206000DF165010EF083FE42F207000DF166010EF060
:206110007DFE42F2050019A90EF078FE04A809F0C9FF06460DF1670142F209000EF06EFEBF
:206130009DF86700002808BF002503D0022010F0A1FE0546204607A9042212F0C9F9241D1F
:2061500008A90222204612F0C3F9A71C9DF864009DF865309DF866109DF8674007F8010BFE
:206170009DF8672007F8013B2B4607F8011B610706F0070444EA916005F0030404AD40EACD
:206190008410314607F8010B012400953846019406F09AF90A309AE042F206000DF1650131
:2061B0000EF02CFE42F207000DF166010EF026FE42F2040019A90EF021FE04A809F072FFB8
:2061D00005460DF1670142F208000EF017FE9DF86700002808BF002303D0012010F04AFE65
:2061F00003469DF864009DF8657004F8010B9DF8666004F8017B9DF867209DF86770790700
:2062100004F8016B03F0030705F0070646EA916004AE40EA8710294604F8010B002700963F
:206230002046019706F050F9001D50E042F2150011A90EF0E3FD13AF42F2160039460EF05A
:20625000DDFD15AD42F2170029460EF0D7FD17AE42F2180031460EF0D1FD204611A9082268
:2062700012F036F9083408222046394612F030F904F1080708223846294612F029F90822FE
:2062900007F10800314612F023F9202066E042F214000DF122010EF0B1FDBDF822100220B5
:2062B0000A1258E009A80021202212F074FD42F2130009A90EF0A2FD09A812F06EFD0246F7
:2062D00009A9204612F004F909A812F066FD80B244E042F20E0002A90EF090FD0DF10A01AA
:2062F00042F20F000EF08AFD0DF10B0142F20A000EF084FD03A942F210000EF07FFD0DF197
:206310000D0142F211000EF079FD0DF10E0142F212000EF073FDBDF808009DF80B209DF8D3
:206330000C709DF80D609DF80E509DF80A1004F8010B02F00102001204F8010B07F001001E
:2063500042EA400206F0010042EA800205F0070042EA4012042004F8011B22701BB0F0BD5A
:206370002DE9F04FAA4C04F128000068ADF11C0D0FF08AFA08B111F07BFDA048DFF878B2D8
:20639000DFF89082DFF87CA200689F4D059011F0CBF811F027FBE769A669B7F57A7F13D058
:2063B000801B4FF47A720023A7FB00010AF06EFD81464FF47A72002312F0A2F83A46002380
:2063D0000AF064FD301801E0A0EB0609A061DBF8000020F00200CBF8000068688047DAF87D
:2063F0000010DAF804204E468919B1F57A7F0DD34FF47A73B1FBF3F3D218CAF804204FF4FD
:206410007A731F46B1FBF7F25A43891ACAF80010A9688847686800968047D8F804108919E0
:20643000C8F80410A9688847D8F8000000285AD007464FF00009686880470490BDF80200FF
:20645000002690B99DF8010078B99DF800003979884204DD0098796888420AD20BE09DF865
:2064700000103879401A387108E000987968884201D3314601E07968091A7960B88878B9A3
:20649000FB8853B9FB6843B13B8933B1B87A194609F014FDF8687860B88808B9FB880BB14B
:2064B0003B896BB9B9F1000F04BF3868C8F8000003D03868C9F8000038683E46074601E082
:2064D000B9463F68A9680498884756B1B3882BB9F3881BB9B07A318909F0F0FC304611F0D5
:2064F00061FA002FA7D1DBF8000040F00200CBF80000E06828B3804723E016F8060C21692B
:20651000A6F10C07032819D0E16A9DF806000978884210D116F8080C10F0DAFBB979012948
:2065300003D0022908BFB07000E03070002031460DF07AFC05E011F09BFC02E009B130464D
:20655000884708200727ADF80000696AADF8027068468847029E0028CFD029480068008832
:20657000C8B1686880472649096800220E880A80A9688847059A0020314620709047064610
:20659000FF202070686880471D4909680A8816430E80A968884710F0C7FF0746B7F1FF3F7C
:2065B0001CD0686807B9194F216AB94238BF0F1C80471C230646626AADF802300820ADF87D
:2065D0000000696A019268468847A16A3846491CA1620FF051FBA9683046884708200A27DD
:2065F000ADF800004FF0FF36ADF80270696A019668468847CBE6C04610E000E0640C00007D
:20661000FC30002008200020041B00208EC2F528E81D0020E43000202DE9FE4F0546287D7E
:20663000012807D195F917000EF05AFCB0F1FF3F00F016819548EF7B017895481FB990F8ED
:206650008B208A4208DB012F03D190F88A208A4202DBF120BDE8FE8F80462E6A95F835008E
:20667000B5F8289095F83470AC8B4FF0000A5FEA060B029017D098F88033002B2FD0D8F8E4
:20669000981300292BD006F0FF008847D8F8981306B20BF47F008847361830B2001D00B2D8
:2066B000C83086B200E0C8260CB1241DA4B298F82404012809D147B1764802993F1897F886
:2066D00004A0405C8019401D86B209EB040080195044801C80B211F085F8071C02D11A209B
:2066F000BDE8FE8F09EB0A0033193881002C03EB070078600EBF0020B819801C0021782247
:20671000C7F8A40007F10C0012F045FB09EB0600FF2110220019A7F84C0007F13C0012F03A
:206730003AFB07F12C000F21102212F034FB00243C707C707868696A2A8D11F0C9FE07F177
:20675000840005F12C010B2211F0C2FE07F19000294611F015FD6889A7F89A00287B87F83E
:206770009C00687B05F10E0687F89D00326869460A60706848609DF800102046012908BF35
:2067900001209DF80110012908BF40F004009DF80210012908BF40F008009DF8031001295B
:2067B00008BF40F010009DF80410012908BF40F020009DF80510012908BF40F040009DF838
:2067D0000610012908BF40F080009DF80710012908BF40F48070A7F89E00A87D87F8A000B0
:2067F000E87D87F8A10095F8380087F86C00AA8BA7F8A82022B1D7F8A400A96911F068FEF9
:20681000A87F87F8AA00286AC7F8AC00B7F8A800C0B1D7F8A400A8B17868401E7860F82158
:2068300001707868401E78600470B7F8A810B7F8A8607868401A786038898019801C38816E
:206850007868B865B7F89E00410A16D395F83710052905DB00F0040100F00100084302D0C5
:20687000E820BDE8FE8F08F1900630460BF0C4FA95F83710304611F005FC98F800003946B5
:206890000DF0D2FA2046BDE8FE8FC046D01F0020080200203C0000002DE9F04142F204008D
:2068B000ADF1280D0DF123010EF0A8FA42F205000DF122010EF0A2FA42F2010069460EF05D
:2068D0009DFA8B4C8B489DF82310C4F8A80164204143C4F8A0118849C4F8C4119DF822109C
:2068F0004843C4F8BC018548854EC4F8E001B07888B342F203000DF106010EF07FFA10F031
:206910003BFE05460DF1060029460DF0E7FC2D1A9DF8220084F89B5170B1009860B104F567
:20693000DC700EF08BF804F5BA7009F01FFF012084F8940184F8980142F202000DF10601BE
:206950000EF05CFA0DF1060011F00CF804F5CE700EF074F811E042F202000DF106010EF0FF
:206970004DFA0DF1060010F0FDFF04F5CE700EF065F804F5BA700DF0E7FA96F83F0410F05C
:2069900047F9C07B022804BF012084F8F40194F8F801002840F0A88004F128000021382250
:2069B00012F0F9F90026A681E08900EB800080B2804610F0A5FD04F12805074627610FB959
:2069D00012F0BDF938463146424612F0E4F94D484D4FE06305F1080067630EF02FF842F2FE
:2069F0001B0001A90EF00AFABDF8040001A9A4F84C0042F21C000EF001FABDF8040001A9C9
:206A1000A4F84E0042F21D000EF0F8F9BDF8040009A920835D200EF085FD9DF82400002850
:206A30000CBF301C012084F85C00B4F84C0038B100EB401080B210F063FD0028606551D07A
:206A5000B4F84E0040B1410001EB800188B210F057FD0028A06543D0208B38B1C00080B239
:206A700010F04EFD606108B912F069F927490DF11A00082211F02CFD01273546208BA842C1
:206A900023DCB4F84C50668355B1606D4FF6FF720146A0F81F206D1E8E7701F12100F7D1A4
:206AB000B4F84E504DB1A06D4FF6FF71024681806D1ED67002F10600F8D1201D3146062204
